{
  "_format": "hh-sol-artifact-1",
  "contractName": "ValorWar",
  "sourceName": "contracts/ValorWar.sol",
  "abi": [
    {
      "inputs": [
        {
          "internalType": "string",
          "name": "name_",
          "type": "string"
        },
        {
          "internalType": "string",
          "name": "symbol_",
          "type": "string"
        }
      ],
      "stateMutability": "nonpayable",
      "type": "constructor"
    },
    {
      "inputs": [],
      "name": "AccessControlBadConfirmation",
      "type": "error"
    },
    {
      "inputs": [
        {
          "internalType": "address",
          "name": "account",
          "type": "address"
        },
        {
          "internalType": "bytes32",
          "name": "neededRole",
          "type": "bytes32"
        }
      ],
      "name": "AccessControlUnauthorizedAccount",
      "type": "error"
    },
    {
      "anonymous": false,
      "inputs": [
        {
          "indexed": true,
          "internalType": "uint256",
          "name": "tokenId",
          "type": "uint256"
        }
      ],
      "name": "AllChildrenRejected",
      "type": "event"
    },
    {
      "anonymous": false,
      "inputs": [
        {
          "indexed": true,
          "internalType": "address",
          "name": "owner",
          "type": "address"
        },
        {
          "indexed": true,
          "internalType": "address",
          "name": "approved",
          "type": "address"
        },
        {
          "indexed": true,
          "internalType": "uint256",
          "name": "tokenId",
          "type": "uint256"
        }
      ],
      "name": "Approval",
      "type": "event"
    },
    {
      "anonymous": false,
      "inputs": [
        {
          "indexed": true,
          "internalType": "address",
          "name": "owner",
          "type": "address"
        },
        {
          "indexed": true,
          "internalType": "address",
          "name": "operator",
          "type": "address"
        },
        {
          "indexed": false,
          "internalType": "bool",
          "name": "approved",
          "type": "bool"
        }
      ],
      "name": "ApprovalForAll",
      "type": "event"
    },
    {
      "anonymous": false,
      "inputs": [
        {
          "indexed": false,
          "internalType": "uint256",
          "name": "_fromTokenId",
          "type": "uint256"
        },
        {
          "indexed": false,
          "internalType": "uint256",
          "name": "_toTokenId",
          "type": "uint256"
        }
      ],
      "name": "BatchMetadataUpdate",
      "type": "event"
    },
    {
      "anonymous": false,
      "inputs": [
        {
          "indexed": true,
          "internalType": "uint256",
          "name": "tokenId",
          "type": "uint256"
        },
        {
          "indexed": false,
          "internalType": "uint256",
          "name": "childIndex",
          "type": "uint256"
        },
        {
          "indexed": true,
          "internalType": "address",
          "name": "childAddress",
          "type": "address"
        },
        {
          "indexed": true,
          "internalType": "uint256",
          "name": "childId",
          "type": "uint256"
        }
      ],
      "name": "ChildAccepted",
      "type": "event"
    },
    {
      "anonymous": false,
      "inputs": [
        {
          "indexed": true,
          "internalType": "uint256",
          "name": "tokenId",
          "type": "uint256"
        },
        {
          "indexed": false,
          "internalType": "uint256",
          "name": "childIndex",
          "type": "uint256"
        },
        {
          "indexed": true,
          "internalType": "address",
          "name": "childAddress",
          "type": "address"
        },
        {
          "indexed": true,
          "internalType": "uint256",
          "name": "childId",
          "type": "uint256"
        }
      ],
      "name": "ChildProposed",
      "type": "event"
    },
    {
      "anonymous": false,
      "inputs": [
        {
          "indexed": true,
          "internalType": "uint256",
          "name": "tokenId",
          "type": "uint256"
        },
        {
          "indexed": false,
          "internalType": "uint256",
          "name": "childIndex",
          "type": "uint256"
        },
        {
          "indexed": true,
          "internalType": "address",
          "name": "childAddress",
          "type": "address"
        },
        {
          "indexed": true,
          "internalType": "uint256",
          "name": "childId",
          "type": "uint256"
        },
        {
          "indexed": false,
          "internalType": "bool",
          "name": "fromPending",
          "type": "bool"
        },
        {
          "indexed": false,
          "internalType": "bool",
          "name": "toZero",
          "type": "bool"
        }
      ],
      "name": "ChildTransferred",
      "type": "event"
    },
    {
      "anonymous": false,
      "inputs": [
        {
          "indexed": true,
          "internalType": "uint256",
          "name": "warriorId",
          "type": "uint256"
        },
        {
          "indexed": true,
          "internalType": "address",
          "name": "from",
          "type": "address"
        }
      ],
      "name": "DestroyWarrior",
      "type": "event"
    },
    {
      "anonymous": false,
      "inputs": [
        {
          "indexed": false,
          "internalType": "uint256",
          "name": "_tokenId",
          "type": "uint256"
        }
      ],
      "name": "MetadataUpdate",
      "type": "event"
    },
    {
      "anonymous": false,
      "inputs": [
        {
          "indexed": true,
          "internalType": "address",
          "name": "from",
          "type": "address"
        },
        {
          "indexed": true,
          "internalType": "address",
          "name": "to",
          "type": "address"
        },
        {
          "indexed": false,
          "internalType": "uint256",
          "name": "fromTokenId",
          "type": "uint256"
        },
        {
          "indexed": false,
          "internalType": "uint256",
          "name": "toTokenId",
          "type": "uint256"
        },
        {
          "indexed": true,
          "internalType": "uint256",
          "name": "tokenId",
          "type": "uint256"
        }
      ],
      "name": "NestTransfer",
      "type": "event"
    },
    {
      "anonymous": false,
      "inputs": [
        {
          "indexed": true,
          "internalType": "address",
          "name": "from",
          "type": "address"
        },
        {
          "indexed": true,
          "internalType": "address",
          "name": "to",
          "type": "address"
        },
        {
          "indexed": false,
          "internalType": "uint256",
          "name": "fromTokenId",
          "type": "uint256"
        },
        {
          "indexed": false,
          "internalType": "uint256",
          "name": "toTokenId",
          "type": "uint256"
        },
        {
          "indexed": true,
          "internalType": "uint256",
          "name": "tokenId",
          "type": "uint256"
        }
      ],
      "name": "NestedWarriorTransfer",
      "type": "event"
    },
    {
      "anonymous": false,
      "inputs": [
        {
          "indexed": true,
          "internalType": "bytes32",
          "name": "role",
          "type": "bytes32"
        },
        {
          "indexed": true,
          "internalType": "bytes32",
          "name": "previousAdminRole",
          "type": "bytes32"
        },
        {
          "indexed": true,
          "internalType": "bytes32",
          "name": "newAdminRole",
          "type": "bytes32"
        }
      ],
      "name": "RoleAdminChanged",
      "type": "event"
    },
    {
      "anonymous": false,
      "inputs": [
        {
          "indexed": true,
          "internalType": "bytes32",
          "name": "role",
          "type": "bytes32"
        },
        {
          "indexed": true,
          "internalType": "address",
          "name": "account",
          "type": "address"
        },
        {
          "indexed": true,
          "internalType": "address",
          "name": "sender",
          "type": "address"
        }
      ],
      "name": "RoleGranted",
      "type": "event"
    },
    {
      "anonymous": false,
      "inputs": [
        {
          "indexed": true,
          "internalType": "bytes32",
          "name": "role",
          "type": "bytes32"
        },
        {
          "indexed": true,
          "internalType": "address",
          "name": "account",
          "type": "address"
        },
        {
          "indexed": true,
          "internalType": "address",
          "name": "sender",
          "type": "address"
        }
      ],
      "name": "RoleRevoked",
      "type": "event"
    },
    {
      "anonymous": false,
      "inputs": [
        {
          "indexed": true,
          "internalType": "uint256",
          "name": "warriorId",
          "type": "uint256"
        },
        {
          "indexed": true,
          "internalType": "address",
          "name": "to",
          "type": "address"
        }
      ],
      "name": "SpawnWarrior",
      "type": "event"
    },
    {
      "anonymous": false,
      "inputs": [
        {
          "indexed": true,
          "internalType": "address",
          "name": "from",
          "type": "address"
        },
        {
          "indexed": true,
          "internalType": "address",
          "name": "to",
          "type": "address"
        },
        {
          "indexed": true,
          "internalType": "uint256",
          "name": "tokenId",
          "type": "uint256"
        }
      ],
      "name": "Transfer",
      "type": "event"
    },
    {
      "anonymous": false,
      "inputs": [
        {
          "indexed": true,
          "internalType": "address",
          "name": "from",
          "type": "address"
        },
        {
          "indexed": true,
          "internalType": "address",
          "name": "to",
          "type": "address"
        },
        {
          "indexed": true,
          "internalType": "uint256",
          "name": "warriorId",
          "type": "uint256"
        }
      ],
      "name": "WarriorTransfer",
      "type": "event"
    },
    {
      "inputs": [],
      "name": "DEFAULT_ADMIN_ROLE",
      "outputs": [
        {
          "internalType": "bytes32",
          "name": "",
          "type": "bytes32"
        }
      ],
      "stateMutability": "view",
      "type": "function"
    },
    {
      "inputs": [],
      "name": "MAX_ARMOR_TO_CHECK",
      "outputs": [
        {
          "internalType": "uint256",
          "name": "",
          "type": "uint256"
        }
      ],
      "stateMutability": "view",
      "type": "function"
    },
    {
      "inputs": [],
      "name": "OPERATOR_ROLE",
      "outputs": [
        {
          "internalType": "bytes32",
          "name": "",
          "type": "bytes32"
        }
      ],
      "stateMutability": "view",
      "type": "function"
    },
    {
      "inputs": [
        {
          "internalType": "uint256",
          "name": "parentId",
          "type": "uint256"
        },
        {
          "internalType": "uint256",
          "name": "childIndex",
          "type": "uint256"
        },
        {
          "internalType": "address",
          "name": "childAddress",
          "type": "address"
        },
        {
          "internalType": "uint256",
          "name": "childId",
          "type": "uint256"
        }
      ],
      "name": "acceptChild",
      "outputs": [],
      "stateMutability": "nonpayable",
      "type": "function"
    },
    {
      "inputs": [
        {
          "internalType": "uint256",
          "name": "parentId",
          "type": "uint256"
        },
        {
          "internalType": "uint256",
          "name": "childId",
          "type": "uint256"
        },
        {
          "internalType": "bytes",
          "name": "data",
          "type": "bytes"
        }
      ],
      "name": "addChild",
      "outputs": [],
      "stateMutability": "nonpayable",
      "type": "function"
    },
    {
      "inputs": [
        {
          "internalType": "address",
          "name": "to",
          "type": "address"
        },
        {
          "internalType": "uint256",
          "name": "tokenId",
          "type": "uint256"
        }
      ],
      "name": "approve",
      "outputs": [],
      "stateMutability": "nonpayable",
      "type": "function"
    },
    {
      "inputs": [
        {
          "internalType": "address",
          "name": "owner",
          "type": "address"
        }
      ],
      "name": "balanceOf",
      "outputs": [
        {
          "internalType": "uint256",
          "name": "balance",
          "type": "uint256"
        }
      ],
      "stateMutability": "view",
      "type": "function"
    },
    {
      "inputs": [
        {
          "internalType": "uint256",
          "name": "tokenId",
          "type": "uint256"
        }
      ],
      "name": "burn",
      "outputs": [],
      "stateMutability": "nonpayable",
      "type": "function"
    },
    {
      "inputs": [
        {
          "internalType": "uint256",
          "name": "tokenId",
          "type": "uint256"
        },
        {
          "internalType": "uint256",
          "name": "maxChildrenBurns",
          "type": "uint256"
        }
      ],
      "name": "burn",
      "outputs": [
        {
          "internalType": "uint256",
          "name": "burnedChildren",
          "type": "uint256"
        }
      ],
      "stateMutability": "nonpayable",
      "type": "function"
    },
    {
      "inputs": [
        {
          "internalType": "uint256",
          "name": "parentId",
          "type": "uint256"
        },
        {
          "internalType": "uint256",
          "name": "index",
          "type": "uint256"
        }
      ],
      "name": "childOf",
      "outputs": [
        {
          "components": [
            {
              "internalType": "uint256",
              "name": "tokenId",
              "type": "uint256"
            },
            {
              "internalType": "address",
              "name": "contractAddress",
              "type": "address"
            }
          ],
          "internalType": "struct IERC7401.Child",
          "name": "child",
          "type": "tuple"
        }
      ],
      "stateMutability": "view",
      "type": "function"
    },
    {
      "inputs": [
        {
          "internalType": "uint256",
          "name": "parentId",
          "type": "uint256"
        }
      ],
      "name": "childrenOf",
      "outputs": [
        {
          "components": [
            {
              "internalType": "uint256",
              "name": "tokenId",
              "type": "uint256"
            },
            {
              "internalType": "address",
              "name": "contractAddress",
              "type": "address"
            }
          ],
          "internalType": "struct IERC7401.Child[]",
          "name": "children",
          "type": "tuple[]"
        }
      ],
      "stateMutability": "view",
      "type": "function"
    },
    {
      "inputs": [
        {
          "internalType": "uint256",
          "name": "warriorId",
          "type": "uint256"
        }
      ],
      "name": "destroyWarrior",
      "outputs": [],
      "stateMutability": "nonpayable",
      "type": "function"
    },
    {
      "inputs": [
        {
          "internalType": "uint256",
          "name": "tokenId",
          "type": "uint256"
        }
      ],
      "name": "directOwnerOf",
      "outputs": [
        {
          "internalType": "address",
          "name": "owner_",
          "type": "address"
        },
        {
          "internalType": "uint256",
          "name": "parentId",
          "type": "uint256"
        },
        {
          "internalType": "bool",
          "name": "isNFT",
          "type": "bool"
        }
      ],
      "stateMutability": "view",
      "type": "function"
    },
    {
      "inputs": [
        {
          "internalType": "uint256",
          "name": "tokenId",
          "type": "uint256"
        }
      ],
      "name": "getApproved",
      "outputs": [
        {
          "internalType": "address",
          "name": "approved",
          "type": "address"
        }
      ],
      "stateMutability": "view",
      "type": "function"
    },
    {
      "inputs": [
        {
          "internalType": "bytes32",
          "name": "role",
          "type": "bytes32"
        }
      ],
      "name": "getRoleAdmin",
      "outputs": [
        {
          "internalType": "bytes32",
          "name": "",
          "type": "bytes32"
        }
      ],
      "stateMutability": "view",
      "type": "function"
    },
    {
      "inputs": [
        {
          "internalType": "bytes32",
          "name": "role",
          "type": "bytes32"
        },
        {
          "internalType": "address",
          "name": "account",
          "type": "address"
        }
      ],
      "name": "grantRole",
      "outputs": [],
      "stateMutability": "nonpayable",
      "type": "function"
    },
    {
      "inputs": [
        {
          "internalType": "bytes32",
          "name": "role",
          "type": "bytes32"
        },
        {
          "internalType": "address",
          "name": "account",
          "type": "address"
        }
      ],
      "name": "hasRole",
      "outputs": [
        {
          "internalType": "bool",
          "name": "",
          "type": "bool"
        }
      ],
      "stateMutability": "view",
      "type": "function"
    },
    {
      "inputs": [
        {
          "internalType": "address",
          "name": "owner",
          "type": "address"
        },
        {
          "internalType": "address",
          "name": "operator",
          "type": "address"
        }
      ],
      "name": "isApprovedForAll",
      "outputs": [
        {
          "internalType": "bool",
          "name": "isApproved",
          "type": "bool"
        }
      ],
      "stateMutability": "view",
      "type": "function"
    },
    {
      "inputs": [],
      "name": "name",
      "outputs": [
        {
          "internalType": "string",
          "name": "",
          "type": "string"
        }
      ],
      "stateMutability": "view",
      "type": "function"
    },
    {
      "inputs": [
        {
          "internalType": "address",
          "name": "from",
          "type": "address"
        },
        {
          "internalType": "address",
          "name": "to",
          "type": "address"
        },
        {
          "internalType": "uint256",
          "name": "tokenId",
          "type": "uint256"
        },
        {
          "internalType": "uint256",
          "name": "destinationId",
          "type": "uint256"
        },
        {
          "internalType": "bytes",
          "name": "data",
          "type": "bytes"
        }
      ],
      "name": "nestTransferFrom",
      "outputs": [],
      "stateMutability": "nonpayable",
      "type": "function"
    },
    {
      "inputs": [
        {
          "internalType": "uint256",
          "name": "tokenId",
          "type": "uint256"
        }
      ],
      "name": "ownerOf",
      "outputs": [
        {
          "internalType": "address",
          "name": "owner_",
          "type": "address"
        }
      ],
      "stateMutability": "view",
      "type": "function"
    },
    {
      "inputs": [
        {
          "internalType": "uint256",
          "name": "parentId",
          "type": "uint256"
        },
        {
          "internalType": "uint256",
          "name": "index",
          "type": "uint256"
        }
      ],
      "name": "pendingChildOf",
      "outputs": [
        {
          "components": [
            {
              "internalType": "uint256",
              "name": "tokenId",
              "type": "uint256"
            },
            {
              "internalType": "address",
              "name": "contractAddress",
              "type": "address"
            }
          ],
          "internalType": "struct IERC7401.Child",
          "name": "child",
          "type": "tuple"
        }
      ],
      "stateMutability": "view",
      "type": "function"
    },
    {
      "inputs": [
        {
          "internalType": "uint256",
          "name": "parentId",
          "type": "uint256"
        }
      ],
      "name": "pendingChildrenOf",
      "outputs": [
        {
          "components": [
            {
              "internalType": "uint256",
              "name": "tokenId",
              "type": "uint256"
            },
            {
              "internalType": "address",
              "name": "contractAddress",
              "type": "address"
            }
          ],
          "internalType": "struct IERC7401.Child[]",
          "name": "children",
          "type": "tuple[]"
        }
      ],
      "stateMutability": "view",
      "type": "function"
    },
    {
      "inputs": [
        {
          "internalType": "uint256",
          "name": "tokenId",
          "type": "uint256"
        },
        {
          "internalType": "uint256",
          "name": "maxRejections",
          "type": "uint256"
        }
      ],
      "name": "rejectAllChildren",
      "outputs": [],
      "stateMutability": "nonpayable",
      "type": "function"
    },
    {
      "inputs": [
        {
          "internalType": "bytes32",
          "name": "role",
          "type": "bytes32"
        },
        {
          "internalType": "address",
          "name": "callerConfirmation",
          "type": "address"
        }
      ],
      "name": "renounceRole",
      "outputs": [],
      "stateMutability": "nonpayable",
      "type": "function"
    },
    {
      "inputs": [
        {
          "internalType": "bytes32",
          "name": "role",
          "type": "bytes32"
        },
        {
          "internalType": "address",
          "name": "account",
          "type": "address"
        }
      ],
      "name": "revokeRole",
      "outputs": [],
      "stateMutability": "nonpayable",
      "type": "function"
    },
    {
      "inputs": [
        {
          "internalType": "address",
          "name": "from",
          "type": "address"
        },
        {
          "internalType": "address",
          "name": "to",
          "type": "address"
        },
        {
          "internalType": "uint256",
          "name": "tokenId",
          "type": "uint256"
        }
      ],
      "name": "safeTransferFrom",
      "outputs": [],
      "stateMutability": "nonpayable",
      "type": "function"
    },
    {
      "inputs": [
        {
          "internalType": "address",
          "name": "from",
          "type": "address"
        },
        {
          "internalType": "address",
          "name": "to",
          "type": "address"
        },
        {
          "internalType": "uint256",
          "name": "tokenId",
          "type": "uint256"
        },
        {
          "internalType": "bytes",
          "name": "data",
          "type": "bytes"
        }
      ],
      "name": "safeTransferFrom",
      "outputs": [],
      "stateMutability": "nonpayable",
      "type": "function"
    },
    {
      "inputs": [
        {
          "internalType": "address",
          "name": "operator",
          "type": "address"
        },
        {
          "internalType": "bool",
          "name": "approved",
          "type": "bool"
        }
      ],
      "name": "setApprovalForAll",
      "outputs": [],
      "stateMutability": "nonpayable",
      "type": "function"
    },
    {
      "inputs": [
        {
          "internalType": "uint256",
          "name": "warriorId",
          "type": "uint256"
        },
        {
          "internalType": "string",
          "name": "_tokenURI",
          "type": "string"
        }
      ],
      "name": "setWarriorURI",
      "outputs": [],
      "stateMutability": "nonpayable",
      "type": "function"
    },
    {
      "inputs": [
        {
          "internalType": "address",
          "name": "to",
          "type": "address"
        },
        {
          "internalType": "string",
          "name": "_warriorURI",
          "type": "string"
        }
      ],
      "name": "spawnWarrior",
      "outputs": [],
      "stateMutability": "nonpayable",
      "type": "function"
    },
    {
      "inputs": [
        {
          "internalType": "bytes4",
          "name": "interfaceId",
          "type": "bytes4"
        }
      ],
      "name": "supportsInterface",
      "outputs": [
        {
          "internalType": "bool",
          "name": "",
          "type": "bool"
        }
      ],
      "stateMutability": "view",
      "type": "function"
    },
    {
      "inputs": [],
      "name": "symbol",
      "outputs": [
        {
          "internalType": "string",
          "name": "",
          "type": "string"
        }
      ],
      "stateMutability": "view",
      "type": "function"
    },
    {
      "inputs": [
        {
          "internalType": "uint256",
          "name": "tokenId",
          "type": "uint256"
        }
      ],
      "name": "tokenURI",
      "outputs": [
        {
          "internalType": "string",
          "name": "",
          "type": "string"
        }
      ],
      "stateMutability": "view",
      "type": "function"
    },
    {
      "inputs": [
        {
          "internalType": "uint256",
          "name": "tokenId",
          "type": "uint256"
        },
        {
          "internalType": "address",
          "name": "to",
          "type": "address"
        },
        {
          "internalType": "uint256",
          "name": "destinationId",
          "type": "uint256"
        },
        {
          "internalType": "uint256",
          "name": "childIndex",
          "type": "uint256"
        },
        {
          "internalType": "address",
          "name": "childAddress",
          "type": "address"
        },
        {
          "internalType": "uint256",
          "name": "childId",
          "type": "uint256"
        },
        {
          "internalType": "bool",
          "name": "isPending",
          "type": "bool"
        },
        {
          "internalType": "bytes",
          "name": "data",
          "type": "bytes"
        }
      ],
      "name": "transferArmor",
      "outputs": [],
      "stateMutability": "nonpayable",
      "type": "function"
    },
    {
      "inputs": [
        {
          "internalType": "uint256",
          "name": "tokenId",
          "type": "uint256"
        },
        {
          "internalType": "address",
          "name": "to",
          "type": "address"
        },
        {
          "internalType": "uint256",
          "name": "destinationId",
          "type": "uint256"
        },
        {
          "internalType": "uint256",
          "name": "childIndex",
          "type": "uint256"
        },
        {
          "internalType": "address",
          "name": "childAddress",
          "type": "address"
        },
        {
          "internalType": "uint256",
          "name": "childId",
          "type": "uint256"
        },
        {
          "internalType": "bool",
          "name": "isPending",
          "type": "bool"
        },
        {
          "internalType": "bytes",
          "name": "data",
          "type": "bytes"
        }
      ],
      "name": "transferChild",
      "outputs": [],
      "stateMutability": "nonpayable",
      "type": "function"
    },
    {
      "inputs": [
        {
          "internalType": "address",
          "name": "from",
          "type": "address"
        },
        {
          "internalType": "address",
          "name": "to",
          "type": "address"
        },
        {
          "internalType": "uint256",
          "name": "tokenId",
          "type": "uint256"
        }
      ],
      "name": "transferFrom",
      "outputs": [],
      "stateMutability": "nonpayable",
      "type": "function"
    },
    {
      "inputs": [
        {
          "internalType": "uint256",
          "name": "warriorId",
          "type": "uint256"
        }
      ],
      "name": "warriorURI",
      "outputs": [
        {
          "internalType": "string",
          "name": "",
          "type": "string"
        }
      ],
      "stateMutability": "view",
      "type": "function"
    }
  ],
  "bytecode": "0x60806040523480156200001157600080fd5b5060405162006f2d38038062006f2d833981810160405281019062000037919062000a60565b816009908162000048919062000d30565b5080600a90816200005a919062000d30565b50620000706000801b33620000bc60201b60201c565b50620000a37f97667070c54ef182b0f5858b034beac1b6f3089aa2d3188bb1e8929f4fa9b92933620000bc60201b60201c565b50620000b4620001bf60201b60201c565b5050620010e3565b6000620000d08383620002a160201b60201c565b620001b457600160008085815260200190815260200160002060000160008473ffffffffffffffffffffffffffffffffffffffff1673ffffffffffffffffffffffffffffffffffffffff16815260200190815260200160002060006101000a81548160ff021916908315150217905550620001506200030b60201b60201c565b73ffffffffffffffffffffffffffffffffffffffff168273ffffffffffffffffffffffffffffffffffffffff16847f2f8788117e7eff1d82e926ec794901d17c78024a50270940304540a733656f0d60405160405180910390a460019050620001b9565b600090505b92915050565b620001f733600b60008154620001d59062000e46565b919050819055604051806020016040528060008152506200031360201b60201c565b6200022f33600b600081546200020d9062000e46565b919050819055604051806020016040528060008152506200031360201b60201c565b6200026733600b60008154620002459062000e46565b919050819055604051806020016040528060008152506200031360201b60201c565b6200029f33600b600081546200027d9062000e46565b919050819055604051806020016040528060008152506200031360201b60201c565b565b600080600084815260200190815260200160002060000160008373ffffffffffffffffffffffffffffffffffffffff1673ffffffffffffffffffffffffffffffffffffffff16815260200190815260200160002060009054906101000a900460ff16905092915050565b600033905090565b6200032883836000846200042160201b60201c565b818373ffffffffffffffffffffffffffffffffffffffff16600073ffffffffffffffffffffffffffffffffffffffff167fddf252ad1be2c89b69c2b068fc378daa952ba7f163c4a11628f55a4df523b3ef60405160405180910390a4818373ffffffffffffffffffffffffffffffffffffffff16600073ffffffffffffffffffffffffffffffffffffffff167f04444026cefd1b05506559cab59d1b865ae3ba4ed2fe5c894f04e522776c552d600080604051620003e892919062000ed6565b60405180910390a462000404600084846200064960201b60201c565b6200041c6000846000808686620007bc60201b60201c565b505050565b600073ffffffffffffffffffffffffffffffffffffffff168473ffffffffffffffffffffffffffffffffffffffff160362000493576040517f08c379a00000000000000000000000000000000000000000000000000000000081526004016200048a9062000f64565b60405180910390fd5b620004a4836200084460201b60201c565b15620004e7576040517f08c379a0000000000000000000000000000000000000000000000000000000008152600401620004de9062000fd6565b60405180910390fd5b600083036200052d576040517f08c379a0000000000000000000000000000000000000000000000000000000008152600401620005249062001048565b60405180910390fd5b6200054160008585620008b360201b60201c565b620005596000856000858786620008b860201b60201c565b60018060008673ffffffffffffffffffffffffffffffffffffffff1673ffffffffffffffffffffffffffffffffffffffff1681526020019081526020016000206000828254620005aa91906200106a565b9250508190555060405180604001604052808381526020018573ffffffffffffffffffffffffffffffffffffffff16815250600460008581526020019081526020016000206000820151816000015560208201518160010160006101000a81548173ffffffffffffffffffffffffffffffffffffffff021916908373ffffffffffffffffffffffffffffffffffffffff16021790555090505050505050565b6200065c838383620008c060201b60201c565b600073ffffffffffffffffffffffffffffffffffffffff168373ffffffffffffffffffffffffffffffffffffffff1603620006db578173ffffffffffffffffffffffffffffffffffffffff16817f9376ff5c430e6f351747dc0a0bfbae3e74fd0a458af8108ad1efe73d0c4a9ccc60405160405180910390a3620007b7565b600073ffffffffffffffffffffffffffffffffffffffff168273ffffffffffffffffffffffffffffffffffffffff16036200075a578273ffffffffffffffffffffffffffffffffffffffff16817f9f94284156c9ebd138cba8d5f33e4e0411d113103e2e75f46e309e335fe454b460405160405180910390a3620007b6565b808273ffffffffffffffffffffffffffffffffffffffff168473ffffffffffffffffffffffffffffffffffffffff167fa5782d765c00d302aa51afc829f9e5ef58241f0c4cab080f45d277aa37d0fe5d60405160405180910390a45b5b505050565b620007d2868686868686620008c560201b60201c565b818573ffffffffffffffffffffffffffffffffffffffff168773ffffffffffffffffffffffffffffffffffffffff167f61d0ac94213d71515b808bdba953bd5834e3f9c1cdb4e1973b46f3d7215e9dbd878760405162000834929190620010b6565b60405180910390a4505050505050565b60008073ffffffffffffffffffffffffffffffffffffffff166004600084815260200190815260200160002060010160009054906101000a900473ffffffffffffffffffffffffffffffffffffffff1673ffffffffffffffffffffffffffffffffffffffff1614159050919050565b505050565b505050505050565b505050565b505050505050565b6000604051905090565b600080fd5b600080fd5b600080fd5b600080fd5b6000601f19601f8301169050919050565b7f4e487b7100000000000000000000000000000000000000000000000000000000600052604160045260246000fd5b6200093682620008eb565b810181811067ffffffffffffffff82111715620009585762000957620008fc565b5b80604052505050565b60006200096d620008cd565b90506200097b82826200092b565b919050565b600067ffffffffffffffff8211156200099e576200099d620008fc565b5b620009a982620008eb565b9050602081019050919050565b60005b83811015620009d6578082015181840152602081019050620009b9565b60008484015250505050565b6000620009f9620009f38462000980565b62000961565b90508281526020810184848401111562000a185762000a17620008e6565b5b62000a25848285620009b6565b509392505050565b600082601f83011262000a455762000a44620008e1565b5b815162000a57848260208601620009e2565b91505092915050565b6000806040838503121562000a7a5762000a79620008d7565b5b600083015167ffffffffffffffff81111562000a9b5762000a9a620008dc565b5b62000aa98582860162000a2d565b925050602083015167ffffffffffffffff81111562000acd5762000acc620008dc565b5b62000adb8582860162000a2d565b9150509250929050565b600081519050919050565b7f4e487b7100000000000000000000000000000000000000000000000000000000600052602260045260246000fd5b6000600282049050600182168062000b3857607f821691505b60208210810362000b4e5762000b4d62000af0565b5b50919050565b60008190508160005260206000209050919050565b60006020601f8301049050919050565b600082821b905092915050565b60006008830262000bb87fffffffffffffffffffffffffffffffffffffffffffffffffffffffffffffffff8262000b79565b62000bc4868362000b79565b95508019841693508086168417925050509392505050565b6000819050919050565b6000819050919050565b600062000c1162000c0b62000c058462000bdc565b62000be6565b62000bdc565b9050919050565b6000819050919050565b62000c2d8362000bf0565b62000c4562000c3c8262000c18565b84845462000b86565b825550505050565b600090565b62000c5c62000c4d565b62000c6981848462000c22565b505050565b5b8181101562000c915762000c8560008262000c52565b60018101905062000c6f565b5050565b601f82111562000ce05762000caa8162000b54565b62000cb58462000b69565b8101602085101562000cc5578190505b62000cdd62000cd48562000b69565b83018262000c6e565b50505b505050565b600082821c905092915050565b600062000d056000198460080262000ce5565b1980831691505092915050565b600062000d20838362000cf2565b9150826002028217905092915050565b62000d3b8262000ae5565b67ffffffffffffffff81111562000d575762000d56620008fc565b5b62000d63825462000b1f565b62000d7082828562000c95565b600060209050601f83116001811462000da8576000841562000d93578287015190505b62000d9f858262000d12565b86555062000e0f565b601f19841662000db88662000b54565b60005b8281101562000de25784890151825560018201915060208501945060208101905062000dbb565b8683101562000e02578489015162000dfe601f89168262000cf2565b8355505b6001600288020188555050505b505050505050565b7f4e487b7100000000000000000000000000000000000000000000000000000000600052601160045260246000fd5b600062000e538262000bdc565b91507fffffffffffffffffffffffffffffffffffffffffffffffffffffffffffffffff820362000e885762000e8762000e17565b5b600182019050919050565b6000819050919050565b600062000ebe62000eb862000eb28462000e93565b62000be6565b62000bdc565b9050919050565b62000ed08162000e9d565b82525050565b600060408201905062000eed600083018562000ec5565b62000efc602083018462000ec5565b9392505050565b600082825260208201905092915050565b7f4552433732314d696e74546f5468655a65726f41646472657373282900000000600082015250565b600062000f4c601c8362000f03565b915062000f598262000f14565b602082019050919050565b6000602082019050818103600083015262000f7f8162000f3d565b9050919050565b7f455243373231546f6b656e416c72656164794d696e7465642829000000000000600082015250565b600062000fbe601a8362000f03565b915062000fcb8262000f86565b602082019050919050565b6000602082019050818103600083015262000ff18162000faf565b9050919050565b7f49645a65726f466f7262696464656e2829000000000000000000000000000000600082015250565b60006200103060118362000f03565b91506200103d8262000ff8565b602082019050919050565b60006020820190508181036000830152620010638162001021565b9050919050565b6000620010778262000bdc565b9150620010848362000bdc565b92508282019050808211156200109f576200109e62000e17565b5b92915050565b620010b08162000bdc565b82525050565b6000604082019050620010cd6000830185620010a5565b620010dc6020830184620010a5565b9392505050565b615e3a80620010f36000396000f3fe608060405234801561001057600080fd5b50600436106102325760003560e01c80636f19951c11610130578063b88d4fde116100b8578063e97ceaa81161007c578063e97ceaa8146106dd578063e985e9c5146106f9578063edded88314610729578063f5b541a614610747578063fb25fb7a1461076557610232565b8063b88d4fde14610629578063c87b56dd14610645578063d547741f14610675578063defa80c314610691578063e179ece4146106ad57610232565b806397961336116100ff5780639796133614610573578063a217fddf1461058f578063a22cb465146105ad578063a898e364146105c9578063b390c0ab146105f957610232565b80636f19951c146104c557806370a08231146104f557806391d148541461052557806395d89b411461055557610232565b80632f32f937116101be578063597545031161018257806359754503146104255780635ef5bbd714610441578063613b35431461045d5780636352211e14610479578063635490cc146104a957610232565b80632f32f9371461037157806336568abe146103a157806342842e0e146103bd57806342966c68146103d957806344ec9344146103f557610232565b8063095ea7b311610205578063095ea7b3146102d15780630e6ace11146102ed57806323b872dd14610309578063248a9ca3146103255780632f2ff15d1461035557610232565b806301ffc9a714610237578063064c0a3a1461026757806306fdde0314610283578063081812fc146102a1575b600080fd5b610251600480360381019061024c9190613e8d565b610797565b60405161025e9190613ed5565b60405180910390f35b610281600480360381019061027c91906140ca565b6107a9565b005b61028b6107c8565b60405161029891906141e0565b60405180910390f35b6102bb60048036038101906102b69190614202565b61085a565b6040516102c8919061423e565b60405180910390f35b6102eb60048036038101906102e69190614259565b6108e5565b005b610307600480360381019061030291906142c5565b610a00565b005b610323600480360381019061031e9190614397565b610a1a565b005b61033f600480360381019061033a9190614420565b610a45565b60405161034c919061445c565b60405180910390f35b61036f600480360381019061036a9190614477565b610a64565b005b61038b600480360381019061038691906144b7565b610a86565b6040516103989190614544565b60405180910390f35b6103bb60048036038101906103b69190614477565b610b7f565b005b6103d760048036038101906103d29190614397565b610bfa565b005b6103f360048036038101906103ee9190614202565b610c1a565b005b61040f600480360381019061040a9190614202565b610c29565b60405161041c919061463d565b60405180910390f35b61043f600480360381019061043a9190614202565b610cfb565b005b61045b60048036038101906104569190614700565b610d2e565b005b6104776004803603810190610472919061475c565b610d70565b005b610493600480360381019061048e9190614202565b610ddd565b6040516104a0919061423e565b60405180910390f35b6104c360048036038101906104be91906147b8565b610def565b005b6104df60048036038101906104da9190614202565b610fe4565b6040516104ec919061463d565b60405180910390f35b61050f600480360381019061050a9190614827565b6110b6565b60405161051c9190614863565b60405180910390f35b61053f600480360381019061053a9190614477565b61116d565b60405161054c9190613ed5565b60405180910390f35b61055d6111d7565b60405161056a91906141e0565b60405180910390f35b61058d600480360381019061058891906144b7565b611269565b005b610597611282565b6040516105a4919061445c565b60405180910390f35b6105c760048036038101906105c2919061487e565b611289565b005b6105e360048036038101906105de91906144b7565b611409565b6040516105f09190614544565b60405180910390f35b610613600480360381019061060e91906144b7565b611502565b6040516106209190614863565b60405180910390f35b610643600480360381019061063e91906148be565b611521565b005b61065f600480360381019061065a9190614202565b61153e565b60405161066c91906141e0565b60405180910390f35b61068f600480360381019061068a9190614477565b611550565b005b6106ab60048036038101906106a691906142c5565b611572565b005b6106c760048036038101906106c29190614202565b611597565b6040516106d491906141e0565b60405180910390f35b6106f760048036038101906106f29190614941565b6115a9565b005b610713600480360381019061070e91906149a8565b6115c6565b6040516107209190613ed5565b60405180910390f35b61073161165a565b60405161073e9190614863565b60405180910390f35b61074f61165f565b60405161075c919061445c565b60405180910390f35b61077f600480360381019061077a9190614202565b611683565b60405161078e939291906149e8565b60405180910390f35b60006107a28261179d565b9050919050565b826107b3816117fe565b6107c08686868686611851565b505050505050565b6060600980546107d790614a4e565b80601f016020809104026020016040519081016040528092919081815260200182805461080390614a4e565b80156108505780601f1061082557610100808354040283529160200191610850565b820191906000526020600020905b81548152906001019060200180831161083357829003601f168201915b5050505050905090565b600061086582611a45565b60026000838152602001908152602001600020600061088384610ddd565b73ffffffffffffffffffffffffffffffffffffffff1673ffffffffffffffffffffffffffffffffffffffff16815260200190815260200160002060009054906101000a900473ffffffffffffffffffffffffffffffffffffffff169050919050565b60006108f082610ddd565b90508073ffffffffffffffffffffffffffffffffffffffff168373ffffffffffffffffffffffffffffffffffffffff1603610960576040517f08c379a000000000000000000000000000000000000000000000000000000000815260040161095790614acb565b60405180910390fd5b8073ffffffffffffffffffffffffffffffffffffffff1661097f611a90565b73ffffffffffffffffffffffffffffffffffffffff16141580156109b157506109af816109aa611a90565b6115c6565b155b156109f1576040517f08c379a00000000000000000000000000000000000000000000000000000000081526004016109e890614b5d565b60405180910390fd5b6109fb8383611a98565b505050565b610a108888888888888888611572565b5050505050505050565b80610a24816117fe565b610a3f84848460405180602001604052806000815250611b94565b50505050565b6000806000838152602001908152602001600020600101549050919050565b610a6d82610a45565b610a7681611e3a565b610a808383611e4e565b50505050565b610a8e613d87565b81610a9884610fe4565b5111610ad9576040517f08c379a0000000000000000000000000000000000000000000000000000000008152600401610ad090614bc9565b60405180910390fd5b600560008481526020019081526020016000208281548110610afe57610afd614be9565b5b9060005260206000209060020201604051806040016040529081600082015481526020016001820160009054906101000a900473ffffffffffffffffffffffffffffffffffffffff1673ffffffffffffffffffffffffffffffffffffffff1673ffffffffffffffffffffffffffffffffffffffff1681525050905092915050565b610b87611a90565b73ffffffffffffffffffffffffffffffffffffffff168173ffffffffffffffffffffffffffffffffffffffff1614610beb576040517f6697b23200000000000000000000000000000000000000000000000000000000815260040160405180910390fd5b610bf58282611f3f565b505050565b610c1583838360405180602001604052806000815250611521565b505050565b610c25816000611502565b5050565b606060066000838152602001908152602001600020805480602002602001604051908101604052809291908181526020016000905b82821015610cf05783829060005260206000209060020201604051806040016040529081600082015481526020016001820160009054906101000a900473ffffffffffffffffffffffffffffffffffffffff1673ffffffffffffffffffffffffffffffffffffffff1673ffffffffffffffffffffffffffffffffffffffff168152505081526020019060010190610c5e565b505050509050919050565b6000610d0682610fe4565b9050600081519050610d288360648311610d205782610d23565b60645b611502565b50505050565b7f97667070c54ef182b0f5858b034beac1b6f3089aa2d3188bb1e8929f4fa9b929610d5881611e3a565b610d6183611a45565b610d6b8383612031565b505050565b7f97667070c54ef182b0f5858b034beac1b6f3089aa2d3188bb1e8929f4fa9b929610d9a81611e3a565b6000600b60008154610dab90614c47565b9190508190559050610dcd84826040518060200160405280600081525061208d565b610dd78184610d2e565b50505050565b6000610de882612181565b9050919050565b610df883611a45565b6000610e02611a90565b905060008173ffffffffffffffffffffffffffffffffffffffff163b03610e5e576040517f08c379a0000000000000000000000000000000000000000000000000000000008152600401610e5590614cdb565b60405180910390fd5b600060405180604001604052808581526020018373ffffffffffffffffffffffffffffffffffffffff168152509050610e9985838686612224565b6000610ea486610c29565b5190506080811015610f4557600660008781526020019081526020016000208290806001815401808255809150506001900390600052602060002090600202016000909190919091506000820151816000015560208201518160010160006101000a81548173ffffffffffffffffffffffffffffffffffffffff021916908373ffffffffffffffffffffffffffffffffffffffff1602179055505050610f80565b6040517f08c379a0000000000000000000000000000000000000000000000000000000008152600401610f7790614d47565b60405180910390fd5b848373ffffffffffffffffffffffffffffffffffffffff16877fe65085e689b77b126ba0bac3b079aa8288f19f4d5445af11c76003f8ab3075dd84604051610fc89190614863565b60405180910390a4610fdc8684878761222a565b505050505050565b606060056000838152602001908152602001600020805480602002602001604051908101604052809291908181526020016000905b828210156110ab5783829060005260206000209060020201604051806040016040529081600082015481526020016001820160009054906101000a900473ffffffffffffffffffffffffffffffffffffffff1673ffffffffffffffffffffffffffffffffffffffff1673ffffffffffffffffffffffffffffffffffffffff168152505081526020019060010190611019565b505050509050919050565b60008073ffffffffffffffffffffffffffffffffffffffff168273ffffffffffffffffffffffffffffffffffffffff1603611126576040517f08c379a000000000000000000000000000000000000000000000000000000000815260040161111d90614dd9565b60405180910390fd5b600160008373ffffffffffffffffffffffffffffffffffffffff1673ffffffffffffffffffffffffffffffffffffffff168152602001908152602001600020549050919050565b600080600084815260200190815260200160002060000160008373ffffffffffffffffffffffffffffffffffffffff1673ffffffffffffffffffffffffffffffffffffffff16815260200190815260200160002060009054906101000a900460ff16905092915050565b6060600a80546111e690614a4e565b80601f016020809104026020016040519081016040528092919081815260200182805461121290614a4e565b801561125f5780601f106112345761010080835404028352916020019161125f565b820191906000526020600020905b81548152906001019060200180831161124257829003601f168201915b5050505050905090565b8161127381612230565b61127d8383612283565b505050565b6000801b81565b8173ffffffffffffffffffffffffffffffffffffffff166112a8611a90565b73ffffffffffffffffffffffffffffffffffffffff16036112fe576040517f08c379a00000000000000000000000000000000000000000000000000000000081526004016112f590614e45565b60405180910390fd5b806003600061130b611a90565b73ffffffffffffffffffffffffffffffffffffffff1673ffffffffffffffffffffffffffffffffffffffff16815260200190815260200160002060008473ffffffffffffffffffffffffffffffffffffffff1673ffffffffffffffffffffffffffffffffffffffff16815260200190815260200160002060006101000a81548160ff0219169083151502179055508173ffffffffffffffffffffffffffffffffffffffff166113b8611a90565b73ffffffffffffffffffffffffffffffffffffffff167f17307eab39ab6107e8899845ad3d59bd9653f200f220920489ca2b5937696c31836040516113fd9190613ed5565b60405180910390a35050565b611411613d87565b8161141b84610c29565b511161145c576040517f08c379a000000000000000000000000000000000000000000000000000000000815260040161145390614eb1565b60405180910390fd5b60066000848152602001908152602001600020828154811061148157611480614be9565b5b9060005260206000209060020201604051806040016040529081600082015481526020016001820160009054906101000a900473ffffffffffffffffffffffffffffffffffffffff1673ffffffffffffffffffffffffffffffffffffffff1673ffffffffffffffffffffffffffffffffffffffff1681525050905092915050565b60008261150e816117fe565b611518848461233e565b91505092915050565b8161152b816117fe565b611537858585856127cd565b5050505050565b60606115498261282a565b9050919050565b61155982610a45565b61156281611e3a565b61156c8383611f3f565b50505050565b8761157c81612230565b61158c8989898989898989612943565b505050505050505050565b60606115a28261153e565b9050919050565b836115b381612230565b6115bf85858585612beb565b5050505050565b6000600360008473ffffffffffffffffffffffffffffffffffffffff1673ffffffffffffffffffffffffffffffffffffffff16815260200190815260200160002060008373ffffffffffffffffffffffffffffffffffffffff1673ffffffffffffffffffffffffffffffffffffffff16815260200190815260200160002060009054906101000a900460ff16905092915050565b606481565b7f97667070c54ef182b0f5858b034beac1b6f3089aa2d3188bb1e8929f4fa9b92981565b60008060008060046000868152602001908152602001600020604051806040016040529081600082015481526020016001820160009054906101000a900473ffffffffffffffffffffffffffffffffffffffff1673ffffffffffffffffffffffffffffffffffffffff1673ffffffffffffffffffffffffffffffffffffffff16815250509050600073ffffffffffffffffffffffffffffffffffffffff16816020015173ffffffffffffffffffffffffffffffffffffffff160361177c576040517f08c379a000000000000000000000000000000000000000000000000000000000815260040161177390614f1d565b60405180910390fd5b80602001519350806000015192506000816000015114159150509193909250565b6000634906490660e01b7bffffffffffffffffffffffffffffffffffffffffffffffffffffffff1916827bffffffffffffffffffffffffffffffffffffffffffffffffffffffff191614806117f757506117f682612e08565b5b9050919050565b61180f611809611a90565b82612f42565b61184e576040517f08c379a000000000000000000000000000000000000000000000000000000000815260040161184590614f89565b60405180910390fd5b50565b60008061185d85611683565b50915091508673ffffffffffffffffffffffffffffffffffffffff168273ffffffffffffffffffffffffffffffffffffffff16146118d0576040517f08c379a00000000000000000000000000000000000000000000000000000000081526004016118c79061501b565b60405180910390fd5b3073ffffffffffffffffffffffffffffffffffffffff168673ffffffffffffffffffffffffffffffffffffffff1614801561190a57508385145b1561194a576040517f08c379a000000000000000000000000000000000000000000000000000000000815260040161194190615087565b60405180910390fd5b6119538661301e565b61195e858786613154565b6119698787876132c2565b6119778287838789886132c7565b60018060008973ffffffffffffffffffffffffffffffffffffffff1673ffffffffffffffffffffffffffffffffffffffff16815260200190815260200160002060008282546119c691906150a7565b925050819055506119d88585886132cf565b60018060008873ffffffffffffffffffffffffffffffffffffffff1673ffffffffffffffffffffffffffffffffffffffff1681526020019081526020016000206000828254611a2791906150db565b92505081905550611a3c82878387898861337a565b50505050505050565b611a4e816134d3565b611a8d576040517f08c379a0000000000000000000000000000000000000000000000000000000008152600401611a8490614f1d565b60405180910390fd5b50565b600033905090565b6000611aa382610ddd565b9050826002600084815260200190815260200160002060008373ffffffffffffffffffffffffffffffffffffffff1673ffffffffffffffffffffffffffffffffffffffff16815260200190815260200160002060006101000a81548173ffffffffffffffffffffffffffffffffffffffff021916908373ffffffffffffffffffffffffffffffffffffffff160217905550818373ffffffffffffffffffffffffffffffffffffffff168273ffffffffffffffffffffffffffffffffffffffff167f8c5be1e5ebec7d5bd14f71427d1e84f3dd0314c0f7b2291e5b200ac8c7c3b92560405160405180910390a4505050565b600080611ba084611683565b50915091508573ffffffffffffffffffffffffffffffffffffffff168273ffffffffffffffffffffffffffffffffffffffff1614611c13576040517f08c379a0000000000000000000000000000000000000000000000000000000008152600401611c0a9061501b565b60405180910390fd5b600073ffffffffffffffffffffffffffffffffffffffff168573ffffffffffffffffffffffffffffffffffffffff1603611c82576040517f08c379a0000000000000000000000000000000000000000000000000000000008152600401611c799061515b565b60405180910390fd5b611c8d8686866132c2565b611c9c868683600088886132c7565b60018060008873ffffffffffffffffffffffffffffffffffffffff1673ffffffffffffffffffffffffffffffffffffffff1681526020019081526020016000206000828254611ceb91906150a7565b92505081905550611cfe846000876132cf565b60018060008773ffffffffffffffffffffffffffffffffffffffff1673ffffffffffffffffffffffffffffffffffffffff1681526020019081526020016000206000828254611d4d91906150db565b92505081905550838573ffffffffffffffffffffffffffffffffffffffff168773ffffffffffffffffffffffffffffffffffffffff167fddf252ad1be2c89b69c2b068fc378daa952ba7f163c4a11628f55a4df523b3ef60405160405180910390a4838573ffffffffffffffffffffffffffffffffffffffff168773ffffffffffffffffffffffffffffffffffffffff167f04444026cefd1b05506559cab59d1b865ae3ba4ed2fe5c894f04e522776c552d846000604051611e109291906151c0565b60405180910390a4611e23868686613542565b611e32868683600088886136a9565b505050505050565b611e4b81611e46611a90565b613727565b50565b6000611e5a838361116d565b611f3457600160008085815260200190815260200160002060000160008473ffffffffffffffffffffffffffffffffffffffff1673ffffffffffffffffffffffffffffffffffffffff16815260200190815260200160002060006101000a81548160ff021916908315150217905550611ed1611a90565b73ffffffffffffffffffffffffffffffffffffffff168273ffffffffffffffffffffffffffffffffffffffff16847f2f8788117e7eff1d82e926ec794901d17c78024a50270940304540a733656f0d60405160405180910390a460019050611f39565b600090505b92915050565b6000611f4b838361116d565b1561202657600080600085815260200190815260200160002060000160008473ffffffffffffffffffffffffffffffffffffffff1673ffffffffffffffffffffffffffffffffffffffff16815260200190815260200160002060006101000a81548160ff021916908315150217905550611fc3611a90565b73ffffffffffffffffffffffffffffffffffffffff168273ffffffffffffffffffffffffffffffffffffffff16847ff6391f5c32d9c69d2a47ea670b442974b53935d1edc7fd64eb21e047a839171b60405160405180910390a46001905061202b565b600090505b92915050565b80600860008481526020019081526020016000209081612051919061538b565b507ff8e1a15aba9398e019f0b49df1a4fde98ee17ae345cb5f6b5e2c27f5033e8ce7826040516120819190614863565b60405180910390a15050565b61209a8383600084613778565b818373ffffffffffffffffffffffffffffffffffffffff16600073ffffffffffffffffffffffffffffffffffffffff167fddf252ad1be2c89b69c2b068fc378daa952ba7f163c4a11628f55a4df523b3ef60405160405180910390a4818373ffffffffffffffffffffffffffffffffffffffff16600073ffffffffffffffffffffffffffffffffffffffff167f04444026cefd1b05506559cab59d1b865ae3ba4ed2fe5c894f04e522776c552d60008060405161215892919061545d565b60405180910390a461216c60008484613542565b61217c60008460008086866136a9565b505050565b60008060008061219085611683565b9250925092508015612219578273ffffffffffffffffffffffffffffffffffffffff16636352211e836040518263ffffffff1660e01b81526004016121d59190614863565b602060405180830381865afa1580156121f2573d6000803e3d6000fd5b505050506040513d601f19601f82011682018060405250810190612216919061549b565b92505b829350505050919050565b50505050565b50505050565b61224161223b611a90565b8261397d565b612280576040517f08c379a000000000000000000000000000000000000000000000000000000000815260040161227790615514565b60405180910390fd5b50565b80600660008481526020019081526020016000208054905011156122dc576040517f08c379a00000000000000000000000000000000000000000000000000000000081526004016122d390615580565b60405180910390fd5b6122e582613a12565b6006600083815260200190815260200160002060006123049190613db7565b817f8ac4a0d65950c3e40448afb2260e2e0ec36ea15644d9b39e37e85472e5f9445160405160405180910390a261233a82613a15565b5050565b600080600061234c85611683565b5091509150600061235c86610ddd565b905061236a836000886132c2565b6123898360008460008a604051806020016040528060008152506132c7565b60018060008573ffffffffffffffffffffffffffffffffffffffff1673ffffffffffffffffffffffffffffffffffffffff16815260200190815260200160002060008282546123d891906150a7565b925050819055506123ea600087611a98565b6123f386613a18565b60006123fe87610fe4565b905060056000888152602001908152602001600020600061241f9190613db7565b60066000888152602001908152602001600020600061243e9190613db7565b6002600088815260200190815260200160002060008373ffffffffffffffffffffffffffffffffffffffff1673ffffffffffffffffffffffffffffffffffffffff16815260200190815260200160002060006101000a81549073ffffffffffffffffffffffffffffffffffffffff021916905560008060008351905060005b8181101561268657898310612507576040517f08c379a00000000000000000000000000000000000000000000000000000000081526004016124fe90615638565b60405180910390fd5b6007600086838151811061251e5761251d614be9565b5b60200260200101516020015173ffffffffffffffffffffffffffffffffffffffff1673ffffffffffffffffffffffffffffffffffffffff168152602001908152602001600020600086838151811061257957612578614be9565b5b602002602001015160000151815260200190815260200160002060009055828a03935060018582815181106125b1576125b0614be9565b5b60200260200101516020015173ffffffffffffffffffffffffffffffffffffffff1663b390c0ab8784815181106125eb576125ea614be9565b5b60200260200101516000015160018861260491906150a7565b6040518363ffffffff1660e01b8152600401612621929190615658565b6020604051808303816000875af1158015612640573d6000803e3d6000fd5b505050506040513d601f19601f820116820180604052508101906126649190615696565b61266e91906150db565b8361267991906150db565b92508060010190506124bd565b50600460008b81526020019081526020016000206000808201600090556001820160006101000a81549073ffffffffffffffffffffffffffffffffffffffff0219169055505089600073ffffffffffffffffffffffffffffffffffffffff168873ffffffffffffffffffffffffffffffffffffffff167fddf252ad1be2c89b69c2b068fc378daa952ba7f163c4a11628f55a4df523b3ef60405160405180910390a489600073ffffffffffffffffffffffffffffffffffffffff168873ffffffffffffffffffffffffffffffffffffffff167f04444026cefd1b05506559cab59d1b865ae3ba4ed2fe5c894f04e522776c552d89600060405161278a9291906151c0565b60405180910390a461279e8760008c613542565b6127bd8760008860008e604051806020016040528060008152506136a9565b8197505050505050505092915050565b6127d984848484611b94565b6127e584848484613a1b565b612824576040517f08c379a000000000000000000000000000000000000000000000000000000000815260040161281b90615735565b60405180910390fd5b50505050565b606061283582611a45565b600060086000848152602001908152602001600020805461285590614a4e565b80601f016020809104026020016040519081016040528092919081815260200182805461288190614a4e565b80156128ce5780601f106128a3576101008083540402835291602001916128ce565b820191906000526020600020905b8154815290600101906020018083116128b157829003601f168201915b5050505050905060006128df613b9c565b905060008151036128f457819250505061293e565b600082511115612929578082604051602001612911929190615791565b6040516020818303038152906040529250505061293e565b60405180602001604052806000815250925050505b919050565b61294b613d87565b82156129625761295b8987611409565b905061296f565b61296c8987610a86565b90505b61297a818686613bb3565b612988898787878787613c3b565b82156129af576129aa600660008b815260200190815260200160002087613c43565b612a20565b600760008673ffffffffffffffffffffffffffffffffffffffff1673ffffffffffffffffffffffffffffffffffffffff168152602001908152602001600020600085815260200190815260200160002060009055612a1f600560008b815260200190815260200160002087613c43565b5b600073ffffffffffffffffffffffffffffffffffffffff168873ffffffffffffffffffffffffffffffffffffffff1614612b4f5760008703612ad2578473ffffffffffffffffffffffffffffffffffffffff1663b88d4fde308a87866040518563ffffffff1660e01b8152600401612a9b949392919061580a565b600060405180830381600087803b158015612ab557600080fd5b505af1158015612ac9573d6000803e3d6000fd5b50505050612b4e565b806020015173ffffffffffffffffffffffffffffffffffffffff1663064c0a3a308a84600001518b876040518663ffffffff1660e01b8152600401612b1b959493929190615856565b600060405180830381600087803b158015612b3557600080fd5b505af1158015612b49573d6000803e3d6000fd5b505050505b5b838573ffffffffffffffffffffffffffffffffffffffff168a7f02d6d6dbcb604d5e1e8c7886456e82a9cdce88b0a580071358f206b5a4d58f708987600073ffffffffffffffffffffffffffffffffffffffff168e73ffffffffffffffffffffffffffffffffffffffff1614604051612bca939291906158b0565b60405180910390a4612be0898787878787613d66565b505050505050505050565b6000612bf78585611409565b9050612c04818484613bb3565b6000600760008573ffffffffffffffffffffffffffffffffffffffff1673ffffffffffffffffffffffffffffffffffffffff16815260200190815260200160002060008481526020019081526020016000205414612c97576040517f08c379a0000000000000000000000000000000000000000000000000000000008152600401612c8e90615933565b60405180910390fd5b612ca385858585613d6e565b612cbf6006600087815260200190815260200160002085613c43565b600560008681526020019081526020016000208190806001815401808255809150506001900390600052602060002090600202016000909190919091506000820151816000015560208201518160010160006101000a81548173ffffffffffffffffffffffffffffffffffffffff021916908373ffffffffffffffffffffffffffffffffffffffff16021790555050506001600760008573ffffffffffffffffffffffffffffffffffffffff1673ffffffffffffffffffffffffffffffffffffffff168152602001908152602001600020600084815260200190815260200160002081905550818373ffffffffffffffffffffffffffffffffffffffff16867f29486b9e2ae569b440933a9b1b421467306fa21f3dcad439c262910a634963a987604051612ded9190614863565b60405180910390a4612e0185858585613d74565b5050505050565b60007f01ffc9a7000000000000000000000000000000000000000000000000000000007bffffffffffffffffffffffffffffffffffffffffffffffffffffffff1916827bffffffffffffffffffffffffffffffffffffffffffffffffffffffff19161480612ed357507f80ac58cd000000000000000000000000000000000000000000000000000000007bffffffffffffffffffffffffffffffffffffffffffffffffffffffff1916827bffffffffffffffffffffffffffffffffffffffffffffffffffffffff1916145b80612f3b57507f42b0e56f000000000000000000000000000000000000000000000000000000007bffffffffffffffffffffffffffffffffffffffffffffffffffffffff1916827bffffffffffffffffffffffffffffffffffffffffffffffffffffffff1916145b9050919050565b6000806000612f5084611683565b509150915060008114612f95578173ffffffffffffffffffffffffffffffffffffffff168573ffffffffffffffffffffffffffffffffffffffff161492505050613018565b8173ffffffffffffffffffffffffffffffffffffffff168573ffffffffffffffffffffffffffffffffffffffff161480612fd55750612fd482866115c6565b5b8061301357508473ffffffffffffffffffffffffffffffffffffffff16612ffb8561085a565b73ffffffffffffffffffffffffffffffffffffffff16145b925050505b92915050565b60008173ffffffffffffffffffffffffffffffffffffffff163b03613078576040517f08c379a000000000000000000000000000000000000000000000000000000000815260040161306f90614cdb565b60405180910390fd5b8073ffffffffffffffffffffffffffffffffffffffff166301ffc9a77f42b0e56f000000000000000000000000000000000000000000000000000000006040518263ffffffff1660e01b81526004016130d19190615962565b602060405180830381865afa1580156130ee573d6000803e3d6000fd5b505050506040513d601f19601f820116820180604052508101906131129190615992565b613151576040517f08c379a000000000000000000000000000000000000000000000000000000000815260040161314890615a31565b60405180910390fd5b50565b60005b60648110156132815760008060008573ffffffffffffffffffffffffffffffffffffffff1663fb25fb7a866040518263ffffffff1660e01b815260040161319e9190614863565b606060405180830381865afa1580156131bb573d6000803e3d6000fd5b505050506040513d601f19601f820116820180604052508101906131df9190615a51565b925092509250806131f357505050506132bd565b3073ffffffffffffffffffffffffffffffffffffffff168373ffffffffffffffffffffffffffffffffffffffff1614801561322d57508682145b1561326d576040517f08c379a000000000000000000000000000000000000000000000000000000000815260040161326490615af0565b60405180910390fd5b829550819450836001019350505050613157565b506040517f08c379a00000000000000000000000000000000000000000000000000000000081526004016132b490615b5c565b60405180910390fd5b505050565b505050565b505050505050565b60405180604001604052808381526020018273ffffffffffffffffffffffffffffffffffffffff16815250600460008581526020019081526020016000206000820151816000015560208201518160010160006101000a81548173ffffffffffffffffffffffffffffffffffffffff021916908373ffffffffffffffffffffffffffffffffffffffff16021790555090505061336c600084611a98565b61337583613a18565b505050565b60008590508073ffffffffffffffffffffffffffffffffffffffff1663635490cc8585856040518463ffffffff1660e01b81526004016133bc93929190615b7c565b600060405180830381600087803b1580156133d657600080fd5b505af11580156133ea573d6000803e3d6000fd5b50505050828673ffffffffffffffffffffffffffffffffffffffff168873ffffffffffffffffffffffffffffffffffffffff167fddf252ad1be2c89b69c2b068fc378daa952ba7f163c4a11628f55a4df523b3ef60405160405180910390a4828673ffffffffffffffffffffffffffffffffffffffff168873ffffffffffffffffffffffffffffffffffffffff167f04444026cefd1b05506559cab59d1b865ae3ba4ed2fe5c894f04e522776c552d88886040516134a9929190615658565b60405180910390a46134bc878785613542565b6134ca8787878787876136a9565b50505050505050565b60008073ffffffffffffffffffffffffffffffffffffffff166004600084815260200190815260200160002060010160009054906101000a900473ffffffffffffffffffffffffffffffffffffffff1673ffffffffffffffffffffffffffffffffffffffff1614159050919050565b61354d838383613d7a565b600073ffffffffffffffffffffffffffffffffffffffff168373ffffffffffffffffffffffffffffffffffffffff16036135ca578173ffffffffffffffffffffffffffffffffffffffff16817f9376ff5c430e6f351747dc0a0bfbae3e74fd0a458af8108ad1efe73d0c4a9ccc60405160405180910390a36136a4565b600073ffffffffffffffffffffffffffffffffffffffff168273ffffffffffffffffffffffffffffffffffffffff1603613647578273ffffffffffffffffffffffffffffffffffffffff16817f9f94284156c9ebd138cba8d5f33e4e0411d113103e2e75f46e309e335fe454b460405160405180910390a36136a3565b808273ffffffffffffffffffffffffffffffffffffffff168473ffffffffffffffffffffffffffffffffffffffff167fa5782d765c00d302aa51afc829f9e5ef58241f0c4cab080f45d277aa37d0fe5d60405160405180910390a45b5b505050565b6136b7868686868686613d7f565b818573ffffffffffffffffffffffffffffffffffffffff168773ffffffffffffffffffffffffffffffffffffffff167f61d0ac94213d71515b808bdba953bd5834e3f9c1cdb4e1973b46f3d7215e9dbd8787604051613717929190615658565b60405180910390a4505050505050565b613731828261116d565b6137745780826040517fe2517d3f00000000000000000000000000000000000000000000000000000000815260040161376b929190615bba565b60405180910390fd5b5050565b600073ffffffffffffffffffffffffffffffffffffffff168473ffffffffffffffffffffffffffffffffffffffff16036137e7576040517f08c379a00000000000000000000000000000000000000000000000000000000081526004016137de90615c2f565b60405180910390fd5b6137f0836134d3565b15613830576040517f08c379a000000000000000000000000000000000000000000000000000000000815260040161382790615c9b565b60405180910390fd5b60008303613873576040517f08c379a000000000000000000000000000000000000000000000000000000000815260040161386a90615d07565b60405180910390fd5b61387f600085856132c2565b61388f60008560008587866132c7565b60018060008673ffffffffffffffffffffffffffffffffffffffff1673ffffffffffffffffffffffffffffffffffffffff16815260200190815260200160002060008282546138de91906150db565b9250508190555060405180604001604052808381526020018573ffffffffffffffffffffffffffffffffffffffff16815250600460008581526020019081526020016000206000820151816000015560208201518160010160006101000a81548173ffffffffffffffffffffffffffffffffffffffff021916908373ffffffffffffffffffffffffffffffffffffffff16021790555090505050505050565b60008061398983610ddd565b90508073ffffffffffffffffffffffffffffffffffffffff168473ffffffffffffffffffffffffffffffffffffffff1614806139cb57506139ca81856115c6565b5b80613a0957508373ffffffffffffffffffffffffffffffffffffffff166139f18461085a565b73ffffffffffffffffffffffffffffffffffffffff16145b91505092915050565b50565b50565b50565b6000808473ffffffffffffffffffffffffffffffffffffffff163b14613b8f578373ffffffffffffffffffffffffffffffffffffffff1663150b7a02613a5f611a90565b8786866040518563ffffffff1660e01b8152600401613a81949392919061580a565b6020604051808303816000875af1925050508015613abd57506040513d601f19601f82011682018060405250810190613aba9190615d3c565b60015b613b3f573d8060008114613aed576040519150601f19603f3d011682016040523d82523d6000602084013e613af2565b606091505b506000815103613b37576040517f08c379a0000000000000000000000000000000000000000000000000000000008152600401613b2e90615735565b60405180910390fd5b805181602001fd5b63150b7a0260e01b7bffffffffffffffffffffffffffffffffffffffffffffffffffffffff1916817bffffffffffffffffffffffffffffffffffffffffffffffffffffffff191614915050613b94565b600190505b949350505050565b606060405180602001604052806000815250905090565b826020015173ffffffffffffffffffffffffffffffffffffffff168273ffffffffffffffffffffffffffffffffffffffff16141580613bf6575082600001518114155b15613c36576040517f08c379a0000000000000000000000000000000000000000000000000000000008152600401613c2d90615db5565b60405180910390fd5b505050565b505050505050565b8160018380549050613c5591906150a7565b81548110613c6657613c65614be9565b5b9060005260206000209060020201828281548110613c8757613c86614be9565b5b9060005260206000209060020201600082015481600001556001820160009054906101000a900473ffffffffffffffffffffffffffffffffffffffff168160010160006101000a81548173ffffffffffffffffffffffffffffffffffffffff021916908373ffffffffffffffffffffffffffffffffffffffff16021790555090505081805480613d1a57613d19615dd5565b5b60019003818190600052602060002090600202016000808201600090556001820160006101000a81549073ffffffffffffffffffffffffffffffffffffffff0219169055505090555050565b505050505050565b50505050565b50505050565b505050565b505050505050565b604051806040016040528060008152602001600073ffffffffffffffffffffffffffffffffffffffff1681525090565b5080546000825560020290600052602060002090810190613dd89190613ddb565b50565b5b80821115613e1d576000808201600090556001820160006101000a81549073ffffffffffffffffffffffffffffffffffffffff021916905550600201613ddc565b5090565b6000604051905090565b600080fd5b600080fd5b60007fffffffff0000000000000000000000000000000000000000000000000000000082169050919050565b613e6a81613e35565b8114613e7557600080fd5b50565b600081359050613e8781613e61565b92915050565b600060208284031215613ea357613ea2613e2b565b5b6000613eb184828501613e78565b91505092915050565b60008115159050919050565b613ecf81613eba565b82525050565b6000602082019050613eea6000830184613ec6565b92915050565b600073ffffffffffffffffffffffffffffffffffffffff82169050919050565b6000613f1b82613ef0565b9050919050565b613f2b81613f10565b8114613f3657600080fd5b50565b600081359050613f4881613f22565b92915050565b6000819050919050565b613f6181613f4e565b8114613f6c57600080fd5b50565b600081359050613f7e81613f58565b92915050565b600080fd5b600080fd5b6000601f19601f8301169050919050565b7f4e487b7100000000000000000000000000000000000000000000000000000000600052604160045260246000fd5b613fd782613f8e565b810181811067ffffffffffffffff82111715613ff657613ff5613f9f565b5b80604052505050565b6000614009613e21565b90506140158282613fce565b919050565b600067ffffffffffffffff82111561403557614034613f9f565b5b61403e82613f8e565b9050602081019050919050565b82818337600083830152505050565b600061406d6140688461401a565b613fff565b90508281526020810184848401111561408957614088613f89565b5b61409484828561404b565b509392505050565b600082601f8301126140b1576140b0613f84565b5b81356140c184826020860161405a565b91505092915050565b600080600080600060a086880312156140e6576140e5613e2b565b5b60006140f488828901613f39565b955050602061410588828901613f39565b945050604061411688828901613f6f565b935050606061412788828901613f6f565b925050608086013567ffffffffffffffff81111561414857614147613e30565b5b6141548882890161409c565b9150509295509295909350565b600081519050919050565b600082825260208201905092915050565b60005b8381101561419b578082015181840152602081019050614180565b60008484015250505050565b60006141b282614161565b6141bc818561416c565b93506141cc81856020860161417d565b6141d581613f8e565b840191505092915050565b600060208201905081810360008301526141fa81846141a7565b905092915050565b60006020828403121561421857614217613e2b565b5b600061422684828501613f6f565b91505092915050565b61423881613f10565b82525050565b6000602082019050614253600083018461422f565b92915050565b600080604083850312156142705761426f613e2b565b5b600061427e85828601613f39565b925050602061428f85828601613f6f565b9150509250929050565b6142a281613eba565b81146142ad57600080fd5b50565b6000813590506142bf81614299565b92915050565b600080600080600080600080610100898b0312156142e6576142e5613e2b565b5b60006142f48b828c01613f6f565b98505060206143058b828c01613f39565b97505060406143168b828c01613f6f565b96505060606143278b828c01613f6f565b95505060806143388b828c01613f39565b94505060a06143498b828c01613f6f565b93505060c061435a8b828c016142b0565b92505060e089013567ffffffffffffffff81111561437b5761437a613e30565b5b6143878b828c0161409c565b9150509295985092959890939650565b6000806000606084860312156143b0576143af613e2b565b5b60006143be86828701613f39565b93505060206143cf86828701613f39565b92505060406143e086828701613f6f565b9150509250925092565b6000819050919050565b6143fd816143ea565b811461440857600080fd5b50565b60008135905061441a816143f4565b92915050565b60006020828403121561443657614435613e2b565b5b60006144448482850161440b565b91505092915050565b614456816143ea565b82525050565b6000602082019050614471600083018461444d565b92915050565b6000806040838503121561448e5761448d613e2b565b5b600061449c8582860161440b565b92505060206144ad85828601613f39565b9150509250929050565b600080604083850312156144ce576144cd613e2b565b5b60006144dc85828601613f6f565b92505060206144ed85828601613f6f565b9150509250929050565b61450081613f4e565b82525050565b61450f81613f10565b82525050565b60408201600082015161452b60008501826144f7565b50602082015161453e6020850182614506565b50505050565b60006040820190506145596000830184614515565b92915050565b600081519050919050565b600082825260208201905092915050565b6000819050602082019050919050565b6040820160008201516145a160008501826144f7565b5060208201516145b46020850182614506565b50505050565b60006145c6838361458b565b60408301905092915050565b6000602082019050919050565b60006145ea8261455f565b6145f4818561456a565b93506145ff8361457b565b8060005b8381101561463057815161461788826145ba565b9750614622836145d2565b925050600181019050614603565b5085935050505092915050565b6000602082019050818103600083015261465781846145df565b905092915050565b600067ffffffffffffffff82111561467a57614679613f9f565b5b61468382613f8e565b9050602081019050919050565b60006146a361469e8461465f565b613fff565b9050828152602081018484840111156146bf576146be613f89565b5b6146ca84828561404b565b509392505050565b600082601f8301126146e7576146e6613f84565b5b81356146f7848260208601614690565b91505092915050565b6000806040838503121561471757614716613e2b565b5b600061472585828601613f6f565b925050602083013567ffffffffffffffff81111561474657614745613e30565b5b614752858286016146d2565b9150509250929050565b6000806040838503121561477357614772613e2b565b5b600061478185828601613f39565b925050602083013567ffffffffffffffff8111156147a2576147a1613e30565b5b6147ae858286016146d2565b9150509250929050565b6000806000606084860312156147d1576147d0613e2b565b5b60006147df86828701613f6f565b93505060206147f086828701613f6f565b925050604084013567ffffffffffffffff81111561481157614810613e30565b5b61481d8682870161409c565b9150509250925092565b60006020828403121561483d5761483c613e2b565b5b600061484b84828501613f39565b91505092915050565b61485d81613f4e565b82525050565b60006020820190506148786000830184614854565b92915050565b6000806040838503121561489557614894613e2b565b5b60006148a385828601613f39565b92505060206148b4858286016142b0565b9150509250929050565b600080600080608085870312156148d8576148d7613e2b565b5b60006148e687828801613f39565b94505060206148f787828801613f39565b935050604061490887828801613f6f565b925050606085013567ffffffffffffffff81111561492957614928613e30565b5b6149358782880161409c565b91505092959194509250565b6000806000806080858703121561495b5761495a613e2b565b5b600061496987828801613f6f565b945050602061497a87828801613f6f565b935050604061498b87828801613f39565b925050606061499c87828801613f6f565b91505092959194509250565b600080604083850312156149bf576149be613e2b565b5b60006149cd85828601613f39565b92505060206149de85828601613f39565b9150509250929050565b60006060820190506149fd600083018661422f565b614a0a6020830185614854565b614a176040830184613ec6565b949350505050565b7f4e487b7100000000000000000000000000000000000000000000000000000000600052602260045260246000fd5b60006002820490506001821680614a6657607f821691505b602082108103614a7957614a78614a1f565b5b50919050565b7f455243373231417070726f76616c546f43757272656e744f776e657228290000600082015250565b6000614ab5601e8361416c565b9150614ac082614a7f565b602082019050919050565b60006020820190508181036000830152614ae481614aa8565b9050919050565b7f455243373231417070726f766543616c6c657249734e6f744f776e65724e6f7260008201527f417070726f766564466f72416c6c282900000000000000000000000000000000602082015250565b6000614b4760308361416c565b9150614b5282614aeb565b604082019050919050565b60006020820190508181036000830152614b7681614b3a565b9050919050565b7f4368696c64496e6465784f75744f6652616e6765282900000000000000000000600082015250565b6000614bb360168361416c565b9150614bbe82614b7d565b602082019050919050565b60006020820190508181036000830152614be281614ba6565b9050919050565b7f4e487b7100000000000000000000000000000000000000000000000000000000600052603260045260246000fd5b7f4e487b7100000000000000000000000000000000000000000000000000000000600052601160045260246000fd5b6000614c5282613f4e565b91507fffffffffffffffffffffffffffffffffffffffffffffffffffffffffffffffff8203614c8457614c83614c18565b5b600182019050919050565b7f49734e6f74436f6e747261637428290000000000000000000000000000000000600082015250565b6000614cc5600f8361416c565b9150614cd082614c8f565b602082019050919050565b60006020820190508181036000830152614cf481614cb8565b9050919050565b7f4d617850656e64696e674368696c6472656e5265616368656428290000000000600082015250565b6000614d31601b8361416c565b9150614d3c82614cfb565b602082019050919050565b60006020820190508181036000830152614d6081614d24565b9050919050565b7f455243373231416464726573735a65726f49734e6f746156616c69644f776e6560008201527f7228290000000000000000000000000000000000000000000000000000000000602082015250565b6000614dc360238361416c565b9150614dce82614d67565b604082019050919050565b60006020820190508181036000830152614df281614db6565b9050919050565b7f455243373231417070726f7665546f43616c6c65722829000000000000000000600082015250565b6000614e2f60178361416c565b9150614e3a82614df9565b602082019050919050565b60006020820190508181036000830152614e5e81614e22565b9050919050565b7f50656e64696e674368696c64496e6465784f75744f6652616e67652829000000600082015250565b6000614e9b601d8361416c565b9150614ea682614e65565b602082019050919050565b60006020820190508181036000830152614eca81614e8e565b9050919050565b7f455243373231496e76616c6964546f6b656e4964282900000000000000000000600082015250565b6000614f0760168361416c565b9150614f1282614ed1565b602082019050919050565b60006020820190508181036000830152614f3681614efa565b9050919050565b7f4e6f74417070726f7665644f724469726563744f776e65722829000000000000600082015250565b6000614f73601a8361416c565b9150614f7e82614f3d565b602082019050919050565b60006020820190508181036000830152614fa281614f66565b9050919050565b7f4552433732315472616e7366657246726f6d496e636f72726563744f776e657260008201527f2829000000000000000000000000000000000000000000000000000000000000602082015250565b600061500560228361416c565b915061501082614fa9565b604082019050919050565b6000602082019050818103600083015261503481614ff8565b9050919050565b7f4e65737461626c655472616e73666572546f53656c6628290000000000000000600082015250565b600061507160188361416c565b915061507c8261503b565b602082019050919050565b600060208201905081810360008301526150a081615064565b9050919050565b60006150b282613f4e565b91506150bd83613f4e565b92508282039050818111156150d5576150d4614c18565b5b92915050565b60006150e682613f4e565b91506150f183613f4e565b925082820190508082111561510957615108614c18565b5b92915050565b7f4552433732315472616e73666572546f5468655a65726f416464726573732829600082015250565b600061514560208361416c565b91506151508261510f565b602082019050919050565b6000602082019050818103600083015261517481615138565b9050919050565b6000819050919050565b6000819050919050565b60006151aa6151a56151a08461517b565b615185565b613f4e565b9050919050565b6151ba8161518f565b82525050565b60006040820190506151d56000830185614854565b6151e260208301846151b1565b9392505050565b60008190508160005260206000209050919050565b60006020601f8301049050919050565b600082821b905092915050565b60006008830261524b7fffffffffffffffffffffffffffffffffffffffffffffffffffffffffffffffff8261520e565b615255868361520e565b95508019841693508086168417925050509392505050565b600061528861528361527e84613f4e565b615185565b613f4e565b9050919050565b6000819050919050565b6152a28361526d565b6152b66152ae8261528f565b84845461521b565b825550505050565b600090565b6152cb6152be565b6152d6818484615299565b505050565b5b818110156152fa576152ef6000826152c3565b6001810190506152dc565b5050565b601f82111561533f57615310816151e9565b615319846151fe565b81016020851015615328578190505b61533c615334856151fe565b8301826152db565b50505b505050565b600082821c905092915050565b600061536260001984600802615344565b1980831691505092915050565b600061537b8383615351565b9150826002028217905092915050565b61539482614161565b67ffffffffffffffff8111156153ad576153ac613f9f565b5b6153b78254614a4e565b6153c28282856152fe565b600060209050601f8311600181146153f557600084156153e3578287015190505b6153ed858261536f565b865550615455565b601f198416615403866151e9565b60005b8281101561542b57848901518255600182019150602085019450602081019050615406565b868310156154485784890151615444601f891682615351565b8355505b6001600288020188555050505b505050505050565b600060408201905061547260008301856151b1565b61547f60208301846151b1565b9392505050565b60008151905061549581613f22565b92915050565b6000602082840312156154b1576154b0613e2b565b5b60006154bf84828501615486565b91505092915050565b7f4552433732314e6f74417070726f7665644f724f776e65722829000000000000600082015250565b60006154fe601a8361416c565b9150615509826154c8565b602082019050919050565b6000602082019050818103600083015261552d816154f1565b9050919050565b7f556e65787065637465644e756d6265724f664368696c6472656e282900000000600082015250565b600061556a601c8361416c565b915061557582615534565b602082019050919050565b600060208201905081810360008301526155998161555d565b9050919050565b7f4d61785265637572736976654275726e7352656163686564286368696c64726560008201527f6e5b695d2e636f6e7472616374416464726573732c6368696c6472656e5b695d60208201527f2e746f6b656e4964290000000000000000000000000000000000000000000000604082015250565b600061562260498361416c565b915061562d826155a0565b606082019050919050565b6000602082019050818103600083015261565181615615565b9050919050565b600060408201905061566d6000830185614854565b61567a6020830184614854565b9392505050565b60008151905061569081613f58565b92915050565b6000602082840312156156ac576156ab613e2b565b5b60006156ba84828501615681565b91505092915050565b7f4552433732315472616e73666572546f4e6f6e5265636569766572496d706c6560008201527f6d656e7465722829000000000000000000000000000000000000000000000000602082015250565b600061571f60288361416c565b915061572a826156c3565b604082019050919050565b6000602082019050818103600083015261574e81615712565b9050919050565b600081905092915050565b600061576b82614161565b6157758185615755565b935061578581856020860161417d565b80840191505092915050565b600061579d8285615760565b91506157a98284615760565b91508190509392505050565b600081519050919050565b600082825260208201905092915050565b60006157dc826157b5565b6157e681856157c0565b93506157f681856020860161417d565b6157ff81613f8e565b840191505092915050565b600060808201905061581f600083018761422f565b61582c602083018661422f565b6158396040830185614854565b818103606083015261584b81846157d1565b905095945050505050565b600060a08201905061586b600083018861422f565b615878602083018761422f565b6158856040830186614854565b6158926060830185614854565b81810360808301526158a481846157d1565b90509695505050505050565b60006060820190506158c56000830186614854565b6158d26020830185613ec6565b6158df6040830184613ec6565b949350505050565b7f4368696c64416c72656164794578697374732829000000000000000000000000600082015250565b600061591d60148361416c565b9150615928826158e7565b602082019050919050565b6000602082019050818103600083015261594c81615910565b9050919050565b61595c81613e35565b82525050565b60006020820190506159776000830184615953565b92915050565b60008151905061598c81614299565b92915050565b6000602082840312156159a8576159a7613e2b565b5b60006159b68482850161597d565b91505092915050565b7f4e65737461626c655472616e73666572546f4e6f6e4e65737461626c65496d7060008201527f6c656d656e746572282900000000000000000000000000000000000000000000602082015250565b6000615a1b602a8361416c565b9150615a26826159bf565b604082019050919050565b60006020820190508181036000830152615a4a81615a0e565b9050919050565b600080600060608486031215615a6a57615a69613e2b565b5b6000615a7886828701615486565b9350506020615a8986828701615681565b9250506040615a9a8682870161597d565b9150509250925092565b7f4e65737461626c655472616e73666572546f44657363656e64616e7428290000600082015250565b6000615ada601e8361416c565b9150615ae582615aa4565b602082019050919050565b60006020820190508181036000830152615b0981615acd565b9050919050565b7f4e65737461626c65546f6f446565702829000000000000000000000000000000600082015250565b6000615b4660118361416c565b9150615b5182615b10565b602082019050919050565b60006020820190508181036000830152615b7581615b39565b9050919050565b6000606082019050615b916000830186614854565b615b9e6020830185614854565b8181036040830152615bb081846157d1565b9050949350505050565b6000604082019050615bcf600083018561422f565b615bdc602083018461444d565b9392505050565b7f4552433732314d696e74546f5468655a65726f41646472657373282900000000600082015250565b6000615c19601c8361416c565b9150615c2482615be3565b602082019050919050565b60006020820190508181036000830152615c4881615c0c565b9050919050565b7f455243373231546f6b656e416c72656164794d696e7465642829000000000000600082015250565b6000615c85601a8361416c565b9150615c9082615c4f565b602082019050919050565b60006020820190508181036000830152615cb481615c78565b9050919050565b7f49645a65726f466f7262696464656e2829000000000000000000000000000000600082015250565b6000615cf160118361416c565b9150615cfc82615cbb565b602082019050919050565b60006020820190508181036000830152615d2081615ce4565b9050919050565b600081519050615d3681613e61565b92915050565b600060208284031215615d5257615d51613e2b565b5b6000615d6084828501615d27565b91505092915050565b7f556e65787065637465644368696c644964282900000000000000000000000000600082015250565b6000615d9f60138361416c565b9150615daa82615d69565b602082019050919050565b60006020820190508181036000830152615dce81615d92565b9050919050565b7f4e487b7100000000000000000000000000000000000000000000000000000000600052603160045260246000fdfea2646970667358221220b6336811caa4c3035d9686f6f59fa8b43106163f9e16946a775c91fa4a4ce3d364736f6c63430008180033",
  "linkReferences": {},
  "deployedLinkReferences": {}
}