{
  "_format": "hh-sol-artifact-1",
  "contractName": "ValorWar",
  "sourceName": "contracts/ValorWar.sol",
  "abi": [
    {
      "inputs": [
        {
          "internalType": "string",
          "name": "name_",
          "type": "string"
        },
        {
          "internalType": "string",
          "name": "symbol_",
          "type": "string"
        }
      ],
      "stateMutability": "nonpayable",
      "type": "constructor"
    },
    {
      "inputs": [],
      "name": "AccessControlBadConfirmation",
      "type": "error"
    },
    {
      "inputs": [
        {
          "internalType": "address",
          "name": "account",
          "type": "address"
        },
        {
          "internalType": "bytes32",
          "name": "neededRole",
          "type": "bytes32"
        }
      ],
      "name": "AccessControlUnauthorizedAccount",
      "type": "error"
    },
    {
      "inputs": [
        {
          "internalType": "address",
          "name": "sender",
          "type": "address"
        },
        {
          "internalType": "uint256",
          "name": "tokenId",
          "type": "uint256"
        },
        {
          "internalType": "address",
          "name": "owner",
          "type": "address"
        }
      ],
      "name": "ERC721IncorrectOwner",
      "type": "error"
    },
    {
      "inputs": [
        {
          "internalType": "address",
          "name": "operator",
          "type": "address"
        },
        {
          "internalType": "uint256",
          "name": "tokenId",
          "type": "uint256"
        }
      ],
      "name": "ERC721InsufficientApproval",
      "type": "error"
    },
    {
      "inputs": [
        {
          "internalType": "address",
          "name": "approver",
          "type": "address"
        }
      ],
      "name": "ERC721InvalidApprover",
      "type": "error"
    },
    {
      "inputs": [
        {
          "internalType": "address",
          "name": "operator",
          "type": "address"
        }
      ],
      "name": "ERC721InvalidOperator",
      "type": "error"
    },
    {
      "inputs": [
        {
          "internalType": "address",
          "name": "owner",
          "type": "address"
        }
      ],
      "name": "ERC721InvalidOwner",
      "type": "error"
    },
    {
      "inputs": [
        {
          "internalType": "address",
          "name": "receiver",
          "type": "address"
        }
      ],
      "name": "ERC721InvalidReceiver",
      "type": "error"
    },
    {
      "inputs": [
        {
          "internalType": "address",
          "name": "sender",
          "type": "address"
        }
      ],
      "name": "ERC721InvalidSender",
      "type": "error"
    },
    {
      "inputs": [
        {
          "internalType": "uint256",
          "name": "tokenId",
          "type": "uint256"
        }
      ],
      "name": "ERC721NonexistentToken",
      "type": "error"
    },
    {
      "anonymous": false,
      "inputs": [
        {
          "indexed": true,
          "internalType": "uint256",
          "name": "tokenId",
          "type": "uint256"
        }
      ],
      "name": "AllChildrenRejected",
      "type": "event"
    },
    {
      "anonymous": false,
      "inputs": [
        {
          "indexed": true,
          "internalType": "address",
          "name": "owner",
          "type": "address"
        },
        {
          "indexed": true,
          "internalType": "address",
          "name": "approved",
          "type": "address"
        },
        {
          "indexed": true,
          "internalType": "uint256",
          "name": "tokenId",
          "type": "uint256"
        }
      ],
      "name": "Approval",
      "type": "event"
    },
    {
      "anonymous": false,
      "inputs": [
        {
          "indexed": true,
          "internalType": "address",
          "name": "owner",
          "type": "address"
        },
        {
          "indexed": true,
          "internalType": "address",
          "name": "operator",
          "type": "address"
        },
        {
          "indexed": false,
          "internalType": "bool",
          "name": "approved",
          "type": "bool"
        }
      ],
      "name": "ApprovalForAll",
      "type": "event"
    },
    {
      "anonymous": false,
      "inputs": [
        {
          "indexed": false,
          "internalType": "uint256",
          "name": "_fromTokenId",
          "type": "uint256"
        },
        {
          "indexed": false,
          "internalType": "uint256",
          "name": "_toTokenId",
          "type": "uint256"
        }
      ],
      "name": "BatchMetadataUpdate",
      "type": "event"
    },
    {
      "anonymous": false,
      "inputs": [
        {
          "indexed": true,
          "internalType": "uint256",
          "name": "tokenId",
          "type": "uint256"
        },
        {
          "indexed": false,
          "internalType": "uint256",
          "name": "childIndex",
          "type": "uint256"
        },
        {
          "indexed": true,
          "internalType": "address",
          "name": "childAddress",
          "type": "address"
        },
        {
          "indexed": true,
          "internalType": "uint256",
          "name": "childId",
          "type": "uint256"
        }
      ],
      "name": "ChildAccepted",
      "type": "event"
    },
    {
      "anonymous": false,
      "inputs": [
        {
          "indexed": true,
          "internalType": "uint256",
          "name": "tokenId",
          "type": "uint256"
        },
        {
          "indexed": false,
          "internalType": "uint256",
          "name": "childIndex",
          "type": "uint256"
        },
        {
          "indexed": true,
          "internalType": "address",
          "name": "childAddress",
          "type": "address"
        },
        {
          "indexed": true,
          "internalType": "uint256",
          "name": "childId",
          "type": "uint256"
        }
      ],
      "name": "ChildProposed",
      "type": "event"
    },
    {
      "anonymous": false,
      "inputs": [
        {
          "indexed": true,
          "internalType": "uint256",
          "name": "tokenId",
          "type": "uint256"
        },
        {
          "indexed": false,
          "internalType": "uint256",
          "name": "childIndex",
          "type": "uint256"
        },
        {
          "indexed": true,
          "internalType": "address",
          "name": "childAddress",
          "type": "address"
        },
        {
          "indexed": true,
          "internalType": "uint256",
          "name": "childId",
          "type": "uint256"
        },
        {
          "indexed": false,
          "internalType": "bool",
          "name": "fromPending",
          "type": "bool"
        },
        {
          "indexed": false,
          "internalType": "bool",
          "name": "toZero",
          "type": "bool"
        }
      ],
      "name": "ChildTransferred",
      "type": "event"
    },
    {
      "anonymous": false,
      "inputs": [
        {
          "indexed": true,
          "internalType": "uint256",
          "name": "warriorId",
          "type": "uint256"
        },
        {
          "indexed": true,
          "internalType": "address",
          "name": "from",
          "type": "address"
        }
      ],
      "name": "DestroyWarrior",
      "type": "event"
    },
    {
      "anonymous": false,
      "inputs": [
        {
          "indexed": false,
          "internalType": "uint256",
          "name": "_tokenId",
          "type": "uint256"
        }
      ],
      "name": "MetadataUpdate",
      "type": "event"
    },
    {
      "anonymous": false,
      "inputs": [
        {
          "indexed": true,
          "internalType": "address",
          "name": "from",
          "type": "address"
        },
        {
          "indexed": true,
          "internalType": "address",
          "name": "to",
          "type": "address"
        },
        {
          "indexed": false,
          "internalType": "uint256",
          "name": "fromTokenId",
          "type": "uint256"
        },
        {
          "indexed": false,
          "internalType": "uint256",
          "name": "toTokenId",
          "type": "uint256"
        },
        {
          "indexed": true,
          "internalType": "uint256",
          "name": "tokenId",
          "type": "uint256"
        }
      ],
      "name": "NestTransfer",
      "type": "event"
    },
    {
      "anonymous": false,
      "inputs": [
        {
          "indexed": true,
          "internalType": "address",
          "name": "from",
          "type": "address"
        },
        {
          "indexed": true,
          "internalType": "address",
          "name": "to",
          "type": "address"
        },
        {
          "indexed": false,
          "internalType": "uint256",
          "name": "fromTokenId",
          "type": "uint256"
        },
        {
          "indexed": false,
          "internalType": "uint256",
          "name": "toTokenId",
          "type": "uint256"
        },
        {
          "indexed": true,
          "internalType": "uint256",
          "name": "tokenId",
          "type": "uint256"
        }
      ],
      "name": "NestedWarriorTransfer",
      "type": "event"
    },
    {
      "anonymous": false,
      "inputs": [
        {
          "indexed": true,
          "internalType": "bytes32",
          "name": "role",
          "type": "bytes32"
        },
        {
          "indexed": true,
          "internalType": "bytes32",
          "name": "previousAdminRole",
          "type": "bytes32"
        },
        {
          "indexed": true,
          "internalType": "bytes32",
          "name": "newAdminRole",
          "type": "bytes32"
        }
      ],
      "name": "RoleAdminChanged",
      "type": "event"
    },
    {
      "anonymous": false,
      "inputs": [
        {
          "indexed": true,
          "internalType": "bytes32",
          "name": "role",
          "type": "bytes32"
        },
        {
          "indexed": true,
          "internalType": "address",
          "name": "account",
          "type": "address"
        },
        {
          "indexed": true,
          "internalType": "address",
          "name": "sender",
          "type": "address"
        }
      ],
      "name": "RoleGranted",
      "type": "event"
    },
    {
      "anonymous": false,
      "inputs": [
        {
          "indexed": true,
          "internalType": "bytes32",
          "name": "role",
          "type": "bytes32"
        },
        {
          "indexed": true,
          "internalType": "address",
          "name": "account",
          "type": "address"
        },
        {
          "indexed": true,
          "internalType": "address",
          "name": "sender",
          "type": "address"
        }
      ],
      "name": "RoleRevoked",
      "type": "event"
    },
    {
      "anonymous": false,
      "inputs": [
        {
          "indexed": true,
          "internalType": "uint256",
          "name": "warriorId",
          "type": "uint256"
        },
        {
          "indexed": true,
          "internalType": "address",
          "name": "to",
          "type": "address"
        }
      ],
      "name": "SpawnWarrior",
      "type": "event"
    },
    {
      "anonymous": false,
      "inputs": [
        {
          "indexed": true,
          "internalType": "address",
          "name": "from",
          "type": "address"
        },
        {
          "indexed": true,
          "internalType": "address",
          "name": "to",
          "type": "address"
        },
        {
          "indexed": true,
          "internalType": "uint256",
          "name": "tokenId",
          "type": "uint256"
        }
      ],
      "name": "Transfer",
      "type": "event"
    },
    {
      "anonymous": false,
      "inputs": [
        {
          "indexed": true,
          "internalType": "address",
          "name": "from",
          "type": "address"
        },
        {
          "indexed": true,
          "internalType": "address",
          "name": "to",
          "type": "address"
        },
        {
          "indexed": true,
          "internalType": "uint256",
          "name": "warriorId",
          "type": "uint256"
        }
      ],
      "name": "WarriorTransfer",
      "type": "event"
    },
    {
      "inputs": [],
      "name": "DEFAULT_ADMIN_ROLE",
      "outputs": [
        {
          "internalType": "bytes32",
          "name": "",
          "type": "bytes32"
        }
      ],
      "stateMutability": "view",
      "type": "function"
    },
    {
      "inputs": [],
      "name": "MAX_ARMOR_TO_CHECK",
      "outputs": [
        {
          "internalType": "uint256",
          "name": "",
          "type": "uint256"
        }
      ],
      "stateMutability": "view",
      "type": "function"
    },
    {
      "inputs": [],
      "name": "OPERATOR_ROLE",
      "outputs": [
        {
          "internalType": "bytes32",
          "name": "",
          "type": "bytes32"
        }
      ],
      "stateMutability": "view",
      "type": "function"
    },
    {
      "inputs": [
        {
          "internalType": "uint256",
          "name": "parentId",
          "type": "uint256"
        },
        {
          "internalType": "uint256",
          "name": "childIndex",
          "type": "uint256"
        },
        {
          "internalType": "address",
          "name": "childAddress",
          "type": "address"
        },
        {
          "internalType": "uint256",
          "name": "childId",
          "type": "uint256"
        }
      ],
      "name": "acceptChild",
      "outputs": [],
      "stateMutability": "nonpayable",
      "type": "function"
    },
    {
      "inputs": [
        {
          "internalType": "uint256",
          "name": "parentId",
          "type": "uint256"
        },
        {
          "internalType": "uint256",
          "name": "childId",
          "type": "uint256"
        },
        {
          "internalType": "bytes",
          "name": "data",
          "type": "bytes"
        }
      ],
      "name": "addChild",
      "outputs": [],
      "stateMutability": "nonpayable",
      "type": "function"
    },
    {
      "inputs": [
        {
          "internalType": "address",
          "name": "to",
          "type": "address"
        },
        {
          "internalType": "uint256",
          "name": "tokenId",
          "type": "uint256"
        }
      ],
      "name": "approve",
      "outputs": [],
      "stateMutability": "nonpayable",
      "type": "function"
    },
    {
      "inputs": [
        {
          "internalType": "address",
          "name": "owner",
          "type": "address"
        }
      ],
      "name": "balanceOf",
      "outputs": [
        {
          "internalType": "uint256",
          "name": "balance",
          "type": "uint256"
        }
      ],
      "stateMutability": "view",
      "type": "function"
    },
    {
      "inputs": [
        {
          "internalType": "uint256",
          "name": "tokenId",
          "type": "uint256"
        }
      ],
      "name": "burn",
      "outputs": [],
      "stateMutability": "nonpayable",
      "type": "function"
    },
    {
      "inputs": [
        {
          "internalType": "uint256",
          "name": "tokenId",
          "type": "uint256"
        },
        {
          "internalType": "uint256",
          "name": "maxChildrenBurns",
          "type": "uint256"
        }
      ],
      "name": "burn",
      "outputs": [
        {
          "internalType": "uint256",
          "name": "burnedChildren",
          "type": "uint256"
        }
      ],
      "stateMutability": "nonpayable",
      "type": "function"
    },
    {
      "inputs": [
        {
          "internalType": "uint256",
          "name": "parentId",
          "type": "uint256"
        },
        {
          "internalType": "uint256",
          "name": "index",
          "type": "uint256"
        }
      ],
      "name": "childOf",
      "outputs": [
        {
          "components": [
            {
              "internalType": "uint256",
              "name": "tokenId",
              "type": "uint256"
            },
            {
              "internalType": "address",
              "name": "contractAddress",
              "type": "address"
            }
          ],
          "internalType": "struct IERC7401.Child",
          "name": "child",
          "type": "tuple"
        }
      ],
      "stateMutability": "view",
      "type": "function"
    },
    {
      "inputs": [
        {
          "internalType": "uint256",
          "name": "parentId",
          "type": "uint256"
        }
      ],
      "name": "childrenOf",
      "outputs": [
        {
          "components": [
            {
              "internalType": "uint256",
              "name": "tokenId",
              "type": "uint256"
            },
            {
              "internalType": "address",
              "name": "contractAddress",
              "type": "address"
            }
          ],
          "internalType": "struct IERC7401.Child[]",
          "name": "children",
          "type": "tuple[]"
        }
      ],
      "stateMutability": "view",
      "type": "function"
    },
    {
      "inputs": [
        {
          "internalType": "uint256",
          "name": "tokenId",
          "type": "uint256"
        }
      ],
      "name": "directOwnerOf",
      "outputs": [
        {
          "internalType": "address",
          "name": "owner_",
          "type": "address"
        },
        {
          "internalType": "uint256",
          "name": "parentId",
          "type": "uint256"
        },
        {
          "internalType": "bool",
          "name": "isNFT",
          "type": "bool"
        }
      ],
      "stateMutability": "view",
      "type": "function"
    },
    {
      "inputs": [
        {
          "internalType": "uint256",
          "name": "tokenId",
          "type": "uint256"
        }
      ],
      "name": "getApproved",
      "outputs": [
        {
          "internalType": "address",
          "name": "approved",
          "type": "address"
        }
      ],
      "stateMutability": "view",
      "type": "function"
    },
    {
      "inputs": [
        {
          "internalType": "bytes32",
          "name": "role",
          "type": "bytes32"
        }
      ],
      "name": "getRoleAdmin",
      "outputs": [
        {
          "internalType": "bytes32",
          "name": "",
          "type": "bytes32"
        }
      ],
      "stateMutability": "view",
      "type": "function"
    },
    {
      "inputs": [
        {
          "internalType": "bytes32",
          "name": "role",
          "type": "bytes32"
        },
        {
          "internalType": "address",
          "name": "account",
          "type": "address"
        }
      ],
      "name": "grantRole",
      "outputs": [],
      "stateMutability": "nonpayable",
      "type": "function"
    },
    {
      "inputs": [
        {
          "internalType": "bytes32",
          "name": "role",
          "type": "bytes32"
        },
        {
          "internalType": "address",
          "name": "account",
          "type": "address"
        }
      ],
      "name": "hasRole",
      "outputs": [
        {
          "internalType": "bool",
          "name": "",
          "type": "bool"
        }
      ],
      "stateMutability": "view",
      "type": "function"
    },
    {
      "inputs": [
        {
          "internalType": "address",
          "name": "owner",
          "type": "address"
        },
        {
          "internalType": "address",
          "name": "operator",
          "type": "address"
        }
      ],
      "name": "isApprovedForAll",
      "outputs": [
        {
          "internalType": "bool",
          "name": "isApproved",
          "type": "bool"
        }
      ],
      "stateMutability": "view",
      "type": "function"
    },
    {
      "inputs": [],
      "name": "name",
      "outputs": [
        {
          "internalType": "string",
          "name": "",
          "type": "string"
        }
      ],
      "stateMutability": "view",
      "type": "function"
    },
    {
      "inputs": [
        {
          "internalType": "address",
          "name": "from",
          "type": "address"
        },
        {
          "internalType": "address",
          "name": "to",
          "type": "address"
        },
        {
          "internalType": "uint256",
          "name": "tokenId",
          "type": "uint256"
        },
        {
          "internalType": "uint256",
          "name": "destinationId",
          "type": "uint256"
        },
        {
          "internalType": "bytes",
          "name": "data",
          "type": "bytes"
        }
      ],
      "name": "nestTransferFrom",
      "outputs": [],
      "stateMutability": "nonpayable",
      "type": "function"
    },
    {
      "inputs": [
        {
          "internalType": "uint256",
          "name": "tokenId",
          "type": "uint256"
        }
      ],
      "name": "ownerOf",
      "outputs": [
        {
          "internalType": "address",
          "name": "owner_",
          "type": "address"
        }
      ],
      "stateMutability": "view",
      "type": "function"
    },
    {
      "inputs": [
        {
          "internalType": "uint256",
          "name": "parentId",
          "type": "uint256"
        },
        {
          "internalType": "uint256",
          "name": "index",
          "type": "uint256"
        }
      ],
      "name": "pendingChildOf",
      "outputs": [
        {
          "components": [
            {
              "internalType": "uint256",
              "name": "tokenId",
              "type": "uint256"
            },
            {
              "internalType": "address",
              "name": "contractAddress",
              "type": "address"
            }
          ],
          "internalType": "struct IERC7401.Child",
          "name": "child",
          "type": "tuple"
        }
      ],
      "stateMutability": "view",
      "type": "function"
    },
    {
      "inputs": [
        {
          "internalType": "uint256",
          "name": "parentId",
          "type": "uint256"
        }
      ],
      "name": "pendingChildrenOf",
      "outputs": [
        {
          "components": [
            {
              "internalType": "uint256",
              "name": "tokenId",
              "type": "uint256"
            },
            {
              "internalType": "address",
              "name": "contractAddress",
              "type": "address"
            }
          ],
          "internalType": "struct IERC7401.Child[]",
          "name": "children",
          "type": "tuple[]"
        }
      ],
      "stateMutability": "view",
      "type": "function"
    },
    {
      "inputs": [
        {
          "internalType": "uint256",
          "name": "tokenId",
          "type": "uint256"
        },
        {
          "internalType": "uint256",
          "name": "maxRejections",
          "type": "uint256"
        }
      ],
      "name": "rejectAllChildren",
      "outputs": [],
      "stateMutability": "nonpayable",
      "type": "function"
    },
    {
      "inputs": [
        {
          "internalType": "bytes32",
          "name": "role",
          "type": "bytes32"
        },
        {
          "internalType": "address",
          "name": "callerConfirmation",
          "type": "address"
        }
      ],
      "name": "renounceRole",
      "outputs": [],
      "stateMutability": "nonpayable",
      "type": "function"
    },
    {
      "inputs": [
        {
          "internalType": "bytes32",
          "name": "role",
          "type": "bytes32"
        },
        {
          "internalType": "address",
          "name": "account",
          "type": "address"
        }
      ],
      "name": "revokeRole",
      "outputs": [],
      "stateMutability": "nonpayable",
      "type": "function"
    },
    {
      "inputs": [
        {
          "internalType": "uint256",
          "name": "warriorId",
          "type": "uint256"
        }
      ],
      "name": "sacrificeWarrior",
      "outputs": [],
      "stateMutability": "nonpayable",
      "type": "function"
    },
    {
      "inputs": [
        {
          "internalType": "address",
          "name": "from",
          "type": "address"
        },
        {
          "internalType": "address",
          "name": "to",
          "type": "address"
        },
        {
          "internalType": "uint256",
          "name": "tokenId",
          "type": "uint256"
        }
      ],
      "name": "safeTransferFrom",
      "outputs": [],
      "stateMutability": "nonpayable",
      "type": "function"
    },
    {
      "inputs": [
        {
          "internalType": "address",
          "name": "from",
          "type": "address"
        },
        {
          "internalType": "address",
          "name": "to",
          "type": "address"
        },
        {
          "internalType": "uint256",
          "name": "tokenId",
          "type": "uint256"
        },
        {
          "internalType": "bytes",
          "name": "data",
          "type": "bytes"
        }
      ],
      "name": "safeTransferFrom",
      "outputs": [],
      "stateMutability": "nonpayable",
      "type": "function"
    },
    {
      "inputs": [
        {
          "internalType": "address",
          "name": "operator",
          "type": "address"
        },
        {
          "internalType": "bool",
          "name": "approved",
          "type": "bool"
        }
      ],
      "name": "setApprovalForAll",
      "outputs": [],
      "stateMutability": "nonpayable",
      "type": "function"
    },
    {
      "inputs": [
        {
          "internalType": "uint256",
          "name": "warriorId",
          "type": "uint256"
        },
        {
          "internalType": "string",
          "name": "_warriorURI",
          "type": "string"
        }
      ],
      "name": "setWarriorURI",
      "outputs": [],
      "stateMutability": "nonpayable",
      "type": "function"
    },
    {
      "inputs": [
        {
          "internalType": "address",
          "name": "to",
          "type": "address"
        },
        {
          "internalType": "string",
          "name": "_warriorURI",
          "type": "string"
        }
      ],
      "name": "spawnWarrior",
      "outputs": [],
      "stateMutability": "nonpayable",
      "type": "function"
    },
    {
      "inputs": [
        {
          "internalType": "bytes4",
          "name": "interfaceId",
          "type": "bytes4"
        }
      ],
      "name": "supportsInterface",
      "outputs": [
        {
          "internalType": "bool",
          "name": "",
          "type": "bool"
        }
      ],
      "stateMutability": "view",
      "type": "function"
    },
    {
      "inputs": [],
      "name": "symbol",
      "outputs": [
        {
          "internalType": "string",
          "name": "",
          "type": "string"
        }
      ],
      "stateMutability": "view",
      "type": "function"
    },
    {
      "inputs": [
        {
          "internalType": "uint256",
          "name": "tokenId",
          "type": "uint256"
        }
      ],
      "name": "tokenURI",
      "outputs": [
        {
          "internalType": "string",
          "name": "",
          "type": "string"
        }
      ],
      "stateMutability": "view",
      "type": "function"
    },
    {
      "inputs": [
        {
          "internalType": "uint256",
          "name": "tokenId",
          "type": "uint256"
        },
        {
          "internalType": "address",
          "name": "to",
          "type": "address"
        },
        {
          "internalType": "uint256",
          "name": "destinationId",
          "type": "uint256"
        },
        {
          "internalType": "uint256",
          "name": "childIndex",
          "type": "uint256"
        },
        {
          "internalType": "address",
          "name": "childAddress",
          "type": "address"
        },
        {
          "internalType": "uint256",
          "name": "childId",
          "type": "uint256"
        },
        {
          "internalType": "bool",
          "name": "isPending",
          "type": "bool"
        },
        {
          "internalType": "bytes",
          "name": "data",
          "type": "bytes"
        }
      ],
      "name": "transferArmor",
      "outputs": [],
      "stateMutability": "nonpayable",
      "type": "function"
    },
    {
      "inputs": [
        {
          "internalType": "uint256",
          "name": "tokenId",
          "type": "uint256"
        },
        {
          "internalType": "address",
          "name": "to",
          "type": "address"
        },
        {
          "internalType": "uint256",
          "name": "destinationId",
          "type": "uint256"
        },
        {
          "internalType": "uint256",
          "name": "childIndex",
          "type": "uint256"
        },
        {
          "internalType": "address",
          "name": "childAddress",
          "type": "address"
        },
        {
          "internalType": "uint256",
          "name": "childId",
          "type": "uint256"
        },
        {
          "internalType": "bool",
          "name": "isPending",
          "type": "bool"
        },
        {
          "internalType": "bytes",
          "name": "data",
          "type": "bytes"
        }
      ],
      "name": "transferChild",
      "outputs": [],
      "stateMutability": "nonpayable",
      "type": "function"
    },
    {
      "inputs": [
        {
          "internalType": "address",
          "name": "from",
          "type": "address"
        },
        {
          "internalType": "address",
          "name": "to",
          "type": "address"
        },
        {
          "internalType": "uint256",
          "name": "tokenId",
          "type": "uint256"
        }
      ],
      "name": "transferFrom",
      "outputs": [],
      "stateMutability": "nonpayable",
      "type": "function"
    },
    {
      "inputs": [
        {
          "internalType": "uint256",
          "name": "warriorId",
          "type": "uint256"
        }
      ],
      "name": "warriorURI",
      "outputs": [
        {
          "internalType": "string",
          "name": "",
          "type": "string"
        }
      ],
      "stateMutability": "view",
      "type": "function"
    }
  ],
  "bytecode": "0x60806040523480156200001157600080fd5b5060405162006ae538038062006ae5833981810160405281019062000037919062000a62565b816009908162000048919062000d32565b5080600a90816200005a919062000d32565b50620000706000801b33620000bc60201b60201c565b50620000a37f97667070c54ef182b0f5858b034beac1b6f3089aa2d3188bb1e8929f4fa9b92933620000bc60201b60201c565b50620000b4620001bf60201b60201c565b5050620010d5565b6000620000d08383620002a160201b60201c565b620001b457600160008085815260200190815260200160002060000160008473ffffffffffffffffffffffffffffffffffffffff1673ffffffffffffffffffffffffffffffffffffffff16815260200190815260200160002060006101000a81548160ff021916908315150217905550620001506200030b60201b60201c565b73ffffffffffffffffffffffffffffffffffffffff168273ffffffffffffffffffffffffffffffffffffffff16847f2f8788117e7eff1d82e926ec794901d17c78024a50270940304540a733656f0d60405160405180910390a460019050620001b9565b600090505b92915050565b620001f733600b60008154620001d59062000e48565b919050819055604051806020016040528060008152506200031360201b60201c565b6200022f33600b600081546200020d9062000e48565b919050819055604051806020016040528060008152506200031360201b60201c565b6200026733600b60008154620002459062000e48565b919050819055604051806020016040528060008152506200031360201b60201c565b6200029f33600b600081546200027d9062000e48565b919050819055604051806020016040528060008152506200031360201b60201c565b565b600080600084815260200190815260200160002060000160008373ffffffffffffffffffffffffffffffffffffffff1673ffffffffffffffffffffffffffffffffffffffff16815260200190815260200160002060009054906101000a900460ff16905092915050565b600033905090565b6200032883836000846200042160201b60201c565b818373ffffffffffffffffffffffffffffffffffffffff16600073ffffffffffffffffffffffffffffffffffffffff167fddf252ad1be2c89b69c2b068fc378daa952ba7f163c4a11628f55a4df523b3ef60405160405180910390a4818373ffffffffffffffffffffffffffffffffffffffff16600073ffffffffffffffffffffffffffffffffffffffff167f04444026cefd1b05506559cab59d1b865ae3ba4ed2fe5c894f04e522776c552d600080604051620003e892919062000ed8565b60405180910390a462000404600084846200064b60201b60201c565b6200041c6000846000808686620007be60201b60201c565b505050565b600073ffffffffffffffffffffffffffffffffffffffff168473ffffffffffffffffffffffffffffffffffffffff16036200049557836040517f64a0ae920000000000000000000000000000000000000000000000000000000081526004016200048c919062000f4a565b60405180910390fd5b620004a6836200084660201b60201c565b15620004e9576040517f08c379a0000000000000000000000000000000000000000000000000000000008152600401620004e09062000fc8565b60405180910390fd5b600083036200052f576040517f08c379a000000000000000000000000000000000000000000000000000000000815260040162000526906200103a565b60405180910390fd5b6200054360008585620008b560201b60201c565b6200055b6000856000858786620008ba60201b60201c565b60018060008673ffffffffffffffffffffffffffffffffffffffff1673ffffffffffffffffffffffffffffffffffffffff1681526020019081526020016000206000828254620005ac91906200105c565b9250508190555060405180604001604052808381526020018573ffffffffffffffffffffffffffffffffffffffff16815250600460008581526020019081526020016000206000820151816000015560208201518160010160006101000a81548173ffffffffffffffffffffffffffffffffffffffff021916908373ffffffffffffffffffffffffffffffffffffffff16021790555090505050505050565b6200065e838383620008c260201b60201c565b600073ffffffffffffffffffffffffffffffffffffffff168373ffffffffffffffffffffffffffffffffffffffff1603620006dd578173ffffffffffffffffffffffffffffffffffffffff16817f9376ff5c430e6f351747dc0a0bfbae3e74fd0a458af8108ad1efe73d0c4a9ccc60405160405180910390a3620007b9565b600073ffffffffffffffffffffffffffffffffffffffff168273ffffffffffffffffffffffffffffffffffffffff16036200075c578273ffffffffffffffffffffffffffffffffffffffff16817f9f94284156c9ebd138cba8d5f33e4e0411d113103e2e75f46e309e335fe454b460405160405180910390a3620007b8565b808273ffffffffffffffffffffffffffffffffffffffff168473ffffffffffffffffffffffffffffffffffffffff167fa5782d765c00d302aa51afc829f9e5ef58241f0c4cab080f45d277aa37d0fe5d60405160405180910390a45b5b505050565b620007d4868686868686620008c760201b60201c565b818573ffffffffffffffffffffffffffffffffffffffff168773ffffffffffffffffffffffffffffffffffffffff167f61d0ac94213d71515b808bdba953bd5834e3f9c1cdb4e1973b46f3d7215e9dbd878760405162000836929190620010a8565b60405180910390a4505050505050565b60008073ffffffffffffffffffffffffffffffffffffffff166004600084815260200190815260200160002060010160009054906101000a900473ffffffffffffffffffffffffffffffffffffffff1673ffffffffffffffffffffffffffffffffffffffff1614159050919050565b505050565b505050505050565b505050565b505050505050565b6000604051905090565b600080fd5b600080fd5b600080fd5b600080fd5b6000601f19601f8301169050919050565b7f4e487b7100000000000000000000000000000000000000000000000000000000600052604160045260246000fd5b6200093882620008ed565b810181811067ffffffffffffffff821117156200095a5762000959620008fe565b5b80604052505050565b60006200096f620008cf565b90506200097d82826200092d565b919050565b600067ffffffffffffffff821115620009a0576200099f620008fe565b5b620009ab82620008ed565b9050602081019050919050565b60005b83811015620009d8578082015181840152602081019050620009bb565b60008484015250505050565b6000620009fb620009f58462000982565b62000963565b90508281526020810184848401111562000a1a5762000a19620008e8565b5b62000a27848285620009b8565b509392505050565b600082601f83011262000a475762000a46620008e3565b5b815162000a59848260208601620009e4565b91505092915050565b6000806040838503121562000a7c5762000a7b620008d9565b5b600083015167ffffffffffffffff81111562000a9d5762000a9c620008de565b5b62000aab8582860162000a2f565b925050602083015167ffffffffffffffff81111562000acf5762000ace620008de565b5b62000add8582860162000a2f565b9150509250929050565b600081519050919050565b7f4e487b7100000000000000000000000000000000000000000000000000000000600052602260045260246000fd5b6000600282049050600182168062000b3a57607f821691505b60208210810362000b505762000b4f62000af2565b5b50919050565b60008190508160005260206000209050919050565b60006020601f8301049050919050565b600082821b905092915050565b60006008830262000bba7fffffffffffffffffffffffffffffffffffffffffffffffffffffffffffffffff8262000b7b565b62000bc6868362000b7b565b95508019841693508086168417925050509392505050565b6000819050919050565b6000819050919050565b600062000c1362000c0d62000c078462000bde565b62000be8565b62000bde565b9050919050565b6000819050919050565b62000c2f8362000bf2565b62000c4762000c3e8262000c1a565b84845462000b88565b825550505050565b600090565b62000c5e62000c4f565b62000c6b81848462000c24565b505050565b5b8181101562000c935762000c8760008262000c54565b60018101905062000c71565b5050565b601f82111562000ce25762000cac8162000b56565b62000cb78462000b6b565b8101602085101562000cc7578190505b62000cdf62000cd68562000b6b565b83018262000c70565b50505b505050565b600082821c905092915050565b600062000d076000198460080262000ce7565b1980831691505092915050565b600062000d22838362000cf4565b9150826002028217905092915050565b62000d3d8262000ae7565b67ffffffffffffffff81111562000d595762000d58620008fe565b5b62000d65825462000b21565b62000d7282828562000c97565b600060209050601f83116001811462000daa576000841562000d95578287015190505b62000da1858262000d14565b86555062000e11565b601f19841662000dba8662000b56565b60005b8281101562000de45784890151825560018201915060208501945060208101905062000dbd565b8683101562000e04578489015162000e00601f89168262000cf4565b8355505b6001600288020188555050505b505050505050565b7f4e487b7100000000000000000000000000000000000000000000000000000000600052601160045260246000fd5b600062000e558262000bde565b91507fffffffffffffffffffffffffffffffffffffffffffffffffffffffffffffffff820362000e8a5762000e8962000e19565b5b600182019050919050565b6000819050919050565b600062000ec062000eba62000eb48462000e95565b62000be8565b62000bde565b9050919050565b62000ed28162000e9f565b82525050565b600060408201905062000eef600083018562000ec7565b62000efe602083018462000ec7565b9392505050565b600073ffffffffffffffffffffffffffffffffffffffff82169050919050565b600062000f328262000f05565b9050919050565b62000f448162000f25565b82525050565b600060208201905062000f61600083018462000f39565b92915050565b600082825260208201905092915050565b7f746f6b656e20616c726561647920657869737473000000000000000000000000600082015250565b600062000fb060148362000f67565b915062000fbd8262000f78565b602082019050919050565b6000602082019050818103600083015262000fe38162000fa1565b9050919050565b7f696e636f727265637420746f6b656e2069640000000000000000000000000000600082015250565b60006200102260128362000f67565b91506200102f8262000fea565b602082019050919050565b60006020820190508181036000830152620010558162001013565b9050919050565b6000620010698262000bde565b9150620010768362000bde565b925082820190508082111562001091576200109062000e19565b5b92915050565b620010a28162000bde565b82525050565b6000604082019050620010bf600083018562001097565b620010ce602083018462001097565b9392505050565b615a0080620010e56000396000f3fe608060405234801561001057600080fd5b50600436106102325760003560e01c806370a0823111610130578063c0100052116100b8578063e97ceaa81161007c578063e97ceaa8146106dd578063e985e9c5146106f9578063edded88314610729578063f5b541a614610747578063fb25fb7a1461076557610232565b8063c010005214610629578063c87b56dd14610645578063d547741f14610675578063defa80c314610691578063e179ece4146106ad57610232565b8063a217fddf116100ff578063a217fddf14610573578063a22cb46514610591578063a898e364146105ad578063b390c0ab146105dd578063b88d4fde1461060d57610232565b806370a08231146104d957806391d148541461050957806395d89b4114610539578063979613361461055757610232565b80632f32f937116101be5780635ef5bbd7116101825780635ef5bbd714610425578063613b3543146104415780636352211e1461045d578063635490cc1461048d5780636f19951c146104a957610232565b80632f32f9371461037157806336568abe146103a157806342842e0e146103bd57806342966c68146103d957806344ec9344146103f557610232565b8063095ea7b311610205578063095ea7b3146102d15780630e6ace11146102ed57806323b872dd14610309578063248a9ca3146103255780632f2ff15d1461035557610232565b806301ffc9a714610237578063064c0a3a1461026757806306fdde0314610283578063081812fc146102a1575b600080fd5b610251600480360381019061024c9190613eb7565b610797565b60405161025e9190613eff565b60405180910390f35b610281600480360381019061027c91906140f4565b6107a9565b005b61028b6107c8565b604051610298919061420a565b60405180910390f35b6102bb60048036038101906102b6919061422c565b61085a565b6040516102c89190614268565b60405180910390f35b6102eb60048036038101906102e69190614283565b6108e5565b005b610307600480360381019061030291906142ef565b610a0b565b005b610323600480360381019061031e91906143c1565b610a25565b005b61033f600480360381019061033a919061444a565b610a50565b60405161034c9190614486565b60405180910390f35b61036f600480360381019061036a91906144a1565b610a6f565b005b61038b600480360381019061038691906144e1565b610a91565b604051610398919061456e565b60405180910390f35b6103bb60048036038101906103b691906144a1565b610b8a565b005b6103d760048036038101906103d291906143c1565b610c05565b005b6103f360048036038101906103ee919061422c565b610c25565b005b61040f600480360381019061040a919061422c565b610c34565b60405161041c9190614667565b60405180910390f35b61043f600480360381019061043a919061472a565b610d06565b005b61045b60048036038101906104569190614786565b610d48565b005b6104776004803603810190610472919061422c565b610db5565b6040516104849190614268565b60405180910390f35b6104a760048036038101906104a291906147e2565b610dc7565b005b6104c360048036038101906104be919061422c565b610fbc565b6040516104d09190614667565b60405180910390f35b6104f360048036038101906104ee9190614851565b61108e565b604051610500919061488d565b60405180910390f35b610523600480360381019061051e91906144a1565b611147565b6040516105309190613eff565b60405180910390f35b6105416111b1565b60405161054e919061420a565b60405180910390f35b610571600480360381019061056c91906144e1565b611243565b005b61057b61125c565b6040516105889190614486565b60405180910390f35b6105ab60048036038101906105a691906148a8565b611263565b005b6105c760048036038101906105c291906144e1565b6113ec565b6040516105d4919061456e565b60405180910390f35b6105f760048036038101906105f291906144e1565b6114e5565b604051610604919061488d565b60405180910390f35b610627600480360381019061062291906148e8565b611504565b005b610643600480360381019061063e919061422c565b611521565b005b61065f600480360381019061065a919061422c565b611554565b60405161066c919061420a565b60405180910390f35b61068f600480360381019061068a91906144a1565b611566565b005b6106ab60048036038101906106a691906142ef565b611588565b005b6106c760048036038101906106c2919061422c565b6115ad565b6040516106d4919061420a565b60405180910390f35b6106f760048036038101906106f2919061496b565b6115bf565b005b610713600480360381019061070e91906149d2565b6115dc565b6040516107209190613eff565b60405180910390f35b610731611670565b60405161073e919061488d565b60405180910390f35b61074f611675565b60405161075c9190614486565b60405180910390f35b61077f600480360381019061077a919061422c565b611699565b60405161078e93929190614a12565b60405180910390f35b60006107a2826117b9565b9050919050565b826107b38161181a565b6107c0868686868661186d565b505050505050565b6060600980546107d790614a78565b80601f016020809104026020016040519081016040528092919081815260200182805461080390614a78565b80156108505780601f1061082557610100808354040283529160200191610850565b820191906000526020600020905b81548152906001019060200180831161083357829003601f168201915b5050505050905090565b600061086582611a63565b60026000838152602001908152602001600020600061088384610db5565b73ffffffffffffffffffffffffffffffffffffffff1673ffffffffffffffffffffffffffffffffffffffff16815260200190815260200160002060009054906101000a900473ffffffffffffffffffffffffffffffffffffffff169050919050565b60006108f082610db5565b90508073ffffffffffffffffffffffffffffffffffffffff168373ffffffffffffffffffffffffffffffffffffffff160361096257826040517fa9fbf51f0000000000000000000000000000000000000000000000000000000081526004016109599190614268565b60405180910390fd5b8073ffffffffffffffffffffffffffffffffffffffff16610981611ab0565b73ffffffffffffffffffffffffffffffffffffffff16141580156109b357506109b1816109ac611ab0565b6115dc565b155b156109fc576109c0611ab0565b6040517fa9fbf51f0000000000000000000000000000000000000000000000000000000081526004016109f39190614268565b60405180910390fd5b610a068383611ab8565b505050565b610a1b8888888888888888611588565b5050505050505050565b80610a2f8161181a565b610a4a84848460405180602001604052806000815250611bb4565b50505050565b6000806000838152602001908152602001600020600101549050919050565b610a7882610a50565b610a8181611e5e565b610a8b8383611e72565b50505050565b610a99613db1565b81610aa384610fbc565b5111610ae4576040517f08c379a0000000000000000000000000000000000000000000000000000000008152600401610adb90614af5565b60405180910390fd5b600560008481526020019081526020016000208281548110610b0957610b08614b15565b5b9060005260206000209060020201604051806040016040529081600082015481526020016001820160009054906101000a900473ffffffffffffffffffffffffffffffffffffffff1673ffffffffffffffffffffffffffffffffffffffff1673ffffffffffffffffffffffffffffffffffffffff1681525050905092915050565b610b92611ab0565b73ffffffffffffffffffffffffffffffffffffffff168173ffffffffffffffffffffffffffffffffffffffff1614610bf6576040517f6697b23200000000000000000000000000000000000000000000000000000000815260040160405180910390fd5b610c008282611f63565b505050565b610c2083838360405180602001604052806000815250611504565b505050565b610c308160006114e5565b5050565b606060066000838152602001908152602001600020805480602002602001604051908101604052809291908181526020016000905b82821015610cfb5783829060005260206000209060020201604051806040016040529081600082015481526020016001820160009054906101000a900473ffffffffffffffffffffffffffffffffffffffff1673ffffffffffffffffffffffffffffffffffffffff1673ffffffffffffffffffffffffffffffffffffffff168152505081526020019060010190610c69565b505050509050919050565b7f97667070c54ef182b0f5858b034beac1b6f3089aa2d3188bb1e8929f4fa9b929610d3081611e5e565b610d3983611a63565b610d438383612055565b505050565b7f97667070c54ef182b0f5858b034beac1b6f3089aa2d3188bb1e8929f4fa9b929610d7281611e5e565b6000600b60008154610d8390614b73565b9190508190559050610da58482604051806020016040528060008152506120b1565b610daf8184610d06565b50505050565b6000610dc0826121a5565b9050919050565b610dd083611a63565b6000610dda611ab0565b905060008173ffffffffffffffffffffffffffffffffffffffff163b03610e36576040517f08c379a0000000000000000000000000000000000000000000000000000000008152600401610e2d90614c07565b60405180910390fd5b600060405180604001604052808581526020018373ffffffffffffffffffffffffffffffffffffffff168152509050610e7185838686612248565b6000610e7c86610c34565b5190506080811015610f1d57600660008781526020019081526020016000208290806001815401808255809150506001900390600052602060002090600202016000909190919091506000820151816000015560208201518160010160006101000a81548173ffffffffffffffffffffffffffffffffffffffff021916908373ffffffffffffffffffffffffffffffffffffffff1602179055505050610f58565b6040517f08c379a0000000000000000000000000000000000000000000000000000000008152600401610f4f90614c73565b60405180910390fd5b848373ffffffffffffffffffffffffffffffffffffffff16877fe65085e689b77b126ba0bac3b079aa8288f19f4d5445af11c76003f8ab3075dd84604051610fa0919061488d565b60405180910390a4610fb48684878761224e565b505050505050565b606060056000838152602001908152602001600020805480602002602001604051908101604052809291908181526020016000905b828210156110835783829060005260206000209060020201604051806040016040529081600082015481526020016001820160009054906101000a900473ffffffffffffffffffffffffffffffffffffffff1673ffffffffffffffffffffffffffffffffffffffff1673ffffffffffffffffffffffffffffffffffffffff168152505081526020019060010190610ff1565b505050509050919050565b60008073ffffffffffffffffffffffffffffffffffffffff168273ffffffffffffffffffffffffffffffffffffffff160361110057816040517f89c62b640000000000000000000000000000000000000000000000000000000081526004016110f79190614268565b60405180910390fd5b600160008373ffffffffffffffffffffffffffffffffffffffff1673ffffffffffffffffffffffffffffffffffffffff168152602001908152602001600020549050919050565b600080600084815260200190815260200160002060000160008373ffffffffffffffffffffffffffffffffffffffff1673ffffffffffffffffffffffffffffffffffffffff16815260200190815260200160002060009054906101000a900460ff16905092915050565b6060600a80546111c090614a78565b80601f01602080910402602001604051908101604052809291908181526020018280546111ec90614a78565b80156112395780601f1061120e57610100808354040283529160200191611239565b820191906000526020600020905b81548152906001019060200180831161121c57829003601f168201915b5050505050905090565b8161124d81612254565b61125783836122a7565b505050565b6000801b81565b8173ffffffffffffffffffffffffffffffffffffffff16611282611ab0565b73ffffffffffffffffffffffffffffffffffffffff16036112e1576112a5611ab0565b6040517f5b08ba180000000000000000000000000000000000000000000000000000000081526004016112d89190614268565b60405180910390fd5b80600360006112ee611ab0565b73ffffffffffffffffffffffffffffffffffffffff1673ffffffffffffffffffffffffffffffffffffffff16815260200190815260200160002060008473ffffffffffffffffffffffffffffffffffffffff1673ffffffffffffffffffffffffffffffffffffffff16815260200190815260200160002060006101000a81548160ff0219169083151502179055508173ffffffffffffffffffffffffffffffffffffffff1661139b611ab0565b73ffffffffffffffffffffffffffffffffffffffff167f17307eab39ab6107e8899845ad3d59bd9653f200f220920489ca2b5937696c31836040516113e09190613eff565b60405180910390a35050565b6113f4613db1565b816113fe84610c34565b511161143f576040517f08c379a000000000000000000000000000000000000000000000000000000000815260040161143690614cdf565b60405180910390fd5b60066000848152602001908152602001600020828154811061146457611463614b15565b5b9060005260206000209060020201604051806040016040529081600082015481526020016001820160009054906101000a900473ffffffffffffffffffffffffffffffffffffffff1673ffffffffffffffffffffffffffffffffffffffff1673ffffffffffffffffffffffffffffffffffffffff1681525050905092915050565b6000826114f18161181a565b6114fb8484612362565b91505092915050565b8161150e8161181a565b61151a858585856127f1565b5050505050565b600061152c82610fbc565b905060008151905061154e83606483116115465782611549565b60645b6114e5565b50505050565b606061155f82612850565b9050919050565b61156f82610a50565b61157881611e5e565b6115828383611f63565b50505050565b8761159281612254565b6115a28989898989898989612969565b505050505050505050565b60606115b882611554565b9050919050565b836115c981612254565b6115d585858585612c11565b5050505050565b6000600360008473ffffffffffffffffffffffffffffffffffffffff1673ffffffffffffffffffffffffffffffffffffffff16815260200190815260200160002060008373ffffffffffffffffffffffffffffffffffffffff1673ffffffffffffffffffffffffffffffffffffffff16815260200190815260200160002060009054906101000a900460ff16905092915050565b606481565b7f97667070c54ef182b0f5858b034beac1b6f3089aa2d3188bb1e8929f4fa9b92981565b60008060008060046000868152602001908152602001600020604051806040016040529081600082015481526020016001820160009054906101000a900473ffffffffffffffffffffffffffffffffffffffff1673ffffffffffffffffffffffffffffffffffffffff1673ffffffffffffffffffffffffffffffffffffffff16815250509050600073ffffffffffffffffffffffffffffffffffffffff16816020015173ffffffffffffffffffffffffffffffffffffffff16036117985780602001516040517f89c62b6400000000000000000000000000000000000000000000000000000000815260040161178f9190614268565b60405180910390fd5b80602001519350806000015192506000816000015114159150509193909250565b6000634906490660e01b7bffffffffffffffffffffffffffffffffffffffffffffffffffffffff1916827bffffffffffffffffffffffffffffffffffffffffffffffffffffffff19161480611813575061181282612e2e565b5b9050919050565b61182b611825611ab0565b82612f68565b61186a576040517f08c379a000000000000000000000000000000000000000000000000000000000815260040161186190614d71565b60405180910390fd5b50565b60008061187985611699565b50915091508673ffffffffffffffffffffffffffffffffffffffff168273ffffffffffffffffffffffffffffffffffffffff16146118ee57866040517f89c62b640000000000000000000000000000000000000000000000000000000081526004016118e59190614268565b60405180910390fd5b3073ffffffffffffffffffffffffffffffffffffffff168673ffffffffffffffffffffffffffffffffffffffff1614801561192857508385145b15611968576040517f08c379a000000000000000000000000000000000000000000000000000000000815260040161195f90614ddd565b60405180910390fd5b61197186613044565b61197c85878661317a565b6119878787876132e8565b6119958287838789886132ed565b60018060008973ffffffffffffffffffffffffffffffffffffffff1673ffffffffffffffffffffffffffffffffffffffff16815260200190815260200160002060008282546119e49190614dfd565b925050819055506119f68585886132f5565b60018060008873ffffffffffffffffffffffffffffffffffffffff1673ffffffffffffffffffffffffffffffffffffffff1681526020019081526020016000206000828254611a459190614e31565b92505081905550611a5a8287838789886133a0565b50505050505050565b611a6c816134f9565b611aad57806040517f7e273289000000000000000000000000000000000000000000000000000000008152600401611aa4919061488d565b60405180910390fd5b50565b600033905090565b6000611ac382610db5565b9050826002600084815260200190815260200160002060008373ffffffffffffffffffffffffffffffffffffffff1673ffffffffffffffffffffffffffffffffffffffff16815260200190815260200160002060006101000a81548173ffffffffffffffffffffffffffffffffffffffff021916908373ffffffffffffffffffffffffffffffffffffffff160217905550818373ffffffffffffffffffffffffffffffffffffffff168273ffffffffffffffffffffffffffffffffffffffff167f8c5be1e5ebec7d5bd14f71427d1e84f3dd0314c0f7b2291e5b200ac8c7c3b92560405160405180910390a4505050565b600080611bc084611699565b50915091508573ffffffffffffffffffffffffffffffffffffffff168273ffffffffffffffffffffffffffffffffffffffff1614611c3557856040517f89c62b64000000000000000000000000000000000000000000000000000000008152600401611c2c9190614268565b60405180910390fd5b600073ffffffffffffffffffffffffffffffffffffffff168573ffffffffffffffffffffffffffffffffffffffff1603611ca657846040517f64a0ae92000000000000000000000000000000000000000000000000000000008152600401611c9d9190614268565b60405180910390fd5b611cb18686866132e8565b611cc0868683600088886132ed565b60018060008873ffffffffffffffffffffffffffffffffffffffff1673ffffffffffffffffffffffffffffffffffffffff1681526020019081526020016000206000828254611d0f9190614dfd565b92505081905550611d22846000876132f5565b60018060008773ffffffffffffffffffffffffffffffffffffffff1673ffffffffffffffffffffffffffffffffffffffff1681526020019081526020016000206000828254611d719190614e31565b92505081905550838573ffffffffffffffffffffffffffffffffffffffff168773ffffffffffffffffffffffffffffffffffffffff167fddf252ad1be2c89b69c2b068fc378daa952ba7f163c4a11628f55a4df523b3ef60405160405180910390a4838573ffffffffffffffffffffffffffffffffffffffff168773ffffffffffffffffffffffffffffffffffffffff167f04444026cefd1b05506559cab59d1b865ae3ba4ed2fe5c894f04e522776c552d846000604051611e34929190614eaa565b60405180910390a4611e47868686613568565b611e56868683600088886136cf565b505050505050565b611e6f81611e6a611ab0565b61374d565b50565b6000611e7e8383611147565b611f5857600160008085815260200190815260200160002060000160008473ffffffffffffffffffffffffffffffffffffffff1673ffffffffffffffffffffffffffffffffffffffff16815260200190815260200160002060006101000a81548160ff021916908315150217905550611ef5611ab0565b73ffffffffffffffffffffffffffffffffffffffff168273ffffffffffffffffffffffffffffffffffffffff16847f2f8788117e7eff1d82e926ec794901d17c78024a50270940304540a733656f0d60405160405180910390a460019050611f5d565b600090505b92915050565b6000611f6f8383611147565b1561204a57600080600085815260200190815260200160002060000160008473ffffffffffffffffffffffffffffffffffffffff1673ffffffffffffffffffffffffffffffffffffffff16815260200190815260200160002060006101000a81548160ff021916908315150217905550611fe7611ab0565b73ffffffffffffffffffffffffffffffffffffffff168273ffffffffffffffffffffffffffffffffffffffff16847ff6391f5c32d9c69d2a47ea670b442974b53935d1edc7fd64eb21e047a839171b60405160405180910390a46001905061204f565b600090505b92915050565b806008600084815260200190815260200160002090816120759190615075565b507ff8e1a15aba9398e019f0b49df1a4fde98ee17ae345cb5f6b5e2c27f5033e8ce7826040516120a5919061488d565b60405180910390a15050565b6120be838360008461379e565b818373ffffffffffffffffffffffffffffffffffffffff16600073ffffffffffffffffffffffffffffffffffffffff167fddf252ad1be2c89b69c2b068fc378daa952ba7f163c4a11628f55a4df523b3ef60405160405180910390a4818373ffffffffffffffffffffffffffffffffffffffff16600073ffffffffffffffffffffffffffffffffffffffff167f04444026cefd1b05506559cab59d1b865ae3ba4ed2fe5c894f04e522776c552d60008060405161217c929190615147565b60405180910390a461219060008484613568565b6121a060008460008086866136cf565b505050565b6000806000806121b485611699565b925092509250801561223d578273ffffffffffffffffffffffffffffffffffffffff16636352211e836040518263ffffffff1660e01b81526004016121f9919061488d565b602060405180830381865afa158015612216573d6000803e3d6000fd5b505050506040513d601f19601f8201168201806040525081019061223a9190615185565b92505b829350505050919050565b50505050565b50505050565b61226561225f611ab0565b826139a5565b6122a4576040517f08c379a000000000000000000000000000000000000000000000000000000000815260040161229b906151fe565b60405180910390fd5b50565b8060066000848152602001908152602001600020805490501115612300576040517f08c379a00000000000000000000000000000000000000000000000000000000081526004016122f79061526a565b60405180910390fd5b61230982613a3a565b6006600083815260200190815260200160002060006123289190613de1565b817f8ac4a0d65950c3e40448afb2260e2e0ec36ea15644d9b39e37e85472e5f9445160405160405180910390a261235e82613a3d565b5050565b600080600061237085611699565b5091509150600061238086610db5565b905061238e836000886132e8565b6123ad8360008460008a604051806020016040528060008152506132ed565b60018060008573ffffffffffffffffffffffffffffffffffffffff1673ffffffffffffffffffffffffffffffffffffffff16815260200190815260200160002060008282546123fc9190614dfd565b9250508190555061240e600087611ab8565b61241786613a40565b600061242287610fbc565b90506005600088815260200190815260200160002060006124439190613de1565b6006600088815260200190815260200160002060006124629190613de1565b6002600088815260200190815260200160002060008373ffffffffffffffffffffffffffffffffffffffff1673ffffffffffffffffffffffffffffffffffffffff16815260200190815260200160002060006101000a81549073ffffffffffffffffffffffffffffffffffffffff021916905560008060008351905060005b818110156126aa5789831061252b576040517f08c379a0000000000000000000000000000000000000000000000000000000008152600401612522906152d6565b60405180910390fd5b6007600086838151811061254257612541614b15565b5b60200260200101516020015173ffffffffffffffffffffffffffffffffffffffff1673ffffffffffffffffffffffffffffffffffffffff168152602001908152602001600020600086838151811061259d5761259c614b15565b5b602002602001015160000151815260200190815260200160002060009055828a03935060018582815181106125d5576125d4614b15565b5b60200260200101516020015173ffffffffffffffffffffffffffffffffffffffff1663b390c0ab87848151811061260f5761260e614b15565b5b6020026020010151600001516001886126289190614dfd565b6040518363ffffffff1660e01b81526004016126459291906152f6565b6020604051808303816000875af1158015612664573d6000803e3d6000fd5b505050506040513d601f19601f820116820180604052508101906126889190615334565b6126929190614e31565b8361269d9190614e31565b92508060010190506124e1565b50600460008b81526020019081526020016000206000808201600090556001820160006101000a81549073ffffffffffffffffffffffffffffffffffffffff0219169055505089600073ffffffffffffffffffffffffffffffffffffffff168873ffffffffffffffffffffffffffffffffffffffff167fddf252ad1be2c89b69c2b068fc378daa952ba7f163c4a11628f55a4df523b3ef60405160405180910390a489600073ffffffffffffffffffffffffffffffffffffffff168873ffffffffffffffffffffffffffffffffffffffff167f04444026cefd1b05506559cab59d1b865ae3ba4ed2fe5c894f04e522776c552d8960006040516127ae929190614eaa565b60405180910390a46127c28760008c613568565b6127e18760008860008e604051806020016040528060008152506136cf565b8197505050505050505092915050565b6127fd84848484611bb4565b61280984848484613a43565b61284a57826040517f64a0ae920000000000000000000000000000000000000000000000000000000081526004016128419190614268565b60405180910390fd5b50505050565b606061285b82611a63565b600060086000848152602001908152602001600020805461287b90614a78565b80601f01602080910402602001604051908101604052809291908181526020018280546128a790614a78565b80156128f45780601f106128c9576101008083540402835291602001916128f4565b820191906000526020600020905b8154815290600101906020018083116128d757829003601f168201915b505050505090506000612905613bc6565b9050600081510361291a578192505050612964565b60008251111561294f57808260405160200161293792919061539d565b60405160208183030381529060405292505050612964565b60405180602001604052806000815250925050505b919050565b612971613db1565b82156129885761298189876113ec565b9050612995565b6129928987610a91565b90505b6129a0818686613bdd565b6129ae898787878787613c65565b82156129d5576129d0600660008b815260200190815260200160002087613c6d565b612a46565b600760008673ffffffffffffffffffffffffffffffffffffffff1673ffffffffffffffffffffffffffffffffffffffff168152602001908152602001600020600085815260200190815260200160002060009055612a45600560008b815260200190815260200160002087613c6d565b5b600073ffffffffffffffffffffffffffffffffffffffff168873ffffffffffffffffffffffffffffffffffffffff1614612b755760008703612af8578473ffffffffffffffffffffffffffffffffffffffff1663b88d4fde308a87866040518563ffffffff1660e01b8152600401612ac19493929190615416565b600060405180830381600087803b158015612adb57600080fd5b505af1158015612aef573d6000803e3d6000fd5b50505050612b74565b806020015173ffffffffffffffffffffffffffffffffffffffff1663064c0a3a308a84600001518b876040518663ffffffff1660e01b8152600401612b41959493929190615462565b600060405180830381600087803b158015612b5b57600080fd5b505af1158015612b6f573d6000803e3d6000fd5b505050505b5b838573ffffffffffffffffffffffffffffffffffffffff168a7f02d6d6dbcb604d5e1e8c7886456e82a9cdce88b0a580071358f206b5a4d58f708987600073ffffffffffffffffffffffffffffffffffffffff168e73ffffffffffffffffffffffffffffffffffffffff1614604051612bf0939291906154bc565b60405180910390a4612c06898787878787613d90565b505050505050505050565b6000612c1d85856113ec565b9050612c2a818484613bdd565b6000600760008573ffffffffffffffffffffffffffffffffffffffff1673ffffffffffffffffffffffffffffffffffffffff16815260200190815260200160002060008481526020019081526020016000205414612cbd576040517f08c379a0000000000000000000000000000000000000000000000000000000008152600401612cb49061553f565b60405180910390fd5b612cc985858585613d98565b612ce56006600087815260200190815260200160002085613c6d565b600560008681526020019081526020016000208190806001815401808255809150506001900390600052602060002090600202016000909190919091506000820151816000015560208201518160010160006101000a81548173ffffffffffffffffffffffffffffffffffffffff021916908373ffffffffffffffffffffffffffffffffffffffff16021790555050506001600760008573ffffffffffffffffffffffffffffffffffffffff1673ffffffffffffffffffffffffffffffffffffffff168152602001908152602001600020600084815260200190815260200160002081905550818373ffffffffffffffffffffffffffffffffffffffff16867f29486b9e2ae569b440933a9b1b421467306fa21f3dcad439c262910a634963a987604051612e13919061488d565b60405180910390a4612e2785858585613d9e565b5050505050565b60007f01ffc9a7000000000000000000000000000000000000000000000000000000007bffffffffffffffffffffffffffffffffffffffffffffffffffffffff1916827bffffffffffffffffffffffffffffffffffffffffffffffffffffffff19161480612ef957507f80ac58cd000000000000000000000000000000000000000000000000000000007bffffffffffffffffffffffffffffffffffffffffffffffffffffffff1916827bffffffffffffffffffffffffffffffffffffffffffffffffffffffff1916145b80612f6157507f42b0e56f000000000000000000000000000000000000000000000000000000007bffffffffffffffffffffffffffffffffffffffffffffffffffffffff1916827bffffffffffffffffffffffffffffffffffffffffffffffffffffffff1916145b9050919050565b6000806000612f7684611699565b509150915060008114612fbb578173ffffffffffffffffffffffffffffffffffffffff168573ffffffffffffffffffffffffffffffffffffffff16149250505061303e565b8173ffffffffffffffffffffffffffffffffffffffff168573ffffffffffffffffffffffffffffffffffffffff161480612ffb5750612ffa82866115dc565b5b8061303957508473ffffffffffffffffffffffffffffffffffffffff166130218561085a565b73ffffffffffffffffffffffffffffffffffffffff16145b925050505b92915050565b60008173ffffffffffffffffffffffffffffffffffffffff163b0361309e576040517f08c379a000000000000000000000000000000000000000000000000000000000815260040161309590614c07565b60405180910390fd5b8073ffffffffffffffffffffffffffffffffffffffff166301ffc9a77f42b0e56f000000000000000000000000000000000000000000000000000000006040518263ffffffff1660e01b81526004016130f7919061556e565b602060405180830381865afa158015613114573d6000803e3d6000fd5b505050506040513d601f19601f82011682018060405250810190613138919061559e565b613177576040517f08c379a000000000000000000000000000000000000000000000000000000000815260040161316e9061563d565b60405180910390fd5b50565b60005b60648110156132a75760008060008573ffffffffffffffffffffffffffffffffffffffff1663fb25fb7a866040518263ffffffff1660e01b81526004016131c4919061488d565b606060405180830381865afa1580156131e1573d6000803e3d6000fd5b505050506040513d601f19601f82011682018060405250810190613205919061565d565b9250925092508061321957505050506132e3565b3073ffffffffffffffffffffffffffffffffffffffff168373ffffffffffffffffffffffffffffffffffffffff1614801561325357508682145b15613293576040517f08c379a000000000000000000000000000000000000000000000000000000000815260040161328a90615722565b60405180910390fd5b82955081945083600101935050505061317d565b506040517f08c379a00000000000000000000000000000000000000000000000000000000081526004016132da9061578e565b60405180910390fd5b505050565b505050565b505050505050565b60405180604001604052808381526020018273ffffffffffffffffffffffffffffffffffffffff16815250600460008581526020019081526020016000206000820151816000015560208201518160010160006101000a81548173ffffffffffffffffffffffffffffffffffffffff021916908373ffffffffffffffffffffffffffffffffffffffff160217905550905050613392600084611ab8565b61339b83613a40565b505050565b60008590508073ffffffffffffffffffffffffffffffffffffffff1663635490cc8585856040518463ffffffff1660e01b81526004016133e2939291906157ae565b600060405180830381600087803b1580156133fc57600080fd5b505af1158015613410573d6000803e3d6000fd5b50505050828673ffffffffffffffffffffffffffffffffffffffff168873ffffffffffffffffffffffffffffffffffffffff167fddf252ad1be2c89b69c2b068fc378daa952ba7f163c4a11628f55a4df523b3ef60405160405180910390a4828673ffffffffffffffffffffffffffffffffffffffff168873ffffffffffffffffffffffffffffffffffffffff167f04444026cefd1b05506559cab59d1b865ae3ba4ed2fe5c894f04e522776c552d88886040516134cf9291906152f6565b60405180910390a46134e2878785613568565b6134f08787878787876136cf565b50505050505050565b60008073ffffffffffffffffffffffffffffffffffffffff166004600084815260200190815260200160002060010160009054906101000a900473ffffffffffffffffffffffffffffffffffffffff1673ffffffffffffffffffffffffffffffffffffffff1614159050919050565b613573838383613da4565b600073ffffffffffffffffffffffffffffffffffffffff168373ffffffffffffffffffffffffffffffffffffffff16036135f0578173ffffffffffffffffffffffffffffffffffffffff16817f9376ff5c430e6f351747dc0a0bfbae3e74fd0a458af8108ad1efe73d0c4a9ccc60405160405180910390a36136ca565b600073ffffffffffffffffffffffffffffffffffffffff168273ffffffffffffffffffffffffffffffffffffffff160361366d578273ffffffffffffffffffffffffffffffffffffffff16817f9f94284156c9ebd138cba8d5f33e4e0411d113103e2e75f46e309e335fe454b460405160405180910390a36136c9565b808273ffffffffffffffffffffffffffffffffffffffff168473ffffffffffffffffffffffffffffffffffffffff167fa5782d765c00d302aa51afc829f9e5ef58241f0c4cab080f45d277aa37d0fe5d60405160405180910390a45b5b505050565b6136dd868686868686613da9565b818573ffffffffffffffffffffffffffffffffffffffff168773ffffffffffffffffffffffffffffffffffffffff167f61d0ac94213d71515b808bdba953bd5834e3f9c1cdb4e1973b46f3d7215e9dbd878760405161373d9291906152f6565b60405180910390a4505050505050565b6137578282611147565b61379a5780826040517fe2517d3f0000000000000000000000000000000000000000000000000000000081526004016137919291906157ec565b60405180910390fd5b5050565b600073ffffffffffffffffffffffffffffffffffffffff168473ffffffffffffffffffffffffffffffffffffffff160361380f57836040517f64a0ae920000000000000000000000000000000000000000000000000000000081526004016138069190614268565b60405180910390fd5b613818836134f9565b15613858576040517f08c379a000000000000000000000000000000000000000000000000000000000815260040161384f90615861565b60405180910390fd5b6000830361389b576040517f08c379a0000000000000000000000000000000000000000000000000000000008152600401613892906158cd565b60405180910390fd5b6138a7600085856132e8565b6138b760008560008587866132ed565b60018060008673ffffffffffffffffffffffffffffffffffffffff1673ffffffffffffffffffffffffffffffffffffffff16815260200190815260200160002060008282546139069190614e31565b9250508190555060405180604001604052808381526020018573ffffffffffffffffffffffffffffffffffffffff16815250600460008581526020019081526020016000206000820151816000015560208201518160010160006101000a81548173ffffffffffffffffffffffffffffffffffffffff021916908373ffffffffffffffffffffffffffffffffffffffff16021790555090505050505050565b6000806139b183610db5565b90508073ffffffffffffffffffffffffffffffffffffffff168473ffffffffffffffffffffffffffffffffffffffff1614806139f357506139f281856115dc565b5b80613a3157508373ffffffffffffffffffffffffffffffffffffffff16613a198461085a565b73ffffffffffffffffffffffffffffffffffffffff16145b91505092915050565b50565b50565b50565b6000808473ffffffffffffffffffffffffffffffffffffffff163b14613bb9578373ffffffffffffffffffffffffffffffffffffffff1663150b7a02613a87611ab0565b8786866040518563ffffffff1660e01b8152600401613aa99493929190615416565b6020604051808303816000875af1925050508015613ae557506040513d601f19601f82011682018060405250810190613ae29190615902565b60015b613b69573d8060008114613b15576040519150601f19603f3d011682016040523d82523d6000602084013e613b1a565b606091505b506000815103613b6157846040517f64a0ae92000000000000000000000000000000000000000000000000000000008152600401613b589190614268565b60405180910390fd5b805181602001fd5b63150b7a0260e01b7bffffffffffffffffffffffffffffffffffffffffffffffffffffffff1916817bffffffffffffffffffffffffffffffffffffffffffffffffffffffff191614915050613bbe565b600190505b949350505050565b606060405180602001604052806000815250905090565b826020015173ffffffffffffffffffffffffffffffffffffffff168273ffffffffffffffffffffffffffffffffffffffff16141580613c20575082600001518114155b15613c60576040517f08c379a0000000000000000000000000000000000000000000000000000000008152600401613c579061597b565b60405180910390fd5b505050565b505050505050565b8160018380549050613c7f9190614dfd565b81548110613c9057613c8f614b15565b5b9060005260206000209060020201828281548110613cb157613cb0614b15565b5b9060005260206000209060020201600082015481600001556001820160009054906101000a900473ffffffffffffffffffffffffffffffffffffffff168160010160006101000a81548173ffffffffffffffffffffffffffffffffffffffff021916908373ffffffffffffffffffffffffffffffffffffffff16021790555090505081805480613d4457613d4361599b565b5b60019003818190600052602060002090600202016000808201600090556001820160006101000a81549073ffffffffffffffffffffffffffffffffffffffff0219169055505090555050565b505050505050565b50505050565b50505050565b505050565b505050505050565b604051806040016040528060008152602001600073ffffffffffffffffffffffffffffffffffffffff1681525090565b5080546000825560020290600052602060002090810190613e029190613e05565b50565b5b80821115613e47576000808201600090556001820160006101000a81549073ffffffffffffffffffffffffffffffffffffffff021916905550600201613e06565b5090565b6000604051905090565b600080fd5b600080fd5b60007fffffffff0000000000000000000000000000000000000000000000000000000082169050919050565b613e9481613e5f565b8114613e9f57600080fd5b50565b600081359050613eb181613e8b565b92915050565b600060208284031215613ecd57613ecc613e55565b5b6000613edb84828501613ea2565b91505092915050565b60008115159050919050565b613ef981613ee4565b82525050565b6000602082019050613f146000830184613ef0565b92915050565b600073ffffffffffffffffffffffffffffffffffffffff82169050919050565b6000613f4582613f1a565b9050919050565b613f5581613f3a565b8114613f6057600080fd5b50565b600081359050613f7281613f4c565b92915050565b6000819050919050565b613f8b81613f78565b8114613f9657600080fd5b50565b600081359050613fa881613f82565b92915050565b600080fd5b600080fd5b6000601f19601f8301169050919050565b7f4e487b7100000000000000000000000000000000000000000000000000000000600052604160045260246000fd5b61400182613fb8565b810181811067ffffffffffffffff821117156140205761401f613fc9565b5b80604052505050565b6000614033613e4b565b905061403f8282613ff8565b919050565b600067ffffffffffffffff82111561405f5761405e613fc9565b5b61406882613fb8565b9050602081019050919050565b82818337600083830152505050565b600061409761409284614044565b614029565b9050828152602081018484840111156140b3576140b2613fb3565b5b6140be848285614075565b509392505050565b600082601f8301126140db576140da613fae565b5b81356140eb848260208601614084565b91505092915050565b600080600080600060a086880312156141105761410f613e55565b5b600061411e88828901613f63565b955050602061412f88828901613f63565b945050604061414088828901613f99565b935050606061415188828901613f99565b925050608086013567ffffffffffffffff81111561417257614171613e5a565b5b61417e888289016140c6565b9150509295509295909350565b600081519050919050565b600082825260208201905092915050565b60005b838110156141c55780820151818401526020810190506141aa565b60008484015250505050565b60006141dc8261418b565b6141e68185614196565b93506141f68185602086016141a7565b6141ff81613fb8565b840191505092915050565b6000602082019050818103600083015261422481846141d1565b905092915050565b60006020828403121561424257614241613e55565b5b600061425084828501613f99565b91505092915050565b61426281613f3a565b82525050565b600060208201905061427d6000830184614259565b92915050565b6000806040838503121561429a57614299613e55565b5b60006142a885828601613f63565b92505060206142b985828601613f99565b9150509250929050565b6142cc81613ee4565b81146142d757600080fd5b50565b6000813590506142e9816142c3565b92915050565b600080600080600080600080610100898b0312156143105761430f613e55565b5b600061431e8b828c01613f99565b985050602061432f8b828c01613f63565b97505060406143408b828c01613f99565b96505060606143518b828c01613f99565b95505060806143628b828c01613f63565b94505060a06143738b828c01613f99565b93505060c06143848b828c016142da565b92505060e089013567ffffffffffffffff8111156143a5576143a4613e5a565b5b6143b18b828c016140c6565b9150509295985092959890939650565b6000806000606084860312156143da576143d9613e55565b5b60006143e886828701613f63565b93505060206143f986828701613f63565b925050604061440a86828701613f99565b9150509250925092565b6000819050919050565b61442781614414565b811461443257600080fd5b50565b6000813590506144448161441e565b92915050565b6000602082840312156144605761445f613e55565b5b600061446e84828501614435565b91505092915050565b61448081614414565b82525050565b600060208201905061449b6000830184614477565b92915050565b600080604083850312156144b8576144b7613e55565b5b60006144c685828601614435565b92505060206144d785828601613f63565b9150509250929050565b600080604083850312156144f8576144f7613e55565b5b600061450685828601613f99565b925050602061451785828601613f99565b9150509250929050565b61452a81613f78565b82525050565b61453981613f3a565b82525050565b6040820160008201516145556000850182614521565b5060208201516145686020850182614530565b50505050565b6000604082019050614583600083018461453f565b92915050565b600081519050919050565b600082825260208201905092915050565b6000819050602082019050919050565b6040820160008201516145cb6000850182614521565b5060208201516145de6020850182614530565b50505050565b60006145f083836145b5565b60408301905092915050565b6000602082019050919050565b600061461482614589565b61461e8185614594565b9350614629836145a5565b8060005b8381101561465a57815161464188826145e4565b975061464c836145fc565b92505060018101905061462d565b5085935050505092915050565b600060208201905081810360008301526146818184614609565b905092915050565b600067ffffffffffffffff8211156146a4576146a3613fc9565b5b6146ad82613fb8565b9050602081019050919050565b60006146cd6146c884614689565b614029565b9050828152602081018484840111156146e9576146e8613fb3565b5b6146f4848285614075565b509392505050565b600082601f83011261471157614710613fae565b5b81356147218482602086016146ba565b91505092915050565b6000806040838503121561474157614740613e55565b5b600061474f85828601613f99565b925050602083013567ffffffffffffffff8111156147705761476f613e5a565b5b61477c858286016146fc565b9150509250929050565b6000806040838503121561479d5761479c613e55565b5b60006147ab85828601613f63565b925050602083013567ffffffffffffffff8111156147cc576147cb613e5a565b5b6147d8858286016146fc565b9150509250929050565b6000806000606084860312156147fb576147fa613e55565b5b600061480986828701613f99565b935050602061481a86828701613f99565b925050604084013567ffffffffffffffff81111561483b5761483a613e5a565b5b614847868287016140c6565b9150509250925092565b60006020828403121561486757614866613e55565b5b600061487584828501613f63565b91505092915050565b61488781613f78565b82525050565b60006020820190506148a2600083018461487e565b92915050565b600080604083850312156148bf576148be613e55565b5b60006148cd85828601613f63565b92505060206148de858286016142da565b9150509250929050565b6000806000806080858703121561490257614901613e55565b5b600061491087828801613f63565b945050602061492187828801613f63565b935050604061493287828801613f99565b925050606085013567ffffffffffffffff81111561495357614952613e5a565b5b61495f878288016140c6565b91505092959194509250565b6000806000806080858703121561498557614984613e55565b5b600061499387828801613f99565b94505060206149a487828801613f99565b93505060406149b587828801613f63565b92505060606149c687828801613f99565b91505092959194509250565b600080604083850312156149e9576149e8613e55565b5b60006149f785828601613f63565b9250506020614a0885828601613f63565b9150509250929050565b6000606082019050614a276000830186614259565b614a34602083018561487e565b614a416040830184613ef0565b949350505050565b7f4e487b7100000000000000000000000000000000000000000000000000000000600052602260045260246000fd5b60006002820490506001821680614a9057607f821691505b602082108103614aa357614aa2614a49565b5b50919050565b7f6368696c6420696e646578206f7574206f662072616e67650000000000000000600082015250565b6000614adf601883614196565b9150614aea82614aa9565b602082019050919050565b60006020820190508181036000830152614b0e81614ad2565b9050919050565b7f4e487b7100000000000000000000000000000000000000000000000000000000600052603260045260246000fd5b7f4e487b7100000000000000000000000000000000000000000000000000000000600052601160045260246000fd5b6000614b7e82613f78565b91507fffffffffffffffffffffffffffffffffffffffffffffffffffffffffffffffff8203614bb057614baf614b44565b5b600182019050919050565b7f6e6f74206120636f6e7472616374206164647265737300000000000000000000600082015250565b6000614bf1601683614196565b9150614bfc82614bbb565b602082019050919050565b60006020820190508181036000830152614c2081614be4565b9050919050565b7f6d6178696d756d206368696c6472656e206c696d697420726561636865640000600082015250565b6000614c5d601e83614196565b9150614c6882614c27565b602082019050919050565b60006020820190508181036000830152614c8c81614c50565b9050919050565b7f70656e64696e67206368696c6420696e646578206f7574206f662072616e6765600082015250565b6000614cc9602083614196565b9150614cd482614c93565b602082019050919050565b60006020820190508181036000830152614cf881614cbc565b9050919050565b7f63616c6c6572206973206e6f7420646972656374206f776e6572206e6f72206160008201527f7070726f76656400000000000000000000000000000000000000000000000000602082015250565b6000614d5b602783614196565b9150614d6682614cff565b604082019050919050565b60006020820190508181036000830152614d8a81614d4e565b9050919050565b7f63616e6e6f74206e657374207472616e7366657220746f2073656c6600000000600082015250565b6000614dc7601c83614196565b9150614dd282614d91565b602082019050919050565b60006020820190508181036000830152614df681614dba565b9050919050565b6000614e0882613f78565b9150614e1383613f78565b9250828203905081811115614e2b57614e2a614b44565b5b92915050565b6000614e3c82613f78565b9150614e4783613f78565b9250828201905080821115614e5f57614e5e614b44565b5b92915050565b6000819050919050565b6000819050919050565b6000614e94614e8f614e8a84614e65565b614e6f565b613f78565b9050919050565b614ea481614e79565b82525050565b6000604082019050614ebf600083018561487e565b614ecc6020830184614e9b565b9392505050565b60008190508160005260206000209050919050565b60006020601f8301049050919050565b600082821b905092915050565b600060088302614f357fffffffffffffffffffffffffffffffffffffffffffffffffffffffffffffffff82614ef8565b614f3f8683614ef8565b95508019841693508086168417925050509392505050565b6000614f72614f6d614f6884613f78565b614e6f565b613f78565b9050919050565b6000819050919050565b614f8c83614f57565b614fa0614f9882614f79565b848454614f05565b825550505050565b600090565b614fb5614fa8565b614fc0818484614f83565b505050565b5b81811015614fe457614fd9600082614fad565b600181019050614fc6565b5050565b601f82111561502957614ffa81614ed3565b61500384614ee8565b81016020851015615012578190505b61502661501e85614ee8565b830182614fc5565b50505b505050565b600082821c905092915050565b600061504c6000198460080261502e565b1980831691505092915050565b6000615065838361503b565b9150826002028217905092915050565b61507e8261418b565b67ffffffffffffffff81111561509757615096613fc9565b5b6150a18254614a78565b6150ac828285614fe8565b600060209050601f8311600181146150df57600084156150cd578287015190505b6150d78582615059565b86555061513f565b601f1984166150ed86614ed3565b60005b82811015615115578489015182556001820191506020850194506020810190506150f0565b86831015615132578489015161512e601f89168261503b565b8355505b6001600288020188555050505b505050505050565b600060408201905061515c6000830185614e9b565b6151696020830184614e9b565b9392505050565b60008151905061517f81613f4c565b92915050565b60006020828403121561519b5761519a613e55565b5b60006151a984828501615170565b91505092915050565b7f63616c6c6572206973206e6f74206f776e6572206e6f7220617070726f766564600082015250565b60006151e8602083614196565b91506151f3826151b2565b602082019050919050565b60006020820190508181036000830152615217816151db565b9050919050565b7f657869747320746865206d6178696d756d2072656a656374696f6e0000000000600082015250565b6000615254601b83614196565b915061525f8261521e565b602082019050919050565b6000602082019050818103600083015261528381615247565b9050919050565b7f6d6178696d756d206275726e2072656163686564000000000000000000000000600082015250565b60006152c0601483614196565b91506152cb8261528a565b602082019050919050565b600060208201905081810360008301526152ef816152b3565b9050919050565b600060408201905061530b600083018561487e565b615318602083018461487e565b9392505050565b60008151905061532e81613f82565b92915050565b60006020828403121561534a57615349613e55565b5b60006153588482850161531f565b91505092915050565b600081905092915050565b60006153778261418b565b6153818185615361565b93506153918185602086016141a7565b80840191505092915050565b60006153a9828561536c565b91506153b5828461536c565b91508190509392505050565b600081519050919050565b600082825260208201905092915050565b60006153e8826153c1565b6153f281856153cc565b93506154028185602086016141a7565b61540b81613fb8565b840191505092915050565b600060808201905061542b6000830187614259565b6154386020830186614259565b615445604083018561487e565b818103606083015261545781846153dd565b905095945050505050565b600060a0820190506154776000830188614259565b6154846020830187614259565b615491604083018661487e565b61549e606083018561487e565b81810360808301526154b081846153dd565b90509695505050505050565b60006060820190506154d1600083018661487e565b6154de6020830185613ef0565b6154eb6040830184613ef0565b949350505050565b7f6368696c6420616c726561647920616374697661746564000000000000000000600082015250565b6000615529601783614196565b9150615534826154f3565b602082019050919050565b600060208201905081810360008301526155588161551c565b9050919050565b61556881613e5f565b82525050565b6000602082019050615583600083018461555f565b92915050565b600081519050615598816142c3565b92915050565b6000602082840312156155b4576155b3613e55565b5b60006155c284828501615589565b91505092915050565b7f726563656976657220646f6573206e6f7420737570706f72742049455243373460008201527f30312e0000000000000000000000000000000000000000000000000000000000602082015250565b6000615627602383614196565b9150615632826155cb565b604082019050919050565b600060208201905081810360008301526156568161561a565b9050919050565b60008060006060848603121561567657615675613e55565b5b600061568486828701615170565b93505060206156958682870161531f565b92505060406156a686828701615589565b9150509250925092565b7f7472616e7366657220746f2064657363656e64616e7420746f6b656e2069732060008201527f6e6f7420616c6c6f776564000000000000000000000000000000000000000000602082015250565b600061570c602b83614196565b9150615717826156b0565b604082019050919050565b6000602082019050818103600083015261573b816156ff565b9050919050565b7f65786365656473206d6178696d756d20646570746820616c6c6f7765642e0000600082015250565b6000615778601e83614196565b915061578382615742565b602082019050919050565b600060208201905081810360008301526157a78161576b565b9050919050565b60006060820190506157c3600083018661487e565b6157d0602083018561487e565b81810360408301526157e281846153dd565b9050949350505050565b60006040820190506158016000830185614259565b61580e6020830184614477565b9392505050565b7f746f6b656e20616c726561647920657869737473000000000000000000000000600082015250565b600061584b601483614196565b915061585682615815565b602082019050919050565b6000602082019050818103600083015261587a8161583e565b9050919050565b7f696e636f727265637420746f6b656e2069640000000000000000000000000000600082015250565b60006158b7601283614196565b91506158c282615881565b602082019050919050565b600060208201905081810360008301526158e6816158aa565b9050919050565b6000815190506158fc81613e8b565b92915050565b60006020828403121561591857615917613e55565b5b6000615926848285016158ed565b91505092915050565b7f556e6578706563746564206368696c64206964656e7469666965720000000000600082015250565b6000615965601b83614196565b91506159708261592f565b602082019050919050565b6000602082019050818103600083015261599481615958565b9050919050565b7f4e487b7100000000000000000000000000000000000000000000000000000000600052603160045260246000fdfea26469706673582212209e1e565d678ac39f4edd3e26119d79ce5b617f58420abc8f1cfdc91d10db891e64736f6c63430008180033",
  "linkReferences": {},
  "deployedLinkReferences": {}
}