{
  "_format": "hh-sol-artifact-1",
  "contractName": "ArmoredForge",
  "sourceName": "contracts/Armor.sol",
  "abi": [
    {
      "inputs": [
        {
          "internalType": "string",
          "name": "name_",
          "type": "string"
        },
        {
          "internalType": "string",
          "name": "symbol_",
          "type": "string"
        }
      ],
      "stateMutability": "nonpayable",
      "type": "constructor"
    },
    {
      "inputs": [],
      "name": "AccessControlBadConfirmation",
      "type": "error"
    },
    {
      "inputs": [
        {
          "internalType": "address",
          "name": "account",
          "type": "address"
        },
        {
          "internalType": "bytes32",
          "name": "neededRole",
          "type": "bytes32"
        }
      ],
      "name": "AccessControlUnauthorizedAccount",
      "type": "error"
    },
    {
      "inputs": [
        {
          "internalType": "address",
          "name": "sender",
          "type": "address"
        },
        {
          "internalType": "uint256",
          "name": "tokenId",
          "type": "uint256"
        },
        {
          "internalType": "address",
          "name": "owner",
          "type": "address"
        }
      ],
      "name": "ERC721IncorrectOwner",
      "type": "error"
    },
    {
      "inputs": [
        {
          "internalType": "address",
          "name": "operator",
          "type": "address"
        },
        {
          "internalType": "uint256",
          "name": "tokenId",
          "type": "uint256"
        }
      ],
      "name": "ERC721InsufficientApproval",
      "type": "error"
    },
    {
      "inputs": [
        {
          "internalType": "address",
          "name": "approver",
          "type": "address"
        }
      ],
      "name": "ERC721InvalidApprover",
      "type": "error"
    },
    {
      "inputs": [
        {
          "internalType": "address",
          "name": "operator",
          "type": "address"
        }
      ],
      "name": "ERC721InvalidOperator",
      "type": "error"
    },
    {
      "inputs": [
        {
          "internalType": "address",
          "name": "owner",
          "type": "address"
        }
      ],
      "name": "ERC721InvalidOwner",
      "type": "error"
    },
    {
      "inputs": [
        {
          "internalType": "address",
          "name": "receiver",
          "type": "address"
        }
      ],
      "name": "ERC721InvalidReceiver",
      "type": "error"
    },
    {
      "inputs": [
        {
          "internalType": "address",
          "name": "sender",
          "type": "address"
        }
      ],
      "name": "ERC721InvalidSender",
      "type": "error"
    },
    {
      "inputs": [
        {
          "internalType": "uint256",
          "name": "tokenId",
          "type": "uint256"
        }
      ],
      "name": "ERC721NonexistentToken",
      "type": "error"
    },
    {
      "anonymous": false,
      "inputs": [
        {
          "indexed": true,
          "internalType": "uint256",
          "name": "tokenId",
          "type": "uint256"
        }
      ],
      "name": "AllChildrenRejected",
      "type": "event"
    },
    {
      "anonymous": false,
      "inputs": [
        {
          "indexed": true,
          "internalType": "address",
          "name": "owner",
          "type": "address"
        },
        {
          "indexed": true,
          "internalType": "address",
          "name": "approved",
          "type": "address"
        },
        {
          "indexed": true,
          "internalType": "uint256",
          "name": "tokenId",
          "type": "uint256"
        }
      ],
      "name": "Approval",
      "type": "event"
    },
    {
      "anonymous": false,
      "inputs": [
        {
          "indexed": true,
          "internalType": "address",
          "name": "owner",
          "type": "address"
        },
        {
          "indexed": true,
          "internalType": "address",
          "name": "operator",
          "type": "address"
        },
        {
          "indexed": false,
          "internalType": "bool",
          "name": "approved",
          "type": "bool"
        }
      ],
      "name": "ApprovalForAll",
      "type": "event"
    },
    {
      "anonymous": false,
      "inputs": [
        {
          "indexed": true,
          "internalType": "address",
          "name": "from",
          "type": "address"
        },
        {
          "indexed": true,
          "internalType": "address",
          "name": "to",
          "type": "address"
        },
        {
          "indexed": true,
          "internalType": "uint256",
          "name": "warriorId",
          "type": "uint256"
        }
      ],
      "name": "ArmorTransfer",
      "type": "event"
    },
    {
      "anonymous": false,
      "inputs": [
        {
          "indexed": false,
          "internalType": "uint256",
          "name": "_fromTokenId",
          "type": "uint256"
        },
        {
          "indexed": false,
          "internalType": "uint256",
          "name": "_toTokenId",
          "type": "uint256"
        }
      ],
      "name": "BatchMetadataUpdate",
      "type": "event"
    },
    {
      "anonymous": false,
      "inputs": [
        {
          "indexed": true,
          "internalType": "uint256",
          "name": "tokenId",
          "type": "uint256"
        },
        {
          "indexed": false,
          "internalType": "uint256",
          "name": "childIndex",
          "type": "uint256"
        },
        {
          "indexed": true,
          "internalType": "address",
          "name": "childAddress",
          "type": "address"
        },
        {
          "indexed": true,
          "internalType": "uint256",
          "name": "childId",
          "type": "uint256"
        }
      ],
      "name": "ChildAccepted",
      "type": "event"
    },
    {
      "anonymous": false,
      "inputs": [
        {
          "indexed": true,
          "internalType": "uint256",
          "name": "tokenId",
          "type": "uint256"
        },
        {
          "indexed": false,
          "internalType": "uint256",
          "name": "childIndex",
          "type": "uint256"
        },
        {
          "indexed": true,
          "internalType": "address",
          "name": "childAddress",
          "type": "address"
        },
        {
          "indexed": true,
          "internalType": "uint256",
          "name": "childId",
          "type": "uint256"
        }
      ],
      "name": "ChildProposed",
      "type": "event"
    },
    {
      "anonymous": false,
      "inputs": [
        {
          "indexed": true,
          "internalType": "uint256",
          "name": "tokenId",
          "type": "uint256"
        },
        {
          "indexed": false,
          "internalType": "uint256",
          "name": "childIndex",
          "type": "uint256"
        },
        {
          "indexed": true,
          "internalType": "address",
          "name": "childAddress",
          "type": "address"
        },
        {
          "indexed": true,
          "internalType": "uint256",
          "name": "childId",
          "type": "uint256"
        },
        {
          "indexed": false,
          "internalType": "bool",
          "name": "fromPending",
          "type": "bool"
        },
        {
          "indexed": false,
          "internalType": "bool",
          "name": "toZero",
          "type": "bool"
        }
      ],
      "name": "ChildTransferred",
      "type": "event"
    },
    {
      "anonymous": false,
      "inputs": [
        {
          "indexed": true,
          "internalType": "uint256",
          "name": "warriorId",
          "type": "uint256"
        },
        {
          "indexed": true,
          "internalType": "address",
          "name": "to",
          "type": "address"
        }
      ],
      "name": "ForgeArmor",
      "type": "event"
    },
    {
      "anonymous": false,
      "inputs": [
        {
          "indexed": false,
          "internalType": "uint256",
          "name": "_tokenId",
          "type": "uint256"
        }
      ],
      "name": "MetadataUpdate",
      "type": "event"
    },
    {
      "anonymous": false,
      "inputs": [
        {
          "indexed": true,
          "internalType": "address",
          "name": "from",
          "type": "address"
        },
        {
          "indexed": true,
          "internalType": "address",
          "name": "to",
          "type": "address"
        },
        {
          "indexed": false,
          "internalType": "uint256",
          "name": "fromTokenId",
          "type": "uint256"
        },
        {
          "indexed": false,
          "internalType": "uint256",
          "name": "toTokenId",
          "type": "uint256"
        },
        {
          "indexed": true,
          "internalType": "uint256",
          "name": "tokenId",
          "type": "uint256"
        }
      ],
      "name": "NestTransfer",
      "type": "event"
    },
    {
      "anonymous": false,
      "inputs": [
        {
          "indexed": true,
          "internalType": "address",
          "name": "from",
          "type": "address"
        },
        {
          "indexed": true,
          "internalType": "address",
          "name": "to",
          "type": "address"
        },
        {
          "indexed": false,
          "internalType": "uint256",
          "name": "fromTokenId",
          "type": "uint256"
        },
        {
          "indexed": false,
          "internalType": "uint256",
          "name": "toTokenId",
          "type": "uint256"
        },
        {
          "indexed": true,
          "internalType": "uint256",
          "name": "tokenId",
          "type": "uint256"
        }
      ],
      "name": "NestedArmorTransfer",
      "type": "event"
    },
    {
      "anonymous": false,
      "inputs": [
        {
          "indexed": true,
          "internalType": "bytes32",
          "name": "role",
          "type": "bytes32"
        },
        {
          "indexed": true,
          "internalType": "bytes32",
          "name": "previousAdminRole",
          "type": "bytes32"
        },
        {
          "indexed": true,
          "internalType": "bytes32",
          "name": "newAdminRole",
          "type": "bytes32"
        }
      ],
      "name": "RoleAdminChanged",
      "type": "event"
    },
    {
      "anonymous": false,
      "inputs": [
        {
          "indexed": true,
          "internalType": "bytes32",
          "name": "role",
          "type": "bytes32"
        },
        {
          "indexed": true,
          "internalType": "address",
          "name": "account",
          "type": "address"
        },
        {
          "indexed": true,
          "internalType": "address",
          "name": "sender",
          "type": "address"
        }
      ],
      "name": "RoleGranted",
      "type": "event"
    },
    {
      "anonymous": false,
      "inputs": [
        {
          "indexed": true,
          "internalType": "bytes32",
          "name": "role",
          "type": "bytes32"
        },
        {
          "indexed": true,
          "internalType": "address",
          "name": "account",
          "type": "address"
        },
        {
          "indexed": true,
          "internalType": "address",
          "name": "sender",
          "type": "address"
        }
      ],
      "name": "RoleRevoked",
      "type": "event"
    },
    {
      "anonymous": false,
      "inputs": [
        {
          "indexed": true,
          "internalType": "uint256",
          "name": "warriorId",
          "type": "uint256"
        },
        {
          "indexed": true,
          "internalType": "address",
          "name": "from",
          "type": "address"
        }
      ],
      "name": "ShatterArmor",
      "type": "event"
    },
    {
      "anonymous": false,
      "inputs": [
        {
          "indexed": true,
          "internalType": "address",
          "name": "from",
          "type": "address"
        },
        {
          "indexed": true,
          "internalType": "address",
          "name": "to",
          "type": "address"
        },
        {
          "indexed": true,
          "internalType": "uint256",
          "name": "tokenId",
          "type": "uint256"
        }
      ],
      "name": "Transfer",
      "type": "event"
    },
    {
      "inputs": [],
      "name": "DEFAULT_ADMIN_ROLE",
      "outputs": [
        {
          "internalType": "bytes32",
          "name": "",
          "type": "bytes32"
        }
      ],
      "stateMutability": "view",
      "type": "function"
    },
    {
      "inputs": [],
      "name": "OPERATOR_ROLE",
      "outputs": [
        {
          "internalType": "bytes32",
          "name": "",
          "type": "bytes32"
        }
      ],
      "stateMutability": "view",
      "type": "function"
    },
    {
      "inputs": [
        {
          "internalType": "uint256",
          "name": "parentId",
          "type": "uint256"
        },
        {
          "internalType": "uint256",
          "name": "childIndex",
          "type": "uint256"
        },
        {
          "internalType": "address",
          "name": "childAddress",
          "type": "address"
        },
        {
          "internalType": "uint256",
          "name": "childId",
          "type": "uint256"
        }
      ],
      "name": "acceptChild",
      "outputs": [],
      "stateMutability": "nonpayable",
      "type": "function"
    },
    {
      "inputs": [
        {
          "internalType": "address",
          "name": "armorOwner",
          "type": "address"
        },
        {
          "internalType": "address",
          "name": "warriorContractAddress",
          "type": "address"
        },
        {
          "internalType": "uint256",
          "name": "armorId",
          "type": "uint256"
        },
        {
          "internalType": "uint256",
          "name": "warriorId",
          "type": "uint256"
        },
        {
          "internalType": "bytes",
          "name": "data",
          "type": "bytes"
        }
      ],
      "name": "addArmorToWarrior",
      "outputs": [],
      "stateMutability": "nonpayable",
      "type": "function"
    },
    {
      "inputs": [
        {
          "internalType": "uint256",
          "name": "parentId",
          "type": "uint256"
        },
        {
          "internalType": "uint256",
          "name": "childId",
          "type": "uint256"
        },
        {
          "internalType": "bytes",
          "name": "data",
          "type": "bytes"
        }
      ],
      "name": "addChild",
      "outputs": [],
      "stateMutability": "nonpayable",
      "type": "function"
    },
    {
      "inputs": [
        {
          "internalType": "address",
          "name": "to",
          "type": "address"
        },
        {
          "internalType": "uint256",
          "name": "tokenId",
          "type": "uint256"
        }
      ],
      "name": "approve",
      "outputs": [],
      "stateMutability": "nonpayable",
      "type": "function"
    },
    {
      "inputs": [
        {
          "internalType": "uint256",
          "name": "armorId",
          "type": "uint256"
        }
      ],
      "name": "armorURI",
      "outputs": [
        {
          "internalType": "string",
          "name": "",
          "type": "string"
        }
      ],
      "stateMutability": "view",
      "type": "function"
    },
    {
      "inputs": [
        {
          "internalType": "address",
          "name": "owner",
          "type": "address"
        }
      ],
      "name": "balanceOf",
      "outputs": [
        {
          "internalType": "uint256",
          "name": "balance",
          "type": "uint256"
        }
      ],
      "stateMutability": "view",
      "type": "function"
    },
    {
      "inputs": [
        {
          "internalType": "uint256",
          "name": "tokenId",
          "type": "uint256"
        }
      ],
      "name": "burn",
      "outputs": [],
      "stateMutability": "nonpayable",
      "type": "function"
    },
    {
      "inputs": [
        {
          "internalType": "uint256",
          "name": "tokenId",
          "type": "uint256"
        },
        {
          "internalType": "uint256",
          "name": "maxChildrenBurns",
          "type": "uint256"
        }
      ],
      "name": "burn",
      "outputs": [
        {
          "internalType": "uint256",
          "name": "burnedChildren",
          "type": "uint256"
        }
      ],
      "stateMutability": "nonpayable",
      "type": "function"
    },
    {
      "inputs": [
        {
          "internalType": "uint256",
          "name": "parentId",
          "type": "uint256"
        },
        {
          "internalType": "uint256",
          "name": "index",
          "type": "uint256"
        }
      ],
      "name": "childOf",
      "outputs": [
        {
          "components": [
            {
              "internalType": "uint256",
              "name": "tokenId",
              "type": "uint256"
            },
            {
              "internalType": "address",
              "name": "contractAddress",
              "type": "address"
            }
          ],
          "internalType": "struct IERC7401.Child",
          "name": "child",
          "type": "tuple"
        }
      ],
      "stateMutability": "view",
      "type": "function"
    },
    {
      "inputs": [
        {
          "internalType": "uint256",
          "name": "parentId",
          "type": "uint256"
        }
      ],
      "name": "childrenOf",
      "outputs": [
        {
          "components": [
            {
              "internalType": "uint256",
              "name": "tokenId",
              "type": "uint256"
            },
            {
              "internalType": "address",
              "name": "contractAddress",
              "type": "address"
            }
          ],
          "internalType": "struct IERC7401.Child[]",
          "name": "children",
          "type": "tuple[]"
        }
      ],
      "stateMutability": "view",
      "type": "function"
    },
    {
      "inputs": [
        {
          "internalType": "uint256",
          "name": "tokenId",
          "type": "uint256"
        }
      ],
      "name": "directOwnerOf",
      "outputs": [
        {
          "internalType": "address",
          "name": "owner_",
          "type": "address"
        },
        {
          "internalType": "uint256",
          "name": "parentId",
          "type": "uint256"
        },
        {
          "internalType": "bool",
          "name": "isNFT",
          "type": "bool"
        }
      ],
      "stateMutability": "view",
      "type": "function"
    },
    {
      "inputs": [
        {
          "internalType": "address",
          "name": "to",
          "type": "address"
        },
        {
          "internalType": "string",
          "name": "_armorURI",
          "type": "string"
        }
      ],
      "name": "forgeArmor",
      "outputs": [],
      "stateMutability": "nonpayable",
      "type": "function"
    },
    {
      "inputs": [
        {
          "internalType": "address",
          "name": "warriorContractAddress",
          "type": "address"
        },
        {
          "internalType": "uint256",
          "name": "warriorId",
          "type": "uint256"
        },
        {
          "internalType": "string",
          "name": "_armorURI",
          "type": "string"
        }
      ],
      "name": "forgeArmorToWarrior",
      "outputs": [],
      "stateMutability": "nonpayable",
      "type": "function"
    },
    {
      "inputs": [
        {
          "internalType": "uint256",
          "name": "tokenId",
          "type": "uint256"
        }
      ],
      "name": "getApproved",
      "outputs": [
        {
          "internalType": "address",
          "name": "approved",
          "type": "address"
        }
      ],
      "stateMutability": "view",
      "type": "function"
    },
    {
      "inputs": [
        {
          "internalType": "bytes32",
          "name": "role",
          "type": "bytes32"
        }
      ],
      "name": "getRoleAdmin",
      "outputs": [
        {
          "internalType": "bytes32",
          "name": "",
          "type": "bytes32"
        }
      ],
      "stateMutability": "view",
      "type": "function"
    },
    {
      "inputs": [
        {
          "internalType": "bytes32",
          "name": "role",
          "type": "bytes32"
        },
        {
          "internalType": "address",
          "name": "account",
          "type": "address"
        }
      ],
      "name": "grantRole",
      "outputs": [],
      "stateMutability": "nonpayable",
      "type": "function"
    },
    {
      "inputs": [
        {
          "internalType": "bytes32",
          "name": "role",
          "type": "bytes32"
        },
        {
          "internalType": "address",
          "name": "account",
          "type": "address"
        }
      ],
      "name": "hasRole",
      "outputs": [
        {
          "internalType": "bool",
          "name": "",
          "type": "bool"
        }
      ],
      "stateMutability": "view",
      "type": "function"
    },
    {
      "inputs": [
        {
          "internalType": "address",
          "name": "owner",
          "type": "address"
        },
        {
          "internalType": "address",
          "name": "operator",
          "type": "address"
        }
      ],
      "name": "isApprovedForAll",
      "outputs": [
        {
          "internalType": "bool",
          "name": "isApproved",
          "type": "bool"
        }
      ],
      "stateMutability": "view",
      "type": "function"
    },
    {
      "inputs": [],
      "name": "name",
      "outputs": [
        {
          "internalType": "string",
          "name": "",
          "type": "string"
        }
      ],
      "stateMutability": "view",
      "type": "function"
    },
    {
      "inputs": [
        {
          "internalType": "address",
          "name": "from",
          "type": "address"
        },
        {
          "internalType": "address",
          "name": "to",
          "type": "address"
        },
        {
          "internalType": "uint256",
          "name": "tokenId",
          "type": "uint256"
        },
        {
          "internalType": "uint256",
          "name": "destinationId",
          "type": "uint256"
        },
        {
          "internalType": "bytes",
          "name": "data",
          "type": "bytes"
        }
      ],
      "name": "nestTransferFrom",
      "outputs": [],
      "stateMutability": "nonpayable",
      "type": "function"
    },
    {
      "inputs": [
        {
          "internalType": "uint256",
          "name": "tokenId",
          "type": "uint256"
        }
      ],
      "name": "ownerOf",
      "outputs": [
        {
          "internalType": "address",
          "name": "owner_",
          "type": "address"
        }
      ],
      "stateMutability": "view",
      "type": "function"
    },
    {
      "inputs": [
        {
          "internalType": "uint256",
          "name": "parentId",
          "type": "uint256"
        },
        {
          "internalType": "uint256",
          "name": "index",
          "type": "uint256"
        }
      ],
      "name": "pendingChildOf",
      "outputs": [
        {
          "components": [
            {
              "internalType": "uint256",
              "name": "tokenId",
              "type": "uint256"
            },
            {
              "internalType": "address",
              "name": "contractAddress",
              "type": "address"
            }
          ],
          "internalType": "struct IERC7401.Child",
          "name": "child",
          "type": "tuple"
        }
      ],
      "stateMutability": "view",
      "type": "function"
    },
    {
      "inputs": [
        {
          "internalType": "uint256",
          "name": "parentId",
          "type": "uint256"
        }
      ],
      "name": "pendingChildrenOf",
      "outputs": [
        {
          "components": [
            {
              "internalType": "uint256",
              "name": "tokenId",
              "type": "uint256"
            },
            {
              "internalType": "address",
              "name": "contractAddress",
              "type": "address"
            }
          ],
          "internalType": "struct IERC7401.Child[]",
          "name": "children",
          "type": "tuple[]"
        }
      ],
      "stateMutability": "view",
      "type": "function"
    },
    {
      "inputs": [
        {
          "internalType": "uint256",
          "name": "tokenId",
          "type": "uint256"
        },
        {
          "internalType": "uint256",
          "name": "maxRejections",
          "type": "uint256"
        }
      ],
      "name": "rejectAllChildren",
      "outputs": [],
      "stateMutability": "nonpayable",
      "type": "function"
    },
    {
      "inputs": [
        {
          "internalType": "bytes32",
          "name": "role",
          "type": "bytes32"
        },
        {
          "internalType": "address",
          "name": "callerConfirmation",
          "type": "address"
        }
      ],
      "name": "renounceRole",
      "outputs": [],
      "stateMutability": "nonpayable",
      "type": "function"
    },
    {
      "inputs": [
        {
          "internalType": "bytes32",
          "name": "role",
          "type": "bytes32"
        },
        {
          "internalType": "address",
          "name": "account",
          "type": "address"
        }
      ],
      "name": "revokeRole",
      "outputs": [],
      "stateMutability": "nonpayable",
      "type": "function"
    },
    {
      "inputs": [
        {
          "internalType": "address",
          "name": "from",
          "type": "address"
        },
        {
          "internalType": "address",
          "name": "to",
          "type": "address"
        },
        {
          "internalType": "uint256",
          "name": "tokenId",
          "type": "uint256"
        }
      ],
      "name": "safeTransferFrom",
      "outputs": [],
      "stateMutability": "nonpayable",
      "type": "function"
    },
    {
      "inputs": [
        {
          "internalType": "address",
          "name": "from",
          "type": "address"
        },
        {
          "internalType": "address",
          "name": "to",
          "type": "address"
        },
        {
          "internalType": "uint256",
          "name": "tokenId",
          "type": "uint256"
        },
        {
          "internalType": "bytes",
          "name": "data",
          "type": "bytes"
        }
      ],
      "name": "safeTransferFrom",
      "outputs": [],
      "stateMutability": "nonpayable",
      "type": "function"
    },
    {
      "inputs": [
        {
          "internalType": "address",
          "name": "operator",
          "type": "address"
        },
        {
          "internalType": "bool",
          "name": "approved",
          "type": "bool"
        }
      ],
      "name": "setApprovalForAll",
      "outputs": [],
      "stateMutability": "nonpayable",
      "type": "function"
    },
    {
      "inputs": [
        {
          "internalType": "uint256",
          "name": "armorId",
          "type": "uint256"
        },
        {
          "internalType": "string",
          "name": "_armorURI",
          "type": "string"
        }
      ],
      "name": "setArmorURI",
      "outputs": [],
      "stateMutability": "nonpayable",
      "type": "function"
    },
    {
      "inputs": [
        {
          "internalType": "bytes4",
          "name": "interfaceId",
          "type": "bytes4"
        }
      ],
      "name": "supportsInterface",
      "outputs": [
        {
          "internalType": "bool",
          "name": "",
          "type": "bool"
        }
      ],
      "stateMutability": "view",
      "type": "function"
    },
    {
      "inputs": [],
      "name": "symbol",
      "outputs": [
        {
          "internalType": "string",
          "name": "",
          "type": "string"
        }
      ],
      "stateMutability": "view",
      "type": "function"
    },
    {
      "inputs": [
        {
          "internalType": "uint256",
          "name": "tokenId",
          "type": "uint256"
        }
      ],
      "name": "tokenURI",
      "outputs": [
        {
          "internalType": "string",
          "name": "",
          "type": "string"
        }
      ],
      "stateMutability": "view",
      "type": "function"
    },
    {
      "inputs": [
        {
          "internalType": "uint256",
          "name": "tokenId",
          "type": "uint256"
        },
        {
          "internalType": "address",
          "name": "to",
          "type": "address"
        },
        {
          "internalType": "uint256",
          "name": "destinationId",
          "type": "uint256"
        },
        {
          "internalType": "uint256",
          "name": "childIndex",
          "type": "uint256"
        },
        {
          "internalType": "address",
          "name": "childAddress",
          "type": "address"
        },
        {
          "internalType": "uint256",
          "name": "childId",
          "type": "uint256"
        },
        {
          "internalType": "bool",
          "name": "isPending",
          "type": "bool"
        },
        {
          "internalType": "bytes",
          "name": "data",
          "type": "bytes"
        }
      ],
      "name": "transferChild",
      "outputs": [],
      "stateMutability": "nonpayable",
      "type": "function"
    },
    {
      "inputs": [
        {
          "internalType": "address",
          "name": "from",
          "type": "address"
        },
        {
          "internalType": "address",
          "name": "to",
          "type": "address"
        },
        {
          "internalType": "uint256",
          "name": "tokenId",
          "type": "uint256"
        }
      ],
      "name": "transferFrom",
      "outputs": [],
      "stateMutability": "nonpayable",
      "type": "function"
    }
  ],
  "bytecode": "0x60806040523480156200001157600080fd5b5060405162006c9f38038062006c9f833981810160405281019062000037919062000b7a565b816009908162000048919062000e4a565b5080600a90816200005a919062000e4a565b50620000706000801b33620000bc60201b60201c565b50620000a37f97667070c54ef182b0f5858b034beac1b6f3089aa2d3188bb1e8929f4fa9b92933620000bc60201b60201c565b50620000b4620001bf60201b60201c565b5050620011ed565b6000620000d08383620003b960201b60201c565b620001b457600160008085815260200190815260200160002060000160008473ffffffffffffffffffffffffffffffffffffffff1673ffffffffffffffffffffffffffffffffffffffff16815260200190815260200160002060006101000a81548160ff021916908315150217905550620001506200042360201b60201c565b73ffffffffffffffffffffffffffffffffffffffff168273ffffffffffffffffffffffffffffffffffffffff16847f2f8788117e7eff1d82e926ec794901d17c78024a50270940304540a733656f0d60405160405180910390a460019050620001b9565b600090505b92915050565b620001f733600b60008154620001d59062000f60565b919050819055604051806020016040528060008152506200042b60201b60201c565b6200022f33600b600081546200020d9062000f60565b919050819055604051806020016040528060008152506200042b60201b60201c565b6200026733600b60008154620002459062000f60565b919050819055604051806020016040528060008152506200042b60201b60201c565b6200029f33600b600081546200027d9062000f60565b919050819055604051806020016040528060008152506200042b60201b60201c565b620002d733600b60008154620002b59062000f60565b919050819055604051806020016040528060008152506200042b60201b60201c565b6200030f33600b60008154620002ed9062000f60565b919050819055604051806020016040528060008152506200042b60201b60201c565b6200034733600b60008154620003259062000f60565b919050819055604051806020016040528060008152506200042b60201b60201c565b6200037f33600b600081546200035d9062000f60565b919050819055604051806020016040528060008152506200042b60201b60201c565b620003b733600b60008154620003959062000f60565b919050819055604051806020016040528060008152506200042b60201b60201c565b565b600080600084815260200190815260200160002060000160008373ffffffffffffffffffffffffffffffffffffffff1673ffffffffffffffffffffffffffffffffffffffff16815260200190815260200160002060009054906101000a900460ff16905092915050565b600033905090565b6200044083836000846200053960201b60201c565b818373ffffffffffffffffffffffffffffffffffffffff16600073ffffffffffffffffffffffffffffffffffffffff167fddf252ad1be2c89b69c2b068fc378daa952ba7f163c4a11628f55a4df523b3ef60405160405180910390a4818373ffffffffffffffffffffffffffffffffffffffff16600073ffffffffffffffffffffffffffffffffffffffff167f04444026cefd1b05506559cab59d1b865ae3ba4ed2fe5c894f04e522776c552d6000806040516200050092919062000ff0565b60405180910390a46200051c600084846200076360201b60201c565b620005346000846000808686620008d660201b60201c565b505050565b600073ffffffffffffffffffffffffffffffffffffffff168473ffffffffffffffffffffffffffffffffffffffff1603620005ad57836040517f64a0ae92000000000000000000000000000000000000000000000000000000008152600401620005a4919062001062565b60405180910390fd5b620005be836200095e60201b60201c565b1562000601576040517f08c379a0000000000000000000000000000000000000000000000000000000008152600401620005f890620010e0565b60405180910390fd5b6000830362000647576040517f08c379a00000000000000000000000000000000000000000000000000000000081526004016200063e9062001152565b60405180910390fd5b6200065b60008585620009cd60201b60201c565b620006736000856000858786620009d260201b60201c565b60018060008673ffffffffffffffffffffffffffffffffffffffff1673ffffffffffffffffffffffffffffffffffffffff1681526020019081526020016000206000828254620006c4919062001174565b9250508190555060405180604001604052808381526020018573ffffffffffffffffffffffffffffffffffffffff16815250600460008581526020019081526020016000206000820151816000015560208201518160010160006101000a81548173ffffffffffffffffffffffffffffffffffffffff021916908373ffffffffffffffffffffffffffffffffffffffff16021790555090505050505050565b62000776838383620009da60201b60201c565b600073ffffffffffffffffffffffffffffffffffffffff168373ffffffffffffffffffffffffffffffffffffffff1603620007f5578173ffffffffffffffffffffffffffffffffffffffff16817f12efee3b09e3e613ba78fc8fd69f2f4de0cd37747ede20391da66a3891ea325160405160405180910390a3620008d1565b600073ffffffffffffffffffffffffffffffffffffffff168273ffffffffffffffffffffffffffffffffffffffff160362000874578273ffffffffffffffffffffffffffffffffffffffff16817f9435a6058553357d779023fa6181ddf9fdb00bae9da8728dc833c982c78e80e460405160405180910390a3620008d0565b808273ffffffffffffffffffffffffffffffffffffffff168473ffffffffffffffffffffffffffffffffffffffff167f40647cf181b388f859641b85c8564939765ddc3688397a4347ffaf81585841a660405160405180910390a45b5b505050565b620008ec868686868686620009df60201b60201c565b818573ffffffffffffffffffffffffffffffffffffffff168773ffffffffffffffffffffffffffffffffffffffff167f916f698aa57029b1022aebdbd014c15a2daf45bb5d5abe3ddf2a77f0454c5ef787876040516200094e929190620011c0565b60405180910390a4505050505050565b60008073ffffffffffffffffffffffffffffffffffffffff166004600084815260200190815260200160002060010160009054906101000a900473ffffffffffffffffffffffffffffffffffffffff1673ffffffffffffffffffffffffffffffffffffffff1614159050919050565b505050565b505050505050565b505050565b505050505050565b6000604051905090565b600080fd5b600080fd5b600080fd5b600080fd5b6000601f19601f8301169050919050565b7f4e487b7100000000000000000000000000000000000000000000000000000000600052604160045260246000fd5b62000a508262000a05565b810181811067ffffffffffffffff8211171562000a725762000a7162000a16565b5b80604052505050565b600062000a87620009e7565b905062000a95828262000a45565b919050565b600067ffffffffffffffff82111562000ab85762000ab762000a16565b5b62000ac38262000a05565b9050602081019050919050565b60005b8381101562000af057808201518184015260208101905062000ad3565b60008484015250505050565b600062000b1362000b0d8462000a9a565b62000a7b565b90508281526020810184848401111562000b325762000b3162000a00565b5b62000b3f84828562000ad0565b509392505050565b600082601f83011262000b5f5762000b5e620009fb565b5b815162000b7184826020860162000afc565b91505092915050565b6000806040838503121562000b945762000b93620009f1565b5b600083015167ffffffffffffffff81111562000bb55762000bb4620009f6565b5b62000bc38582860162000b47565b925050602083015167ffffffffffffffff81111562000be75762000be6620009f6565b5b62000bf58582860162000b47565b9150509250929050565b600081519050919050565b7f4e487b7100000000000000000000000000000000000000000000000000000000600052602260045260246000fd5b6000600282049050600182168062000c5257607f821691505b60208210810362000c685762000c6762000c0a565b5b50919050565b60008190508160005260206000209050919050565b60006020601f8301049050919050565b600082821b905092915050565b60006008830262000cd27fffffffffffffffffffffffffffffffffffffffffffffffffffffffffffffffff8262000c93565b62000cde868362000c93565b95508019841693508086168417925050509392505050565b6000819050919050565b6000819050919050565b600062000d2b62000d2562000d1f8462000cf6565b62000d00565b62000cf6565b9050919050565b6000819050919050565b62000d478362000d0a565b62000d5f62000d568262000d32565b84845462000ca0565b825550505050565b600090565b62000d7662000d67565b62000d8381848462000d3c565b505050565b5b8181101562000dab5762000d9f60008262000d6c565b60018101905062000d89565b5050565b601f82111562000dfa5762000dc48162000c6e565b62000dcf8462000c83565b8101602085101562000ddf578190505b62000df762000dee8562000c83565b83018262000d88565b50505b505050565b600082821c905092915050565b600062000e1f6000198460080262000dff565b1980831691505092915050565b600062000e3a838362000e0c565b9150826002028217905092915050565b62000e558262000bff565b67ffffffffffffffff81111562000e715762000e7062000a16565b5b62000e7d825462000c39565b62000e8a82828562000daf565b600060209050601f83116001811462000ec2576000841562000ead578287015190505b62000eb9858262000e2c565b86555062000f29565b601f19841662000ed28662000c6e565b60005b8281101562000efc5784890151825560018201915060208501945060208101905062000ed5565b8683101562000f1c578489015162000f18601f89168262000e0c565b8355505b6001600288020188555050505b505050505050565b7f4e487b7100000000000000000000000000000000000000000000000000000000600052601160045260246000fd5b600062000f6d8262000cf6565b91507fffffffffffffffffffffffffffffffffffffffffffffffffffffffffffffffff820362000fa25762000fa162000f31565b5b600182019050919050565b6000819050919050565b600062000fd862000fd262000fcc8462000fad565b62000d00565b62000cf6565b9050919050565b62000fea8162000fb7565b82525050565b600060408201905062001007600083018562000fdf565b62001016602083018462000fdf565b9392505050565b600073ffffffffffffffffffffffffffffffffffffffff82169050919050565b60006200104a826200101d565b9050919050565b6200105c816200103d565b82525050565b600060208201905062001079600083018462001051565b92915050565b600082825260208201905092915050565b7f746f6b656e20616c726561647920657869737473000000000000000000000000600082015250565b6000620010c86014836200107f565b9150620010d58262001090565b602082019050919050565b60006020820190508181036000830152620010fb81620010b9565b9050919050565b7f696e636f727265637420746f6b656e2069640000000000000000000000000000600082015250565b60006200113a6012836200107f565b9150620011478262001102565b602082019050919050565b600060208201905081810360008301526200116d816200112b565b9050919050565b6000620011818262000cf6565b91506200118e8362000cf6565b9250828201905080821115620011a957620011a862000f31565b5b92915050565b620011ba8162000cf6565b82525050565b6000604082019050620011d76000830185620011af565b620011e66020830184620011af565b9392505050565b615aa280620011fd6000396000f3fe608060405234801561001057600080fd5b50600436106102275760003560e01c80636f19951c11610130578063b390c0ab116100b8578063defa80c31161007c578063defa80c3146106b6578063e97ceaa8146106d2578063e985e9c5146106ee578063f5b541a61461071e578063fb25fb7a1461073c57610227565b8063b390c0ab14610602578063b88d4fde14610632578063c87b56dd1461064e578063ce6eab7d1461067e578063d547741f1461069a57610227565b8063974ac73a116100ff578063974ac73a14610560578063979613361461057c578063a217fddf14610598578063a22cb465146105b6578063a898e364146105d257610227565b80636f19951c146104b257806370a08231146104e257806391d148541461051257806395d89b411461054257610227565b80632f2ff15d116101b357806342966c681161018257806342966c68146103fe57806344ec93441461041a5780636352211e1461044a578063635490cc1461047a57806369bad7811461049657610227565b80632f2ff15d1461037a5780632f32f9371461039657806336568abe146103c657806342842e0e146103e257610227565b8063095ea7b3116101fa578063095ea7b3146102c65780630990eb1d146102e25780630ff562331461031257806323b872dd1461032e578063248a9ca31461034a57610227565b806301ffc9a71461022c578063064c0a3a1461025c57806306fdde0314610278578063081812fc14610296575b600080fd5b61024660048036038101906102419190613eea565b61076e565b6040516102539190613f32565b60405180910390f35b61027660048036038101906102719190614127565b610780565b005b61028061079f565b60405161028d919061423d565b60405180910390f35b6102b060048036038101906102ab919061425f565b610831565b6040516102bd919061429b565b60405180910390f35b6102e060048036038101906102db91906142b6565b6108bc565b005b6102fc60048036038101906102f7919061425f565b6109e2565b604051610309919061423d565b60405180910390f35b61032c60048036038101906103279190614127565b6109f4565b005b610348600480360381019061034391906142f6565b610a08565b005b610364600480360381019061035f919061437f565b610a33565b60405161037191906143bb565b60405180910390f35b610394600480360381019061038f91906143d6565b610a52565b005b6103b060048036038101906103ab9190614416565b610a74565b6040516103bd91906144a3565b60405180910390f35b6103e060048036038101906103db91906143d6565b610b6d565b005b6103fc60048036038101906103f791906142f6565b610be8565b005b6104186004803603810190610413919061425f565b610c08565b005b610434600480360381019061042f919061425f565b610c17565b604051610441919061459c565b60405180910390f35b610464600480360381019061045f919061425f565b610ce9565b604051610471919061429b565b60405180910390f35b610494600480360381019061048f91906145be565b610cfb565b005b6104b060048036038101906104ab91906146ce565b610ef0565b005b6104cc60048036038101906104c7919061425f565b610f5d565b6040516104d9919061459c565b60405180910390f35b6104fc60048036038101906104f7919061472a565b61102f565b6040516105099190614766565b60405180910390f35b61052c600480360381019061052791906143d6565b6110e8565b6040516105399190613f32565b60405180910390f35b61054a611152565b604051610557919061423d565b60405180910390f35b61057a60048036038101906105759190614781565b6111e4565b005b61059660048036038101906105919190614416565b611226565b005b6105a061123f565b6040516105ad91906143bb565b60405180910390f35b6105d060048036038101906105cb9190614809565b611246565b005b6105ec60048036038101906105e79190614416565b6113cf565b6040516105f991906144a3565b60405180910390f35b61061c60048036038101906106179190614416565b6114c8565b6040516106299190614766565b60405180910390f35b61064c60048036038101906106479190614849565b6114e7565b005b6106686004803603810190610663919061425f565b611504565b604051610675919061423d565b60405180910390f35b610698600480360381019061069391906148cc565b611516565b005b6106b460048036038101906106af91906143d6565b611585565b005b6106d060048036038101906106cb919061493b565b6115a7565b005b6106ec60048036038101906106e79190614a0d565b6115cc565b005b61070860048036038101906107039190614a74565b6115e9565b6040516107159190613f32565b60405180910390f35b61072661167d565b60405161073391906143bb565b60405180910390f35b6107566004803603810190610751919061425f565b6116a1565b60405161076593929190614ab4565b60405180910390f35b6000610779826117c1565b9050919050565b8261078a81611822565b6107978686868686611875565b505050505050565b6060600980546107ae90614b1a565b80601f01602080910402602001604051908101604052809291908181526020018280546107da90614b1a565b80156108275780601f106107fc57610100808354040283529160200191610827565b820191906000526020600020905b81548152906001019060200180831161080a57829003601f168201915b5050505050905090565b600061083c82611a6b565b60026000838152602001908152602001600020600061085a84610ce9565b73ffffffffffffffffffffffffffffffffffffffff1673ffffffffffffffffffffffffffffffffffffffff16815260200190815260200160002060009054906101000a900473ffffffffffffffffffffffffffffffffffffffff169050919050565b60006108c782610ce9565b90508073ffffffffffffffffffffffffffffffffffffffff168373ffffffffffffffffffffffffffffffffffffffff160361093957826040517fa9fbf51f000000000000000000000000000000000000000000000000000000008152600401610930919061429b565b60405180910390fd5b8073ffffffffffffffffffffffffffffffffffffffff16610958611ab8565b73ffffffffffffffffffffffffffffffffffffffff161415801561098a575061098881610983611ab8565b6115e9565b155b156109d357610997611ab8565b6040517fa9fbf51f0000000000000000000000000000000000000000000000000000000081526004016109ca919061429b565b60405180910390fd5b6109dd8383611ac0565b505050565b60606109ed82611504565b9050919050565b610a018585858585610780565b5050505050565b80610a1281611822565b610a2d84848460405180602001604052806000815250611bbc565b50505050565b6000806000838152602001908152602001600020600101549050919050565b610a5b82610a33565b610a6481611e66565b610a6e8383611e7a565b50505050565b610a7c613de4565b81610a8684610f5d565b5111610ac7576040517f08c379a0000000000000000000000000000000000000000000000000000000008152600401610abe90614b97565b60405180910390fd5b600560008481526020019081526020016000208281548110610aec57610aeb614bb7565b5b9060005260206000209060020201604051806040016040529081600082015481526020016001820160009054906101000a900473ffffffffffffffffffffffffffffffffffffffff1673ffffffffffffffffffffffffffffffffffffffff1673ffffffffffffffffffffffffffffffffffffffff1681525050905092915050565b610b75611ab8565b73ffffffffffffffffffffffffffffffffffffffff168173ffffffffffffffffffffffffffffffffffffffff1614610bd9576040517f6697b23200000000000000000000000000000000000000000000000000000000815260040160405180910390fd5b610be38282611f6b565b505050565b610c03838383604051806020016040528060008152506114e7565b505050565b610c138160006114c8565b5050565b606060066000838152602001908152602001600020805480602002602001604051908101604052809291908181526020016000905b82821015610cde5783829060005260206000209060020201604051806040016040529081600082015481526020016001820160009054906101000a900473ffffffffffffffffffffffffffffffffffffffff1673ffffffffffffffffffffffffffffffffffffffff1673ffffffffffffffffffffffffffffffffffffffff168152505081526020019060010190610c4c565b505050509050919050565b6000610cf48261205d565b9050919050565b610d0483611a6b565b6000610d0e611ab8565b905060008173ffffffffffffffffffffffffffffffffffffffff163b03610d6a576040517f08c379a0000000000000000000000000000000000000000000000000000000008152600401610d6190614c32565b60405180910390fd5b600060405180604001604052808581526020018373ffffffffffffffffffffffffffffffffffffffff168152509050610da585838686612100565b6000610db086610c17565b5190506080811015610e5157600660008781526020019081526020016000208290806001815401808255809150506001900390600052602060002090600202016000909190919091506000820151816000015560208201518160010160006101000a81548173ffffffffffffffffffffffffffffffffffffffff021916908373ffffffffffffffffffffffffffffffffffffffff1602179055505050610e8c565b6040517f08c379a0000000000000000000000000000000000000000000000000000000008152600401610e8390614c9e565b60405180910390fd5b848373ffffffffffffffffffffffffffffffffffffffff16877fe65085e689b77b126ba0bac3b079aa8288f19f4d5445af11c76003f8ab3075dd84604051610ed49190614766565b60405180910390a4610ee886848787612106565b505050505050565b7f97667070c54ef182b0f5858b034beac1b6f3089aa2d3188bb1e8929f4fa9b929610f1a81611e66565b6000600b60008154610f2b90614ced565b9190508190559050610f4d84826040518060200160405280600081525061210c565b610f5781846111e4565b50505050565b606060056000838152602001908152602001600020805480602002602001604051908101604052809291908181526020016000905b828210156110245783829060005260206000209060020201604051806040016040529081600082015481526020016001820160009054906101000a900473ffffffffffffffffffffffffffffffffffffffff1673ffffffffffffffffffffffffffffffffffffffff1673ffffffffffffffffffffffffffffffffffffffff168152505081526020019060010190610f92565b505050509050919050565b60008073ffffffffffffffffffffffffffffffffffffffff168273ffffffffffffffffffffffffffffffffffffffff16036110a157816040517f89c62b64000000000000000000000000000000000000000000000000000000008152600401611098919061429b565b60405180910390fd5b600160008373ffffffffffffffffffffffffffffffffffffffff1673ffffffffffffffffffffffffffffffffffffffff168152602001908152602001600020549050919050565b600080600084815260200190815260200160002060000160008373ffffffffffffffffffffffffffffffffffffffff1673ffffffffffffffffffffffffffffffffffffffff16815260200190815260200160002060009054906101000a900460ff16905092915050565b6060600a805461116190614b1a565b80601f016020809104026020016040519081016040528092919081815260200182805461118d90614b1a565b80156111da5780601f106111af576101008083540402835291602001916111da565b820191906000526020600020905b8154815290600101906020018083116111bd57829003601f168201915b5050505050905090565b7f97667070c54ef182b0f5858b034beac1b6f3089aa2d3188bb1e8929f4fa9b92961120e81611e66565b61121783611a6b565b6112218383612200565b505050565b816112308161225c565b61123a83836122af565b505050565b6000801b81565b8173ffffffffffffffffffffffffffffffffffffffff16611265611ab8565b73ffffffffffffffffffffffffffffffffffffffff16036112c457611288611ab8565b6040517f5b08ba180000000000000000000000000000000000000000000000000000000081526004016112bb919061429b565b60405180910390fd5b80600360006112d1611ab8565b73ffffffffffffffffffffffffffffffffffffffff1673ffffffffffffffffffffffffffffffffffffffff16815260200190815260200160002060008473ffffffffffffffffffffffffffffffffffffffff1673ffffffffffffffffffffffffffffffffffffffff16815260200190815260200160002060006101000a81548160ff0219169083151502179055508173ffffffffffffffffffffffffffffffffffffffff1661137e611ab8565b73ffffffffffffffffffffffffffffffffffffffff167f17307eab39ab6107e8899845ad3d59bd9653f200f220920489ca2b5937696c31836040516113c39190613f32565b60405180910390a35050565b6113d7613de4565b816113e184610c17565b5111611422576040517f08c379a000000000000000000000000000000000000000000000000000000000815260040161141990614d81565b60405180910390fd5b60066000848152602001908152602001600020828154811061144757611446614bb7565b5b9060005260206000209060020201604051806040016040529081600082015481526020016001820160009054906101000a900473ffffffffffffffffffffffffffffffffffffffff1673ffffffffffffffffffffffffffffffffffffffff1673ffffffffffffffffffffffffffffffffffffffff1681525050905092915050565b6000826114d481611822565b6114de848461236a565b91505092915050565b816114f181611822565b6114fd858585856127f9565b5050505050565b606061150f82612858565b9050919050565b7f97667070c54ef182b0f5858b034beac1b6f3089aa2d3188bb1e8929f4fa9b92961154081611e66565b6000600b6000815461155190614ced565b919050819055905061157485828660405180602001604052806000815250612971565b61157e81846111e4565b5050505050565b61158e82610a33565b61159781611e66565b6115a18383611f6b565b50505050565b876115b18161225c565b6115c1898989898989898961299c565b505050505050505050565b836115d68161225c565b6115e285858585612c44565b5050505050565b6000600360008473ffffffffffffffffffffffffffffffffffffffff1673ffffffffffffffffffffffffffffffffffffffff16815260200190815260200160002060008373ffffffffffffffffffffffffffffffffffffffff1673ffffffffffffffffffffffffffffffffffffffff16815260200190815260200160002060009054906101000a900460ff16905092915050565b7f97667070c54ef182b0f5858b034beac1b6f3089aa2d3188bb1e8929f4fa9b92981565b60008060008060046000868152602001908152602001600020604051806040016040529081600082015481526020016001820160009054906101000a900473ffffffffffffffffffffffffffffffffffffffff1673ffffffffffffffffffffffffffffffffffffffff1673ffffffffffffffffffffffffffffffffffffffff16815250509050600073ffffffffffffffffffffffffffffffffffffffff16816020015173ffffffffffffffffffffffffffffffffffffffff16036117a05780602001516040517f89c62b64000000000000000000000000000000000000000000000000000000008152600401611797919061429b565b60405180910390fd5b80602001519350806000015192506000816000015114159150509193909250565b6000634906490660e01b7bffffffffffffffffffffffffffffffffffffffffffffffffffffffff1916827bffffffffffffffffffffffffffffffffffffffffffffffffffffffff1916148061181b575061181a82612e61565b5b9050919050565b61183361182d611ab8565b82612f9b565b611872576040517f08c379a000000000000000000000000000000000000000000000000000000000815260040161186990614e13565b60405180910390fd5b50565b600080611881856116a1565b50915091508673ffffffffffffffffffffffffffffffffffffffff168273ffffffffffffffffffffffffffffffffffffffff16146118f657866040517f89c62b640000000000000000000000000000000000000000000000000000000081526004016118ed919061429b565b60405180910390fd5b3073ffffffffffffffffffffffffffffffffffffffff168673ffffffffffffffffffffffffffffffffffffffff1614801561193057508385145b15611970576040517f08c379a000000000000000000000000000000000000000000000000000000000815260040161196790614e7f565b60405180910390fd5b61197986613077565b6119848587866131ad565b61198f87878761331b565b61199d828783878988613320565b60018060008973ffffffffffffffffffffffffffffffffffffffff1673ffffffffffffffffffffffffffffffffffffffff16815260200190815260200160002060008282546119ec9190614e9f565b925050819055506119fe858588613328565b60018060008873ffffffffffffffffffffffffffffffffffffffff1673ffffffffffffffffffffffffffffffffffffffff1681526020019081526020016000206000828254611a4d9190614ed3565b92505081905550611a628287838789886133d3565b50505050505050565b611a748161352c565b611ab557806040517f7e273289000000000000000000000000000000000000000000000000000000008152600401611aac9190614766565b60405180910390fd5b50565b600033905090565b6000611acb82610ce9565b9050826002600084815260200190815260200160002060008373ffffffffffffffffffffffffffffffffffffffff1673ffffffffffffffffffffffffffffffffffffffff16815260200190815260200160002060006101000a81548173ffffffffffffffffffffffffffffffffffffffff021916908373ffffffffffffffffffffffffffffffffffffffff160217905550818373ffffffffffffffffffffffffffffffffffffffff168273ffffffffffffffffffffffffffffffffffffffff167f8c5be1e5ebec7d5bd14f71427d1e84f3dd0314c0f7b2291e5b200ac8c7c3b92560405160405180910390a4505050565b600080611bc8846116a1565b50915091508573ffffffffffffffffffffffffffffffffffffffff168273ffffffffffffffffffffffffffffffffffffffff1614611c3d57856040517f89c62b64000000000000000000000000000000000000000000000000000000008152600401611c34919061429b565b60405180910390fd5b600073ffffffffffffffffffffffffffffffffffffffff168573ffffffffffffffffffffffffffffffffffffffff1603611cae57846040517f64a0ae92000000000000000000000000000000000000000000000000000000008152600401611ca5919061429b565b60405180910390fd5b611cb986868661331b565b611cc886868360008888613320565b60018060008873ffffffffffffffffffffffffffffffffffffffff1673ffffffffffffffffffffffffffffffffffffffff1681526020019081526020016000206000828254611d179190614e9f565b92505081905550611d2a84600087613328565b60018060008773ffffffffffffffffffffffffffffffffffffffff1673ffffffffffffffffffffffffffffffffffffffff1681526020019081526020016000206000828254611d799190614ed3565b92505081905550838573ffffffffffffffffffffffffffffffffffffffff168773ffffffffffffffffffffffffffffffffffffffff167fddf252ad1be2c89b69c2b068fc378daa952ba7f163c4a11628f55a4df523b3ef60405160405180910390a4838573ffffffffffffffffffffffffffffffffffffffff168773ffffffffffffffffffffffffffffffffffffffff167f04444026cefd1b05506559cab59d1b865ae3ba4ed2fe5c894f04e522776c552d846000604051611e3c929190614f4c565b60405180910390a4611e4f86868661359b565b611e5e86868360008888613702565b505050505050565b611e7781611e72611ab8565b613780565b50565b6000611e8683836110e8565b611f6057600160008085815260200190815260200160002060000160008473ffffffffffffffffffffffffffffffffffffffff1673ffffffffffffffffffffffffffffffffffffffff16815260200190815260200160002060006101000a81548160ff021916908315150217905550611efd611ab8565b73ffffffffffffffffffffffffffffffffffffffff168273ffffffffffffffffffffffffffffffffffffffff16847f2f8788117e7eff1d82e926ec794901d17c78024a50270940304540a733656f0d60405160405180910390a460019050611f65565b600090505b92915050565b6000611f7783836110e8565b1561205257600080600085815260200190815260200160002060000160008473ffffffffffffffffffffffffffffffffffffffff1673ffffffffffffffffffffffffffffffffffffffff16815260200190815260200160002060006101000a81548160ff021916908315150217905550611fef611ab8565b73ffffffffffffffffffffffffffffffffffffffff168273ffffffffffffffffffffffffffffffffffffffff16847ff6391f5c32d9c69d2a47ea670b442974b53935d1edc7fd64eb21e047a839171b60405160405180910390a460019050612057565b600090505b92915050565b60008060008061206c856116a1565b92509250925080156120f5578273ffffffffffffffffffffffffffffffffffffffff16636352211e836040518263ffffffff1660e01b81526004016120b19190614766565b602060405180830381865afa1580156120ce573d6000803e3d6000fd5b505050506040513d601f19601f820116820180604052508101906120f29190614f8a565b92505b829350505050919050565b50505050565b50505050565b61211983836000846137d1565b818373ffffffffffffffffffffffffffffffffffffffff16600073ffffffffffffffffffffffffffffffffffffffff167fddf252ad1be2c89b69c2b068fc378daa952ba7f163c4a11628f55a4df523b3ef60405160405180910390a4818373ffffffffffffffffffffffffffffffffffffffff16600073ffffffffffffffffffffffffffffffffffffffff167f04444026cefd1b05506559cab59d1b865ae3ba4ed2fe5c894f04e522776c552d6000806040516121d7929190614fb7565b60405180910390a46121eb6000848461359b565b6121fb6000846000808686613702565b505050565b806008600084815260200190815260200160002090816122209190615182565b507ff8e1a15aba9398e019f0b49df1a4fde98ee17ae345cb5f6b5e2c27f5033e8ce7826040516122509190614766565b60405180910390a15050565b61226d612267611ab8565b826139d8565b6122ac576040517f08c379a00000000000000000000000000000000000000000000000000000000081526004016122a3906152a0565b60405180910390fd5b50565b8060066000848152602001908152602001600020805490501115612308576040517f08c379a00000000000000000000000000000000000000000000000000000000081526004016122ff9061530c565b60405180910390fd5b61231182613a6d565b6006600083815260200190815260200160002060006123309190613e14565b817f8ac4a0d65950c3e40448afb2260e2e0ec36ea15644d9b39e37e85472e5f9445160405160405180910390a261236682613a70565b5050565b6000806000612378856116a1565b5091509150600061238886610ce9565b90506123968360008861331b565b6123b58360008460008a60405180602001604052806000815250613320565b60018060008573ffffffffffffffffffffffffffffffffffffffff1673ffffffffffffffffffffffffffffffffffffffff16815260200190815260200160002060008282546124049190614e9f565b92505081905550612416600087611ac0565b61241f86613a73565b600061242a87610f5d565b905060056000888152602001908152602001600020600061244b9190613e14565b60066000888152602001908152602001600020600061246a9190613e14565b6002600088815260200190815260200160002060008373ffffffffffffffffffffffffffffffffffffffff1673ffffffffffffffffffffffffffffffffffffffff16815260200190815260200160002060006101000a81549073ffffffffffffffffffffffffffffffffffffffff021916905560008060008351905060005b818110156126b257898310612533576040517f08c379a000000000000000000000000000000000000000000000000000000000815260040161252a90615378565b60405180910390fd5b6007600086838151811061254a57612549614bb7565b5b60200260200101516020015173ffffffffffffffffffffffffffffffffffffffff1673ffffffffffffffffffffffffffffffffffffffff16815260200190815260200160002060008683815181106125a5576125a4614bb7565b5b602002602001015160000151815260200190815260200160002060009055828a03935060018582815181106125dd576125dc614bb7565b5b60200260200101516020015173ffffffffffffffffffffffffffffffffffffffff1663b390c0ab87848151811061261757612616614bb7565b5b6020026020010151600001516001886126309190614e9f565b6040518363ffffffff1660e01b815260040161264d929190615398565b6020604051808303816000875af115801561266c573d6000803e3d6000fd5b505050506040513d601f19601f8201168201806040525081019061269091906153d6565b61269a9190614ed3565b836126a59190614ed3565b92508060010190506124e9565b50600460008b81526020019081526020016000206000808201600090556001820160006101000a81549073ffffffffffffffffffffffffffffffffffffffff0219169055505089600073ffffffffffffffffffffffffffffffffffffffff168873ffffffffffffffffffffffffffffffffffffffff167fddf252ad1be2c89b69c2b068fc378daa952ba7f163c4a11628f55a4df523b3ef60405160405180910390a489600073ffffffffffffffffffffffffffffffffffffffff168873ffffffffffffffffffffffffffffffffffffffff167f04444026cefd1b05506559cab59d1b865ae3ba4ed2fe5c894f04e522776c552d8960006040516127b6929190614f4c565b60405180910390a46127ca8760008c61359b565b6127e98760008860008e60405180602001604052806000815250613702565b8197505050505050505092915050565b61280584848484611bbc565b61281184848484613a76565b61285257826040517f64a0ae92000000000000000000000000000000000000000000000000000000008152600401612849919061429b565b60405180910390fd5b50505050565b606061286382611a6b565b600060086000848152602001908152602001600020805461288390614b1a565b80601f01602080910402602001604051908101604052809291908181526020018280546128af90614b1a565b80156128fc5780601f106128d1576101008083540402835291602001916128fc565b820191906000526020600020905b8154815290600101906020018083116128df57829003601f168201915b50505050509050600061290d613bf9565b9050600081510361292257819250505061296c565b60008251111561295757808260405160200161293f92919061543f565b6040516020818303038152906040529250505061296c565b60405180602001604052806000815250925050505b919050565b61297a84613077565b612986848484846137d1565b61299660008560008587866133d3565b50505050565b6129a4613de4565b82156129bb576129b489876113cf565b90506129c8565b6129c58987610a74565b90505b6129d3818686613c10565b6129e1898787878787613c98565b8215612a0857612a03600660008b815260200190815260200160002087613ca0565b612a79565b600760008673ffffffffffffffffffffffffffffffffffffffff1673ffffffffffffffffffffffffffffffffffffffff168152602001908152602001600020600085815260200190815260200160002060009055612a78600560008b815260200190815260200160002087613ca0565b5b600073ffffffffffffffffffffffffffffffffffffffff168873ffffffffffffffffffffffffffffffffffffffff1614612ba85760008703612b2b578473ffffffffffffffffffffffffffffffffffffffff1663b88d4fde308a87866040518563ffffffff1660e01b8152600401612af494939291906154b8565b600060405180830381600087803b158015612b0e57600080fd5b505af1158015612b22573d6000803e3d6000fd5b50505050612ba7565b806020015173ffffffffffffffffffffffffffffffffffffffff1663064c0a3a308a84600001518b876040518663ffffffff1660e01b8152600401612b74959493929190615504565b600060405180830381600087803b158015612b8e57600080fd5b505af1158015612ba2573d6000803e3d6000fd5b505050505b5b838573ffffffffffffffffffffffffffffffffffffffff168a7f02d6d6dbcb604d5e1e8c7886456e82a9cdce88b0a580071358f206b5a4d58f708987600073ffffffffffffffffffffffffffffffffffffffff168e73ffffffffffffffffffffffffffffffffffffffff1614604051612c239392919061555e565b60405180910390a4612c39898787878787613dc3565b505050505050505050565b6000612c5085856113cf565b9050612c5d818484613c10565b6000600760008573ffffffffffffffffffffffffffffffffffffffff1673ffffffffffffffffffffffffffffffffffffffff16815260200190815260200160002060008481526020019081526020016000205414612cf0576040517f08c379a0000000000000000000000000000000000000000000000000000000008152600401612ce7906155e1565b60405180910390fd5b612cfc85858585613dcb565b612d186006600087815260200190815260200160002085613ca0565b600560008681526020019081526020016000208190806001815401808255809150506001900390600052602060002090600202016000909190919091506000820151816000015560208201518160010160006101000a81548173ffffffffffffffffffffffffffffffffffffffff021916908373ffffffffffffffffffffffffffffffffffffffff16021790555050506001600760008573ffffffffffffffffffffffffffffffffffffffff1673ffffffffffffffffffffffffffffffffffffffff168152602001908152602001600020600084815260200190815260200160002081905550818373ffffffffffffffffffffffffffffffffffffffff16867f29486b9e2ae569b440933a9b1b421467306fa21f3dcad439c262910a634963a987604051612e469190614766565b60405180910390a4612e5a85858585613dd1565b5050505050565b60007f01ffc9a7000000000000000000000000000000000000000000000000000000007bffffffffffffffffffffffffffffffffffffffffffffffffffffffff1916827bffffffffffffffffffffffffffffffffffffffffffffffffffffffff19161480612f2c57507f80ac58cd000000000000000000000000000000000000000000000000000000007bffffffffffffffffffffffffffffffffffffffffffffffffffffffff1916827bffffffffffffffffffffffffffffffffffffffffffffffffffffffff1916145b80612f9457507f42b0e56f000000000000000000000000000000000000000000000000000000007bffffffffffffffffffffffffffffffffffffffffffffffffffffffff1916827bffffffffffffffffffffffffffffffffffffffffffffffffffffffff1916145b9050919050565b6000806000612fa9846116a1565b509150915060008114612fee578173ffffffffffffffffffffffffffffffffffffffff168573ffffffffffffffffffffffffffffffffffffffff161492505050613071565b8173ffffffffffffffffffffffffffffffffffffffff168573ffffffffffffffffffffffffffffffffffffffff16148061302e575061302d82866115e9565b5b8061306c57508473ffffffffffffffffffffffffffffffffffffffff1661305485610831565b73ffffffffffffffffffffffffffffffffffffffff16145b925050505b92915050565b60008173ffffffffffffffffffffffffffffffffffffffff163b036130d1576040517f08c379a00000000000000000000000000000000000000000000000000000000081526004016130c890614c32565b60405180910390fd5b8073ffffffffffffffffffffffffffffffffffffffff166301ffc9a77f42b0e56f000000000000000000000000000000000000000000000000000000006040518263ffffffff1660e01b815260040161312a9190615610565b602060405180830381865afa158015613147573d6000803e3d6000fd5b505050506040513d601f19601f8201168201806040525081019061316b9190615640565b6131aa576040517f08c379a00000000000000000000000000000000000000000000000000000000081526004016131a1906156df565b60405180910390fd5b50565b60005b60648110156132da5760008060008573ffffffffffffffffffffffffffffffffffffffff1663fb25fb7a866040518263ffffffff1660e01b81526004016131f79190614766565b606060405180830381865afa158015613214573d6000803e3d6000fd5b505050506040513d601f19601f8201168201806040525081019061323891906156ff565b9250925092508061324c5750505050613316565b3073ffffffffffffffffffffffffffffffffffffffff168373ffffffffffffffffffffffffffffffffffffffff1614801561328657508682145b156132c6576040517f08c379a00000000000000000000000000000000000000000000000000000000081526004016132bd906157c4565b60405180910390fd5b8295508194508360010193505050506131b0565b506040517f08c379a000000000000000000000000000000000000000000000000000000000815260040161330d90615830565b60405180910390fd5b505050565b505050565b505050505050565b60405180604001604052808381526020018273ffffffffffffffffffffffffffffffffffffffff16815250600460008581526020019081526020016000206000820151816000015560208201518160010160006101000a81548173ffffffffffffffffffffffffffffffffffffffff021916908373ffffffffffffffffffffffffffffffffffffffff1602179055509050506133c5600084611ac0565b6133ce83613a73565b505050565b60008590508073ffffffffffffffffffffffffffffffffffffffff1663635490cc8585856040518463ffffffff1660e01b815260040161341593929190615850565b600060405180830381600087803b15801561342f57600080fd5b505af1158015613443573d6000803e3d6000fd5b50505050828673ffffffffffffffffffffffffffffffffffffffff168873ffffffffffffffffffffffffffffffffffffffff167fddf252ad1be2c89b69c2b068fc378daa952ba7f163c4a11628f55a4df523b3ef60405160405180910390a4828673ffffffffffffffffffffffffffffffffffffffff168873ffffffffffffffffffffffffffffffffffffffff167f04444026cefd1b05506559cab59d1b865ae3ba4ed2fe5c894f04e522776c552d8888604051613502929190615398565b60405180910390a461351587878561359b565b613523878787878787613702565b50505050505050565b60008073ffffffffffffffffffffffffffffffffffffffff166004600084815260200190815260200160002060010160009054906101000a900473ffffffffffffffffffffffffffffffffffffffff1673ffffffffffffffffffffffffffffffffffffffff1614159050919050565b6135a6838383613dd7565b600073ffffffffffffffffffffffffffffffffffffffff168373ffffffffffffffffffffffffffffffffffffffff1603613623578173ffffffffffffffffffffffffffffffffffffffff16817f12efee3b09e3e613ba78fc8fd69f2f4de0cd37747ede20391da66a3891ea325160405160405180910390a36136fd565b600073ffffffffffffffffffffffffffffffffffffffff168273ffffffffffffffffffffffffffffffffffffffff16036136a0578273ffffffffffffffffffffffffffffffffffffffff16817f9435a6058553357d779023fa6181ddf9fdb00bae9da8728dc833c982c78e80e460405160405180910390a36136fc565b808273ffffffffffffffffffffffffffffffffffffffff168473ffffffffffffffffffffffffffffffffffffffff167f40647cf181b388f859641b85c8564939765ddc3688397a4347ffaf81585841a660405160405180910390a45b5b505050565b613710868686868686613ddc565b818573ffffffffffffffffffffffffffffffffffffffff168773ffffffffffffffffffffffffffffffffffffffff167f916f698aa57029b1022aebdbd014c15a2daf45bb5d5abe3ddf2a77f0454c5ef78787604051613770929190615398565b60405180910390a4505050505050565b61378a82826110e8565b6137cd5780826040517fe2517d3f0000000000000000000000000000000000000000000000000000000081526004016137c492919061588e565b60405180910390fd5b5050565b600073ffffffffffffffffffffffffffffffffffffffff168473ffffffffffffffffffffffffffffffffffffffff160361384257836040517f64a0ae92000000000000000000000000000000000000000000000000000000008152600401613839919061429b565b60405180910390fd5b61384b8361352c565b1561388b576040517f08c379a000000000000000000000000000000000000000000000000000000000815260040161388290615903565b60405180910390fd5b600083036138ce576040517f08c379a00000000000000000000000000000000000000000000000000000000081526004016138c59061596f565b60405180910390fd5b6138da6000858561331b565b6138ea6000856000858786613320565b60018060008673ffffffffffffffffffffffffffffffffffffffff1673ffffffffffffffffffffffffffffffffffffffff16815260200190815260200160002060008282546139399190614ed3565b9250508190555060405180604001604052808381526020018573ffffffffffffffffffffffffffffffffffffffff16815250600460008581526020019081526020016000206000820151816000015560208201518160010160006101000a81548173ffffffffffffffffffffffffffffffffffffffff021916908373ffffffffffffffffffffffffffffffffffffffff16021790555090505050505050565b6000806139e483610ce9565b90508073ffffffffffffffffffffffffffffffffffffffff168473ffffffffffffffffffffffffffffffffffffffff161480613a265750613a2581856115e9565b5b80613a6457508373ffffffffffffffffffffffffffffffffffffffff16613a4c84610831565b73ffffffffffffffffffffffffffffffffffffffff16145b91505092915050565b50565b50565b50565b6000808473ffffffffffffffffffffffffffffffffffffffff163b14613bec578373ffffffffffffffffffffffffffffffffffffffff1663150b7a02613aba611ab8565b8786866040518563ffffffff1660e01b8152600401613adc94939291906154b8565b6020604051808303816000875af1925050508015613b1857506040513d601f19601f82011682018060405250810190613b1591906159a4565b60015b613b9c573d8060008114613b48576040519150601f19603f3d011682016040523d82523d6000602084013e613b4d565b606091505b506000815103613b9457846040517f64a0ae92000000000000000000000000000000000000000000000000000000008152600401613b8b919061429b565b60405180910390fd5b805181602001fd5b63150b7a0260e01b7bffffffffffffffffffffffffffffffffffffffffffffffffffffffff1916817bffffffffffffffffffffffffffffffffffffffffffffffffffffffff191614915050613bf1565b600190505b949350505050565b606060405180602001604052806000815250905090565b826020015173ffffffffffffffffffffffffffffffffffffffff168273ffffffffffffffffffffffffffffffffffffffff16141580613c53575082600001518114155b15613c93576040517f08c379a0000000000000000000000000000000000000000000000000000000008152600401613c8a90615a1d565b60405180910390fd5b505050565b505050505050565b8160018380549050613cb29190614e9f565b81548110613cc357613cc2614bb7565b5b9060005260206000209060020201828281548110613ce457613ce3614bb7565b5b9060005260206000209060020201600082015481600001556001820160009054906101000a900473ffffffffffffffffffffffffffffffffffffffff168160010160006101000a81548173ffffffffffffffffffffffffffffffffffffffff021916908373ffffffffffffffffffffffffffffffffffffffff16021790555090505081805480613d7757613d76615a3d565b5b60019003818190600052602060002090600202016000808201600090556001820160006101000a81549073ffffffffffffffffffffffffffffffffffffffff0219169055505090555050565b505050505050565b50505050565b50505050565b505050565b505050505050565b604051806040016040528060008152602001600073ffffffffffffffffffffffffffffffffffffffff1681525090565b5080546000825560020290600052602060002090810190613e359190613e38565b50565b5b80821115613e7a576000808201600090556001820160006101000a81549073ffffffffffffffffffffffffffffffffffffffff021916905550600201613e39565b5090565b6000604051905090565b600080fd5b600080fd5b60007fffffffff0000000000000000000000000000000000000000000000000000000082169050919050565b613ec781613e92565b8114613ed257600080fd5b50565b600081359050613ee481613ebe565b92915050565b600060208284031215613f0057613eff613e88565b5b6000613f0e84828501613ed5565b91505092915050565b60008115159050919050565b613f2c81613f17565b82525050565b6000602082019050613f476000830184613f23565b92915050565b600073ffffffffffffffffffffffffffffffffffffffff82169050919050565b6000613f7882613f4d565b9050919050565b613f8881613f6d565b8114613f9357600080fd5b50565b600081359050613fa581613f7f565b92915050565b6000819050919050565b613fbe81613fab565b8114613fc957600080fd5b50565b600081359050613fdb81613fb5565b92915050565b600080fd5b600080fd5b6000601f19601f8301169050919050565b7f4e487b7100000000000000000000000000000000000000000000000000000000600052604160045260246000fd5b61403482613feb565b810181811067ffffffffffffffff8211171561405357614052613ffc565b5b80604052505050565b6000614066613e7e565b9050614072828261402b565b919050565b600067ffffffffffffffff82111561409257614091613ffc565b5b61409b82613feb565b9050602081019050919050565b82818337600083830152505050565b60006140ca6140c584614077565b61405c565b9050828152602081018484840111156140e6576140e5613fe6565b5b6140f18482856140a8565b509392505050565b600082601f83011261410e5761410d613fe1565b5b813561411e8482602086016140b7565b91505092915050565b600080600080600060a0868803121561414357614142613e88565b5b600061415188828901613f96565b955050602061416288828901613f96565b945050604061417388828901613fcc565b935050606061418488828901613fcc565b925050608086013567ffffffffffffffff8111156141a5576141a4613e8d565b5b6141b1888289016140f9565b9150509295509295909350565b600081519050919050565b600082825260208201905092915050565b60005b838110156141f85780820151818401526020810190506141dd565b60008484015250505050565b600061420f826141be565b61421981856141c9565b93506142298185602086016141da565b61423281613feb565b840191505092915050565b600060208201905081810360008301526142578184614204565b905092915050565b60006020828403121561427557614274613e88565b5b600061428384828501613fcc565b91505092915050565b61429581613f6d565b82525050565b60006020820190506142b0600083018461428c565b92915050565b600080604083850312156142cd576142cc613e88565b5b60006142db85828601613f96565b92505060206142ec85828601613fcc565b9150509250929050565b60008060006060848603121561430f5761430e613e88565b5b600061431d86828701613f96565b935050602061432e86828701613f96565b925050604061433f86828701613fcc565b9150509250925092565b6000819050919050565b61435c81614349565b811461436757600080fd5b50565b60008135905061437981614353565b92915050565b60006020828403121561439557614394613e88565b5b60006143a38482850161436a565b91505092915050565b6143b581614349565b82525050565b60006020820190506143d060008301846143ac565b92915050565b600080604083850312156143ed576143ec613e88565b5b60006143fb8582860161436a565b925050602061440c85828601613f96565b9150509250929050565b6000806040838503121561442d5761442c613e88565b5b600061443b85828601613fcc565b925050602061444c85828601613fcc565b9150509250929050565b61445f81613fab565b82525050565b61446e81613f6d565b82525050565b60408201600082015161448a6000850182614456565b50602082015161449d6020850182614465565b50505050565b60006040820190506144b86000830184614474565b92915050565b600081519050919050565b600082825260208201905092915050565b6000819050602082019050919050565b6040820160008201516145006000850182614456565b5060208201516145136020850182614465565b50505050565b600061452583836144ea565b60408301905092915050565b6000602082019050919050565b6000614549826144be565b61455381856144c9565b935061455e836144da565b8060005b8381101561458f5781516145768882614519565b975061458183614531565b925050600181019050614562565b5085935050505092915050565b600060208201905081810360008301526145b6818461453e565b905092915050565b6000806000606084860312156145d7576145d6613e88565b5b60006145e586828701613fcc565b93505060206145f686828701613fcc565b925050604084013567ffffffffffffffff81111561461757614616613e8d565b5b614623868287016140f9565b9150509250925092565b600067ffffffffffffffff82111561464857614647613ffc565b5b61465182613feb565b9050602081019050919050565b600061467161466c8461462d565b61405c565b90508281526020810184848401111561468d5761468c613fe6565b5b6146988482856140a8565b509392505050565b600082601f8301126146b5576146b4613fe1565b5b81356146c584826020860161465e565b91505092915050565b600080604083850312156146e5576146e4613e88565b5b60006146f385828601613f96565b925050602083013567ffffffffffffffff81111561471457614713613e8d565b5b614720858286016146a0565b9150509250929050565b6000602082840312156147405761473f613e88565b5b600061474e84828501613f96565b91505092915050565b61476081613fab565b82525050565b600060208201905061477b6000830184614757565b92915050565b6000806040838503121561479857614797613e88565b5b60006147a685828601613fcc565b925050602083013567ffffffffffffffff8111156147c7576147c6613e8d565b5b6147d3858286016146a0565b9150509250929050565b6147e681613f17565b81146147f157600080fd5b50565b600081359050614803816147dd565b92915050565b600080604083850312156148205761481f613e88565b5b600061482e85828601613f96565b925050602061483f858286016147f4565b9150509250929050565b6000806000806080858703121561486357614862613e88565b5b600061487187828801613f96565b945050602061488287828801613f96565b935050604061489387828801613fcc565b925050606085013567ffffffffffffffff8111156148b4576148b3613e8d565b5b6148c0878288016140f9565b91505092959194509250565b6000806000606084860312156148e5576148e4613e88565b5b60006148f386828701613f96565b935050602061490486828701613fcc565b925050604084013567ffffffffffffffff81111561492557614924613e8d565b5b614931868287016146a0565b9150509250925092565b600080600080600080600080610100898b03121561495c5761495b613e88565b5b600061496a8b828c01613fcc565b985050602061497b8b828c01613f96565b975050604061498c8b828c01613fcc565b965050606061499d8b828c01613fcc565b95505060806149ae8b828c01613f96565b94505060a06149bf8b828c01613fcc565b93505060c06149d08b828c016147f4565b92505060e089013567ffffffffffffffff8111156149f1576149f0613e8d565b5b6149fd8b828c016140f9565b9150509295985092959890939650565b60008060008060808587031215614a2757614a26613e88565b5b6000614a3587828801613fcc565b9450506020614a4687828801613fcc565b9350506040614a5787828801613f96565b9250506060614a6887828801613fcc565b91505092959194509250565b60008060408385031215614a8b57614a8a613e88565b5b6000614a9985828601613f96565b9250506020614aaa85828601613f96565b9150509250929050565b6000606082019050614ac9600083018661428c565b614ad66020830185614757565b614ae36040830184613f23565b949350505050565b7f4e487b7100000000000000000000000000000000000000000000000000000000600052602260045260246000fd5b60006002820490506001821680614b3257607f821691505b602082108103614b4557614b44614aeb565b5b50919050565b7f6368696c6420696e646578206f7574206f662072616e67650000000000000000600082015250565b6000614b816018836141c9565b9150614b8c82614b4b565b602082019050919050565b60006020820190508181036000830152614bb081614b74565b9050919050565b7f4e487b7100000000000000000000000000000000000000000000000000000000600052603260045260246000fd5b7f6e6f74206120636f6e7472616374206164647265737300000000000000000000600082015250565b6000614c1c6016836141c9565b9150614c2782614be6565b602082019050919050565b60006020820190508181036000830152614c4b81614c0f565b9050919050565b7f6d6178696d756d206368696c6472656e206c696d697420726561636865640000600082015250565b6000614c88601e836141c9565b9150614c9382614c52565b602082019050919050565b60006020820190508181036000830152614cb781614c7b565b9050919050565b7f4e487b7100000000000000000000000000000000000000000000000000000000600052601160045260246000fd5b6000614cf882613fab565b91507fffffffffffffffffffffffffffffffffffffffffffffffffffffffffffffffff8203614d2a57614d29614cbe565b5b600182019050919050565b7f70656e64696e67206368696c6420696e646578206f7574206f662072616e6765600082015250565b6000614d6b6020836141c9565b9150614d7682614d35565b602082019050919050565b60006020820190508181036000830152614d9a81614d5e565b9050919050565b7f63616c6c6572206973206e6f7420646972656374206f776e6572206e6f72206160008201527f7070726f76656400000000000000000000000000000000000000000000000000602082015250565b6000614dfd6027836141c9565b9150614e0882614da1565b604082019050919050565b60006020820190508181036000830152614e2c81614df0565b9050919050565b7f63616e6e6f74206e657374207472616e7366657220746f2073656c6600000000600082015250565b6000614e69601c836141c9565b9150614e7482614e33565b602082019050919050565b60006020820190508181036000830152614e9881614e5c565b9050919050565b6000614eaa82613fab565b9150614eb583613fab565b9250828203905081811115614ecd57614ecc614cbe565b5b92915050565b6000614ede82613fab565b9150614ee983613fab565b9250828201905080821115614f0157614f00614cbe565b5b92915050565b6000819050919050565b6000819050919050565b6000614f36614f31614f2c84614f07565b614f11565b613fab565b9050919050565b614f4681614f1b565b82525050565b6000604082019050614f616000830185614757565b614f6e6020830184614f3d565b9392505050565b600081519050614f8481613f7f565b92915050565b600060208284031215614fa057614f9f613e88565b5b6000614fae84828501614f75565b91505092915050565b6000604082019050614fcc6000830185614f3d565b614fd96020830184614f3d565b9392505050565b60008190508160005260206000209050919050565b60006020601f8301049050919050565b600082821b905092915050565b6000600883026150427fffffffffffffffffffffffffffffffffffffffffffffffffffffffffffffffff82615005565b61504c8683615005565b95508019841693508086168417925050509392505050565b600061507f61507a61507584613fab565b614f11565b613fab565b9050919050565b6000819050919050565b61509983615064565b6150ad6150a582615086565b848454615012565b825550505050565b600090565b6150c26150b5565b6150cd818484615090565b505050565b5b818110156150f1576150e66000826150ba565b6001810190506150d3565b5050565b601f8211156151365761510781614fe0565b61511084614ff5565b8101602085101561511f578190505b61513361512b85614ff5565b8301826150d2565b50505b505050565b600082821c905092915050565b60006151596000198460080261513b565b1980831691505092915050565b60006151728383615148565b9150826002028217905092915050565b61518b826141be565b67ffffffffffffffff8111156151a4576151a3613ffc565b5b6151ae8254614b1a565b6151b98282856150f5565b600060209050601f8311600181146151ec57600084156151da578287015190505b6151e48582615166565b86555061524c565b601f1984166151fa86614fe0565b60005b82811015615222578489015182556001820191506020850194506020810190506151fd565b8683101561523f578489015161523b601f891682615148565b8355505b6001600288020188555050505b505050505050565b7f63616c6c6572206973206e6f74206f776e6572206e6f7220617070726f766564600082015250565b600061528a6020836141c9565b915061529582615254565b602082019050919050565b600060208201905081810360008301526152b98161527d565b9050919050565b7f657869747320746865206d6178696d756d2072656a656374696f6e0000000000600082015250565b60006152f6601b836141c9565b9150615301826152c0565b602082019050919050565b60006020820190508181036000830152615325816152e9565b9050919050565b7f6d6178696d756d206275726e2072656163686564000000000000000000000000600082015250565b60006153626014836141c9565b915061536d8261532c565b602082019050919050565b6000602082019050818103600083015261539181615355565b9050919050565b60006040820190506153ad6000830185614757565b6153ba6020830184614757565b9392505050565b6000815190506153d081613fb5565b92915050565b6000602082840312156153ec576153eb613e88565b5b60006153fa848285016153c1565b91505092915050565b600081905092915050565b6000615419826141be565b6154238185615403565b93506154338185602086016141da565b80840191505092915050565b600061544b828561540e565b9150615457828461540e565b91508190509392505050565b600081519050919050565b600082825260208201905092915050565b600061548a82615463565b615494818561546e565b93506154a48185602086016141da565b6154ad81613feb565b840191505092915050565b60006080820190506154cd600083018761428c565b6154da602083018661428c565b6154e76040830185614757565b81810360608301526154f9818461547f565b905095945050505050565b600060a082019050615519600083018861428c565b615526602083018761428c565b6155336040830186614757565b6155406060830185614757565b8181036080830152615552818461547f565b90509695505050505050565b60006060820190506155736000830186614757565b6155806020830185613f23565b61558d6040830184613f23565b949350505050565b7f6368696c6420616c726561647920616374697661746564000000000000000000600082015250565b60006155cb6017836141c9565b91506155d682615595565b602082019050919050565b600060208201905081810360008301526155fa816155be565b9050919050565b61560a81613e92565b82525050565b60006020820190506156256000830184615601565b92915050565b60008151905061563a816147dd565b92915050565b60006020828403121561565657615655613e88565b5b60006156648482850161562b565b91505092915050565b7f726563656976657220646f6573206e6f7420737570706f72742049455243373460008201527f30312e0000000000000000000000000000000000000000000000000000000000602082015250565b60006156c96023836141c9565b91506156d48261566d565b604082019050919050565b600060208201905081810360008301526156f8816156bc565b9050919050565b60008060006060848603121561571857615717613e88565b5b600061572686828701614f75565b9350506020615737868287016153c1565b92505060406157488682870161562b565b9150509250925092565b7f7472616e7366657220746f2064657363656e64616e7420746f6b656e2069732060008201527f6e6f7420616c6c6f776564000000000000000000000000000000000000000000602082015250565b60006157ae602b836141c9565b91506157b982615752565b604082019050919050565b600060208201905081810360008301526157dd816157a1565b9050919050565b7f65786365656473206d6178696d756d20646570746820616c6c6f7765642e0000600082015250565b600061581a601e836141c9565b9150615825826157e4565b602082019050919050565b600060208201905081810360008301526158498161580d565b9050919050565b60006060820190506158656000830186614757565b6158726020830185614757565b8181036040830152615884818461547f565b9050949350505050565b60006040820190506158a3600083018561428c565b6158b060208301846143ac565b9392505050565b7f746f6b656e20616c726561647920657869737473000000000000000000000000600082015250565b60006158ed6014836141c9565b91506158f8826158b7565b602082019050919050565b6000602082019050818103600083015261591c816158e0565b9050919050565b7f696e636f727265637420746f6b656e2069640000000000000000000000000000600082015250565b60006159596012836141c9565b915061596482615923565b602082019050919050565b600060208201905081810360008301526159888161594c565b9050919050565b60008151905061599e81613ebe565b92915050565b6000602082840312156159ba576159b9613e88565b5b60006159c88482850161598f565b91505092915050565b7f556e6578706563746564206368696c64206964656e7469666965720000000000600082015250565b6000615a07601b836141c9565b9150615a12826159d1565b602082019050919050565b60006020820190508181036000830152615a36816159fa565b9050919050565b7f4e487b7100000000000000000000000000000000000000000000000000000000600052603160045260246000fdfea2646970667358221220a657048927c65bcf10889ca94706bbb99126855988d30b1b87849dcae47a05df64736f6c63430008180033",
  "linkReferences": {},
  "deployedLinkReferences": {}
}