{
  "_format": "hh-sol-artifact-1",
  "contractName": "ArmoredForge",
  "sourceName": "contracts/Armor.sol",
  "abi": [
    {
      "inputs": [
        {
          "internalType": "string",
          "name": "name_",
          "type": "string"
        },
        {
          "internalType": "string",
          "name": "symbol_",
          "type": "string"
        }
      ],
      "stateMutability": "nonpayable",
      "type": "constructor"
    },
    {
      "inputs": [],
      "name": "AccessControlBadConfirmation",
      "type": "error"
    },
    {
      "inputs": [
        {
          "internalType": "address",
          "name": "account",
          "type": "address"
        },
        {
          "internalType": "bytes32",
          "name": "neededRole",
          "type": "bytes32"
        }
      ],
      "name": "AccessControlUnauthorizedAccount",
      "type": "error"
    },
    {
      "anonymous": false,
      "inputs": [
        {
          "indexed": true,
          "internalType": "uint256",
          "name": "tokenId",
          "type": "uint256"
        }
      ],
      "name": "AllChildrenRejected",
      "type": "event"
    },
    {
      "anonymous": false,
      "inputs": [
        {
          "indexed": true,
          "internalType": "address",
          "name": "owner",
          "type": "address"
        },
        {
          "indexed": true,
          "internalType": "address",
          "name": "approved",
          "type": "address"
        },
        {
          "indexed": true,
          "internalType": "uint256",
          "name": "tokenId",
          "type": "uint256"
        }
      ],
      "name": "Approval",
      "type": "event"
    },
    {
      "anonymous": false,
      "inputs": [
        {
          "indexed": true,
          "internalType": "address",
          "name": "owner",
          "type": "address"
        },
        {
          "indexed": true,
          "internalType": "address",
          "name": "operator",
          "type": "address"
        },
        {
          "indexed": false,
          "internalType": "bool",
          "name": "approved",
          "type": "bool"
        }
      ],
      "name": "ApprovalForAll",
      "type": "event"
    },
    {
      "anonymous": false,
      "inputs": [
        {
          "indexed": true,
          "internalType": "address",
          "name": "from",
          "type": "address"
        },
        {
          "indexed": true,
          "internalType": "address",
          "name": "to",
          "type": "address"
        },
        {
          "indexed": true,
          "internalType": "uint256",
          "name": "warriorId",
          "type": "uint256"
        }
      ],
      "name": "ArmorTransfer",
      "type": "event"
    },
    {
      "anonymous": false,
      "inputs": [
        {
          "indexed": false,
          "internalType": "uint256",
          "name": "_fromTokenId",
          "type": "uint256"
        },
        {
          "indexed": false,
          "internalType": "uint256",
          "name": "_toTokenId",
          "type": "uint256"
        }
      ],
      "name": "BatchMetadataUpdate",
      "type": "event"
    },
    {
      "anonymous": false,
      "inputs": [
        {
          "indexed": true,
          "internalType": "uint256",
          "name": "tokenId",
          "type": "uint256"
        },
        {
          "indexed": false,
          "internalType": "uint256",
          "name": "childIndex",
          "type": "uint256"
        },
        {
          "indexed": true,
          "internalType": "address",
          "name": "childAddress",
          "type": "address"
        },
        {
          "indexed": true,
          "internalType": "uint256",
          "name": "childId",
          "type": "uint256"
        }
      ],
      "name": "ChildAccepted",
      "type": "event"
    },
    {
      "anonymous": false,
      "inputs": [
        {
          "indexed": true,
          "internalType": "uint256",
          "name": "tokenId",
          "type": "uint256"
        },
        {
          "indexed": false,
          "internalType": "uint256",
          "name": "childIndex",
          "type": "uint256"
        },
        {
          "indexed": true,
          "internalType": "address",
          "name": "childAddress",
          "type": "address"
        },
        {
          "indexed": true,
          "internalType": "uint256",
          "name": "childId",
          "type": "uint256"
        }
      ],
      "name": "ChildProposed",
      "type": "event"
    },
    {
      "anonymous": false,
      "inputs": [
        {
          "indexed": true,
          "internalType": "uint256",
          "name": "tokenId",
          "type": "uint256"
        },
        {
          "indexed": false,
          "internalType": "uint256",
          "name": "childIndex",
          "type": "uint256"
        },
        {
          "indexed": true,
          "internalType": "address",
          "name": "childAddress",
          "type": "address"
        },
        {
          "indexed": true,
          "internalType": "uint256",
          "name": "childId",
          "type": "uint256"
        },
        {
          "indexed": false,
          "internalType": "bool",
          "name": "fromPending",
          "type": "bool"
        },
        {
          "indexed": false,
          "internalType": "bool",
          "name": "toZero",
          "type": "bool"
        }
      ],
      "name": "ChildTransferred",
      "type": "event"
    },
    {
      "anonymous": false,
      "inputs": [
        {
          "indexed": true,
          "internalType": "uint256",
          "name": "warriorId",
          "type": "uint256"
        },
        {
          "indexed": true,
          "internalType": "address",
          "name": "to",
          "type": "address"
        }
      ],
      "name": "ForgeArmor",
      "type": "event"
    },
    {
      "anonymous": false,
      "inputs": [
        {
          "indexed": false,
          "internalType": "uint256",
          "name": "_tokenId",
          "type": "uint256"
        }
      ],
      "name": "MetadataUpdate",
      "type": "event"
    },
    {
      "anonymous": false,
      "inputs": [
        {
          "indexed": true,
          "internalType": "address",
          "name": "from",
          "type": "address"
        },
        {
          "indexed": true,
          "internalType": "address",
          "name": "to",
          "type": "address"
        },
        {
          "indexed": false,
          "internalType": "uint256",
          "name": "fromTokenId",
          "type": "uint256"
        },
        {
          "indexed": false,
          "internalType": "uint256",
          "name": "toTokenId",
          "type": "uint256"
        },
        {
          "indexed": true,
          "internalType": "uint256",
          "name": "tokenId",
          "type": "uint256"
        }
      ],
      "name": "NestTransfer",
      "type": "event"
    },
    {
      "anonymous": false,
      "inputs": [
        {
          "indexed": true,
          "internalType": "address",
          "name": "from",
          "type": "address"
        },
        {
          "indexed": true,
          "internalType": "address",
          "name": "to",
          "type": "address"
        },
        {
          "indexed": false,
          "internalType": "uint256",
          "name": "fromTokenId",
          "type": "uint256"
        },
        {
          "indexed": false,
          "internalType": "uint256",
          "name": "toTokenId",
          "type": "uint256"
        },
        {
          "indexed": true,
          "internalType": "uint256",
          "name": "tokenId",
          "type": "uint256"
        }
      ],
      "name": "NestedArmorTransfer",
      "type": "event"
    },
    {
      "anonymous": false,
      "inputs": [
        {
          "indexed": true,
          "internalType": "bytes32",
          "name": "role",
          "type": "bytes32"
        },
        {
          "indexed": true,
          "internalType": "bytes32",
          "name": "previousAdminRole",
          "type": "bytes32"
        },
        {
          "indexed": true,
          "internalType": "bytes32",
          "name": "newAdminRole",
          "type": "bytes32"
        }
      ],
      "name": "RoleAdminChanged",
      "type": "event"
    },
    {
      "anonymous": false,
      "inputs": [
        {
          "indexed": true,
          "internalType": "bytes32",
          "name": "role",
          "type": "bytes32"
        },
        {
          "indexed": true,
          "internalType": "address",
          "name": "account",
          "type": "address"
        },
        {
          "indexed": true,
          "internalType": "address",
          "name": "sender",
          "type": "address"
        }
      ],
      "name": "RoleGranted",
      "type": "event"
    },
    {
      "anonymous": false,
      "inputs": [
        {
          "indexed": true,
          "internalType": "bytes32",
          "name": "role",
          "type": "bytes32"
        },
        {
          "indexed": true,
          "internalType": "address",
          "name": "account",
          "type": "address"
        },
        {
          "indexed": true,
          "internalType": "address",
          "name": "sender",
          "type": "address"
        }
      ],
      "name": "RoleRevoked",
      "type": "event"
    },
    {
      "anonymous": false,
      "inputs": [
        {
          "indexed": true,
          "internalType": "uint256",
          "name": "warriorId",
          "type": "uint256"
        },
        {
          "indexed": true,
          "internalType": "address",
          "name": "from",
          "type": "address"
        }
      ],
      "name": "ShatterArmor",
      "type": "event"
    },
    {
      "anonymous": false,
      "inputs": [
        {
          "indexed": true,
          "internalType": "address",
          "name": "from",
          "type": "address"
        },
        {
          "indexed": true,
          "internalType": "address",
          "name": "to",
          "type": "address"
        },
        {
          "indexed": true,
          "internalType": "uint256",
          "name": "tokenId",
          "type": "uint256"
        }
      ],
      "name": "Transfer",
      "type": "event"
    },
    {
      "inputs": [],
      "name": "DEFAULT_ADMIN_ROLE",
      "outputs": [
        {
          "internalType": "bytes32",
          "name": "",
          "type": "bytes32"
        }
      ],
      "stateMutability": "view",
      "type": "function"
    },
    {
      "inputs": [],
      "name": "OPERATOR_ROLE",
      "outputs": [
        {
          "internalType": "bytes32",
          "name": "",
          "type": "bytes32"
        }
      ],
      "stateMutability": "view",
      "type": "function"
    },
    {
      "inputs": [
        {
          "internalType": "uint256",
          "name": "parentId",
          "type": "uint256"
        },
        {
          "internalType": "uint256",
          "name": "childIndex",
          "type": "uint256"
        },
        {
          "internalType": "address",
          "name": "childAddress",
          "type": "address"
        },
        {
          "internalType": "uint256",
          "name": "childId",
          "type": "uint256"
        }
      ],
      "name": "acceptChild",
      "outputs": [],
      "stateMutability": "nonpayable",
      "type": "function"
    },
    {
      "inputs": [
        {
          "internalType": "address",
          "name": "armorOwner",
          "type": "address"
        },
        {
          "internalType": "address",
          "name": "warriorContractAddress",
          "type": "address"
        },
        {
          "internalType": "uint256",
          "name": "armorId",
          "type": "uint256"
        },
        {
          "internalType": "uint256",
          "name": "warriorId",
          "type": "uint256"
        },
        {
          "internalType": "bytes",
          "name": "data",
          "type": "bytes"
        }
      ],
      "name": "addArmorToWarrior",
      "outputs": [],
      "stateMutability": "nonpayable",
      "type": "function"
    },
    {
      "inputs": [
        {
          "internalType": "uint256",
          "name": "parentId",
          "type": "uint256"
        },
        {
          "internalType": "uint256",
          "name": "childId",
          "type": "uint256"
        },
        {
          "internalType": "bytes",
          "name": "data",
          "type": "bytes"
        }
      ],
      "name": "addChild",
      "outputs": [],
      "stateMutability": "nonpayable",
      "type": "function"
    },
    {
      "inputs": [
        {
          "internalType": "address",
          "name": "to",
          "type": "address"
        },
        {
          "internalType": "uint256",
          "name": "tokenId",
          "type": "uint256"
        }
      ],
      "name": "approve",
      "outputs": [],
      "stateMutability": "nonpayable",
      "type": "function"
    },
    {
      "inputs": [
        {
          "internalType": "uint256",
          "name": "armorId",
          "type": "uint256"
        }
      ],
      "name": "armorURI",
      "outputs": [
        {
          "internalType": "string",
          "name": "",
          "type": "string"
        }
      ],
      "stateMutability": "view",
      "type": "function"
    },
    {
      "inputs": [
        {
          "internalType": "address",
          "name": "owner",
          "type": "address"
        }
      ],
      "name": "balanceOf",
      "outputs": [
        {
          "internalType": "uint256",
          "name": "balance",
          "type": "uint256"
        }
      ],
      "stateMutability": "view",
      "type": "function"
    },
    {
      "inputs": [
        {
          "internalType": "uint256",
          "name": "tokenId",
          "type": "uint256"
        }
      ],
      "name": "burn",
      "outputs": [],
      "stateMutability": "nonpayable",
      "type": "function"
    },
    {
      "inputs": [
        {
          "internalType": "uint256",
          "name": "tokenId",
          "type": "uint256"
        },
        {
          "internalType": "uint256",
          "name": "maxChildrenBurns",
          "type": "uint256"
        }
      ],
      "name": "burn",
      "outputs": [
        {
          "internalType": "uint256",
          "name": "burnedChildren",
          "type": "uint256"
        }
      ],
      "stateMutability": "nonpayable",
      "type": "function"
    },
    {
      "inputs": [
        {
          "internalType": "uint256",
          "name": "parentId",
          "type": "uint256"
        },
        {
          "internalType": "uint256",
          "name": "index",
          "type": "uint256"
        }
      ],
      "name": "childOf",
      "outputs": [
        {
          "components": [
            {
              "internalType": "uint256",
              "name": "tokenId",
              "type": "uint256"
            },
            {
              "internalType": "address",
              "name": "contractAddress",
              "type": "address"
            }
          ],
          "internalType": "struct IERC7401.Child",
          "name": "child",
          "type": "tuple"
        }
      ],
      "stateMutability": "view",
      "type": "function"
    },
    {
      "inputs": [
        {
          "internalType": "uint256",
          "name": "parentId",
          "type": "uint256"
        }
      ],
      "name": "childrenOf",
      "outputs": [
        {
          "components": [
            {
              "internalType": "uint256",
              "name": "tokenId",
              "type": "uint256"
            },
            {
              "internalType": "address",
              "name": "contractAddress",
              "type": "address"
            }
          ],
          "internalType": "struct IERC7401.Child[]",
          "name": "children",
          "type": "tuple[]"
        }
      ],
      "stateMutability": "view",
      "type": "function"
    },
    {
      "inputs": [
        {
          "internalType": "uint256",
          "name": "tokenId",
          "type": "uint256"
        }
      ],
      "name": "directOwnerOf",
      "outputs": [
        {
          "internalType": "address",
          "name": "owner_",
          "type": "address"
        },
        {
          "internalType": "uint256",
          "name": "parentId",
          "type": "uint256"
        },
        {
          "internalType": "bool",
          "name": "isNFT",
          "type": "bool"
        }
      ],
      "stateMutability": "view",
      "type": "function"
    },
    {
      "inputs": [
        {
          "internalType": "address",
          "name": "to",
          "type": "address"
        },
        {
          "internalType": "string",
          "name": "_armorURI",
          "type": "string"
        }
      ],
      "name": "forgeArmor",
      "outputs": [],
      "stateMutability": "nonpayable",
      "type": "function"
    },
    {
      "inputs": [
        {
          "internalType": "address",
          "name": "warriorContractAddress",
          "type": "address"
        },
        {
          "internalType": "uint256",
          "name": "warriorId",
          "type": "uint256"
        },
        {
          "internalType": "string",
          "name": "_armorURI",
          "type": "string"
        }
      ],
      "name": "forgeArmorToWarrior",
      "outputs": [],
      "stateMutability": "nonpayable",
      "type": "function"
    },
    {
      "inputs": [
        {
          "internalType": "uint256",
          "name": "tokenId",
          "type": "uint256"
        }
      ],
      "name": "getApproved",
      "outputs": [
        {
          "internalType": "address",
          "name": "approved",
          "type": "address"
        }
      ],
      "stateMutability": "view",
      "type": "function"
    },
    {
      "inputs": [
        {
          "internalType": "bytes32",
          "name": "role",
          "type": "bytes32"
        }
      ],
      "name": "getRoleAdmin",
      "outputs": [
        {
          "internalType": "bytes32",
          "name": "",
          "type": "bytes32"
        }
      ],
      "stateMutability": "view",
      "type": "function"
    },
    {
      "inputs": [
        {
          "internalType": "bytes32",
          "name": "role",
          "type": "bytes32"
        },
        {
          "internalType": "address",
          "name": "account",
          "type": "address"
        }
      ],
      "name": "grantRole",
      "outputs": [],
      "stateMutability": "nonpayable",
      "type": "function"
    },
    {
      "inputs": [
        {
          "internalType": "bytes32",
          "name": "role",
          "type": "bytes32"
        },
        {
          "internalType": "address",
          "name": "account",
          "type": "address"
        }
      ],
      "name": "hasRole",
      "outputs": [
        {
          "internalType": "bool",
          "name": "",
          "type": "bool"
        }
      ],
      "stateMutability": "view",
      "type": "function"
    },
    {
      "inputs": [
        {
          "internalType": "address",
          "name": "owner",
          "type": "address"
        },
        {
          "internalType": "address",
          "name": "operator",
          "type": "address"
        }
      ],
      "name": "isApprovedForAll",
      "outputs": [
        {
          "internalType": "bool",
          "name": "isApproved",
          "type": "bool"
        }
      ],
      "stateMutability": "view",
      "type": "function"
    },
    {
      "inputs": [],
      "name": "name",
      "outputs": [
        {
          "internalType": "string",
          "name": "",
          "type": "string"
        }
      ],
      "stateMutability": "view",
      "type": "function"
    },
    {
      "inputs": [
        {
          "internalType": "address",
          "name": "from",
          "type": "address"
        },
        {
          "internalType": "address",
          "name": "to",
          "type": "address"
        },
        {
          "internalType": "uint256",
          "name": "tokenId",
          "type": "uint256"
        },
        {
          "internalType": "uint256",
          "name": "destinationId",
          "type": "uint256"
        },
        {
          "internalType": "bytes",
          "name": "data",
          "type": "bytes"
        }
      ],
      "name": "nestTransferFrom",
      "outputs": [],
      "stateMutability": "nonpayable",
      "type": "function"
    },
    {
      "inputs": [
        {
          "internalType": "uint256",
          "name": "tokenId",
          "type": "uint256"
        }
      ],
      "name": "ownerOf",
      "outputs": [
        {
          "internalType": "address",
          "name": "owner_",
          "type": "address"
        }
      ],
      "stateMutability": "view",
      "type": "function"
    },
    {
      "inputs": [
        {
          "internalType": "uint256",
          "name": "parentId",
          "type": "uint256"
        },
        {
          "internalType": "uint256",
          "name": "index",
          "type": "uint256"
        }
      ],
      "name": "pendingChildOf",
      "outputs": [
        {
          "components": [
            {
              "internalType": "uint256",
              "name": "tokenId",
              "type": "uint256"
            },
            {
              "internalType": "address",
              "name": "contractAddress",
              "type": "address"
            }
          ],
          "internalType": "struct IERC7401.Child",
          "name": "child",
          "type": "tuple"
        }
      ],
      "stateMutability": "view",
      "type": "function"
    },
    {
      "inputs": [
        {
          "internalType": "uint256",
          "name": "parentId",
          "type": "uint256"
        }
      ],
      "name": "pendingChildrenOf",
      "outputs": [
        {
          "components": [
            {
              "internalType": "uint256",
              "name": "tokenId",
              "type": "uint256"
            },
            {
              "internalType": "address",
              "name": "contractAddress",
              "type": "address"
            }
          ],
          "internalType": "struct IERC7401.Child[]",
          "name": "children",
          "type": "tuple[]"
        }
      ],
      "stateMutability": "view",
      "type": "function"
    },
    {
      "inputs": [
        {
          "internalType": "uint256",
          "name": "tokenId",
          "type": "uint256"
        },
        {
          "internalType": "uint256",
          "name": "maxRejections",
          "type": "uint256"
        }
      ],
      "name": "rejectAllChildren",
      "outputs": [],
      "stateMutability": "nonpayable",
      "type": "function"
    },
    {
      "inputs": [
        {
          "internalType": "bytes32",
          "name": "role",
          "type": "bytes32"
        },
        {
          "internalType": "address",
          "name": "callerConfirmation",
          "type": "address"
        }
      ],
      "name": "renounceRole",
      "outputs": [],
      "stateMutability": "nonpayable",
      "type": "function"
    },
    {
      "inputs": [
        {
          "internalType": "bytes32",
          "name": "role",
          "type": "bytes32"
        },
        {
          "internalType": "address",
          "name": "account",
          "type": "address"
        }
      ],
      "name": "revokeRole",
      "outputs": [],
      "stateMutability": "nonpayable",
      "type": "function"
    },
    {
      "inputs": [
        {
          "internalType": "address",
          "name": "from",
          "type": "address"
        },
        {
          "internalType": "address",
          "name": "to",
          "type": "address"
        },
        {
          "internalType": "uint256",
          "name": "tokenId",
          "type": "uint256"
        }
      ],
      "name": "safeTransferFrom",
      "outputs": [],
      "stateMutability": "nonpayable",
      "type": "function"
    },
    {
      "inputs": [
        {
          "internalType": "address",
          "name": "from",
          "type": "address"
        },
        {
          "internalType": "address",
          "name": "to",
          "type": "address"
        },
        {
          "internalType": "uint256",
          "name": "tokenId",
          "type": "uint256"
        },
        {
          "internalType": "bytes",
          "name": "data",
          "type": "bytes"
        }
      ],
      "name": "safeTransferFrom",
      "outputs": [],
      "stateMutability": "nonpayable",
      "type": "function"
    },
    {
      "inputs": [
        {
          "internalType": "address",
          "name": "operator",
          "type": "address"
        },
        {
          "internalType": "bool",
          "name": "approved",
          "type": "bool"
        }
      ],
      "name": "setApprovalForAll",
      "outputs": [],
      "stateMutability": "nonpayable",
      "type": "function"
    },
    {
      "inputs": [
        {
          "internalType": "uint256",
          "name": "armorId",
          "type": "uint256"
        },
        {
          "internalType": "string",
          "name": "_tokenURI",
          "type": "string"
        }
      ],
      "name": "setArmorURI",
      "outputs": [],
      "stateMutability": "nonpayable",
      "type": "function"
    },
    {
      "inputs": [
        {
          "internalType": "bytes4",
          "name": "interfaceId",
          "type": "bytes4"
        }
      ],
      "name": "supportsInterface",
      "outputs": [
        {
          "internalType": "bool",
          "name": "",
          "type": "bool"
        }
      ],
      "stateMutability": "view",
      "type": "function"
    },
    {
      "inputs": [],
      "name": "symbol",
      "outputs": [
        {
          "internalType": "string",
          "name": "",
          "type": "string"
        }
      ],
      "stateMutability": "view",
      "type": "function"
    },
    {
      "inputs": [
        {
          "internalType": "uint256",
          "name": "tokenId",
          "type": "uint256"
        }
      ],
      "name": "tokenURI",
      "outputs": [
        {
          "internalType": "string",
          "name": "",
          "type": "string"
        }
      ],
      "stateMutability": "view",
      "type": "function"
    },
    {
      "inputs": [
        {
          "internalType": "uint256",
          "name": "tokenId",
          "type": "uint256"
        },
        {
          "internalType": "address",
          "name": "to",
          "type": "address"
        },
        {
          "internalType": "uint256",
          "name": "destinationId",
          "type": "uint256"
        },
        {
          "internalType": "uint256",
          "name": "childIndex",
          "type": "uint256"
        },
        {
          "internalType": "address",
          "name": "childAddress",
          "type": "address"
        },
        {
          "internalType": "uint256",
          "name": "childId",
          "type": "uint256"
        },
        {
          "internalType": "bool",
          "name": "isPending",
          "type": "bool"
        },
        {
          "internalType": "bytes",
          "name": "data",
          "type": "bytes"
        }
      ],
      "name": "transferChild",
      "outputs": [],
      "stateMutability": "nonpayable",
      "type": "function"
    },
    {
      "inputs": [
        {
          "internalType": "address",
          "name": "from",
          "type": "address"
        },
        {
          "internalType": "address",
          "name": "to",
          "type": "address"
        },
        {
          "internalType": "uint256",
          "name": "tokenId",
          "type": "uint256"
        }
      ],
      "name": "transferFrom",
      "outputs": [],
      "stateMutability": "nonpayable",
      "type": "function"
    }
  ],
  "bytecode": "0x60806040523480156200001157600080fd5b506040516200703538038062007035833981810160405281019062000037919062000b7a565b816009908162000048919062000e4a565b5080600a90816200005a919062000e4a565b50620000706000801b33620000bc60201b60201c565b50620000a37f97667070c54ef182b0f5858b034beac1b6f3089aa2d3188bb1e8929f4fa9b92933620000bc60201b60201c565b50620000b4620001c060201b60201c565b5050620011fd565b6000620000d08383620003ba60201b60201c565b620001b55760016008600085815260200190815260200160002060000160008473ffffffffffffffffffffffffffffffffffffffff1673ffffffffffffffffffffffffffffffffffffffff16815260200190815260200160002060006101000a81548160ff021916908315150217905550620001516200042560201b60201c565b73ffffffffffffffffffffffffffffffffffffffff168273ffffffffffffffffffffffffffffffffffffffff16847f2f8788117e7eff1d82e926ec794901d17c78024a50270940304540a733656f0d60405160405180910390a460019050620001ba565b600090505b92915050565b620001f833600b60008154620001d69062000f60565b919050819055604051806020016040528060008152506200042d60201b60201c565b6200023033600b600081546200020e9062000f60565b919050819055604051806020016040528060008152506200042d60201b60201c565b6200026833600b60008154620002469062000f60565b919050819055604051806020016040528060008152506200042d60201b60201c565b620002a033600b600081546200027e9062000f60565b919050819055604051806020016040528060008152506200042d60201b60201c565b620002d833600b60008154620002b69062000f60565b919050819055604051806020016040528060008152506200042d60201b60201c565b6200031033600b60008154620002ee9062000f60565b919050819055604051806020016040528060008152506200042d60201b60201c565b6200034833600b60008154620003269062000f60565b919050819055604051806020016040528060008152506200042d60201b60201c565b6200038033600b600081546200035e9062000f60565b919050819055604051806020016040528060008152506200042d60201b60201c565b620003b833600b60008154620003969062000f60565b919050819055604051806020016040528060008152506200042d60201b60201c565b565b60006008600084815260200190815260200160002060000160008373ffffffffffffffffffffffffffffffffffffffff1673ffffffffffffffffffffffffffffffffffffffff16815260200190815260200160002060009054906101000a900460ff16905092915050565b600033905090565b6200044283836000846200053b60201b60201c565b818373ffffffffffffffffffffffffffffffffffffffff16600073ffffffffffffffffffffffffffffffffffffffff167fddf252ad1be2c89b69c2b068fc378daa952ba7f163c4a11628f55a4df523b3ef60405160405180910390a4818373ffffffffffffffffffffffffffffffffffffffff16600073ffffffffffffffffffffffffffffffffffffffff167f04444026cefd1b05506559cab59d1b865ae3ba4ed2fe5c894f04e522776c552d6000806040516200050292919062000ff0565b60405180910390a46200051e600084846200076360201b60201c565b620005366000846000808686620008d660201b60201c565b505050565b600073ffffffffffffffffffffffffffffffffffffffff168473ffffffffffffffffffffffffffffffffffffffff1603620005ad576040517f08c379a0000000000000000000000000000000000000000000000000000000008152600401620005a4906200107e565b60405180910390fd5b620005be836200095e60201b60201c565b1562000601576040517f08c379a0000000000000000000000000000000000000000000000000000000008152600401620005f890620010f0565b60405180910390fd5b6000830362000647576040517f08c379a00000000000000000000000000000000000000000000000000000000081526004016200063e9062001162565b60405180910390fd5b6200065b60008585620009cd60201b60201c565b620006736000856000858786620009d260201b60201c565b60016000808673ffffffffffffffffffffffffffffffffffffffff1673ffffffffffffffffffffffffffffffffffffffff1681526020019081526020016000206000828254620006c4919062001184565b9250508190555060405180604001604052808381526020018573ffffffffffffffffffffffffffffffffffffffff16815250600360008581526020019081526020016000206000820151816000015560208201518160010160006101000a81548173ffffffffffffffffffffffffffffffffffffffff021916908373ffffffffffffffffffffffffffffffffffffffff16021790555090505050505050565b62000776838383620009da60201b60201c565b600073ffffffffffffffffffffffffffffffffffffffff168373ffffffffffffffffffffffffffffffffffffffff1603620007f5578173ffffffffffffffffffffffffffffffffffffffff16817f12efee3b09e3e613ba78fc8fd69f2f4de0cd37747ede20391da66a3891ea325160405160405180910390a3620008d1565b600073ffffffffffffffffffffffffffffffffffffffff168273ffffffffffffffffffffffffffffffffffffffff160362000874578273ffffffffffffffffffffffffffffffffffffffff16817f9435a6058553357d779023fa6181ddf9fdb00bae9da8728dc833c982c78e80e460405160405180910390a3620008d0565b808273ffffffffffffffffffffffffffffffffffffffff168473ffffffffffffffffffffffffffffffffffffffff167f40647cf181b388f859641b85c8564939765ddc3688397a4347ffaf81585841a660405160405180910390a45b5b505050565b620008ec868686868686620009df60201b60201c565b818573ffffffffffffffffffffffffffffffffffffffff168773ffffffffffffffffffffffffffffffffffffffff167f916f698aa57029b1022aebdbd014c15a2daf45bb5d5abe3ddf2a77f0454c5ef787876040516200094e929190620011d0565b60405180910390a4505050505050565b60008073ffffffffffffffffffffffffffffffffffffffff166003600084815260200190815260200160002060010160009054906101000a900473ffffffffffffffffffffffffffffffffffffffff1673ffffffffffffffffffffffffffffffffffffffff1614159050919050565b505050565b505050505050565b505050565b505050505050565b6000604051905090565b600080fd5b600080fd5b600080fd5b600080fd5b6000601f19601f8301169050919050565b7f4e487b7100000000000000000000000000000000000000000000000000000000600052604160045260246000fd5b62000a508262000a05565b810181811067ffffffffffffffff8211171562000a725762000a7162000a16565b5b80604052505050565b600062000a87620009e7565b905062000a95828262000a45565b919050565b600067ffffffffffffffff82111562000ab85762000ab762000a16565b5b62000ac38262000a05565b9050602081019050919050565b60005b8381101562000af057808201518184015260208101905062000ad3565b60008484015250505050565b600062000b1362000b0d8462000a9a565b62000a7b565b90508281526020810184848401111562000b325762000b3162000a00565b5b62000b3f84828562000ad0565b509392505050565b600082601f83011262000b5f5762000b5e620009fb565b5b815162000b7184826020860162000afc565b91505092915050565b6000806040838503121562000b945762000b93620009f1565b5b600083015167ffffffffffffffff81111562000bb55762000bb4620009f6565b5b62000bc38582860162000b47565b925050602083015167ffffffffffffffff81111562000be75762000be6620009f6565b5b62000bf58582860162000b47565b9150509250929050565b600081519050919050565b7f4e487b7100000000000000000000000000000000000000000000000000000000600052602260045260246000fd5b6000600282049050600182168062000c5257607f821691505b60208210810362000c685762000c6762000c0a565b5b50919050565b60008190508160005260206000209050919050565b60006020601f8301049050919050565b600082821b905092915050565b60006008830262000cd27fffffffffffffffffffffffffffffffffffffffffffffffffffffffffffffffff8262000c93565b62000cde868362000c93565b95508019841693508086168417925050509392505050565b6000819050919050565b6000819050919050565b600062000d2b62000d2562000d1f8462000cf6565b62000d00565b62000cf6565b9050919050565b6000819050919050565b62000d478362000d0a565b62000d5f62000d568262000d32565b84845462000ca0565b825550505050565b600090565b62000d7662000d67565b62000d8381848462000d3c565b505050565b5b8181101562000dab5762000d9f60008262000d6c565b60018101905062000d89565b5050565b601f82111562000dfa5762000dc48162000c6e565b62000dcf8462000c83565b8101602085101562000ddf578190505b62000df762000dee8562000c83565b83018262000d88565b50505b505050565b600082821c905092915050565b600062000e1f6000198460080262000dff565b1980831691505092915050565b600062000e3a838362000e0c565b9150826002028217905092915050565b62000e558262000bff565b67ffffffffffffffff81111562000e715762000e7062000a16565b5b62000e7d825462000c39565b62000e8a82828562000daf565b600060209050601f83116001811462000ec2576000841562000ead578287015190505b62000eb9858262000e2c565b86555062000f29565b601f19841662000ed28662000c6e565b60005b8281101562000efc5784890151825560018201915060208501945060208101905062000ed5565b8683101562000f1c578489015162000f18601f89168262000e0c565b8355505b6001600288020188555050505b505050505050565b7f4e487b7100000000000000000000000000000000000000000000000000000000600052601160045260246000fd5b600062000f6d8262000cf6565b91507fffffffffffffffffffffffffffffffffffffffffffffffffffffffffffffffff820362000fa25762000fa162000f31565b5b600182019050919050565b6000819050919050565b600062000fd862000fd262000fcc8462000fad565b62000d00565b62000cf6565b9050919050565b62000fea8162000fb7565b82525050565b600060408201905062001007600083018562000fdf565b62001016602083018462000fdf565b9392505050565b600082825260208201905092915050565b7f4552433732314d696e74546f5468655a65726f41646472657373282900000000600082015250565b600062001066601c836200101d565b915062001073826200102e565b602082019050919050565b60006020820190508181036000830152620010998162001057565b9050919050565b7f455243373231546f6b656e416c72656164794d696e7465642829000000000000600082015250565b6000620010d8601a836200101d565b9150620010e582620010a0565b602082019050919050565b600060208201905081810360008301526200110b81620010c9565b9050919050565b7f49645a65726f466f7262696464656e2829000000000000000000000000000000600082015250565b60006200114a6011836200101d565b9150620011578262001112565b602082019050919050565b600060208201905081810360008301526200117d816200113b565b9050919050565b6000620011918262000cf6565b91506200119e8362000cf6565b9250828201905080821115620011b957620011b862000f31565b5b92915050565b620011ca8162000cf6565b82525050565b6000604082019050620011e76000830185620011bf565b620011f66020830184620011bf565b9392505050565b615e28806200120d6000396000f3fe608060405234801561001057600080fd5b50600436106102275760003560e01c80636f19951c11610130578063b390c0ab116100b8578063defa80c31161007c578063defa80c3146106b6578063e97ceaa8146106d2578063e985e9c5146106ee578063f5b541a61461071e578063fb25fb7a1461073c57610227565b8063b390c0ab14610602578063b88d4fde14610632578063c87b56dd1461064e578063ce6eab7d1461067e578063d547741f1461069a57610227565b8063974ac73a116100ff578063974ac73a14610560578063979613361461057c578063a217fddf14610598578063a22cb465146105b6578063a898e364146105d257610227565b80636f19951c146104b257806370a08231146104e257806391d148541461051257806395d89b411461054257610227565b80632f2ff15d116101b357806342966c681161018257806342966c68146103fe57806344ec93441461041a5780636352211e1461044a578063635490cc1461047a57806369bad7811461049657610227565b80632f2ff15d1461037a5780632f32f9371461039657806336568abe146103c657806342842e0e146103e257610227565b8063095ea7b3116101fa578063095ea7b3146102c65780630990eb1d146102e25780630ff562331461031257806323b872dd1461032e578063248a9ca31461034a57610227565b806301ffc9a71461022c578063064c0a3a1461025c57806306fdde0314610278578063081812fc14610296575b600080fd5b61024660048036038101906102419190613e0c565b61076e565b6040516102539190613e54565b60405180910390f35b61027660048036038101906102719190614049565b610780565b005b61028061079f565b60405161028d919061415f565b60405180910390f35b6102b060048036038101906102ab9190614181565b610831565b6040516102bd91906141bd565b60405180910390f35b6102e060048036038101906102db91906141d8565b6108bc565b005b6102fc60048036038101906102f79190614181565b6109d7565b604051610309919061415f565b60405180910390f35b61032c60048036038101906103279190614049565b6109e9565b005b61034860048036038101906103439190614218565b6109fd565b005b610364600480360381019061035f91906142a1565b610a28565b60405161037191906142dd565b60405180910390f35b610394600480360381019061038f91906142f8565b610a48565b005b6103b060048036038101906103ab9190614338565b610a6a565b6040516103bd91906143c5565b60405180910390f35b6103e060048036038101906103db91906142f8565b610b63565b005b6103fc60048036038101906103f79190614218565b610bde565b005b61041860048036038101906104139190614181565b610bfe565b005b610434600480360381019061042f9190614181565b610c0d565b60405161044191906144be565b60405180910390f35b610464600480360381019061045f9190614181565b610cdf565b60405161047191906141bd565b60405180910390f35b610494600480360381019061048f91906144e0565b610cf1565b005b6104b060048036038101906104ab91906145f0565b610ee6565b005b6104cc60048036038101906104c79190614181565b610f53565b6040516104d991906144be565b60405180910390f35b6104fc60048036038101906104f7919061464c565b611025565b6040516105099190614688565b60405180910390f35b61052c600480360381019061052791906142f8565b6110db565b6040516105399190613e54565b60405180910390f35b61054a611146565b604051610557919061415f565b60405180910390f35b61057a600480360381019061057591906146a3565b6111d8565b005b61059660048036038101906105919190614338565b61121a565b005b6105a0611233565b6040516105ad91906142dd565b60405180910390f35b6105d060048036038101906105cb919061472b565b61123a565b005b6105ec60048036038101906105e79190614338565b6113ba565b6040516105f991906143c5565b60405180910390f35b61061c60048036038101906106179190614338565b6114b3565b6040516106299190614688565b60405180910390f35b61064c6004803603810190610647919061476b565b6114d2565b005b61066860048036038101906106639190614181565b6114ef565b604051610675919061415f565b60405180910390f35b610698600480360381019061069391906147ee565b611501565b005b6106b460048036038101906106af91906142f8565b611570565b005b6106d060048036038101906106cb919061485d565b611592565b005b6106ec60048036038101906106e7919061492f565b6115b7565b005b61070860048036038101906107039190614996565b6115d4565b6040516107159190613e54565b60405180910390f35b610726611668565b60405161073391906142dd565b60405180910390f35b61075660048036038101906107519190614181565b61168c565b604051610765939291906149d6565b60405180910390f35b6000610779826117a6565b9050919050565b8261078a81611820565b6107978686868686611873565b505050505050565b6060600980546107ae90614a3c565b80601f01602080910402602001604051908101604052809291908181526020018280546107da90614a3c565b80156108275780601f106107fc57610100808354040283529160200191610827565b820191906000526020600020905b81548152906001019060200180831161080a57829003601f168201915b5050505050905090565b600061083c82611a67565b60016000838152602001908152602001600020600061085a84610cdf565b73ffffffffffffffffffffffffffffffffffffffff1673ffffffffffffffffffffffffffffffffffffffff16815260200190815260200160002060009054906101000a900473ffffffffffffffffffffffffffffffffffffffff169050919050565b60006108c782610cdf565b90508073ffffffffffffffffffffffffffffffffffffffff168373ffffffffffffffffffffffffffffffffffffffff1603610937576040517f08c379a000000000000000000000000000000000000000000000000000000000815260040161092e90614ab9565b60405180910390fd5b8073ffffffffffffffffffffffffffffffffffffffff16610956611ab2565b73ffffffffffffffffffffffffffffffffffffffff1614158015610988575061098681610981611ab2565b6115d4565b155b156109c8576040517f08c379a00000000000000000000000000000000000000000000000000000000081526004016109bf90614b4b565b60405180910390fd5b6109d28383611aba565b505050565b60606109e2826114ef565b9050919050565b6109f68585858585610780565b5050505050565b80610a0781611820565b610a2284848460405180602001604052806000815250611bb6565b50505050565b600060086000838152602001908152602001600020600101549050919050565b610a5182610a28565b610a5a81611e5c565b610a648383611e70565b50505050565b610a72613d06565b81610a7c84610f53565b5111610abd576040517f08c379a0000000000000000000000000000000000000000000000000000000008152600401610ab490614bb7565b60405180910390fd5b600460008481526020019081526020016000208281548110610ae257610ae1614bd7565b5b9060005260206000209060020201604051806040016040529081600082015481526020016001820160009054906101000a900473ffffffffffffffffffffffffffffffffffffffff1673ffffffffffffffffffffffffffffffffffffffff1673ffffffffffffffffffffffffffffffffffffffff1681525050905092915050565b610b6b611ab2565b73ffffffffffffffffffffffffffffffffffffffff168173ffffffffffffffffffffffffffffffffffffffff1614610bcf576040517f6697b23200000000000000000000000000000000000000000000000000000000815260040160405180910390fd5b610bd98282611f62565b505050565b610bf9838383604051806020016040528060008152506114d2565b505050565b610c098160006114b3565b5050565b606060056000838152602001908152602001600020805480602002602001604051908101604052809291908181526020016000905b82821015610cd45783829060005260206000209060020201604051806040016040529081600082015481526020016001820160009054906101000a900473ffffffffffffffffffffffffffffffffffffffff1673ffffffffffffffffffffffffffffffffffffffff1673ffffffffffffffffffffffffffffffffffffffff168152505081526020019060010190610c42565b505050509050919050565b6000610cea82612055565b9050919050565b610cfa83611a67565b6000610d04611ab2565b905060008173ffffffffffffffffffffffffffffffffffffffff163b03610d60576040517f08c379a0000000000000000000000000000000000000000000000000000000008152600401610d5790614c52565b60405180910390fd5b600060405180604001604052808581526020018373ffffffffffffffffffffffffffffffffffffffff168152509050610d9b858386866120f8565b6000610da686610c0d565b5190506080811015610e4757600560008781526020019081526020016000208290806001815401808255809150506001900390600052602060002090600202016000909190919091506000820151816000015560208201518160010160006101000a81548173ffffffffffffffffffffffffffffffffffffffff021916908373ffffffffffffffffffffffffffffffffffffffff1602179055505050610e82565b6040517f08c379a0000000000000000000000000000000000000000000000000000000008152600401610e7990614cbe565b60405180910390fd5b848373ffffffffffffffffffffffffffffffffffffffff16877fe65085e689b77b126ba0bac3b079aa8288f19f4d5445af11c76003f8ab3075dd84604051610eca9190614688565b60405180910390a4610ede868487876120fe565b505050505050565b7f97667070c54ef182b0f5858b034beac1b6f3089aa2d3188bb1e8929f4fa9b929610f1081611e5c565b6000600b60008154610f2190614d0d565b9190508190559050610f43848260405180602001604052806000815250612104565b610f4d81846111d8565b50505050565b606060046000838152602001908152602001600020805480602002602001604051908101604052809291908181526020016000905b8282101561101a5783829060005260206000209060020201604051806040016040529081600082015481526020016001820160009054906101000a900473ffffffffffffffffffffffffffffffffffffffff1673ffffffffffffffffffffffffffffffffffffffff1673ffffffffffffffffffffffffffffffffffffffff168152505081526020019060010190610f88565b505050509050919050565b60008073ffffffffffffffffffffffffffffffffffffffff168273ffffffffffffffffffffffffffffffffffffffff1603611095576040517f08c379a000000000000000000000000000000000000000000000000000000000815260040161108c90614dc7565b60405180910390fd5b6000808373ffffffffffffffffffffffffffffffffffffffff1673ffffffffffffffffffffffffffffffffffffffff168152602001908152602001600020549050919050565b60006008600084815260200190815260200160002060000160008373ffffffffffffffffffffffffffffffffffffffff1673ffffffffffffffffffffffffffffffffffffffff16815260200190815260200160002060009054906101000a900460ff16905092915050565b6060600a805461115590614a3c565b80601f016020809104026020016040519081016040528092919081815260200182805461118190614a3c565b80156111ce5780601f106111a3576101008083540402835291602001916111ce565b820191906000526020600020905b8154815290600101906020018083116111b157829003601f168201915b5050505050905090565b7f97667070c54ef182b0f5858b034beac1b6f3089aa2d3188bb1e8929f4fa9b92961120281611e5c565b61120b83611a67565b61121583836121f8565b505050565b8161122481612254565b61122e83836122a7565b505050565b6000801b81565b8173ffffffffffffffffffffffffffffffffffffffff16611259611ab2565b73ffffffffffffffffffffffffffffffffffffffff16036112af576040517f08c379a00000000000000000000000000000000000000000000000000000000081526004016112a690614e33565b60405180910390fd5b80600260006112bc611ab2565b73ffffffffffffffffffffffffffffffffffffffff1673ffffffffffffffffffffffffffffffffffffffff16815260200190815260200160002060008473ffffffffffffffffffffffffffffffffffffffff1673ffffffffffffffffffffffffffffffffffffffff16815260200190815260200160002060006101000a81548160ff0219169083151502179055508173ffffffffffffffffffffffffffffffffffffffff16611369611ab2565b73ffffffffffffffffffffffffffffffffffffffff167f17307eab39ab6107e8899845ad3d59bd9653f200f220920489ca2b5937696c31836040516113ae9190613e54565b60405180910390a35050565b6113c2613d06565b816113cc84610c0d565b511161140d576040517f08c379a000000000000000000000000000000000000000000000000000000000815260040161140490614e9f565b60405180910390fd5b60056000848152602001908152602001600020828154811061143257611431614bd7565b5b9060005260206000209060020201604051806040016040529081600082015481526020016001820160009054906101000a900473ffffffffffffffffffffffffffffffffffffffff1673ffffffffffffffffffffffffffffffffffffffff1673ffffffffffffffffffffffffffffffffffffffff1681525050905092915050565b6000826114bf81611820565b6114c98484612362565b91505092915050565b816114dc81611820565b6114e8858585856127f1565b5050505050565b60606114fa8261284e565b9050919050565b7f97667070c54ef182b0f5858b034beac1b6f3089aa2d3188bb1e8929f4fa9b92961152b81611e5c565b6000600b6000815461153c90614d0d565b919050819055905061155f85828660405180602001604052806000815250612967565b61156981846111d8565b5050505050565b61157982610a28565b61158281611e5c565b61158c8383611f62565b50505050565b8761159c81612254565b6115ac8989898989898989612992565b505050505050505050565b836115c181612254565b6115cd85858585612c3a565b5050505050565b6000600260008473ffffffffffffffffffffffffffffffffffffffff1673ffffffffffffffffffffffffffffffffffffffff16815260200190815260200160002060008373ffffffffffffffffffffffffffffffffffffffff1673ffffffffffffffffffffffffffffffffffffffff16815260200190815260200160002060009054906101000a900460ff16905092915050565b7f97667070c54ef182b0f5858b034beac1b6f3089aa2d3188bb1e8929f4fa9b92981565b60008060008060036000868152602001908152602001600020604051806040016040529081600082015481526020016001820160009054906101000a900473ffffffffffffffffffffffffffffffffffffffff1673ffffffffffffffffffffffffffffffffffffffff1673ffffffffffffffffffffffffffffffffffffffff16815250509050600073ffffffffffffffffffffffffffffffffffffffff16816020015173ffffffffffffffffffffffffffffffffffffffff1603611785576040517f08c379a000000000000000000000000000000000000000000000000000000000815260040161177c90614f0b565b60405180910390fd5b80602001519350806000015192506000816000015114159150509193909250565b60007f7965db0b000000000000000000000000000000000000000000000000000000007bffffffffffffffffffffffffffffffffffffffffffffffffffffffff1916827bffffffffffffffffffffffffffffffffffffffffffffffffffffffff19161480611819575061181882612e57565b5b9050919050565b61183161182b611ab2565b82612ec1565b611870576040517f08c379a000000000000000000000000000000000000000000000000000000000815260040161186790614f77565b60405180910390fd5b50565b60008061187f8561168c565b50915091508673ffffffffffffffffffffffffffffffffffffffff168273ffffffffffffffffffffffffffffffffffffffff16146118f2576040517f08c379a00000000000000000000000000000000000000000000000000000000081526004016118e990615009565b60405180910390fd5b3073ffffffffffffffffffffffffffffffffffffffff168673ffffffffffffffffffffffffffffffffffffffff1614801561192c57508385145b1561196c576040517f08c379a000000000000000000000000000000000000000000000000000000000815260040161196390615075565b60405180910390fd5b61197586612f9d565b6119808587866130d3565b61198b878787613241565b611999828783878988613246565b60016000808973ffffffffffffffffffffffffffffffffffffffff1673ffffffffffffffffffffffffffffffffffffffff16815260200190815260200160002060008282546119e89190615095565b925050819055506119fa85858861324e565b60016000808873ffffffffffffffffffffffffffffffffffffffff1673ffffffffffffffffffffffffffffffffffffffff1681526020019081526020016000206000828254611a4991906150c9565b92505081905550611a5e8287838789886132f9565b50505050505050565b611a7081613452565b611aaf576040517f08c379a0000000000000000000000000000000000000000000000000000000008152600401611aa690614f0b565b60405180910390fd5b50565b600033905090565b6000611ac582610cdf565b9050826001600084815260200190815260200160002060008373ffffffffffffffffffffffffffffffffffffffff1673ffffffffffffffffffffffffffffffffffffffff16815260200190815260200160002060006101000a81548173ffffffffffffffffffffffffffffffffffffffff021916908373ffffffffffffffffffffffffffffffffffffffff160217905550818373ffffffffffffffffffffffffffffffffffffffff168273ffffffffffffffffffffffffffffffffffffffff167f8c5be1e5ebec7d5bd14f71427d1e84f3dd0314c0f7b2291e5b200ac8c7c3b92560405160405180910390a4505050565b600080611bc28461168c565b50915091508573ffffffffffffffffffffffffffffffffffffffff168273ffffffffffffffffffffffffffffffffffffffff1614611c35576040517f08c379a0000000000000000000000000000000000000000000000000000000008152600401611c2c90615009565b60405180910390fd5b600073ffffffffffffffffffffffffffffffffffffffff168573ffffffffffffffffffffffffffffffffffffffff1603611ca4576040517f08c379a0000000000000000000000000000000000000000000000000000000008152600401611c9b90615149565b60405180910390fd5b611caf868686613241565b611cbe86868360008888613246565b60016000808873ffffffffffffffffffffffffffffffffffffffff1673ffffffffffffffffffffffffffffffffffffffff1681526020019081526020016000206000828254611d0d9190615095565b92505081905550611d208460008761324e565b60016000808773ffffffffffffffffffffffffffffffffffffffff1673ffffffffffffffffffffffffffffffffffffffff1681526020019081526020016000206000828254611d6f91906150c9565b92505081905550838573ffffffffffffffffffffffffffffffffffffffff168773ffffffffffffffffffffffffffffffffffffffff167fddf252ad1be2c89b69c2b068fc378daa952ba7f163c4a11628f55a4df523b3ef60405160405180910390a4838573ffffffffffffffffffffffffffffffffffffffff168773ffffffffffffffffffffffffffffffffffffffff167f04444026cefd1b05506559cab59d1b865ae3ba4ed2fe5c894f04e522776c552d846000604051611e329291906151ae565b60405180910390a4611e458686866134c1565b611e5486868360008888613628565b505050505050565b611e6d81611e68611ab2565b6136a6565b50565b6000611e7c83836110db565b611f575760016008600085815260200190815260200160002060000160008473ffffffffffffffffffffffffffffffffffffffff1673ffffffffffffffffffffffffffffffffffffffff16815260200190815260200160002060006101000a81548160ff021916908315150217905550611ef4611ab2565b73ffffffffffffffffffffffffffffffffffffffff168273ffffffffffffffffffffffffffffffffffffffff16847f2f8788117e7eff1d82e926ec794901d17c78024a50270940304540a733656f0d60405160405180910390a460019050611f5c565b600090505b92915050565b6000611f6e83836110db565b1561204a5760006008600085815260200190815260200160002060000160008473ffffffffffffffffffffffffffffffffffffffff1673ffffffffffffffffffffffffffffffffffffffff16815260200190815260200160002060006101000a81548160ff021916908315150217905550611fe7611ab2565b73ffffffffffffffffffffffffffffffffffffffff168273ffffffffffffffffffffffffffffffffffffffff16847ff6391f5c32d9c69d2a47ea670b442974b53935d1edc7fd64eb21e047a839171b60405160405180910390a46001905061204f565b600090505b92915050565b6000806000806120648561168c565b92509250925080156120ed578273ffffffffffffffffffffffffffffffffffffffff16636352211e836040518263ffffffff1660e01b81526004016120a99190614688565b602060405180830381865afa1580156120c6573d6000803e3d6000fd5b505050506040513d601f19601f820116820180604052508101906120ea91906151ec565b92505b829350505050919050565b50505050565b50505050565b61211183836000846136f7565b818373ffffffffffffffffffffffffffffffffffffffff16600073ffffffffffffffffffffffffffffffffffffffff167fddf252ad1be2c89b69c2b068fc378daa952ba7f163c4a11628f55a4df523b3ef60405160405180910390a4818373ffffffffffffffffffffffffffffffffffffffff16600073ffffffffffffffffffffffffffffffffffffffff167f04444026cefd1b05506559cab59d1b865ae3ba4ed2fe5c894f04e522776c552d6000806040516121cf929190615219565b60405180910390a46121e3600084846134c1565b6121f36000846000808686613628565b505050565b8060076000848152602001908152602001600020908161221891906153e4565b507ff8e1a15aba9398e019f0b49df1a4fde98ee17ae345cb5f6b5e2c27f5033e8ce7826040516122489190614688565b60405180910390a15050565b61226561225f611ab2565b826138fc565b6122a4576040517f08c379a000000000000000000000000000000000000000000000000000000000815260040161229b90615502565b60405180910390fd5b50565b8060056000848152602001908152602001600020805490501115612300576040517f08c379a00000000000000000000000000000000000000000000000000000000081526004016122f79061556e565b60405180910390fd5b61230982613991565b6005600083815260200190815260200160002060006123289190613d36565b817f8ac4a0d65950c3e40448afb2260e2e0ec36ea15644d9b39e37e85472e5f9445160405160405180910390a261235e82613994565b5050565b60008060006123708561168c565b5091509150600061238086610cdf565b905061238e83600088613241565b6123ad8360008460008a60405180602001604052806000815250613246565b60016000808573ffffffffffffffffffffffffffffffffffffffff1673ffffffffffffffffffffffffffffffffffffffff16815260200190815260200160002060008282546123fc9190615095565b9250508190555061240e600087611aba565b61241786613997565b600061242287610f53565b90506004600088815260200190815260200160002060006124439190613d36565b6005600088815260200190815260200160002060006124629190613d36565b6001600088815260200190815260200160002060008373ffffffffffffffffffffffffffffffffffffffff1673ffffffffffffffffffffffffffffffffffffffff16815260200190815260200160002060006101000a81549073ffffffffffffffffffffffffffffffffffffffff021916905560008060008351905060005b818110156126aa5789831061252b576040517f08c379a000000000000000000000000000000000000000000000000000000000815260040161252290615626565b60405180910390fd5b6006600086838151811061254257612541614bd7565b5b60200260200101516020015173ffffffffffffffffffffffffffffffffffffffff1673ffffffffffffffffffffffffffffffffffffffff168152602001908152602001600020600086838151811061259d5761259c614bd7565b5b602002602001015160000151815260200190815260200160002060009055828a03935060018582815181106125d5576125d4614bd7565b5b60200260200101516020015173ffffffffffffffffffffffffffffffffffffffff1663b390c0ab87848151811061260f5761260e614bd7565b5b6020026020010151600001516001886126289190615095565b6040518363ffffffff1660e01b8152600401612645929190615646565b6020604051808303816000875af1158015612664573d6000803e3d6000fd5b505050506040513d601f19601f820116820180604052508101906126889190615684565b61269291906150c9565b8361269d91906150c9565b92508060010190506124e1565b50600360008b81526020019081526020016000206000808201600090556001820160006101000a81549073ffffffffffffffffffffffffffffffffffffffff0219169055505089600073ffffffffffffffffffffffffffffffffffffffff168873ffffffffffffffffffffffffffffffffffffffff167fddf252ad1be2c89b69c2b068fc378daa952ba7f163c4a11628f55a4df523b3ef60405160405180910390a489600073ffffffffffffffffffffffffffffffffffffffff168873ffffffffffffffffffffffffffffffffffffffff167f04444026cefd1b05506559cab59d1b865ae3ba4ed2fe5c894f04e522776c552d8960006040516127ae9291906151ae565b60405180910390a46127c28760008c6134c1565b6127e18760008860008e60405180602001604052806000815250613628565b8197505050505050505092915050565b6127fd84848484611bb6565b6128098484848461399a565b612848576040517f08c379a000000000000000000000000000000000000000000000000000000000815260040161283f90615723565b60405180910390fd5b50505050565b606061285982611a67565b600060076000848152602001908152602001600020805461287990614a3c565b80601f01602080910402602001604051908101604052809291908181526020018280546128a590614a3c565b80156128f25780601f106128c7576101008083540402835291602001916128f2565b820191906000526020600020905b8154815290600101906020018083116128d557829003601f168201915b505050505090506000612903613b1b565b90506000815103612918578192505050612962565b60008251111561294d57808260405160200161293592919061577f565b60405160208183030381529060405292505050612962565b60405180602001604052806000815250925050505b919050565b61297084612f9d565b61297c848484846136f7565b61298c60008560008587866132f9565b50505050565b61299a613d06565b82156129b1576129aa89876113ba565b90506129be565b6129bb8987610a6a565b90505b6129c9818686613b32565b6129d7898787878787613bba565b82156129fe576129f9600560008b815260200190815260200160002087613bc2565b612a6f565b600660008673ffffffffffffffffffffffffffffffffffffffff1673ffffffffffffffffffffffffffffffffffffffff168152602001908152602001600020600085815260200190815260200160002060009055612a6e600460008b815260200190815260200160002087613bc2565b5b600073ffffffffffffffffffffffffffffffffffffffff168873ffffffffffffffffffffffffffffffffffffffff1614612b9e5760008703612b21578473ffffffffffffffffffffffffffffffffffffffff1663b88d4fde308a87866040518563ffffffff1660e01b8152600401612aea94939291906157f8565b600060405180830381600087803b158015612b0457600080fd5b505af1158015612b18573d6000803e3d6000fd5b50505050612b9d565b806020015173ffffffffffffffffffffffffffffffffffffffff1663064c0a3a308a84600001518b876040518663ffffffff1660e01b8152600401612b6a959493929190615844565b600060405180830381600087803b158015612b8457600080fd5b505af1158015612b98573d6000803e3d6000fd5b505050505b5b838573ffffffffffffffffffffffffffffffffffffffff168a7f02d6d6dbcb604d5e1e8c7886456e82a9cdce88b0a580071358f206b5a4d58f708987600073ffffffffffffffffffffffffffffffffffffffff168e73ffffffffffffffffffffffffffffffffffffffff1614604051612c199392919061589e565b60405180910390a4612c2f898787878787613ce5565b505050505050505050565b6000612c4685856113ba565b9050612c53818484613b32565b6000600660008573ffffffffffffffffffffffffffffffffffffffff1673ffffffffffffffffffffffffffffffffffffffff16815260200190815260200160002060008481526020019081526020016000205414612ce6576040517f08c379a0000000000000000000000000000000000000000000000000000000008152600401612cdd90615921565b60405180910390fd5b612cf285858585613ced565b612d0e6005600087815260200190815260200160002085613bc2565b600460008681526020019081526020016000208190806001815401808255809150506001900390600052602060002090600202016000909190919091506000820151816000015560208201518160010160006101000a81548173ffffffffffffffffffffffffffffffffffffffff021916908373ffffffffffffffffffffffffffffffffffffffff16021790555050506001600660008573ffffffffffffffffffffffffffffffffffffffff1673ffffffffffffffffffffffffffffffffffffffff168152602001908152602001600020600084815260200190815260200160002081905550818373ffffffffffffffffffffffffffffffffffffffff16867f29486b9e2ae569b440933a9b1b421467306fa21f3dcad439c262910a634963a987604051612e3c9190614688565b60405180910390a4612e5085858585613cf3565b5050505050565b60007f01ffc9a7000000000000000000000000000000000000000000000000000000007bffffffffffffffffffffffffffffffffffffffffffffffffffffffff1916827bffffffffffffffffffffffffffffffffffffffffffffffffffffffff1916149050919050565b6000806000612ecf8461168c565b509150915060008114612f14578173ffffffffffffffffffffffffffffffffffffffff168573ffffffffffffffffffffffffffffffffffffffff161492505050612f97565b8173ffffffffffffffffffffffffffffffffffffffff168573ffffffffffffffffffffffffffffffffffffffff161480612f545750612f5382866115d4565b5b80612f9257508473ffffffffffffffffffffffffffffffffffffffff16612f7a85610831565b73ffffffffffffffffffffffffffffffffffffffff16145b925050505b92915050565b60008173ffffffffffffffffffffffffffffffffffffffff163b03612ff7576040517f08c379a0000000000000000000000000000000000000000000000000000000008152600401612fee90614c52565b60405180910390fd5b8073ffffffffffffffffffffffffffffffffffffffff166301ffc9a77f42b0e56f000000000000000000000000000000000000000000000000000000006040518263ffffffff1660e01b81526004016130509190615950565b602060405180830381865afa15801561306d573d6000803e3d6000fd5b505050506040513d601f19601f820116820180604052508101906130919190615980565b6130d0576040517f08c379a00000000000000000000000000000000000000000000000000000000081526004016130c790615a1f565b60405180910390fd5b50565b60005b60648110156132005760008060008573ffffffffffffffffffffffffffffffffffffffff1663fb25fb7a866040518263ffffffff1660e01b815260040161311d9190614688565b606060405180830381865afa15801561313a573d6000803e3d6000fd5b505050506040513d601f19601f8201168201806040525081019061315e9190615a3f565b92509250925080613172575050505061323c565b3073ffffffffffffffffffffffffffffffffffffffff168373ffffffffffffffffffffffffffffffffffffffff161480156131ac57508682145b156131ec576040517f08c379a00000000000000000000000000000000000000000000000000000000081526004016131e390615ade565b60405180910390fd5b8295508194508360010193505050506130d6565b506040517f08c379a000000000000000000000000000000000000000000000000000000000815260040161323390615b4a565b60405180910390fd5b505050565b505050565b505050505050565b60405180604001604052808381526020018273ffffffffffffffffffffffffffffffffffffffff16815250600360008581526020019081526020016000206000820151816000015560208201518160010160006101000a81548173ffffffffffffffffffffffffffffffffffffffff021916908373ffffffffffffffffffffffffffffffffffffffff1602179055509050506132eb600084611aba565b6132f483613997565b505050565b60008590508073ffffffffffffffffffffffffffffffffffffffff1663635490cc8585856040518463ffffffff1660e01b815260040161333b93929190615b6a565b600060405180830381600087803b15801561335557600080fd5b505af1158015613369573d6000803e3d6000fd5b50505050828673ffffffffffffffffffffffffffffffffffffffff168873ffffffffffffffffffffffffffffffffffffffff167fddf252ad1be2c89b69c2b068fc378daa952ba7f163c4a11628f55a4df523b3ef60405160405180910390a4828673ffffffffffffffffffffffffffffffffffffffff168873ffffffffffffffffffffffffffffffffffffffff167f04444026cefd1b05506559cab59d1b865ae3ba4ed2fe5c894f04e522776c552d8888604051613428929190615646565b60405180910390a461343b8787856134c1565b613449878787878787613628565b50505050505050565b60008073ffffffffffffffffffffffffffffffffffffffff166003600084815260200190815260200160002060010160009054906101000a900473ffffffffffffffffffffffffffffffffffffffff1673ffffffffffffffffffffffffffffffffffffffff1614159050919050565b6134cc838383613cf9565b600073ffffffffffffffffffffffffffffffffffffffff168373ffffffffffffffffffffffffffffffffffffffff1603613549578173ffffffffffffffffffffffffffffffffffffffff16817f12efee3b09e3e613ba78fc8fd69f2f4de0cd37747ede20391da66a3891ea325160405160405180910390a3613623565b600073ffffffffffffffffffffffffffffffffffffffff168273ffffffffffffffffffffffffffffffffffffffff16036135c6578273ffffffffffffffffffffffffffffffffffffffff16817f9435a6058553357d779023fa6181ddf9fdb00bae9da8728dc833c982c78e80e460405160405180910390a3613622565b808273ffffffffffffffffffffffffffffffffffffffff168473ffffffffffffffffffffffffffffffffffffffff167f40647cf181b388f859641b85c8564939765ddc3688397a4347ffaf81585841a660405160405180910390a45b5b505050565b613636868686868686613cfe565b818573ffffffffffffffffffffffffffffffffffffffff168773ffffffffffffffffffffffffffffffffffffffff167f916f698aa57029b1022aebdbd014c15a2daf45bb5d5abe3ddf2a77f0454c5ef78787604051613696929190615646565b60405180910390a4505050505050565b6136b082826110db565b6136f35780826040517fe2517d3f0000000000000000000000000000000000000000000000000000000081526004016136ea929190615ba8565b60405180910390fd5b5050565b600073ffffffffffffffffffffffffffffffffffffffff168473ffffffffffffffffffffffffffffffffffffffff1603613766576040517f08c379a000000000000000000000000000000000000000000000000000000000815260040161375d90615c1d565b60405180910390fd5b61376f83613452565b156137af576040517f08c379a00000000000000000000000000000000000000000000000000000000081526004016137a690615c89565b60405180910390fd5b600083036137f2576040517f08c379a00000000000000000000000000000000000000000000000000000000081526004016137e990615cf5565b60405180910390fd5b6137fe60008585613241565b61380e6000856000858786613246565b60016000808673ffffffffffffffffffffffffffffffffffffffff1673ffffffffffffffffffffffffffffffffffffffff168152602001908152602001600020600082825461385d91906150c9565b9250508190555060405180604001604052808381526020018573ffffffffffffffffffffffffffffffffffffffff16815250600360008581526020019081526020016000206000820151816000015560208201518160010160006101000a81548173ffffffffffffffffffffffffffffffffffffffff021916908373ffffffffffffffffffffffffffffffffffffffff16021790555090505050505050565b60008061390883610cdf565b90508073ffffffffffffffffffffffffffffffffffffffff168473ffffffffffffffffffffffffffffffffffffffff16148061394a575061394981856115d4565b5b8061398857508373ffffffffffffffffffffffffffffffffffffffff1661397084610831565b73ffffffffffffffffffffffffffffffffffffffff16145b91505092915050565b50565b50565b50565b6000808473ffffffffffffffffffffffffffffffffffffffff163b14613b0e578373ffffffffffffffffffffffffffffffffffffffff1663150b7a026139de611ab2565b8786866040518563ffffffff1660e01b8152600401613a0094939291906157f8565b6020604051808303816000875af1925050508015613a3c57506040513d601f19601f82011682018060405250810190613a399190615d2a565b60015b613abe573d8060008114613a6c576040519150601f19603f3d011682016040523d82523d6000602084013e613a71565b606091505b506000815103613ab6576040517f08c379a0000000000000000000000000000000000000000000000000000000008152600401613aad90615723565b60405180910390fd5b805181602001fd5b63150b7a0260e01b7bffffffffffffffffffffffffffffffffffffffffffffffffffffffff1916817bffffffffffffffffffffffffffffffffffffffffffffffffffffffff191614915050613b13565b600190505b949350505050565b606060405180602001604052806000815250905090565b826020015173ffffffffffffffffffffffffffffffffffffffff168273ffffffffffffffffffffffffffffffffffffffff16141580613b75575082600001518114155b15613bb5576040517f08c379a0000000000000000000000000000000000000000000000000000000008152600401613bac90615da3565b60405180910390fd5b505050565b505050505050565b8160018380549050613bd49190615095565b81548110613be557613be4614bd7565b5b9060005260206000209060020201828281548110613c0657613c05614bd7565b5b9060005260206000209060020201600082015481600001556001820160009054906101000a900473ffffffffffffffffffffffffffffffffffffffff168160010160006101000a81548173ffffffffffffffffffffffffffffffffffffffff021916908373ffffffffffffffffffffffffffffffffffffffff16021790555090505081805480613c9957613c98615dc3565b5b60019003818190600052602060002090600202016000808201600090556001820160006101000a81549073ffffffffffffffffffffffffffffffffffffffff0219169055505090555050565b505050505050565b50505050565b50505050565b505050565b505050505050565b604051806040016040528060008152602001600073ffffffffffffffffffffffffffffffffffffffff1681525090565b5080546000825560020290600052602060002090810190613d579190613d5a565b50565b5b80821115613d9c576000808201600090556001820160006101000a81549073ffffffffffffffffffffffffffffffffffffffff021916905550600201613d5b565b5090565b6000604051905090565b600080fd5b600080fd5b60007fffffffff0000000000000000000000000000000000000000000000000000000082169050919050565b613de981613db4565b8114613df457600080fd5b50565b600081359050613e0681613de0565b92915050565b600060208284031215613e2257613e21613daa565b5b6000613e3084828501613df7565b91505092915050565b60008115159050919050565b613e4e81613e39565b82525050565b6000602082019050613e696000830184613e45565b92915050565b600073ffffffffffffffffffffffffffffffffffffffff82169050919050565b6000613e9a82613e6f565b9050919050565b613eaa81613e8f565b8114613eb557600080fd5b50565b600081359050613ec781613ea1565b92915050565b6000819050919050565b613ee081613ecd565b8114613eeb57600080fd5b50565b600081359050613efd81613ed7565b92915050565b600080fd5b600080fd5b6000601f19601f8301169050919050565b7f4e487b7100000000000000000000000000000000000000000000000000000000600052604160045260246000fd5b613f5682613f0d565b810181811067ffffffffffffffff82111715613f7557613f74613f1e565b5b80604052505050565b6000613f88613da0565b9050613f948282613f4d565b919050565b600067ffffffffffffffff821115613fb457613fb3613f1e565b5b613fbd82613f0d565b9050602081019050919050565b82818337600083830152505050565b6000613fec613fe784613f99565b613f7e565b90508281526020810184848401111561400857614007613f08565b5b614013848285613fca565b509392505050565b600082601f8301126140305761402f613f03565b5b8135614040848260208601613fd9565b91505092915050565b600080600080600060a0868803121561406557614064613daa565b5b600061407388828901613eb8565b955050602061408488828901613eb8565b945050604061409588828901613eee565b93505060606140a688828901613eee565b925050608086013567ffffffffffffffff8111156140c7576140c6613daf565b5b6140d38882890161401b565b9150509295509295909350565b600081519050919050565b600082825260208201905092915050565b60005b8381101561411a5780820151818401526020810190506140ff565b60008484015250505050565b6000614131826140e0565b61413b81856140eb565b935061414b8185602086016140fc565b61415481613f0d565b840191505092915050565b600060208201905081810360008301526141798184614126565b905092915050565b60006020828403121561419757614196613daa565b5b60006141a584828501613eee565b91505092915050565b6141b781613e8f565b82525050565b60006020820190506141d260008301846141ae565b92915050565b600080604083850312156141ef576141ee613daa565b5b60006141fd85828601613eb8565b925050602061420e85828601613eee565b9150509250929050565b60008060006060848603121561423157614230613daa565b5b600061423f86828701613eb8565b935050602061425086828701613eb8565b925050604061426186828701613eee565b9150509250925092565b6000819050919050565b61427e8161426b565b811461428957600080fd5b50565b60008135905061429b81614275565b92915050565b6000602082840312156142b7576142b6613daa565b5b60006142c58482850161428c565b91505092915050565b6142d78161426b565b82525050565b60006020820190506142f260008301846142ce565b92915050565b6000806040838503121561430f5761430e613daa565b5b600061431d8582860161428c565b925050602061432e85828601613eb8565b9150509250929050565b6000806040838503121561434f5761434e613daa565b5b600061435d85828601613eee565b925050602061436e85828601613eee565b9150509250929050565b61438181613ecd565b82525050565b61439081613e8f565b82525050565b6040820160008201516143ac6000850182614378565b5060208201516143bf6020850182614387565b50505050565b60006040820190506143da6000830184614396565b92915050565b600081519050919050565b600082825260208201905092915050565b6000819050602082019050919050565b6040820160008201516144226000850182614378565b5060208201516144356020850182614387565b50505050565b6000614447838361440c565b60408301905092915050565b6000602082019050919050565b600061446b826143e0565b61447581856143eb565b9350614480836143fc565b8060005b838110156144b1578151614498888261443b565b97506144a383614453565b925050600181019050614484565b5085935050505092915050565b600060208201905081810360008301526144d88184614460565b905092915050565b6000806000606084860312156144f9576144f8613daa565b5b600061450786828701613eee565b935050602061451886828701613eee565b925050604084013567ffffffffffffffff81111561453957614538613daf565b5b6145458682870161401b565b9150509250925092565b600067ffffffffffffffff82111561456a57614569613f1e565b5b61457382613f0d565b9050602081019050919050565b600061459361458e8461454f565b613f7e565b9050828152602081018484840111156145af576145ae613f08565b5b6145ba848285613fca565b509392505050565b600082601f8301126145d7576145d6613f03565b5b81356145e7848260208601614580565b91505092915050565b6000806040838503121561460757614606613daa565b5b600061461585828601613eb8565b925050602083013567ffffffffffffffff81111561463657614635613daf565b5b614642858286016145c2565b9150509250929050565b60006020828403121561466257614661613daa565b5b600061467084828501613eb8565b91505092915050565b61468281613ecd565b82525050565b600060208201905061469d6000830184614679565b92915050565b600080604083850312156146ba576146b9613daa565b5b60006146c885828601613eee565b925050602083013567ffffffffffffffff8111156146e9576146e8613daf565b5b6146f5858286016145c2565b9150509250929050565b61470881613e39565b811461471357600080fd5b50565b600081359050614725816146ff565b92915050565b6000806040838503121561474257614741613daa565b5b600061475085828601613eb8565b925050602061476185828601614716565b9150509250929050565b6000806000806080858703121561478557614784613daa565b5b600061479387828801613eb8565b94505060206147a487828801613eb8565b93505060406147b587828801613eee565b925050606085013567ffffffffffffffff8111156147d6576147d5613daf565b5b6147e28782880161401b565b91505092959194509250565b60008060006060848603121561480757614806613daa565b5b600061481586828701613eb8565b935050602061482686828701613eee565b925050604084013567ffffffffffffffff81111561484757614846613daf565b5b614853868287016145c2565b9150509250925092565b600080600080600080600080610100898b03121561487e5761487d613daa565b5b600061488c8b828c01613eee565b985050602061489d8b828c01613eb8565b97505060406148ae8b828c01613eee565b96505060606148bf8b828c01613eee565b95505060806148d08b828c01613eb8565b94505060a06148e18b828c01613eee565b93505060c06148f28b828c01614716565b92505060e089013567ffffffffffffffff81111561491357614912613daf565b5b61491f8b828c0161401b565b9150509295985092959890939650565b6000806000806080858703121561494957614948613daa565b5b600061495787828801613eee565b945050602061496887828801613eee565b935050604061497987828801613eb8565b925050606061498a87828801613eee565b91505092959194509250565b600080604083850312156149ad576149ac613daa565b5b60006149bb85828601613eb8565b92505060206149cc85828601613eb8565b9150509250929050565b60006060820190506149eb60008301866141ae565b6149f86020830185614679565b614a056040830184613e45565b949350505050565b7f4e487b7100000000000000000000000000000000000000000000000000000000600052602260045260246000fd5b60006002820490506001821680614a5457607f821691505b602082108103614a6757614a66614a0d565b5b50919050565b7f455243373231417070726f76616c546f43757272656e744f776e657228290000600082015250565b6000614aa3601e836140eb565b9150614aae82614a6d565b602082019050919050565b60006020820190508181036000830152614ad281614a96565b9050919050565b7f455243373231417070726f766543616c6c657249734e6f744f776e65724e6f7260008201527f417070726f766564466f72416c6c282900000000000000000000000000000000602082015250565b6000614b356030836140eb565b9150614b4082614ad9565b604082019050919050565b60006020820190508181036000830152614b6481614b28565b9050919050565b7f4368696c64496e6465784f75744f6652616e6765282900000000000000000000600082015250565b6000614ba16016836140eb565b9150614bac82614b6b565b602082019050919050565b60006020820190508181036000830152614bd081614b94565b9050919050565b7f4e487b7100000000000000000000000000000000000000000000000000000000600052603260045260246000fd5b7f49734e6f74436f6e747261637428290000000000000000000000000000000000600082015250565b6000614c3c600f836140eb565b9150614c4782614c06565b602082019050919050565b60006020820190508181036000830152614c6b81614c2f565b9050919050565b7f4d617850656e64696e674368696c6472656e5265616368656428290000000000600082015250565b6000614ca8601b836140eb565b9150614cb382614c72565b602082019050919050565b60006020820190508181036000830152614cd781614c9b565b9050919050565b7f4e487b7100000000000000000000000000000000000000000000000000000000600052601160045260246000fd5b6000614d1882613ecd565b91507fffffffffffffffffffffffffffffffffffffffffffffffffffffffffffffffff8203614d4a57614d49614cde565b5b600182019050919050565b7f455243373231416464726573735a65726f49734e6f746156616c69644f776e6560008201527f7228290000000000000000000000000000000000000000000000000000000000602082015250565b6000614db16023836140eb565b9150614dbc82614d55565b604082019050919050565b60006020820190508181036000830152614de081614da4565b9050919050565b7f455243373231417070726f7665546f43616c6c65722829000000000000000000600082015250565b6000614e1d6017836140eb565b9150614e2882614de7565b602082019050919050565b60006020820190508181036000830152614e4c81614e10565b9050919050565b7f50656e64696e674368696c64496e6465784f75744f6652616e67652829000000600082015250565b6000614e89601d836140eb565b9150614e9482614e53565b602082019050919050565b60006020820190508181036000830152614eb881614e7c565b9050919050565b7f455243373231496e76616c6964546f6b656e4964282900000000000000000000600082015250565b6000614ef56016836140eb565b9150614f0082614ebf565b602082019050919050565b60006020820190508181036000830152614f2481614ee8565b9050919050565b7f4e6f74417070726f7665644f724469726563744f776e65722829000000000000600082015250565b6000614f61601a836140eb565b9150614f6c82614f2b565b602082019050919050565b60006020820190508181036000830152614f9081614f54565b9050919050565b7f4552433732315472616e7366657246726f6d496e636f72726563744f776e657260008201527f2829000000000000000000000000000000000000000000000000000000000000602082015250565b6000614ff36022836140eb565b9150614ffe82614f97565b604082019050919050565b6000602082019050818103600083015261502281614fe6565b9050919050565b7f4e65737461626c655472616e73666572546f53656c6628290000000000000000600082015250565b600061505f6018836140eb565b915061506a82615029565b602082019050919050565b6000602082019050818103600083015261508e81615052565b9050919050565b60006150a082613ecd565b91506150ab83613ecd565b92508282039050818111156150c3576150c2614cde565b5b92915050565b60006150d482613ecd565b91506150df83613ecd565b92508282019050808211156150f7576150f6614cde565b5b92915050565b7f4552433732315472616e73666572546f5468655a65726f416464726573732829600082015250565b60006151336020836140eb565b915061513e826150fd565b602082019050919050565b6000602082019050818103600083015261516281615126565b9050919050565b6000819050919050565b6000819050919050565b600061519861519361518e84615169565b615173565b613ecd565b9050919050565b6151a88161517d565b82525050565b60006040820190506151c36000830185614679565b6151d0602083018461519f565b9392505050565b6000815190506151e681613ea1565b92915050565b60006020828403121561520257615201613daa565b5b6000615210848285016151d7565b91505092915050565b600060408201905061522e600083018561519f565b61523b602083018461519f565b9392505050565b60008190508160005260206000209050919050565b60006020601f8301049050919050565b600082821b905092915050565b6000600883026152a47fffffffffffffffffffffffffffffffffffffffffffffffffffffffffffffffff82615267565b6152ae8683615267565b95508019841693508086168417925050509392505050565b60006152e16152dc6152d784613ecd565b615173565b613ecd565b9050919050565b6000819050919050565b6152fb836152c6565b61530f615307826152e8565b848454615274565b825550505050565b600090565b615324615317565b61532f8184846152f2565b505050565b5b818110156153535761534860008261531c565b600181019050615335565b5050565b601f8211156153985761536981615242565b61537284615257565b81016020851015615381578190505b61539561538d85615257565b830182615334565b50505b505050565b600082821c905092915050565b60006153bb6000198460080261539d565b1980831691505092915050565b60006153d483836153aa565b9150826002028217905092915050565b6153ed826140e0565b67ffffffffffffffff81111561540657615405613f1e565b5b6154108254614a3c565b61541b828285615357565b600060209050601f83116001811461544e576000841561543c578287015190505b61544685826153c8565b8655506154ae565b601f19841661545c86615242565b60005b828110156154845784890151825560018201915060208501945060208101905061545f565b868310156154a1578489015161549d601f8916826153aa565b8355505b6001600288020188555050505b505050505050565b7f4552433732314e6f74417070726f7665644f724f776e65722829000000000000600082015250565b60006154ec601a836140eb565b91506154f7826154b6565b602082019050919050565b6000602082019050818103600083015261551b816154df565b9050919050565b7f556e65787065637465644e756d6265724f664368696c6472656e282900000000600082015250565b6000615558601c836140eb565b915061556382615522565b602082019050919050565b600060208201905081810360008301526155878161554b565b9050919050565b7f4d61785265637572736976654275726e7352656163686564286368696c64726560008201527f6e5b695d2e636f6e7472616374416464726573732c6368696c6472656e5b695d60208201527f2e746f6b656e4964290000000000000000000000000000000000000000000000604082015250565b60006156106049836140eb565b915061561b8261558e565b606082019050919050565b6000602082019050818103600083015261563f81615603565b9050919050565b600060408201905061565b6000830185614679565b6156686020830184614679565b9392505050565b60008151905061567e81613ed7565b92915050565b60006020828403121561569a57615699613daa565b5b60006156a88482850161566f565b91505092915050565b7f4552433732315472616e73666572546f4e6f6e5265636569766572496d706c6560008201527f6d656e7465722829000000000000000000000000000000000000000000000000602082015250565b600061570d6028836140eb565b9150615718826156b1565b604082019050919050565b6000602082019050818103600083015261573c81615700565b9050919050565b600081905092915050565b6000615759826140e0565b6157638185615743565b93506157738185602086016140fc565b80840191505092915050565b600061578b828561574e565b9150615797828461574e565b91508190509392505050565b600081519050919050565b600082825260208201905092915050565b60006157ca826157a3565b6157d481856157ae565b93506157e48185602086016140fc565b6157ed81613f0d565b840191505092915050565b600060808201905061580d60008301876141ae565b61581a60208301866141ae565b6158276040830185614679565b818103606083015261583981846157bf565b905095945050505050565b600060a08201905061585960008301886141ae565b61586660208301876141ae565b6158736040830186614679565b6158806060830185614679565b818103608083015261589281846157bf565b90509695505050505050565b60006060820190506158b36000830186614679565b6158c06020830185613e45565b6158cd6040830184613e45565b949350505050565b7f4368696c64416c72656164794578697374732829000000000000000000000000600082015250565b600061590b6014836140eb565b9150615916826158d5565b602082019050919050565b6000602082019050818103600083015261593a816158fe565b9050919050565b61594a81613db4565b82525050565b60006020820190506159656000830184615941565b92915050565b60008151905061597a816146ff565b92915050565b60006020828403121561599657615995613daa565b5b60006159a48482850161596b565b91505092915050565b7f4e65737461626c655472616e73666572546f4e6f6e4e65737461626c65496d7060008201527f6c656d656e746572282900000000000000000000000000000000000000000000602082015250565b6000615a09602a836140eb565b9150615a14826159ad565b604082019050919050565b60006020820190508181036000830152615a38816159fc565b9050919050565b600080600060608486031215615a5857615a57613daa565b5b6000615a66868287016151d7565b9350506020615a778682870161566f565b9250506040615a888682870161596b565b9150509250925092565b7f4e65737461626c655472616e73666572546f44657363656e64616e7428290000600082015250565b6000615ac8601e836140eb565b9150615ad382615a92565b602082019050919050565b60006020820190508181036000830152615af781615abb565b9050919050565b7f4e65737461626c65546f6f446565702829000000000000000000000000000000600082015250565b6000615b346011836140eb565b9150615b3f82615afe565b602082019050919050565b60006020820190508181036000830152615b6381615b27565b9050919050565b6000606082019050615b7f6000830186614679565b615b8c6020830185614679565b8181036040830152615b9e81846157bf565b9050949350505050565b6000604082019050615bbd60008301856141ae565b615bca60208301846142ce565b9392505050565b7f4552433732314d696e74546f5468655a65726f41646472657373282900000000600082015250565b6000615c07601c836140eb565b9150615c1282615bd1565b602082019050919050565b60006020820190508181036000830152615c3681615bfa565b9050919050565b7f455243373231546f6b656e416c72656164794d696e7465642829000000000000600082015250565b6000615c73601a836140eb565b9150615c7e82615c3d565b602082019050919050565b60006020820190508181036000830152615ca281615c66565b9050919050565b7f49645a65726f466f7262696464656e2829000000000000000000000000000000600082015250565b6000615cdf6011836140eb565b9150615cea82615ca9565b602082019050919050565b60006020820190508181036000830152615d0e81615cd2565b9050919050565b600081519050615d2481613de0565b92915050565b600060208284031215615d4057615d3f613daa565b5b6000615d4e84828501615d15565b91505092915050565b7f556e65787065637465644368696c644964282900000000000000000000000000600082015250565b6000615d8d6013836140eb565b9150615d9882615d57565b602082019050919050565b60006020820190508181036000830152615dbc81615d80565b9050919050565b7f4e487b7100000000000000000000000000000000000000000000000000000000600052603160045260246000fdfea2646970667358221220cb027681824a041d3e1b7d1833299f11f8aa277dfacde32d095f505a8560d53f64736f6c63430008180033",
  "linkReferences": {},
  "deployedLinkReferences": {}
}