{
  "_format": "hh-sol-artifact-1",
  "contractName": "SampleNFT",
  "sourceName": "contracts/ERC721.sol",
  "abi": [
    {
      "inputs": [
        {
          "internalType": "address",
          "name": "initOwner",
          "type": "address"
        }
      ],
      "stateMutability": "nonpayable",
      "type": "constructor"
    },
    {
      "inputs": [],
      "name": "ERC721EnumerableForbiddenBatchMint",
      "type": "error"
    },
    {
      "inputs": [
        {
          "internalType": "address",
          "name": "sender",
          "type": "address"
        },
        {
          "internalType": "uint256",
          "name": "tokenId",
          "type": "uint256"
        },
        {
          "internalType": "address",
          "name": "owner",
          "type": "address"
        }
      ],
      "name": "ERC721IncorrectOwner",
      "type": "error"
    },
    {
      "inputs": [
        {
          "internalType": "address",
          "name": "operator",
          "type": "address"
        },
        {
          "internalType": "uint256",
          "name": "tokenId",
          "type": "uint256"
        }
      ],
      "name": "ERC721InsufficientApproval",
      "type": "error"
    },
    {
      "inputs": [
        {
          "internalType": "address",
          "name": "approver",
          "type": "address"
        }
      ],
      "name": "ERC721InvalidApprover",
      "type": "error"
    },
    {
      "inputs": [
        {
          "internalType": "address",
          "name": "operator",
          "type": "address"
        }
      ],
      "name": "ERC721InvalidOperator",
      "type": "error"
    },
    {
      "inputs": [
        {
          "internalType": "address",
          "name": "owner",
          "type": "address"
        }
      ],
      "name": "ERC721InvalidOwner",
      "type": "error"
    },
    {
      "inputs": [
        {
          "internalType": "address",
          "name": "receiver",
          "type": "address"
        }
      ],
      "name": "ERC721InvalidReceiver",
      "type": "error"
    },
    {
      "inputs": [
        {
          "internalType": "address",
          "name": "sender",
          "type": "address"
        }
      ],
      "name": "ERC721InvalidSender",
      "type": "error"
    },
    {
      "inputs": [
        {
          "internalType": "uint256",
          "name": "tokenId",
          "type": "uint256"
        }
      ],
      "name": "ERC721NonexistentToken",
      "type": "error"
    },
    {
      "inputs": [
        {
          "internalType": "address",
          "name": "owner",
          "type": "address"
        },
        {
          "internalType": "uint256",
          "name": "index",
          "type": "uint256"
        }
      ],
      "name": "ERC721OutOfBoundsIndex",
      "type": "error"
    },
    {
      "inputs": [],
      "name": "EnforcedPause",
      "type": "error"
    },
    {
      "inputs": [],
      "name": "ExpectedPause",
      "type": "error"
    },
    {
      "inputs": [
        {
          "internalType": "address",
          "name": "owner",
          "type": "address"
        }
      ],
      "name": "OwnableInvalidOwner",
      "type": "error"
    },
    {
      "inputs": [
        {
          "internalType": "address",
          "name": "account",
          "type": "address"
        }
      ],
      "name": "OwnableUnauthorizedAccount",
      "type": "error"
    },
    {
      "anonymous": false,
      "inputs": [
        {
          "indexed": true,
          "internalType": "address",
          "name": "owner",
          "type": "address"
        },
        {
          "indexed": true,
          "internalType": "address",
          "name": "approved",
          "type": "address"
        },
        {
          "indexed": true,
          "internalType": "uint256",
          "name": "tokenId",
          "type": "uint256"
        }
      ],
      "name": "Approval",
      "type": "event"
    },
    {
      "anonymous": false,
      "inputs": [
        {
          "indexed": true,
          "internalType": "address",
          "name": "owner",
          "type": "address"
        },
        {
          "indexed": true,
          "internalType": "address",
          "name": "operator",
          "type": "address"
        },
        {
          "indexed": false,
          "internalType": "bool",
          "name": "approved",
          "type": "bool"
        }
      ],
      "name": "ApprovalForAll",
      "type": "event"
    },
    {
      "anonymous": false,
      "inputs": [
        {
          "indexed": false,
          "internalType": "uint256",
          "name": "_fromTokenId",
          "type": "uint256"
        },
        {
          "indexed": false,
          "internalType": "uint256",
          "name": "_toTokenId",
          "type": "uint256"
        }
      ],
      "name": "BatchMetadataUpdate",
      "type": "event"
    },
    {
      "anonymous": false,
      "inputs": [
        {
          "indexed": false,
          "internalType": "uint256",
          "name": "_tokenId",
          "type": "uint256"
        }
      ],
      "name": "MetadataUpdate",
      "type": "event"
    },
    {
      "anonymous": false,
      "inputs": [
        {
          "indexed": true,
          "internalType": "address",
          "name": "previousOwner",
          "type": "address"
        },
        {
          "indexed": true,
          "internalType": "address",
          "name": "newOwner",
          "type": "address"
        }
      ],
      "name": "OwnershipTransferred",
      "type": "event"
    },
    {
      "anonymous": false,
      "inputs": [
        {
          "indexed": false,
          "internalType": "address",
          "name": "account",
          "type": "address"
        }
      ],
      "name": "Paused",
      "type": "event"
    },
    {
      "anonymous": false,
      "inputs": [
        {
          "indexed": true,
          "internalType": "address",
          "name": "from",
          "type": "address"
        },
        {
          "indexed": true,
          "internalType": "address",
          "name": "to",
          "type": "address"
        },
        {
          "indexed": true,
          "internalType": "uint256",
          "name": "tokenId",
          "type": "uint256"
        }
      ],
      "name": "Transfer",
      "type": "event"
    },
    {
      "anonymous": false,
      "inputs": [
        {
          "indexed": false,
          "internalType": "address",
          "name": "account",
          "type": "address"
        }
      ],
      "name": "Unpaused",
      "type": "event"
    },
    {
      "inputs": [],
      "name": "_nextTokenId",
      "outputs": [
        {
          "internalType": "uint256",
          "name": "",
          "type": "uint256"
        }
      ],
      "stateMutability": "view",
      "type": "function"
    },
    {
      "inputs": [
        {
          "internalType": "address",
          "name": "to",
          "type": "address"
        },
        {
          "internalType": "uint256",
          "name": "tokenId",
          "type": "uint256"
        }
      ],
      "name": "approve",
      "outputs": [],
      "stateMutability": "nonpayable",
      "type": "function"
    },
    {
      "inputs": [
        {
          "internalType": "address",
          "name": "owner",
          "type": "address"
        }
      ],
      "name": "balanceOf",
      "outputs": [
        {
          "internalType": "uint256",
          "name": "",
          "type": "uint256"
        }
      ],
      "stateMutability": "view",
      "type": "function"
    },
    {
      "inputs": [
        {
          "internalType": "uint256",
          "name": "tokenId",
          "type": "uint256"
        }
      ],
      "name": "burn",
      "outputs": [],
      "stateMutability": "nonpayable",
      "type": "function"
    },
    {
      "inputs": [
        {
          "internalType": "uint256",
          "name": "tokenId",
          "type": "uint256"
        }
      ],
      "name": "getApproved",
      "outputs": [
        {
          "internalType": "address",
          "name": "",
          "type": "address"
        }
      ],
      "stateMutability": "view",
      "type": "function"
    },
    {
      "inputs": [
        {
          "internalType": "address",
          "name": "owner",
          "type": "address"
        },
        {
          "internalType": "address",
          "name": "operator",
          "type": "address"
        }
      ],
      "name": "isApprovedForAll",
      "outputs": [
        {
          "internalType": "bool",
          "name": "",
          "type": "bool"
        }
      ],
      "stateMutability": "view",
      "type": "function"
    },
    {
      "inputs": [],
      "name": "name",
      "outputs": [
        {
          "internalType": "string",
          "name": "",
          "type": "string"
        }
      ],
      "stateMutability": "view",
      "type": "function"
    },
    {
      "inputs": [],
      "name": "owner",
      "outputs": [
        {
          "internalType": "address",
          "name": "",
          "type": "address"
        }
      ],
      "stateMutability": "view",
      "type": "function"
    },
    {
      "inputs": [
        {
          "internalType": "uint256",
          "name": "tokenId",
          "type": "uint256"
        }
      ],
      "name": "ownerOf",
      "outputs": [
        {
          "internalType": "address",
          "name": "",
          "type": "address"
        }
      ],
      "stateMutability": "view",
      "type": "function"
    },
    {
      "inputs": [],
      "name": "pause",
      "outputs": [],
      "stateMutability": "nonpayable",
      "type": "function"
    },
    {
      "inputs": [],
      "name": "paused",
      "outputs": [
        {
          "internalType": "bool",
          "name": "",
          "type": "bool"
        }
      ],
      "stateMutability": "view",
      "type": "function"
    },
    {
      "inputs": [],
      "name": "renounceOwnership",
      "outputs": [],
      "stateMutability": "nonpayable",
      "type": "function"
    },
    {
      "inputs": [
        {
          "internalType": "address",
          "name": "to",
          "type": "address"
        }
      ],
      "name": "safeMint",
      "outputs": [],
      "stateMutability": "nonpayable",
      "type": "function"
    },
    {
      "inputs": [
        {
          "internalType": "address",
          "name": "from",
          "type": "address"
        },
        {
          "internalType": "address",
          "name": "to",
          "type": "address"
        },
        {
          "internalType": "uint256",
          "name": "tokenId",
          "type": "uint256"
        }
      ],
      "name": "safeTransferFrom",
      "outputs": [],
      "stateMutability": "nonpayable",
      "type": "function"
    },
    {
      "inputs": [
        {
          "internalType": "address",
          "name": "from",
          "type": "address"
        },
        {
          "internalType": "address",
          "name": "to",
          "type": "address"
        },
        {
          "internalType": "uint256",
          "name": "tokenId",
          "type": "uint256"
        },
        {
          "internalType": "bytes",
          "name": "data",
          "type": "bytes"
        }
      ],
      "name": "safeTransferFrom",
      "outputs": [],
      "stateMutability": "nonpayable",
      "type": "function"
    },
    {
      "inputs": [
        {
          "internalType": "address",
          "name": "operator",
          "type": "address"
        },
        {
          "internalType": "bool",
          "name": "approved",
          "type": "bool"
        }
      ],
      "name": "setApprovalForAll",
      "outputs": [],
      "stateMutability": "nonpayable",
      "type": "function"
    },
    {
      "inputs": [
        {
          "internalType": "uint256",
          "name": "tokenId",
          "type": "uint256"
        },
        {
          "internalType": "string",
          "name": "_tokenURI",
          "type": "string"
        }
      ],
      "name": "setTokenURI",
      "outputs": [],
      "stateMutability": "nonpayable",
      "type": "function"
    },
    {
      "inputs": [
        {
          "internalType": "bytes4",
          "name": "interfaceId",
          "type": "bytes4"
        }
      ],
      "name": "supportsInterface",
      "outputs": [
        {
          "internalType": "bool",
          "name": "",
          "type": "bool"
        }
      ],
      "stateMutability": "view",
      "type": "function"
    },
    {
      "inputs": [],
      "name": "symbol",
      "outputs": [
        {
          "internalType": "string",
          "name": "",
          "type": "string"
        }
      ],
      "stateMutability": "view",
      "type": "function"
    },
    {
      "inputs": [
        {
          "internalType": "uint256",
          "name": "index",
          "type": "uint256"
        }
      ],
      "name": "tokenByIndex",
      "outputs": [
        {
          "internalType": "uint256",
          "name": "",
          "type": "uint256"
        }
      ],
      "stateMutability": "view",
      "type": "function"
    },
    {
      "inputs": [
        {
          "internalType": "address",
          "name": "owner",
          "type": "address"
        },
        {
          "internalType": "uint256",
          "name": "index",
          "type": "uint256"
        }
      ],
      "name": "tokenOfOwnerByIndex",
      "outputs": [
        {
          "internalType": "uint256",
          "name": "",
          "type": "uint256"
        }
      ],
      "stateMutability": "view",
      "type": "function"
    },
    {
      "inputs": [
        {
          "internalType": "uint256",
          "name": "tokenId",
          "type": "uint256"
        }
      ],
      "name": "tokenURI",
      "outputs": [
        {
          "internalType": "string",
          "name": "",
          "type": "string"
        }
      ],
      "stateMutability": "view",
      "type": "function"
    },
    {
      "inputs": [],
      "name": "totalSupply",
      "outputs": [
        {
          "internalType": "uint256",
          "name": "",
          "type": "uint256"
        }
      ],
      "stateMutability": "view",
      "type": "function"
    },
    {
      "inputs": [
        {
          "internalType": "address",
          "name": "from",
          "type": "address"
        },
        {
          "internalType": "address",
          "name": "to",
          "type": "address"
        },
        {
          "internalType": "uint256",
          "name": "tokenId",
          "type": "uint256"
        }
      ],
      "name": "transferFrom",
      "outputs": [],
      "stateMutability": "nonpayable",
      "type": "function"
    },
    {
      "inputs": [
        {
          "internalType": "address",
          "name": "newOwner",
          "type": "address"
        }
      ],
      "name": "transferOwnership",
      "outputs": [],
      "stateMutability": "nonpayable",
      "type": "function"
    },
    {
      "inputs": [],
      "name": "unpause",
      "outputs": [],
      "stateMutability": "nonpayable",
      "type": "function"
    }
  ],
  "bytecode": "0x60806040523480156200001157600080fd5b50604051620036c4380380620036c48339818101604052810190620000379190620002a3565b806040518060400160405280600981526020017f53616d706c654e465400000000000000000000000000000000000000000000008152506040518060400160405280600481526020017f534e4654000000000000000000000000000000000000000000000000000000008152508160009081620000b591906200054f565b508060019081620000c791906200054f565b5050506000600b60006101000a81548160ff021916908315150217905550600073ffffffffffffffffffffffffffffffffffffffff168173ffffffffffffffffffffffffffffffffffffffff16036200015a5760006040517f1e4fbdf700000000000000000000000000000000000000000000000000000000815260040162000151919062000647565b60405180910390fd5b6200016b816200017360201b60201c565b505062000664565b6000600b60019054906101000a900473ffffffffffffffffffffffffffffffffffffffff16905081600b60016101000a81548173ffffffffffffffffffffffffffffffffffffffff021916908373ffffffffffffffffffffffffffffffffffffffff1602179055508173ffffffffffffffffffffffffffffffffffffffff168173ffffffffffffffffffffffffffffffffffffffff167f8be0079c531659141344cd1fd0a4f28419497f9722a3daafe3b4186f6b6457e060405160405180910390a35050565b600080fd5b600073ffffffffffffffffffffffffffffffffffffffff82169050919050565b60006200026b826200023e565b9050919050565b6200027d816200025e565b81146200028957600080fd5b50565b6000815190506200029d8162000272565b92915050565b600060208284031215620002bc57620002bb62000239565b5b6000620002cc848285016200028c565b91505092915050565b600081519050919050565b7f4e487b7100000000000000000000000000000000000000000000000000000000600052604160045260246000fd5b7f4e487b7100000000000000000000000000000000000000000000000000000000600052602260045260246000fd5b600060028204905060018216806200035757607f821691505b6020821081036200036d576200036c6200030f565b5b50919050565b60008190508160005260206000209050919050565b60006020601f8301049050919050565b600082821b905092915050565b600060088302620003d77fffffffffffffffffffffffffffffffffffffffffffffffffffffffffffffffff8262000398565b620003e3868362000398565b95508019841693508086168417925050509392505050565b6000819050919050565b6000819050919050565b6000620004306200042a6200042484620003fb565b62000405565b620003fb565b9050919050565b6000819050919050565b6200044c836200040f565b620004646200045b8262000437565b848454620003a5565b825550505050565b600090565b6200047b6200046c565b6200048881848462000441565b505050565b5b81811015620004b057620004a460008262000471565b6001810190506200048e565b5050565b601f821115620004ff57620004c98162000373565b620004d48462000388565b81016020851015620004e4578190505b620004fc620004f38562000388565b8301826200048d565b50505b505050565b600082821c905092915050565b6000620005246000198460080262000504565b1980831691505092915050565b60006200053f838362000511565b9150826002028217905092915050565b6200055a82620002d5565b67ffffffffffffffff811115620005765762000575620002e0565b5b6200058282546200033e565b6200058f828285620004b4565b600060209050601f831160018114620005c75760008415620005b2578287015190505b620005be858262000531565b8655506200062e565b601f198416620005d78662000373565b60005b828110156200060157848901518255600182019150602085019450602081019050620005da565b868310156200062157848901516200061d601f89168262000511565b8355505b6001600288020188555050505b505050505050565b62000641816200025e565b82525050565b60006020820190506200065e600083018462000636565b92915050565b61305080620006746000396000f3fe608060405234801561001057600080fd5b506004361061018e5760003560e01c80634f6ccce7116100de5780638da5cb5b11610097578063b88d4fde11610071578063b88d4fde14610449578063c87b56dd14610465578063e985e9c514610495578063f2fde38b146104c55761018e565b80638da5cb5b146103f157806395d89b411461040f578063a22cb4651461042d5761018e565b80634f6ccce71461032f5780635c975abb1461035f5780636352211e1461037d57806370a08231146103ad578063715018a6146103dd5780638456cb59146103e75761018e565b806323b872dd1161014b57806340d097c31161012557806340d097c3146102bd57806342842e0e146102d957806342966c68146102f55780634a60f620146103115761018e565b806323b872dd146102675780632f745c59146102835780633f4ba83a146102b35761018e565b806301ffc9a71461019357806306fdde03146101c3578063081812fc146101e1578063095ea7b314610211578063162094c41461022d57806318160ddd14610249575b600080fd5b6101ad60048036038101906101a89190612416565b6104e1565b6040516101ba919061245e565b60405180910390f35b6101cb6104f3565b6040516101d89190612509565b60405180910390f35b6101fb60048036038101906101f69190612561565b610585565b60405161020891906125cf565b60405180910390f35b61022b60048036038101906102269190612616565b6105a1565b005b6102476004803603810190610242919061278b565b6105b7565b005b6102516105cd565b60405161025e91906127f6565b60405180910390f35b610281600480360381019061027c9190612811565b6105da565b005b61029d60048036038101906102989190612616565b6106dc565b6040516102aa91906127f6565b60405180910390f35b6102bb610785565b005b6102d760048036038101906102d29190612864565b61079f565b005b6102f360048036038101906102ee9190612811565b6107d0565b005b61030f600480360381019061030a9190612561565b6107f0565b005b610319610807565b60405161032691906127f6565b60405180910390f35b61034960048036038101906103449190612561565b61080d565b60405161035691906127f6565b60405180910390f35b610367610883565b604051610374919061245e565b60405180910390f35b61039760048036038101906103929190612561565b61089a565b6040516103a491906125cf565b60405180910390f35b6103c760048036038101906103c29190612864565b6108ac565b6040516103d491906127f6565b60405180910390f35b6103e5610966565b005b6103ef61097a565b005b6103f9610994565b60405161040691906125cf565b60405180910390f35b6104176109be565b6040516104249190612509565b60405180910390f35b610447600480360381019061044291906128bd565b610a50565b005b610463600480360381019061045e919061299e565b610a66565b005b61047f600480360381019061047a9190612561565b610a83565b60405161048c9190612509565b60405180910390f35b6104af60048036038101906104aa9190612a21565b610a95565b6040516104bc919061245e565b60405180910390f35b6104df60048036038101906104da9190612864565b610b29565b005b60006104ec82610baf565b9050919050565b60606000805461050290612a90565b80601f016020809104026020016040519081016040528092919081815260200182805461052e90612a90565b801561057b5780601f106105505761010080835404028352916020019161057b565b820191906000526020600020905b81548152906001019060200180831161055e57829003601f168201915b5050505050905090565b600061059082610c10565b5061059a82610c98565b9050919050565b6105b382826105ae610cd5565b610cdd565b5050565b6105bf610cef565b6105c98282610d76565b5050565b6000600880549050905090565b600073ffffffffffffffffffffffffffffffffffffffff168273ffffffffffffffffffffffffffffffffffffffff160361064c5760006040517f64a0ae9200000000000000000000000000000000000000000000000000000000815260040161064391906125cf565b60405180910390fd5b6000610660838361065b610cd5565b610dd2565b90508373ffffffffffffffffffffffffffffffffffffffff168173ffffffffffffffffffffffffffffffffffffffff16146106d6578382826040517f64283d7b0000000000000000000000000000000000000000000000000000000081526004016106cd93929190612ac1565b60405180910390fd5b50505050565b60006106e7836108ac565b821061072c5782826040517fa57d13dc000000000000000000000000000000000000000000000000000000008152600401610723929190612af8565b60405180910390fd5b600660008473ffffffffffffffffffffffffffffffffffffffff1673ffffffffffffffffffffffffffffffffffffffff168152602001908152602001600020600083815260200190815260200160002054905092915050565b61078d610cef565b610795610de8565b61079d610e28565b565b6107a7610cef565b6000600c60008154809291906107bc90612b50565b9190505590506107cc8282610e8b565b5050565b6107eb83838360405180602001604052806000815250610a66565b505050565b6108036000826107fe610cd5565b610dd2565b5050565b600c5481565b60006108176105cd565b821061085d576000826040517fa57d13dc000000000000000000000000000000000000000000000000000000008152600401610854929190612af8565b60405180910390fd5b6008828154811061087157610870612b98565b5b90600052602060002001549050919050565b6000600b60009054906101000a900460ff16905090565b60006108a582610c10565b9050919050565b60008073ffffffffffffffffffffffffffffffffffffffff168273ffffffffffffffffffffffffffffffffffffffff160361091f5760006040517f89c62b6400000000000000000000000000000000000000000000000000000000815260040161091691906125cf565b60405180910390fd5b600360008373ffffffffffffffffffffffffffffffffffffffff1673ffffffffffffffffffffffffffffffffffffffff168152602001908152602001600020549050919050565b61096e610cef565b6109786000610ea9565b565b610982610cef565b61098a610f6f565b610992610fb0565b565b6000600b60019054906101000a900473ffffffffffffffffffffffffffffffffffffffff16905090565b6060600180546109cd90612a90565b80601f01602080910402602001604051908101604052809291908181526020018280546109f990612a90565b8015610a465780601f10610a1b57610100808354040283529160200191610a46565b820191906000526020600020905b815481529060010190602001808311610a2957829003601f168201915b5050505050905090565b610a62610a5b610cd5565b8383611013565b5050565b610a718484846105da565b610a7d84848484611182565b50505050565b6060610a8e82611339565b9050919050565b6000600560008473ffffffffffffffffffffffffffffffffffffffff1673ffffffffffffffffffffffffffffffffffffffff16815260200190815260200160002060008373ffffffffffffffffffffffffffffffffffffffff1673ffffffffffffffffffffffffffffffffffffffff16815260200190815260200160002060009054906101000a900460ff16905092915050565b610b31610cef565b600073ffffffffffffffffffffffffffffffffffffffff168173ffffffffffffffffffffffffffffffffffffffff1603610ba35760006040517f1e4fbdf7000000000000000000000000000000000000000000000000000000008152600401610b9a91906125cf565b60405180910390fd5b610bac81610ea9565b50565b6000634906490660e01b7bffffffffffffffffffffffffffffffffffffffffffffffffffffffff1916827bffffffffffffffffffffffffffffffffffffffffffffffffffffffff19161480610c095750610c088261144c565b5b9050919050565b600080610c1c836114c6565b9050600073ffffffffffffffffffffffffffffffffffffffff168173ffffffffffffffffffffffffffffffffffffffff1603610c8f57826040517f7e273289000000000000000000000000000000000000000000000000000000008152600401610c8691906127f6565b60405180910390fd5b80915050919050565b60006004600083815260200190815260200160002060009054906101000a900473ffffffffffffffffffffffffffffffffffffffff169050919050565b600033905090565b610cea8383836001611503565b505050565b610cf7610cd5565b73ffffffffffffffffffffffffffffffffffffffff16610d15610994565b73ffffffffffffffffffffffffffffffffffffffff1614610d7457610d38610cd5565b6040517f118cdaa7000000000000000000000000000000000000000000000000000000008152600401610d6b91906125cf565b60405180910390fd5b565b80600a60008481526020019081526020016000209081610d969190612d73565b507ff8e1a15aba9398e019f0b49df1a4fde98ee17ae345cb5f6b5e2c27f5033e8ce782604051610dc691906127f6565b60405180910390a15050565b6000610ddf8484846116c8565b90509392505050565b610df0610883565b610e26576040517f8dfc202b00000000000000000000000000000000000000000000000000000000815260040160405180910390fd5b565b610e30610de8565b6000600b60006101000a81548160ff0219169083151502179055507f5db9ee0a495bf2e6ff9c91a7834c1ba4fdd244a5e8aa4e537bd38aeae4b073aa610e74610cd5565b604051610e8191906125cf565b60405180910390a1565b610ea58282604051806020016040528060008152506116e6565b5050565b6000600b60019054906101000a900473ffffffffffffffffffffffffffffffffffffffff16905081600b60016101000a81548173ffffffffffffffffffffffffffffffffffffffff021916908373ffffffffffffffffffffffffffffffffffffffff1602179055508173ffffffffffffffffffffffffffffffffffffffff168173ffffffffffffffffffffffffffffffffffffffff167f8be0079c531659141344cd1fd0a4f28419497f9722a3daafe3b4186f6b6457e060405160405180910390a35050565b610f77610883565b15610fae576040517fd93c066500000000000000000000000000000000000000000000000000000000815260040160405180910390fd5b565b610fb8610f6f565b6001600b60006101000a81548160ff0219169083151502179055507f62e78cea01bee320cd4e420270b5ea74000d11b0c9f74754ebdbfc544b05a258610ffc610cd5565b60405161100991906125cf565b60405180910390a1565b600073ffffffffffffffffffffffffffffffffffffffff168273ffffffffffffffffffffffffffffffffffffffff160361108457816040517f5b08ba1800000000000000000000000000000000000000000000000000000000815260040161107b91906125cf565b60405180910390fd5b80600560008573ffffffffffffffffffffffffffffffffffffffff1673ffffffffffffffffffffffffffffffffffffffff16815260200190815260200160002060008473ffffffffffffffffffffffffffffffffffffffff1673ffffffffffffffffffffffffffffffffffffffff16815260200190815260200160002060006101000a81548160ff0219169083151502179055508173ffffffffffffffffffffffffffffffffffffffff168373ffffffffffffffffffffffffffffffffffffffff167f17307eab39ab6107e8899845ad3d59bd9653f200f220920489ca2b5937696c3183604051611175919061245e565b60405180910390a3505050565b60008373ffffffffffffffffffffffffffffffffffffffff163b1115611333578273ffffffffffffffffffffffffffffffffffffffff1663150b7a026111c6610cd5565b8685856040518563ffffffff1660e01b81526004016111e89493929190612e9a565b6020604051808303816000875af192505050801561122457506040513d601f19601f820116820180604052508101906112219190612efb565b60015b6112a8573d8060008114611254576040519150601f19603f3d011682016040523d82523d6000602084013e611259565b606091505b5060008151036112a057836040517f64a0ae9200000000000000000000000000000000000000000000000000000000815260040161129791906125cf565b60405180910390fd5b805181602001fd5b63150b7a0260e01b7bffffffffffffffffffffffffffffffffffffffffffffffffffffffff1916817bffffffffffffffffffffffffffffffffffffffffffffffffffffffff19161461133157836040517f64a0ae9200000000000000000000000000000000000000000000000000000000815260040161132891906125cf565b60405180910390fd5b505b50505050565b606061134482610c10565b506000600a6000848152602001908152602001600020805461136590612a90565b80601f016020809104026020016040519081016040528092919081815260200182805461139190612a90565b80156113de5780601f106113b3576101008083540402835291602001916113de565b820191906000526020600020905b8154815290600101906020018083116113c157829003601f168201915b5050505050905060006113ef611702565b90506000815103611404578192505050611447565b600082511115611439578082604051602001611421929190612f64565b60405160208183030381529060405292505050611447565b61144284611719565b925050505b919050565b60007f780e9d63000000000000000000000000000000000000000000000000000000007bffffffffffffffffffffffffffffffffffffffffffffffffffffffff1916827bffffffffffffffffffffffffffffffffffffffffffffffffffffffff191614806114bf57506114be82611782565b5b9050919050565b60006002600083815260200190815260200160002060009054906101000a900473ffffffffffffffffffffffffffffffffffffffff169050919050565b808061153c5750600073ffffffffffffffffffffffffffffffffffffffff168273ffffffffffffffffffffffffffffffffffffffff1614155b1561167057600061154c84610c10565b9050600073ffffffffffffffffffffffffffffffffffffffff168373ffffffffffffffffffffffffffffffffffffffff16141580156115b757508273ffffffffffffffffffffffffffffffffffffffff168173ffffffffffffffffffffffffffffffffffffffff1614155b80156115ca57506115c88184610a95565b155b1561160c57826040517fa9fbf51f00000000000000000000000000000000000000000000000000000000815260040161160391906125cf565b60405180910390fd5b811561166e57838573ffffffffffffffffffffffffffffffffffffffff168273ffffffffffffffffffffffffffffffffffffffff167f8c5be1e5ebec7d5bd14f71427d1e84f3dd0314c0f7b2291e5b200ac8c7c3b92560405160405180910390a45b505b836004600085815260200190815260200160002060006101000a81548173ffffffffffffffffffffffffffffffffffffffff021916908373ffffffffffffffffffffffffffffffffffffffff16021790555050505050565b60006116d2610f6f565b6116dd848484611864565b90509392505050565b6116f08383611981565b6116fd6000848484611182565b505050565b606060405180602001604052806000815250905090565b606061172482610c10565b50600061172f611702565b9050600081511161174f576040518060200160405280600081525061177a565b8061175984611a7a565b60405160200161176a929190612f64565b6040516020818303038152906040525b915050919050565b60007f80ac58cd000000000000000000000000000000000000000000000000000000007bffffffffffffffffffffffffffffffffffffffffffffffffffffffff1916827bffffffffffffffffffffffffffffffffffffffffffffffffffffffff1916148061184d57507f5b5e139f000000000000000000000000000000000000000000000000000000007bffffffffffffffffffffffffffffffffffffffffffffffffffffffff1916827bffffffffffffffffffffffffffffffffffffffffffffffffffffffff1916145b8061185d575061185c82611b48565b5b9050919050565b600080611872858585611bb2565b9050600073ffffffffffffffffffffffffffffffffffffffff168173ffffffffffffffffffffffffffffffffffffffff16036118b6576118b184611dcc565b6118f5565b8473ffffffffffffffffffffffffffffffffffffffff168173ffffffffffffffffffffffffffffffffffffffff16146118f4576118f38185611e15565b5b5b600073ffffffffffffffffffffffffffffffffffffffff168573ffffffffffffffffffffffffffffffffffffffff16036119375761193284611f76565b611976565b8473ffffffffffffffffffffffffffffffffffffffff168173ffffffffffffffffffffffffffffffffffffffff1614611975576119748585612047565b5b5b809150509392505050565b600073ffffffffffffffffffffffffffffffffffffffff168273ffffffffffffffffffffffffffffffffffffffff16036119f35760006040517f64a0ae920000000000000000000000000000000000000000000000000000000081526004016119ea91906125cf565b60405180910390fd5b6000611a0183836000610dd2565b9050600073ffffffffffffffffffffffffffffffffffffffff168173ffffffffffffffffffffffffffffffffffffffff1614611a755760006040517f73c6ac6e000000000000000000000000000000000000000000000000000000008152600401611a6c91906125cf565b60405180910390fd5b505050565b606060006001611a89846120d2565b01905060008167ffffffffffffffff811115611aa857611aa7612660565b5b6040519080825280601f01601f191660200182016040528015611ada5781602001600182028036833780820191505090505b509050600082602001820190505b600115611b3d578080600190039150507f3031323334353637383961626364656600000000000000000000000000000000600a86061a8153600a8581611b3157611b30612f88565b5b04945060008503611ae8575b819350505050919050565b60007f01ffc9a7000000000000000000000000000000000000000000000000000000007bffffffffffffffffffffffffffffffffffffffffffffffffffffffff1916827bffffffffffffffffffffffffffffffffffffffffffffffffffffffff1916149050919050565b600080611bbe846114c6565b9050600073ffffffffffffffffffffffffffffffffffffffff168373ffffffffffffffffffffffffffffffffffffffff1614611c0057611bff818486612225565b5b600073ffffffffffffffffffffffffffffffffffffffff168173ffffffffffffffffffffffffffffffffffffffff1614611c9157611c42600085600080611503565b6001600360008373ffffffffffffffffffffffffffffffffffffffff1673ffffffffffffffffffffffffffffffffffffffff168152602001908152602001600020600082825403925050819055505b600073ffffffffffffffffffffffffffffffffffffffff168573ffffffffffffffffffffffffffffffffffffffff1614611d14576001600360008773ffffffffffffffffffffffffffffffffffffffff1673ffffffffffffffffffffffffffffffffffffffff168152602001908152602001600020600082825401925050819055505b846002600086815260200190815260200160002060006101000a81548173ffffffffffffffffffffffffffffffffffffffff021916908373ffffffffffffffffffffffffffffffffffffffff160217905550838573ffffffffffffffffffffffffffffffffffffffff168273ffffffffffffffffffffffffffffffffffffffff167fddf252ad1be2c89b69c2b068fc378daa952ba7f163c4a11628f55a4df523b3ef60405160405180910390a4809150509392505050565b6008805490506009600083815260200190815260200160002081905550600881908060018154018082558091505060019003906000526020600020016000909190919091505550565b6000611e20836108ac565b9050600060076000848152602001908152602001600020549050818114611f05576000600660008673ffffffffffffffffffffffffffffffffffffffff1673ffffffffffffffffffffffffffffffffffffffff168152602001908152602001600020600084815260200190815260200160002054905080600660008773ffffffffffffffffffffffffffffffffffffffff1673ffffffffffffffffffffffffffffffffffffffff168152602001908152602001600020600084815260200190815260200160002081905550816007600083815260200190815260200160002081905550505b6007600084815260200190815260200160002060009055600660008573ffffffffffffffffffffffffffffffffffffffff1673ffffffffffffffffffffffffffffffffffffffff16815260200190815260200160002060008381526020019081526020016000206000905550505050565b60006001600880549050611f8a9190612fb7565b9050600060096000848152602001908152602001600020549050600060088381548110611fba57611fb9612b98565b5b906000526020600020015490508060088381548110611fdc57611fdb612b98565b5b90600052602060002001819055508160096000838152602001908152602001600020819055506009600085815260200190815260200160002060009055600880548061202b5761202a612feb565b5b6001900381819060005260206000200160009055905550505050565b60006001612054846108ac565b61205e9190612fb7565b905081600660008573ffffffffffffffffffffffffffffffffffffffff1673ffffffffffffffffffffffffffffffffffffffff168152602001908152602001600020600083815260200190815260200160002081905550806007600084815260200190815260200160002081905550505050565b600080600090507a184f03e93ff9f4daa797ed6e38ed64bf6a1f0100000000000000008310612130577a184f03e93ff9f4daa797ed6e38ed64bf6a1f010000000000000000838161212657612125612f88565b5b0492506040810190505b6d04ee2d6d415b85acef8100000000831061216d576d04ee2d6d415b85acef8100000000838161216357612162612f88565b5b0492506020810190505b662386f26fc10000831061219c57662386f26fc10000838161219257612191612f88565b5b0492506010810190505b6305f5e10083106121c5576305f5e10083816121bb576121ba612f88565b5b0492506008810190505b61271083106121ea5761271083816121e0576121df612f88565b5b0492506004810190505b6064831061220d576064838161220357612202612f88565b5b0492506002810190505b600a831061221c576001810190505b80915050919050565b6122308383836122e9565b6122e457600073ffffffffffffffffffffffffffffffffffffffff168373ffffffffffffffffffffffffffffffffffffffff16036122a557806040517f7e27328900000000000000000000000000000000000000000000000000000000815260040161229c91906127f6565b60405180910390fd5b81816040517f177e802f0000000000000000000000000000000000000000000000000000000081526004016122db929190612af8565b60405180910390fd5b505050565b60008073ffffffffffffffffffffffffffffffffffffffff168373ffffffffffffffffffffffffffffffffffffffff16141580156123a157508273ffffffffffffffffffffffffffffffffffffffff168473ffffffffffffffffffffffffffffffffffffffff16148061236257506123618484610a95565b5b806123a057508273ffffffffffffffffffffffffffffffffffffffff1661238883610c98565b73ffffffffffffffffffffffffffffffffffffffff16145b5b90509392505050565b6000604051905090565b600080fd5b600080fd5b60007fffffffff0000000000000000000000000000000000000000000000000000000082169050919050565b6123f3816123be565b81146123fe57600080fd5b50565b600081359050612410816123ea565b92915050565b60006020828403121561242c5761242b6123b4565b5b600061243a84828501612401565b91505092915050565b60008115159050919050565b61245881612443565b82525050565b6000602082019050612473600083018461244f565b92915050565b600081519050919050565b600082825260208201905092915050565b60005b838110156124b3578082015181840152602081019050612498565b60008484015250505050565b6000601f19601f8301169050919050565b60006124db82612479565b6124e58185612484565b93506124f5818560208601612495565b6124fe816124bf565b840191505092915050565b6000602082019050818103600083015261252381846124d0565b905092915050565b6000819050919050565b61253e8161252b565b811461254957600080fd5b50565b60008135905061255b81612535565b92915050565b600060208284031215612577576125766123b4565b5b60006125858482850161254c565b91505092915050565b600073ffffffffffffffffffffffffffffffffffffffff82169050919050565b60006125b98261258e565b9050919050565b6125c9816125ae565b82525050565b60006020820190506125e460008301846125c0565b92915050565b6125f3816125ae565b81146125fe57600080fd5b50565b600081359050612610816125ea565b92915050565b6000806040838503121561262d5761262c6123b4565b5b600061263b85828601612601565b925050602061264c8582860161254c565b9150509250929050565b600080fd5b600080fd5b7f4e487b7100000000000000000000000000000000000000000000000000000000600052604160045260246000fd5b612698826124bf565b810181811067ffffffffffffffff821117156126b7576126b6612660565b5b80604052505050565b60006126ca6123aa565b90506126d6828261268f565b919050565b600067ffffffffffffffff8211156126f6576126f5612660565b5b6126ff826124bf565b9050602081019050919050565b82818337600083830152505050565b600061272e612729846126db565b6126c0565b90508281526020810184848401111561274a5761274961265b565b5b61275584828561270c565b509392505050565b600082601f83011261277257612771612656565b5b813561278284826020860161271b565b91505092915050565b600080604083850312156127a2576127a16123b4565b5b60006127b08582860161254c565b925050602083013567ffffffffffffffff8111156127d1576127d06123b9565b5b6127dd8582860161275d565b9150509250929050565b6127f08161252b565b82525050565b600060208201905061280b60008301846127e7565b92915050565b60008060006060848603121561282a576128296123b4565b5b600061283886828701612601565b935050602061284986828701612601565b925050604061285a8682870161254c565b9150509250925092565b60006020828403121561287a576128796123b4565b5b600061288884828501612601565b91505092915050565b61289a81612443565b81146128a557600080fd5b50565b6000813590506128b781612891565b92915050565b600080604083850312156128d4576128d36123b4565b5b60006128e285828601612601565b92505060206128f3858286016128a8565b9150509250929050565b600067ffffffffffffffff82111561291857612917612660565b5b612921826124bf565b9050602081019050919050565b600061294161293c846128fd565b6126c0565b90508281526020810184848401111561295d5761295c61265b565b5b61296884828561270c565b509392505050565b600082601f83011261298557612984612656565b5b813561299584826020860161292e565b91505092915050565b600080600080608085870312156129b8576129b76123b4565b5b60006129c687828801612601565b94505060206129d787828801612601565b93505060406129e88782880161254c565b925050606085013567ffffffffffffffff811115612a0957612a086123b9565b5b612a1587828801612970565b91505092959194509250565b60008060408385031215612a3857612a376123b4565b5b6000612a4685828601612601565b9250506020612a5785828601612601565b9150509250929050565b7f4e487b7100000000000000000000000000000000000000000000000000000000600052602260045260246000fd5b60006002820490506001821680612aa857607f821691505b602082108103612abb57612aba612a61565b5b50919050565b6000606082019050612ad660008301866125c0565b612ae360208301856127e7565b612af060408301846125c0565b949350505050565b6000604082019050612b0d60008301856125c0565b612b1a60208301846127e7565b9392505050565b7f4e487b7100000000000000000000000000000000000000000000000000000000600052601160045260246000fd5b6000612b5b8261252b565b91507fffffffffffffffffffffffffffffffffffffffffffffffffffffffffffffffff8203612b8d57612b8c612b21565b5b600182019050919050565b7f4e487b7100000000000000000000000000000000000000000000000000000000600052603260045260246000fd5b60008190508160005260206000209050919050565b60006020601f8301049050919050565b600082821b905092915050565b600060088302612c297fffffffffffffffffffffffffffffffffffffffffffffffffffffffffffffffff82612bec565b612c338683612bec565b95508019841693508086168417925050509392505050565b6000819050919050565b6000612c70612c6b612c668461252b565b612c4b565b61252b565b9050919050565b6000819050919050565b612c8a83612c55565b612c9e612c9682612c77565b848454612bf9565b825550505050565b600090565b612cb3612ca6565b612cbe818484612c81565b505050565b5b81811015612ce257612cd7600082612cab565b600181019050612cc4565b5050565b601f821115612d2757612cf881612bc7565b612d0184612bdc565b81016020851015612d10578190505b612d24612d1c85612bdc565b830182612cc3565b50505b505050565b600082821c905092915050565b6000612d4a60001984600802612d2c565b1980831691505092915050565b6000612d638383612d39565b9150826002028217905092915050565b612d7c82612479565b67ffffffffffffffff811115612d9557612d94612660565b5b612d9f8254612a90565b612daa828285612ce6565b600060209050601f831160018114612ddd5760008415612dcb578287015190505b612dd58582612d57565b865550612e3d565b601f198416612deb86612bc7565b60005b82811015612e1357848901518255600182019150602085019450602081019050612dee565b86831015612e305784890151612e2c601f891682612d39565b8355505b6001600288020188555050505b505050505050565b600081519050919050565b600082825260208201905092915050565b6000612e6c82612e45565b612e768185612e50565b9350612e86818560208601612495565b612e8f816124bf565b840191505092915050565b6000608082019050612eaf60008301876125c0565b612ebc60208301866125c0565b612ec960408301856127e7565b8181036060830152612edb8184612e61565b905095945050505050565b600081519050612ef5816123ea565b92915050565b600060208284031215612f1157612f106123b4565b5b6000612f1f84828501612ee6565b91505092915050565b600081905092915050565b6000612f3e82612479565b612f488185612f28565b9350612f58818560208601612495565b80840191505092915050565b6000612f708285612f33565b9150612f7c8284612f33565b91508190509392505050565b7f4e487b7100000000000000000000000000000000000000000000000000000000600052601260045260246000fd5b6000612fc28261252b565b9150612fcd8361252b565b9250828203905081811115612fe557612fe4612b21565b5b92915050565b7f4e487b7100000000000000000000000000000000000000000000000000000000600052603160045260246000fdfea2646970667358221220a99dce32997dfe3345ee5fa9014d1c792af60941b62aa5cb6a7c78a1bc3d8b2364736f6c63430008180033",
  "linkReferences": {},
  "deployedLinkReferences": {}
}