{
  "_format": "hh-sol-artifact-1",
  "contractName": "SampleNFT1155",
  "sourceName": "contracts/ERC1155.sol",
  "abi": [
    {
      "inputs": [
        {
          "internalType": "address",
          "name": "initOwner",
          "type": "address"
        }
      ],
      "stateMutability": "nonpayable",
      "type": "constructor"
    },
    {
      "inputs": [
        {
          "internalType": "address",
          "name": "sender",
          "type": "address"
        },
        {
          "internalType": "uint256",
          "name": "balance",
          "type": "uint256"
        },
        {
          "internalType": "uint256",
          "name": "needed",
          "type": "uint256"
        },
        {
          "internalType": "uint256",
          "name": "tokenId",
          "type": "uint256"
        }
      ],
      "name": "ERC1155InsufficientBalance",
      "type": "error"
    },
    {
      "inputs": [
        {
          "internalType": "address",
          "name": "approver",
          "type": "address"
        }
      ],
      "name": "ERC1155InvalidApprover",
      "type": "error"
    },
    {
      "inputs": [
        {
          "internalType": "uint256",
          "name": "idsLength",
          "type": "uint256"
        },
        {
          "internalType": "uint256",
          "name": "valuesLength",
          "type": "uint256"
        }
      ],
      "name": "ERC1155InvalidArrayLength",
      "type": "error"
    },
    {
      "inputs": [
        {
          "internalType": "address",
          "name": "operator",
          "type": "address"
        }
      ],
      "name": "ERC1155InvalidOperator",
      "type": "error"
    },
    {
      "inputs": [
        {
          "internalType": "address",
          "name": "receiver",
          "type": "address"
        }
      ],
      "name": "ERC1155InvalidReceiver",
      "type": "error"
    },
    {
      "inputs": [
        {
          "internalType": "address",
          "name": "sender",
          "type": "address"
        }
      ],
      "name": "ERC1155InvalidSender",
      "type": "error"
    },
    {
      "inputs": [
        {
          "internalType": "address",
          "name": "operator",
          "type": "address"
        },
        {
          "internalType": "address",
          "name": "owner",
          "type": "address"
        }
      ],
      "name": "ERC1155MissingApprovalForAll",
      "type": "error"
    },
    {
      "inputs": [],
      "name": "EnforcedPause",
      "type": "error"
    },
    {
      "inputs": [],
      "name": "ExpectedPause",
      "type": "error"
    },
    {
      "inputs": [
        {
          "internalType": "address",
          "name": "owner",
          "type": "address"
        }
      ],
      "name": "OwnableInvalidOwner",
      "type": "error"
    },
    {
      "inputs": [
        {
          "internalType": "address",
          "name": "account",
          "type": "address"
        }
      ],
      "name": "OwnableUnauthorizedAccount",
      "type": "error"
    },
    {
      "anonymous": false,
      "inputs": [
        {
          "indexed": true,
          "internalType": "address",
          "name": "account",
          "type": "address"
        },
        {
          "indexed": true,
          "internalType": "address",
          "name": "operator",
          "type": "address"
        },
        {
          "indexed": false,
          "internalType": "bool",
          "name": "approved",
          "type": "bool"
        }
      ],
      "name": "ApprovalForAll",
      "type": "event"
    },
    {
      "anonymous": false,
      "inputs": [
        {
          "indexed": true,
          "internalType": "address",
          "name": "previousOwner",
          "type": "address"
        },
        {
          "indexed": true,
          "internalType": "address",
          "name": "newOwner",
          "type": "address"
        }
      ],
      "name": "OwnershipTransferred",
      "type": "event"
    },
    {
      "anonymous": false,
      "inputs": [
        {
          "indexed": false,
          "internalType": "address",
          "name": "account",
          "type": "address"
        }
      ],
      "name": "Paused",
      "type": "event"
    },
    {
      "anonymous": false,
      "inputs": [
        {
          "indexed": true,
          "internalType": "address",
          "name": "operator",
          "type": "address"
        },
        {
          "indexed": true,
          "internalType": "address",
          "name": "from",
          "type": "address"
        },
        {
          "indexed": true,
          "internalType": "address",
          "name": "to",
          "type": "address"
        },
        {
          "indexed": false,
          "internalType": "uint256[]",
          "name": "ids",
          "type": "uint256[]"
        },
        {
          "indexed": false,
          "internalType": "uint256[]",
          "name": "values",
          "type": "uint256[]"
        }
      ],
      "name": "TransferBatch",
      "type": "event"
    },
    {
      "anonymous": false,
      "inputs": [
        {
          "indexed": true,
          "internalType": "address",
          "name": "operator",
          "type": "address"
        },
        {
          "indexed": true,
          "internalType": "address",
          "name": "from",
          "type": "address"
        },
        {
          "indexed": true,
          "internalType": "address",
          "name": "to",
          "type": "address"
        },
        {
          "indexed": false,
          "internalType": "uint256",
          "name": "id",
          "type": "uint256"
        },
        {
          "indexed": false,
          "internalType": "uint256",
          "name": "value",
          "type": "uint256"
        }
      ],
      "name": "TransferSingle",
      "type": "event"
    },
    {
      "anonymous": false,
      "inputs": [
        {
          "indexed": false,
          "internalType": "string",
          "name": "value",
          "type": "string"
        },
        {
          "indexed": true,
          "internalType": "uint256",
          "name": "id",
          "type": "uint256"
        }
      ],
      "name": "URI",
      "type": "event"
    },
    {
      "anonymous": false,
      "inputs": [
        {
          "indexed": false,
          "internalType": "address",
          "name": "account",
          "type": "address"
        }
      ],
      "name": "Unpaused",
      "type": "event"
    },
    {
      "inputs": [
        {
          "internalType": "address",
          "name": "account",
          "type": "address"
        },
        {
          "internalType": "uint256",
          "name": "id",
          "type": "uint256"
        }
      ],
      "name": "balanceOf",
      "outputs": [
        {
          "internalType": "uint256",
          "name": "",
          "type": "uint256"
        }
      ],
      "stateMutability": "view",
      "type": "function"
    },
    {
      "inputs": [
        {
          "internalType": "address[]",
          "name": "accounts",
          "type": "address[]"
        },
        {
          "internalType": "uint256[]",
          "name": "ids",
          "type": "uint256[]"
        }
      ],
      "name": "balanceOfBatch",
      "outputs": [
        {
          "internalType": "uint256[]",
          "name": "",
          "type": "uint256[]"
        }
      ],
      "stateMutability": "view",
      "type": "function"
    },
    {
      "inputs": [
        {
          "internalType": "address",
          "name": "account",
          "type": "address"
        },
        {
          "internalType": "uint256",
          "name": "id",
          "type": "uint256"
        },
        {
          "internalType": "uint256",
          "name": "value",
          "type": "uint256"
        }
      ],
      "name": "burn",
      "outputs": [],
      "stateMutability": "nonpayable",
      "type": "function"
    },
    {
      "inputs": [
        {
          "internalType": "address",
          "name": "account",
          "type": "address"
        },
        {
          "internalType": "uint256[]",
          "name": "ids",
          "type": "uint256[]"
        },
        {
          "internalType": "uint256[]",
          "name": "values",
          "type": "uint256[]"
        }
      ],
      "name": "burnBatch",
      "outputs": [],
      "stateMutability": "nonpayable",
      "type": "function"
    },
    {
      "inputs": [
        {
          "internalType": "address",
          "name": "account",
          "type": "address"
        },
        {
          "internalType": "address",
          "name": "operator",
          "type": "address"
        }
      ],
      "name": "isApprovedForAll",
      "outputs": [
        {
          "internalType": "bool",
          "name": "",
          "type": "bool"
        }
      ],
      "stateMutability": "view",
      "type": "function"
    },
    {
      "inputs": [
        {
          "internalType": "address",
          "name": "to",
          "type": "address"
        },
        {
          "internalType": "uint256",
          "name": "id",
          "type": "uint256"
        },
        {
          "internalType": "uint256",
          "name": "value",
          "type": "uint256"
        },
        {
          "internalType": "bytes",
          "name": "data",
          "type": "bytes"
        }
      ],
      "name": "mint",
      "outputs": [],
      "stateMutability": "nonpayable",
      "type": "function"
    },
    {
      "inputs": [
        {
          "internalType": "address",
          "name": "to",
          "type": "address"
        },
        {
          "internalType": "uint256[]",
          "name": "ids",
          "type": "uint256[]"
        },
        {
          "internalType": "uint256[]",
          "name": "values",
          "type": "uint256[]"
        },
        {
          "internalType": "bytes",
          "name": "data",
          "type": "bytes"
        }
      ],
      "name": "mintBatch",
      "outputs": [],
      "stateMutability": "nonpayable",
      "type": "function"
    },
    {
      "inputs": [],
      "name": "owner",
      "outputs": [
        {
          "internalType": "address",
          "name": "",
          "type": "address"
        }
      ],
      "stateMutability": "view",
      "type": "function"
    },
    {
      "inputs": [],
      "name": "pause",
      "outputs": [],
      "stateMutability": "nonpayable",
      "type": "function"
    },
    {
      "inputs": [],
      "name": "paused",
      "outputs": [
        {
          "internalType": "bool",
          "name": "",
          "type": "bool"
        }
      ],
      "stateMutability": "view",
      "type": "function"
    },
    {
      "inputs": [],
      "name": "renounceOwnership",
      "outputs": [],
      "stateMutability": "nonpayable",
      "type": "function"
    },
    {
      "inputs": [
        {
          "internalType": "address",
          "name": "from",
          "type": "address"
        },
        {
          "internalType": "address",
          "name": "to",
          "type": "address"
        },
        {
          "internalType": "uint256[]",
          "name": "ids",
          "type": "uint256[]"
        },
        {
          "internalType": "uint256[]",
          "name": "values",
          "type": "uint256[]"
        },
        {
          "internalType": "bytes",
          "name": "data",
          "type": "bytes"
        }
      ],
      "name": "safeBatchTransferFrom",
      "outputs": [],
      "stateMutability": "nonpayable",
      "type": "function"
    },
    {
      "inputs": [
        {
          "internalType": "address",
          "name": "from",
          "type": "address"
        },
        {
          "internalType": "address",
          "name": "to",
          "type": "address"
        },
        {
          "internalType": "uint256",
          "name": "id",
          "type": "uint256"
        },
        {
          "internalType": "uint256",
          "name": "value",
          "type": "uint256"
        },
        {
          "internalType": "bytes",
          "name": "data",
          "type": "bytes"
        }
      ],
      "name": "safeTransferFrom",
      "outputs": [],
      "stateMutability": "nonpayable",
      "type": "function"
    },
    {
      "inputs": [
        {
          "internalType": "address",
          "name": "operator",
          "type": "address"
        },
        {
          "internalType": "bool",
          "name": "approved",
          "type": "bool"
        }
      ],
      "name": "setApprovalForAll",
      "outputs": [],
      "stateMutability": "nonpayable",
      "type": "function"
    },
    {
      "inputs": [
        {
          "internalType": "string",
          "name": "baseURI",
          "type": "string"
        }
      ],
      "name": "setBaseURI",
      "outputs": [],
      "stateMutability": "nonpayable",
      "type": "function"
    },
    {
      "inputs": [
        {
          "internalType": "uint256",
          "name": "tokenId",
          "type": "uint256"
        },
        {
          "internalType": "string",
          "name": "tokenURI",
          "type": "string"
        }
      ],
      "name": "setURI",
      "outputs": [],
      "stateMutability": "nonpayable",
      "type": "function"
    },
    {
      "inputs": [
        {
          "internalType": "bytes4",
          "name": "interfaceId",
          "type": "bytes4"
        }
      ],
      "name": "supportsInterface",
      "outputs": [
        {
          "internalType": "bool",
          "name": "",
          "type": "bool"
        }
      ],
      "stateMutability": "view",
      "type": "function"
    },
    {
      "inputs": [
        {
          "internalType": "address",
          "name": "newOwner",
          "type": "address"
        }
      ],
      "name": "transferOwnership",
      "outputs": [],
      "stateMutability": "nonpayable",
      "type": "function"
    },
    {
      "inputs": [],
      "name": "unpause",
      "outputs": [],
      "stateMutability": "nonpayable",
      "type": "function"
    },
    {
      "inputs": [
        {
          "internalType": "uint256",
          "name": "tokenId",
          "type": "uint256"
        }
      ],
      "name": "uri",
      "outputs": [
        {
          "internalType": "string",
          "name": "",
          "type": "string"
        }
      ],
      "stateMutability": "view",
      "type": "function"
    }
  ],
  "bytecode": "0x608060405260405180602001604052806000815250600390816200002491906200049f565b503480156200003257600080fd5b5060405162003751380380620037518339818101604052810190620000589190620005f0565b806040518060400160405280601581526020017f68747470733a2f2f697066732e696f2f697066732f0000000000000000000000815250620000a0816200014a60201b60201c565b506000600560006101000a81548160ff021916908315150217905550600073ffffffffffffffffffffffffffffffffffffffff168173ffffffffffffffffffffffffffffffffffffffff1603620001315760006040517f1e4fbdf700000000000000000000000000000000000000000000000000000000815260040162000128919062000633565b60405180910390fd5b62000142816200015f60201b60201c565b505062000650565b80600290816200015b91906200049f565b5050565b6000600560019054906101000a900473ffffffffffffffffffffffffffffffffffffffff16905081600560016101000a81548173ffffffffffffffffffffffffffffffffffffffff021916908373ffffffffffffffffffffffffffffffffffffffff1602179055508173ffffffffffffffffffffffffffffffffffffffff168173ffffffffffffffffffffffffffffffffffffffff167f8be0079c531659141344cd1fd0a4f28419497f9722a3daafe3b4186f6b6457e060405160405180910390a35050565b600081519050919050565b7f4e487b7100000000000000000000000000000000000000000000000000000000600052604160045260246000fd5b7f4e487b7100000000000000000000000000000000000000000000000000000000600052602260045260246000fd5b60006002820490506001821680620002a757607f821691505b602082108103620002bd57620002bc6200025f565b5b50919050565b60008190508160005260206000209050919050565b60006020601f8301049050919050565b600082821b905092915050565b600060088302620003277fffffffffffffffffffffffffffffffffffffffffffffffffffffffffffffffff82620002e8565b620003338683620002e8565b95508019841693508086168417925050509392505050565b6000819050919050565b6000819050919050565b6000620003806200037a62000374846200034b565b62000355565b6200034b565b9050919050565b6000819050919050565b6200039c836200035f565b620003b4620003ab8262000387565b848454620002f5565b825550505050565b600090565b620003cb620003bc565b620003d881848462000391565b505050565b5b818110156200040057620003f4600082620003c1565b600181019050620003de565b5050565b601f8211156200044f576200041981620002c3565b6200042484620002d8565b8101602085101562000434578190505b6200044c6200044385620002d8565b830182620003dd565b50505b505050565b600082821c905092915050565b6000620004746000198460080262000454565b1980831691505092915050565b60006200048f838362000461565b9150826002028217905092915050565b620004aa8262000225565b67ffffffffffffffff811115620004c657620004c562000230565b5b620004d282546200028e565b620004df82828562000404565b600060209050601f83116001811462000517576000841562000502578287015190505b6200050e858262000481565b8655506200057e565b601f1984166200052786620002c3565b60005b8281101562000551578489015182556001820191506020850194506020810190506200052a565b868310156200057157848901516200056d601f89168262000461565b8355505b6001600288020188555050505b505050505050565b600080fd5b600073ffffffffffffffffffffffffffffffffffffffff82169050919050565b6000620005b8826200058b565b9050919050565b620005ca81620005ab565b8114620005d657600080fd5b50565b600081519050620005ea81620005bf565b92915050565b60006020828403121562000609576200060862000586565b5b60006200061984828501620005d9565b91505092915050565b6200062d81620005ab565b82525050565b60006020820190506200064a600083018462000622565b92915050565b6130f180620006606000396000f3fe608060405234801561001057600080fd5b506004361061012b5760003560e01c8063715018a6116100ad578063a22cb46511610071578063a22cb465146102f2578063e985e9c51461030e578063f242432a1461033e578063f2fde38b1461035a578063f5298aca146103765761012b565b8063715018a614610288578063731133e9146102925780638456cb59146102ae578063862440e2146102b85780638da5cb5b146102d45761012b565b80633f4ba83a116100f45780633f4ba83a146101f85780634e1273f41461020257806355f804b3146102325780635c975abb1461024e5780636b20c4541461026c5761012b565b8062fdd58e1461013057806301ffc9a7146101605780630e89341c146101905780631f7fdffa146101c05780632eb2c2d6146101dc575b600080fd5b61014a60048036038101906101459190611e5a565b610392565b6040516101579190611ea9565b60405180910390f35b61017a60048036038101906101759190611f1c565b6103ec565b6040516101879190611f64565b60405180910390f35b6101aa60048036038101906101a59190611f7f565b6104ce565b6040516101b7919061203c565b60405180910390f35b6101da60048036038101906101d5919061225b565b6104e0565b005b6101f660048036038101906101f19190612316565b6104fa565b005b6102006105a2565b005b61021c600480360381019061021791906124a8565b6105bc565b60405161022991906125de565b60405180910390f35b61024c600480360381019061024791906126a1565b6106c5565b005b6102566106d9565b6040516102639190611f64565b60405180910390f35b610286600480360381019061028191906126ea565b6106f0565b005b61029061079c565b005b6102ac60048036038101906102a79190612775565b6107b0565b005b6102b66107ca565b005b6102d260048036038101906102cd91906127f8565b6107e4565b005b6102dc6107fa565b6040516102e99190612863565b60405180910390f35b61030c600480360381019061030791906128aa565b610824565b005b610328600480360381019061032391906128ea565b61083a565b6040516103359190611f64565b60405180910390f35b6103586004803603810190610353919061292a565b6108ce565b005b610374600480360381019061036f91906129c1565b610976565b005b610390600480360381019061038b91906129ee565b6109fc565b005b600080600083815260200190815260200160002060008473ffffffffffffffffffffffffffffffffffffffff1673ffffffffffffffffffffffffffffffffffffffff16815260200190815260200160002054905092915050565b60007fd9b67a26000000000000000000000000000000000000000000000000000000007bffffffffffffffffffffffffffffffffffffffffffffffffffffffff1916827bffffffffffffffffffffffffffffffffffffffffffffffffffffffff191614806104b757507f0e89341c000000000000000000000000000000000000000000000000000000007bffffffffffffffffffffffffffffffffffffffffffffffffffffffff1916827bffffffffffffffffffffffffffffffffffffffffffffffffffffffff1916145b806104c757506104c682610aa8565b5b9050919050565b60606104d982610b12565b9050919050565b6104e8610bf7565b6104f484848484610c7e565b50505050565b6000610504610d04565b90508073ffffffffffffffffffffffffffffffffffffffff168673ffffffffffffffffffffffffffffffffffffffff16141580156105495750610547868261083a565b155b1561058d5780866040517fe237d922000000000000000000000000000000000000000000000000000000008152600401610584929190612a41565b60405180910390fd5b61059a8686868686610d0c565b505050505050565b6105aa610bf7565b6105b2610e04565b6105ba610e44565b565b6060815183511461060857815183516040517f5b0599910000000000000000000000000000000000000000000000000000000081526004016105ff929190612a6a565b60405180910390fd5b6000835167ffffffffffffffff81111561062557610624612063565b5b6040519080825280602002602001820160405280156106535781602001602082028036833780820191505090505b50905060005b84518110156106ba576106906106788287610ea790919063ffffffff16565b61068b8387610ebb90919063ffffffff16565b610392565b8282815181106106a3576106a2612a93565b5b602002602001018181525050806001019050610659565b508091505092915050565b6106cd610bf7565b6106d681610ecf565b50565b6000600560009054906101000a900460ff16905090565b6106f8610d04565b73ffffffffffffffffffffffffffffffffffffffff168373ffffffffffffffffffffffffffffffffffffffff1614158015610741575061073f8361073a610d04565b61083a565b155b1561078c5761074e610d04565b836040517fe237d922000000000000000000000000000000000000000000000000000000008152600401610783929190612a41565b60405180910390fd5b610797838383610ee2565b505050565b6107a4610bf7565b6107ae6000610f76565b565b6107b8610bf7565b6107c48484848461103c565b50505050565b6107d2610bf7565b6107da6110d5565b6107e2611116565b565b6107ec610bf7565b6107f68282611179565b5050565b6000600560019054906101000a900473ffffffffffffffffffffffffffffffffffffffff16905090565b61083661082f610d04565b83836111de565b5050565b6000600160008473ffffffffffffffffffffffffffffffffffffffff1673ffffffffffffffffffffffffffffffffffffffff16815260200190815260200160002060008373ffffffffffffffffffffffffffffffffffffffff1673ffffffffffffffffffffffffffffffffffffffff16815260200190815260200160002060009054906101000a900460ff16905092915050565b60006108d8610d04565b90508073ffffffffffffffffffffffffffffffffffffffff168673ffffffffffffffffffffffffffffffffffffffff161415801561091d575061091b868261083a565b155b156109615780866040517fe237d922000000000000000000000000000000000000000000000000000000008152600401610958929190612a41565b60405180910390fd5b61096e868686868661134e565b505050505050565b61097e610bf7565b600073ffffffffffffffffffffffffffffffffffffffff168173ffffffffffffffffffffffffffffffffffffffff16036109f05760006040517f1e4fbdf70000000000000000000000000000000000000000000000000000000081526004016109e79190612863565b60405180910390fd5b6109f981610f76565b50565b610a04610d04565b73ffffffffffffffffffffffffffffffffffffffff168373ffffffffffffffffffffffffffffffffffffffff1614158015610a4d5750610a4b83610a46610d04565b61083a565b155b15610a9857610a5a610d04565b836040517fe237d922000000000000000000000000000000000000000000000000000000008152600401610a8f929190612a41565b60405180910390fd5b610aa3838383611459565b505050565b60007f01ffc9a7000000000000000000000000000000000000000000000000000000007bffffffffffffffffffffffffffffffffffffffffffffffffffffffff1916827bffffffffffffffffffffffffffffffffffffffffffffffffffffffff1916149050919050565b60606000600460008481526020019081526020016000208054610b3490612af1565b80601f0160208091040260200160405190810160405280929190818152602001828054610b6090612af1565b8015610bad5780601f10610b8257610100808354040283529160200191610bad565b820191906000526020600020905b815481529060010190602001808311610b9057829003601f168201915b505050505090506000815111610bcb57610bc683611500565b610bef565b600381604051602001610bdf929190612bf6565b6040516020818303038152906040525b915050919050565b610bff610d04565b73ffffffffffffffffffffffffffffffffffffffff16610c1d6107fa565b73ffffffffffffffffffffffffffffffffffffffff1614610c7c57610c40610d04565b6040517f118cdaa7000000000000000000000000000000000000000000000000000000008152600401610c739190612863565b60405180910390fd5b565b600073ffffffffffffffffffffffffffffffffffffffff168473ffffffffffffffffffffffffffffffffffffffff1603610cf05760006040517f57f447ce000000000000000000000000000000000000000000000000000000008152600401610ce79190612863565b60405180910390fd5b610cfe600085858585611594565b50505050565b600033905090565b600073ffffffffffffffffffffffffffffffffffffffff168473ffffffffffffffffffffffffffffffffffffffff1603610d7e5760006040517f57f447ce000000000000000000000000000000000000000000000000000000008152600401610d759190612863565b60405180910390fd5b600073ffffffffffffffffffffffffffffffffffffffff168573ffffffffffffffffffffffffffffffffffffffff1603610df05760006040517f01a83514000000000000000000000000000000000000000000000000000000008152600401610de79190612863565b60405180910390fd5b610dfd8585858585611594565b5050505050565b610e0c6106d9565b610e42576040517f8dfc202b00000000000000000000000000000000000000000000000000000000815260040160405180910390fd5b565b610e4c610e04565b6000600560006101000a81548160ff0219169083151502179055507f5db9ee0a495bf2e6ff9c91a7834c1ba4fdd244a5e8aa4e537bd38aeae4b073aa610e90610d04565b604051610e9d9190612863565b60405180910390a1565b600060208202602084010151905092915050565b600060208202602084010151905092915050565b8060039081610ede9190612db1565b5050565b600073ffffffffffffffffffffffffffffffffffffffff168373ffffffffffffffffffffffffffffffffffffffff1603610f545760006040517f01a83514000000000000000000000000000000000000000000000000000000008152600401610f4b9190612863565b60405180910390fd5b610f71836000848460405180602001604052806000815250611594565b505050565b6000600560019054906101000a900473ffffffffffffffffffffffffffffffffffffffff16905081600560016101000a81548173ffffffffffffffffffffffffffffffffffffffff021916908373ffffffffffffffffffffffffffffffffffffffff1602179055508173ffffffffffffffffffffffffffffffffffffffff168173ffffffffffffffffffffffffffffffffffffffff167f8be0079c531659141344cd1fd0a4f28419497f9722a3daafe3b4186f6b6457e060405160405180910390a35050565b600073ffffffffffffffffffffffffffffffffffffffff168473ffffffffffffffffffffffffffffffffffffffff16036110ae5760006040517f57f447ce0000000000000000000000000000000000000000000000000000000081526004016110a59190612863565b60405180910390fd5b6000806110bb8585611646565b915091506110cd600087848487611594565b505050505050565b6110dd6106d9565b15611114576040517fd93c066500000000000000000000000000000000000000000000000000000000815260040160405180910390fd5b565b61111e6110d5565b6001600560006101000a81548160ff0219169083151502179055507f62e78cea01bee320cd4e420270b5ea74000d11b0c9f74754ebdbfc544b05a258611162610d04565b60405161116f9190612863565b60405180910390a1565b806004600084815260200190815260200160002090816111999190612db1565b50817f6bb7ff708619ba0610cba295a58592e0451dee2622938c8755667688daf3529b6111c5846104ce565b6040516111d2919061203c565b60405180910390a25050565b600073ffffffffffffffffffffffffffffffffffffffff168273ffffffffffffffffffffffffffffffffffffffff16036112505760006040517fced3e1000000000000000000000000000000000000000000000000000000000081526004016112479190612863565b60405180910390fd5b80600160008573ffffffffffffffffffffffffffffffffffffffff1673ffffffffffffffffffffffffffffffffffffffff16815260200190815260200160002060008473ffffffffffffffffffffffffffffffffffffffff1673ffffffffffffffffffffffffffffffffffffffff16815260200190815260200160002060006101000a81548160ff0219169083151502179055508173ffffffffffffffffffffffffffffffffffffffff168373ffffffffffffffffffffffffffffffffffffffff167f17307eab39ab6107e8899845ad3d59bd9653f200f220920489ca2b5937696c31836040516113419190611f64565b60405180910390a3505050565b600073ffffffffffffffffffffffffffffffffffffffff168473ffffffffffffffffffffffffffffffffffffffff16036113c05760006040517f57f447ce0000000000000000000000000000000000000000000000000000000081526004016113b79190612863565b60405180910390fd5b600073ffffffffffffffffffffffffffffffffffffffff168573ffffffffffffffffffffffffffffffffffffffff16036114325760006040517f01a835140000000000000000000000000000000000000000000000000000000081526004016114299190612863565b60405180910390fd5b60008061143f8585611646565b915091506114508787848487611594565b50505050505050565b600073ffffffffffffffffffffffffffffffffffffffff168373ffffffffffffffffffffffffffffffffffffffff16036114cb5760006040517f01a835140000000000000000000000000000000000000000000000000000000081526004016114c29190612863565b60405180910390fd5b6000806114d88484611646565b915091506114f9856000848460405180602001604052806000815250611594565b5050505050565b60606002805461150f90612af1565b80601f016020809104026020016040519081016040528092919081815260200182805461153b90612af1565b80156115885780601f1061155d57610100808354040283529160200191611588565b820191906000526020600020905b81548152906001019060200180831161156b57829003601f168201915b50505050509050919050565b6115a085858585611676565b600073ffffffffffffffffffffffffffffffffffffffff168473ffffffffffffffffffffffffffffffffffffffff161461163f5760006115de610d04565b9050600184510361162e5760006115ff600086610ebb90919063ffffffff16565b90506000611617600086610ebb90919063ffffffff16565b9050611627838989858589611688565b505061163d565b61163c81878787878761183c565b5b505b5050505050565b60608060405191506001825283602083015260408201905060018152826020820152604081016040529250929050565b611682848484846119f0565b50505050565b60008473ffffffffffffffffffffffffffffffffffffffff163b1115611834578373ffffffffffffffffffffffffffffffffffffffff1663f23a6e6187878686866040518663ffffffff1660e01b81526004016116e9959493929190612ed8565b6020604051808303816000875af192505050801561172557506040513d601f19601f820116820180604052508101906117229190612f47565b60015b6117a9573d8060008114611755576040519150601f19603f3d011682016040523d82523d6000602084013e61175a565b606091505b5060008151036117a157846040517f57f447ce0000000000000000000000000000000000000000000000000000000081526004016117989190612863565b60405180910390fd5b805181602001fd5b63f23a6e6160e01b7bffffffffffffffffffffffffffffffffffffffffffffffffffffffff1916817bffffffffffffffffffffffffffffffffffffffffffffffffffffffff19161461183257846040517f57f447ce0000000000000000000000000000000000000000000000000000000081526004016118299190612863565b60405180910390fd5b505b505050505050565b60008473ffffffffffffffffffffffffffffffffffffffff163b11156119e8578373ffffffffffffffffffffffffffffffffffffffff1663bc197c8187878686866040518663ffffffff1660e01b815260040161189d959493929190612f74565b6020604051808303816000875af19250505080156118d957506040513d601f19601f820116820180604052508101906118d69190612f47565b60015b61195d573d8060008114611909576040519150601f19603f3d011682016040523d82523d6000602084013e61190e565b606091505b50600081510361195557846040517f57f447ce00000000000000000000000000000000000000000000000000000000815260040161194c9190612863565b60405180910390fd5b805181602001fd5b63bc197c8160e01b7bffffffffffffffffffffffffffffffffffffffffffffffffffffffff1916817bffffffffffffffffffffffffffffffffffffffffffffffffffffffff1916146119e657846040517f57f447ce0000000000000000000000000000000000000000000000000000000081526004016119dd9190612863565b60405180910390fd5b505b505050505050565b6119f86110d5565b611a0484848484611a0a565b50505050565b8051825114611a5457815181516040517f5b059991000000000000000000000000000000000000000000000000000000008152600401611a4b929190612a6a565b60405180910390fd5b6000611a5e610d04565b905060005b8351811015611c6d576000611a818286610ebb90919063ffffffff16565b90506000611a988386610ebb90919063ffffffff16565b9050600073ffffffffffffffffffffffffffffffffffffffff168873ffffffffffffffffffffffffffffffffffffffff1614611bc557600080600084815260200190815260200160002060008a73ffffffffffffffffffffffffffffffffffffffff1673ffffffffffffffffffffffffffffffffffffffff16815260200190815260200160002054905081811015611b6d57888183856040517f03dee4c5000000000000000000000000000000000000000000000000000000008152600401611b649493929190612fdc565b60405180910390fd5b81810360008085815260200190815260200160002060008b73ffffffffffffffffffffffffffffffffffffffff1673ffffffffffffffffffffffffffffffffffffffff16815260200190815260200160002081905550505b600073ffffffffffffffffffffffffffffffffffffffff168773ffffffffffffffffffffffffffffffffffffffff1614611c60578060008084815260200190815260200160002060008973ffffffffffffffffffffffffffffffffffffffff1673ffffffffffffffffffffffffffffffffffffffff1681526020019081526020016000206000828254611c589190613050565b925050819055505b5050806001019050611a63565b506001835103611d2c576000611c8d600085610ebb90919063ffffffff16565b90506000611ca5600085610ebb90919063ffffffff16565b90508573ffffffffffffffffffffffffffffffffffffffff168773ffffffffffffffffffffffffffffffffffffffff168473ffffffffffffffffffffffffffffffffffffffff167fc3d58168c5ae7397731d063d5bbf3d657854427343f4c083240f7aacaa2d0f628585604051611d1d929190612a6a565b60405180910390a45050611dab565b8373ffffffffffffffffffffffffffffffffffffffff168573ffffffffffffffffffffffffffffffffffffffff168273ffffffffffffffffffffffffffffffffffffffff167f4a39dc06d4c0dbc64b70af90fd698a233a518aa5d07e595d983b8c0526c8f7fb8686604051611da2929190613084565b60405180910390a45b5050505050565b6000604051905090565b600080fd5b600080fd5b600073ffffffffffffffffffffffffffffffffffffffff82169050919050565b6000611df182611dc6565b9050919050565b611e0181611de6565b8114611e0c57600080fd5b50565b600081359050611e1e81611df8565b92915050565b6000819050919050565b611e3781611e24565b8114611e4257600080fd5b50565b600081359050611e5481611e2e565b92915050565b60008060408385031215611e7157611e70611dbc565b5b6000611e7f85828601611e0f565b9250506020611e9085828601611e45565b9150509250929050565b611ea381611e24565b82525050565b6000602082019050611ebe6000830184611e9a565b92915050565b60007fffffffff0000000000000000000000000000000000000000000000000000000082169050919050565b611ef981611ec4565b8114611f0457600080fd5b50565b600081359050611f1681611ef0565b92915050565b600060208284031215611f3257611f31611dbc565b5b6000611f4084828501611f07565b91505092915050565b60008115159050919050565b611f5e81611f49565b82525050565b6000602082019050611f796000830184611f55565b92915050565b600060208284031215611f9557611f94611dbc565b5b6000611fa384828501611e45565b91505092915050565b600081519050919050565b600082825260208201905092915050565b60005b83811015611fe6578082015181840152602081019050611fcb565b60008484015250505050565b6000601f19601f8301169050919050565b600061200e82611fac565b6120188185611fb7565b9350612028818560208601611fc8565b61203181611ff2565b840191505092915050565b600060208201905081810360008301526120568184612003565b905092915050565b600080fd5b7f4e487b7100000000000000000000000000000000000000000000000000000000600052604160045260246000fd5b61209b82611ff2565b810181811067ffffffffffffffff821117156120ba576120b9612063565b5b80604052505050565b60006120cd611db2565b90506120d98282612092565b919050565b600067ffffffffffffffff8211156120f9576120f8612063565b5b602082029050602081019050919050565b600080fd5b600061212261211d846120de565b6120c3565b905080838252602082019050602084028301858111156121455761214461210a565b5b835b8181101561216e578061215a8882611e45565b845260208401935050602081019050612147565b5050509392505050565b600082601f83011261218d5761218c61205e565b5b813561219d84826020860161210f565b91505092915050565b600080fd5b600067ffffffffffffffff8211156121c6576121c5612063565b5b6121cf82611ff2565b9050602081019050919050565b82818337600083830152505050565b60006121fe6121f9846121ab565b6120c3565b90508281526020810184848401111561221a576122196121a6565b5b6122258482856121dc565b509392505050565b600082601f8301126122425761224161205e565b5b81356122528482602086016121eb565b91505092915050565b6000806000806080858703121561227557612274611dbc565b5b600061228387828801611e0f565b945050602085013567ffffffffffffffff8111156122a4576122a3611dc1565b5b6122b087828801612178565b935050604085013567ffffffffffffffff8111156122d1576122d0611dc1565b5b6122dd87828801612178565b925050606085013567ffffffffffffffff8111156122fe576122fd611dc1565b5b61230a8782880161222d565b91505092959194509250565b600080600080600060a0868803121561233257612331611dbc565b5b600061234088828901611e0f565b955050602061235188828901611e0f565b945050604086013567ffffffffffffffff81111561237257612371611dc1565b5b61237e88828901612178565b935050606086013567ffffffffffffffff81111561239f5761239e611dc1565b5b6123ab88828901612178565b925050608086013567ffffffffffffffff8111156123cc576123cb611dc1565b5b6123d88882890161222d565b9150509295509295909350565b600067ffffffffffffffff821115612400576123ff612063565b5b602082029050602081019050919050565b600061242461241f846123e5565b6120c3565b905080838252602082019050602084028301858111156124475761244661210a565b5b835b81811015612470578061245c8882611e0f565b845260208401935050602081019050612449565b5050509392505050565b600082601f83011261248f5761248e61205e565b5b813561249f848260208601612411565b91505092915050565b600080604083850312156124bf576124be611dbc565b5b600083013567ffffffffffffffff8111156124dd576124dc611dc1565b5b6124e98582860161247a565b925050602083013567ffffffffffffffff81111561250a57612509611dc1565b5b61251685828601612178565b9150509250929050565b600081519050919050565b600082825260208201905092915050565b6000819050602082019050919050565b61255581611e24565b82525050565b6000612567838361254c565b60208301905092915050565b6000602082019050919050565b600061258b82612520565b612595818561252b565b93506125a08361253c565b8060005b838110156125d15781516125b8888261255b565b97506125c383612573565b9250506001810190506125a4565b5085935050505092915050565b600060208201905081810360008301526125f88184612580565b905092915050565b600067ffffffffffffffff82111561261b5761261a612063565b5b61262482611ff2565b9050602081019050919050565b600061264461263f84612600565b6120c3565b9050828152602081018484840111156126605761265f6121a6565b5b61266b8482856121dc565b509392505050565b600082601f8301126126885761268761205e565b5b8135612698848260208601612631565b91505092915050565b6000602082840312156126b7576126b6611dbc565b5b600082013567ffffffffffffffff8111156126d5576126d4611dc1565b5b6126e184828501612673565b91505092915050565b60008060006060848603121561270357612702611dbc565b5b600061271186828701611e0f565b935050602084013567ffffffffffffffff81111561273257612731611dc1565b5b61273e86828701612178565b925050604084013567ffffffffffffffff81111561275f5761275e611dc1565b5b61276b86828701612178565b9150509250925092565b6000806000806080858703121561278f5761278e611dbc565b5b600061279d87828801611e0f565b94505060206127ae87828801611e45565b93505060406127bf87828801611e45565b925050606085013567ffffffffffffffff8111156127e0576127df611dc1565b5b6127ec8782880161222d565b91505092959194509250565b6000806040838503121561280f5761280e611dbc565b5b600061281d85828601611e45565b925050602083013567ffffffffffffffff81111561283e5761283d611dc1565b5b61284a85828601612673565b9150509250929050565b61285d81611de6565b82525050565b60006020820190506128786000830184612854565b92915050565b61288781611f49565b811461289257600080fd5b50565b6000813590506128a48161287e565b92915050565b600080604083850312156128c1576128c0611dbc565b5b60006128cf85828601611e0f565b92505060206128e085828601612895565b9150509250929050565b6000806040838503121561290157612900611dbc565b5b600061290f85828601611e0f565b925050602061292085828601611e0f565b9150509250929050565b600080600080600060a0868803121561294657612945611dbc565b5b600061295488828901611e0f565b955050602061296588828901611e0f565b945050604061297688828901611e45565b935050606061298788828901611e45565b925050608086013567ffffffffffffffff8111156129a8576129a7611dc1565b5b6129b48882890161222d565b9150509295509295909350565b6000602082840312156129d7576129d6611dbc565b5b60006129e584828501611e0f565b91505092915050565b600080600060608486031215612a0757612a06611dbc565b5b6000612a1586828701611e0f565b9350506020612a2686828701611e45565b9250506040612a3786828701611e45565b9150509250925092565b6000604082019050612a566000830185612854565b612a636020830184612854565b9392505050565b6000604082019050612a7f6000830185611e9a565b612a8c6020830184611e9a565b9392505050565b7f4e487b7100000000000000000000000000000000000000000000000000000000600052603260045260246000fd5b7f4e487b7100000000000000000000000000000000000000000000000000000000600052602260045260246000fd5b60006002820490506001821680612b0957607f821691505b602082108103612b1c57612b1b612ac2565b5b50919050565b600081905092915050565b60008190508160005260206000209050919050565b60008154612b4f81612af1565b612b598186612b22565b94506001821660008114612b745760018114612b8957612bbc565b60ff1983168652811515820286019350612bbc565b612b9285612b2d565b60005b83811015612bb457815481890152600182019150602081019050612b95565b838801955050505b50505092915050565b6000612bd082611fac565b612bda8185612b22565b9350612bea818560208601611fc8565b80840191505092915050565b6000612c028285612b42565b9150612c0e8284612bc5565b91508190509392505050565b60006020601f8301049050919050565b600082821b905092915050565b600060088302612c677fffffffffffffffffffffffffffffffffffffffffffffffffffffffffffffffff82612c2a565b612c718683612c2a565b95508019841693508086168417925050509392505050565b6000819050919050565b6000612cae612ca9612ca484611e24565b612c89565b611e24565b9050919050565b6000819050919050565b612cc883612c93565b612cdc612cd482612cb5565b848454612c37565b825550505050565b600090565b612cf1612ce4565b612cfc818484612cbf565b505050565b5b81811015612d2057612d15600082612ce9565b600181019050612d02565b5050565b601f821115612d6557612d3681612b2d565b612d3f84612c1a565b81016020851015612d4e578190505b612d62612d5a85612c1a565b830182612d01565b50505b505050565b600082821c905092915050565b6000612d8860001984600802612d6a565b1980831691505092915050565b6000612da18383612d77565b9150826002028217905092915050565b612dba82611fac565b67ffffffffffffffff811115612dd357612dd2612063565b5b612ddd8254612af1565b612de8828285612d24565b600060209050601f831160018114612e1b5760008415612e09578287015190505b612e138582612d95565b865550612e7b565b601f198416612e2986612b2d565b60005b82811015612e5157848901518255600182019150602085019450602081019050612e2c565b86831015612e6e5784890151612e6a601f891682612d77565b8355505b6001600288020188555050505b505050505050565b600081519050919050565b600082825260208201905092915050565b6000612eaa82612e83565b612eb48185612e8e565b9350612ec4818560208601611fc8565b612ecd81611ff2565b840191505092915050565b600060a082019050612eed6000830188612854565b612efa6020830187612854565b612f076040830186611e9a565b612f146060830185611e9a565b8181036080830152612f268184612e9f565b90509695505050505050565b600081519050612f4181611ef0565b92915050565b600060208284031215612f5d57612f5c611dbc565b5b6000612f6b84828501612f32565b91505092915050565b600060a082019050612f896000830188612854565b612f966020830187612854565b8181036040830152612fa88186612580565b90508181036060830152612fbc8185612580565b90508181036080830152612fd08184612e9f565b90509695505050505050565b6000608082019050612ff16000830187612854565b612ffe6020830186611e9a565b61300b6040830185611e9a565b6130186060830184611e9a565b95945050505050565b7f4e487b7100000000000000000000000000000000000000000000000000000000600052601160045260246000fd5b600061305b82611e24565b915061306683611e24565b925082820190508082111561307e5761307d613021565b5b92915050565b6000604082019050818103600083015261309e8185612580565b905081810360208301526130b28184612580565b9050939250505056fea2646970667358221220702203a9384c07e8533ea39f73f2d0b62254c30bfa90046159d5186940f8ea6264736f6c63430008180033",
  "linkReferences": {},
  "deployedLinkReferences": {}
}